{
	"data": {
		"bytecode": {
			"linkReferences": {},
			"object": "60803462000366576001600160401b039060409080820183811182821017620002785782526013815260207f434f4d42494e452d4e554d4245522d5445535400000000000000000000000000818301528251938385018581108282111762000278578452600485526310d0939560e21b8286015282518181116200027857600254906001948583811c931680156200035b575b8584101462000257578190601f9384811162000304575b5085908483116001146200029a576000926200028e575b5050600019600383901b1c191690851b176002555b8551918211620002785760039283548581811c911680156200026d575b8282101462000257578281116200020c575b5080918311600114620001a15750819293949560009262000195575b505060001982841b1c191690831b1790555b600055600854903360018060a01b03198316176008555190339060018060a01b03167f8be0079c531659141344cd1fd0a4f28419497f9722a3daafe3b4186f6b6457e0600080a3600060095560ff19600a5416600a5561433b90816200036c8239f35b01519050388062000120565b90601f198316968460005282600020926000905b898210620001f45750508386979896959610620001db575b505050811b01905562000132565b015160001983861b60f8161c19169055388080620001cd565b808885968294968601518155019501930190620001b5565b84600052816000208380860160051c8201928487106200024d575b0160051c019086905b8281106200024057505062000104565b6000815501869062000230565b9250819262000227565b634e487b7160e01b600052602260045260246000fd5b90607f1690620000f2565b634e487b7160e01b600052604160045260246000fd5b015190503880620000c0565b90879350601f198316916002600052876000209260005b89828210620002ed5750508411620002d3575b505050811b01600255620000d5565b015160001960f88460031b161c19169055388080620002c4565b8385015186558b97909501949384019301620002b1565b9091506002600052856000208480850160051c82019288861062000351575b918991869594930160051c01915b82811062000341575050620000a9565b6000815585945089910162000331565b9250819262000323565b92607f169262000092565b600080fdfe6080604052600436101561001257600080fd5b60003560e01c806301ffc9a7146101f757806306fdde03146101f2578063081812fc146101ed578063095ea7b3146101e85780630ff4c916146101e357806318160ddd146101de57806321cf7ecf146101d957806323b872dd146101d457806325e514c6146101cf57806335c53541146101ca57806337c5fa0d146101c55780633ccfd60b146101c057806342842e0e146101bb5780636352211e146101b657806370a08231146101b1578063715018a6146101ac5780638da5cb5b146101a75780638ef9ae59146101a257806395d89b411461019d5780639659867e146101985780639ac9f2a014610193578063a035b1fe1461018e578063a0712d6814610189578063a22cb46514610184578063b88d4fde1461017f578063b8be6e981461017a578063bf205ebc14610175578063c87b56dd14610170578063e985e9c51461016b5763f2fde38b1461016657600080fd5b611041565b610fe4565b610f33565b610f17565b610d5c565b610cd8565b610c2e565b610b18565b610afa565b610ad4565b610ab2565b610a0b565b610910565b6108e7565b610889565b61082d565b6107fe565b6107db565b6107a0565b61077d565b61070b565b610684565b6105a6565b610553565b61052c565b6104f9565b610442565b6103c2565b6102dd565b610213565b6001600160e01b031981160361020e57565b600080fd5b3461020e57602036600319011261020e576020600435610232816101fc565b63ffffffff60e01b166301ffc9a760e01b8114908115610270575b811561025f575b506040519015158152f35b635b5e139f60e01b14905038610254565b6380ac58cd60e01b8114915061024d565b60005b8381106102945750506000910152565b8181015183820152602001610284565b906020916102bd81518092818552858086019101610281565b601f01601f1916010190565b9060206102da9281815201906102a4565b90565b3461020e576000806003193601126103bf57604051908060025461030081610d8d565b80855291600191808316908115610395575060011461033a575b6103368561032a81870382610662565b604051918291826102c9565b0390f35b9250600283527f405787fa12a823e0f2b7631cc41b3ba8828b3321ca811111fa75cd3aa3bb5ace5b82841061037d57505050810160200161032a8261033661031a565b80546020858701810191909152909301928101610362565b8695506103369693506020925061032a94915060ff191682840152151560051b820101929361031a565b80fd5b3461020e57602036600319011261020e576004356103df81613d9e565b15610404576000526006602052602060018060a01b0360406000205416604051908152f35b6040516333d1c03960e21b8152600490fd5b600435906001600160a01b038216820361020e57565b602435906001600160a01b038216820361020e57565b604036600319011261020e57610456610416565b6024356001600160a01b038061046b83613d26565b16908133036104c6575b600083815260066020526040812080546001600160a01b0319166001600160a01b0387161790559316907f8c5be1e5ebec7d5bd14f71427d1e84f3dd0314c0f7b2291e5b200ac8c7c3b9258480a480f35b600082815260076020908152604080832033845290915290205460ff16610475576040516367d9dca160e11b8152600490fd5b3461020e57602036600319011261020e57610336610518600435611846565b6040519182916020835260208301906102a4565b3461020e57600036600319011261020e576000546001546040519103600019018152602090f35b3461020e57600036600319011261020e576020600b54604051908152f35b606090600319011261020e576001600160a01b0390600435828116810361020e5791602435908116810361020e579060443590565b6105b86105b236610571565b91613dd9565b005b634e487b7160e01b600052604160045260246000fd5b6080810190811067ffffffffffffffff8211176105ec57604052565b6105ba565b6020810190811067ffffffffffffffff8211176105ec57604052565b6060810190811067ffffffffffffffff8211176105ec57604052565b6040810190811067ffffffffffffffff8211176105ec57604052565b610c40810190811067ffffffffffffffff8211176105ec57604052565b90601f8019910116810190811067ffffffffffffffff8211176105ec57604052565b3461020e5760208060031936011261020e5767ffffffffffffffff60043581811161020e573660238201121561020e5780600401359182116105ec578160051b604051926106d485830185610662565b83526024848401918301019136831161020e57602401905b8282106106fc576105b8846115e2565b813581529084019084016106ec565b3461020e576000806003193601126103bf5761072561110a565b610730600c54610d8d565b601f811161074b575b506008633031323360e01b01600c5580f35b601f6000805160206142e6833981519152910160051c8101905b8181106107725750610739565b828155600101610765565b3461020e57600036600319011261020e57602060ff600a54166040519015158152f35b3461020e576000806003193601126103bf576107ba61110a565b80808080478181156107d2575b3390f1156103bf5780f35b506108fc6107c7565b6105b86107e736610571565b90604051926107f5846105f1565b60008452613fa7565b3461020e57602036600319011261020e5760206001600160a01b03610824600435613d26565b16604051908152f35b3461020e57602036600319011261020e576001600160a01b0361084e610416565b168015610877576000526005602052602067ffffffffffffffff60406000205416604051908152f35b6040516323d3ad8160e21b8152600490fd5b3461020e576000806003193601126103bf576108a361110a565b600880546001600160a01b0319811690915581906001600160a01b03167f8be0079c531659141344cd1fd0a4f28419497f9722a3daafe3b4186f6b6457e08280a380f35b3461020e57600036600319011261020e576008546040516001600160a01b039091168152602090f35b3461020e576000806003193601126103bf5761092a61110a565b61093342613acd565b90815167ffffffffffffffff81116105ec5761095981610954600c54610d8d565b611455565b602080601f83116001146109955750829382939261098a575b50508160011b916000199060031b1c191617600c5580f35b015190503880610972565b90601f198316946109b6600c6000526000805160206142e683398151915290565b9285905b8782106109f35750508360019596106109da575b505050811b01600c5580f35b015160001960f88460031b161c191690553880806109ce565b806001859682949686015181550195019301906109ba565b3461020e576000806003193601126103bf576040519080600354610a2e81610d8d565b808552916001918083169081156103955750600114610a57576103368561032a81870382610662565b9250600383527fc2575a0e9e593c00f959f8c92f12db2869c3395a3b0502d05e2516446f71f85b5b828410610a9a57505050810160200161032a8261033661031a565b80546020858701810191909152909301928101610a7f565b3461020e57600036600319011261020e57602060001960005401604051908152f35b3461020e57600036600319011261020e576020610af2600b54613cf6565b604051908152f35b3461020e57600036600319011261020e576020600954604051908152f35b602036600319011261020e57600435610b3360095482611195565b3410610bf8576000546105b89190600019016103e882818310610bdd575050610b67610b60600b54613cf6565b15156111e1565b611388828183109283610bc8575b505050610b83575b3361410a565b610b94610b8f426111a8565b600b55565b600b546040519081527ff5b316bf09d21e0058eb23be118a6b81bd52674b4cb843e0f446b986ce22433e90602090a1610b7d565b610bd39293506111d4565b1015388281610b75565b610be791926111d4565b10610b7d57610b94610b8f426111a8565b60405162461bcd60e51b815260206004820152600e60248201526d0dcdee840cadcdeeaced040cae8d60931b6044820152606490fd5b3461020e57604036600319011261020e57610c47610416565b6024359081151580920361020e573360009081526007602090815260408083206001600160a01b0385168452909152902060ff1981541660ff841617905560405191825260018060a01b0316907f17307eab39ab6107e8899845ad3d59bd9653f200f220920489ca2b5937696c3160203392a3005b67ffffffffffffffff81116105ec57601f01601f191660200190565b608036600319011261020e57610cec610416565b610cf461042c565b6064359167ffffffffffffffff831161020e573660238401121561020e57826004013591610d2183610cbc565b92610d2f6040519485610662565b808452366024828701011161020e5760208160009260246105b89801838801378501015260443591613fa7565b3461020e57600036600319011261020e57610d7561110a565b600a5460ff80821615169060ff191617600a55600080f35b90600182811c92168015610dbd575b6020831014610da757565b634e487b7160e01b600052602260045260246000fd5b91607f1691610d9c565b60405190600082600c5491610ddb83610d8d565b80835292600190818116908115610e515750600114610e04575b50610e0292500383610662565b565b600c600090815291506000805160206142e68339815191525b848310610e365750610e02935050810160200138610df5565b81935090816020925483858a01015201910190918592610e1d565b905060209250610e0294915060ff191682840152151560051b82010138610df5565b9060405191826000825492610e8784610d8d565b908184526001948581169081600014610ef45750600114610eb1575b5050610e0292500383610662565b9093915060005260209081600020936000915b818310610edc575050610e0293508201013880610ea3565b85548884018501529485019487945091830191610ec4565b915050610e0294506020925060ff191682840152151560051b8201013880610ea3565b3461020e57600036600319011261020e57610336610518610dc7565b3461020e57602036600319011261020e5761033661032a6004356000610f5882613d9e565b610f855750610f65611346565b906001915b610f7e82600052600e602052604060002090565b54916118c9565b818152600d602052610fb1610f9c60408320610e73565b60405190610fa9826105f1565b838252613a52565b610fd5575080600052600d602052610fcc6040600020610e73565b90600091610f6a565b90610fdf81613b40565b610f6a565b3461020e57604036600319011261020e57602060ff611035611004610416565b61100c61042c565b6001600160a01b0391821660009081526007865260408082209290931681526020919091522090565b54166040519015158152f35b3461020e57602036600319011261020e5761105a610416565b61106261110a565b6001600160a01b039081169081156110b657600854826bffffffffffffffffffffffff60a01b821617600855167f8be0079c531659141344cd1fd0a4f28419497f9722a3daafe3b4186f6b6457e0600080a3005b60405162461bcd60e51b815260206004820152602660248201527f4f776e61626c653a206e6577206f776e657220697320746865207a65726f206160448201526564647265737360d01b6064820152608490fd5b6008546001600160a01b0316330361111e57565b606460405162461bcd60e51b815260206004820152602060248201527f4f776e61626c653a2063616c6c6572206973206e6f7420746865206f776e65726044820152fd5b634e487b7160e01b600052601160045260246000fd5b600281901b91906001600160fe1b0381160361119057565b611162565b8181029291811591840414171561119057565b9062015180820180921161119057565b906002820180921161119057565b906001820180921161119057565b9190820180921161119057565b156111e857565b60405162461bcd60e51b815260206004820152600e60248201526d1b5a5b9d081a5cc818db1bdcd95960921b6044820152606490fd5b1561122557565b60405162461bcd60e51b8152602060048201526014602482015273636f6d62696e696e67206e6f742061637469766560601b6044820152606490fd5b60001981146111905760010190565b634e487b7160e01b600052603260045260246000fd5b8051156112935760200190565b611270565b80518210156112935760209160051b010190565b156112b357565b60405162461bcd60e51b81526020600482015260136024820152726d757374206f776e20616c6c20746f6b656e7360681b6044820152606490fd5b9061130160209282815194859201610281565b0190565b6020610e029193929360405194816113268793518092868087019101610281565b820161133a82518093868085019101610281565b01038085520183610662565b60405190611353826105f1565b60008252565b6040519060207f63616e277420636f6d62696e652062656361757365206c75636b79206e756d628184015265032b91034b9960d51b6040840152826000600c54926113a384610d8d565b9360019081811690811561141b57506001146113cf575b5050610e02925003601f198101845283610662565b600c60009081529192506000805160206142e68339815191525b85831061140457505050506046610e029282010138806113ba565b8054888401604601528794509183019181016113e9565b91505060469250610e0294915060ff1916828401528015150282010138806113ba565b818110611449575050565b6000815560010161143e565b90601f8211611462575050565b610e0291600c6000526000805160206142e6833981519152906020601f840160051c8301931061149a575b601f0160051c019061143e565b909150819061148d565b9190601f81116114b357505050565b610e02926000526020600020906020601f840160051c8301931061149a57601f0160051c019061143e565b6000906114eb8154610d8d565b601f81116114f7575055565b8183526020832061151091601f0160051c81019061143e565b55565b919091825167ffffffffffffffff81116105ec5761153b816115358454610d8d565b846114a4565b602080601f831160011461157757508192939460009261156c575b50508160011b916000199060031b1c1916179055565b015190503880611556565b90601f1983169561158d85600052602060002090565b926000905b8882106115ca575050836001959697106115b1575b505050811b019055565b015160001960f88460031b161c191690553880806115a7565b80600185968294968601518155019501930190611592565b906115f76115f2600a5460ff1690565b61121e565b600090819060605b84518310156116605761165461165a9161163b33611635611629611623898c611298565b51613d10565b6001600160a01b031690565b146112ac565b61164e6116488689611298565b51611846565b90611305565b92611261565b916115ff565b9150929160048251116118015761168d61168961167b610dc7565b611683611346565b90613a52565b1590565b806117ea575b6117c35760019081805b61173e575b505050611728826116f3611739936116ee6116dd7ff8e1a15aba9398e019f0b49df1a4fde98ee17ae345cb5f6b5e2c27f5033e8ce797611286565b51600052600d602052604060002090565b611513565b6117056116ff82611286565b51613bc6565b61172261171183611286565b51600052600e602052604060002090565b55611286565b516040519081529081906020820190565b0390a1565b84518110156117be578061175e6117586117b89388611298565b516141df565b61177361176e6116dd8389611298565b6114de565b826117816117118389611298565b557ff8e1a15aba9398e019f0b49df1a4fde98ee17ae345cb5f6b5e2c27f5033e8ce76117b06117288389611298565b0390a1611261565b8261169d565b6116a2565b6117e66117ce611359565b60405162461bcd60e51b8152918291600483016102c9565b0390fd5b506117fc826117f7610dc7565b613a52565b611693565b60405162461bcd60e51b815260206004820152601f60248201527f76616c7565206e6f206d6f7265207468616e20342063686172616374657273006044820152606490fd5b61184f81613d9e565b6118675750604051611860816105f1565b6000815290565b80600052600d6020526118966118806040600020610e73565b6040519061188d826105f1565b60008252613a52565b6118af57600052600d6020526102da6040600020610e73565b6102da90613b40565b9060038110156112935760051b0190565b9092916118d68183613c64565b9215611a5c575061194a611909611a1994611a19611a0b61190e6119096102da98611903611a27996139bd565b95612d6c565b611d5c565b611944604051968795611944602088016019907803d913730b6b2911d101121a7a6a124a722afa72aa6a122a91603d1b81520190565b906112ee565b7f205b4255524e45445d222c20226465736372697074696f6e223a20224e756d6281527f65727320617265206172742c20616e642077652061726520617274697374732e60208201527f222c202261747472696275746573223a5b7b2274726169745f74797065223a2060408201527f224275726e6564222c202276616c7565223a2022596573227d5d2c2022696d6160608201527f6765223a2022646174613a696d6167652f7376672b786d6c3b6261736536342c608082015260a00190565b61227d60f01b815260020190565b03601f198101835282610662565b6040517f646174613a6170706c69636174696f6e2f6a736f6e3b6261736536342c0000006020820152928391603d8301611944565b9190611a67906139bd565b91611a7190611e37565b908051611a7d906139bd565b6020820151611a8b906139bd565b906040830151611a9a906139bd565b92611aa59087612d6c565b611aae90611d5c565b6040517803d913730b6b2911d101121a7a6a124a722afa72aa6a122a91603d1b602082015296879691959160398801611ae6916112ee565b7f222c20226465736372697074696f6e223a20224e756d6265727320617265206181527f72742c20616e642077652061726520617274697374732e222c2022617474726960208201527f6275746573223a5b7b2274726169745f74797065223a20224e756d626572222c60408201527f20226d61785f76616c7565223a20393939392c202276616c7565223a200000006060820152607d01611b87916112ee565b7f7d2c7b2274726169745f74797065223a20224275726e6564222c202276616c7581527f65223a20224e6f227d2c7b2274726169745f74797065223a202242617365204360208201527037b637b9111610113b30b63ab2911d101160791b6040820152605101611bf6916112ee565b7f227d2c7b2274726169745f74797065223a2022436f6c6f72222c202276616c758152680ca44744044a48e84560bb1b6020820152602901611c37916112ee565b600b60fa1b8152600101611c4a916112ee565b600b60fa1b8152600101611c5d916112ee565b7f29227d5d2c2022696d616765223a2022646174613a696d6167652f7376672b788152691b5b0ed8985cd94d8d0b60b21b6020820152602a01611c9f916112ee565b61227d60f01b815260020103601f1981018252611cbc9082610662565b6102da611a27611a1992611d5c565b60405190611cd88261060d565b604082527f6768696a6b6c6d6e6f707172737475767778797a303132333435363738392b2f6040837f4142434445464748494a4b4c4d4e4f505152535455565758595a61626364656660208201520152565b90611d3482610cbc565b611d416040519182610662565b8281528092611d52601f1991610cbc565b0190602036910137565b805115611e2e57611d6b611ccb565b611d8f611d8a611d85611d7e85516111b8565b6003900490565b611178565b611d2a565b9160208301918182518301915b828210611ddc57505050600390510680600114611dc957600214611dbe575090565b603d90600019015390565b50603d9081600019820153600119015390565b9091936004906003809401938451600190603f9082828260121c16880101518553828282600c1c16880101518386015382828260061c1688010151600286015316850101519082015301939190611d9c565b506102da611346565b604090815191611e46836105d0565b8051611e5181610629565b6005815264576869746560d81b602082015283528051611e7081610629565b600381526214995960ea1b602082015260208401528051611e9081610629565b600581526423b932b2b760d91b60208201528184015251611eb081610629565b6004815263426c756560e01b6020820152606083015260048110156112935760051b015190565b60405190611ee482610645565b610c1982527f6c2d6f7061636974793d22302e3035222f3e3c7374796c653e00000000000000610c20837f3c7376672076696577426f783d223020302033303020333030222066696c6c3d60208201527f226e6f6e652220786d6c6e733d22687474703a2f2f7777772e77332e6f72672f60408201527f323030302f737667223e3c726563742069643d226267222077696474683d223360608201527f303022206865696768743d22333030222066696c6c3d2223304330433043222f60808201527f3e3c706174682069643d227030312220643d224d313030203131394c3130332060a08201527f3132324c313030203132354c3830203132354c3737203132324c38302031313960c08201527f4c313030203131395a222066696c6c3d227768697465222066696c6c2d6f706160e08201527f636974793d22302e3035222f3e3c706174682069643d227030322220643d224d6101008201527f3733203132364c3736203132334c373920313236563134364c3736203134394c6101208201527f373320313436563132365a222066696c6c3d227768697465222066696c6c2d6f6101408201527f7061636974793d22302e3035222f3e3c706174682069643d227030332220643d6101608201527f224d313031203132364c313034203132334c31303720313236563134364c31306101808201527f34203134394c31303120313436563132365a222066696c6c3d227768697465226101a08201527f2066696c6c2d6f7061636974793d22302e3035222f3e3c706174682069643d22806101c08301527f7030342220643d224d313030203134374c313033203135304c313030203135336101e08301527f4c3830203135334c3737203135304c3830203134374c313030203134375a22206102008301527f66696c6c3d227768697465222066696c6c2d6f7061636974793d22302e3035226102208301527f2f3e3c706174682069643d227030352220643d224d3733203135344c373620316102408301527f35314c373920313534563137344c3736203137374c373320313734563135345a6102608301527f222066696c6c3d227768697465222066696c6c2d6f7061636974793d22302e306102808301527f35222f3e3c706174682069643d227030362220643d224d313031203135344c316102a08301527f3034203135314c31303720313534563137344c313034203137374c31303120316102c08301527f3734563135345a222066696c6c3d227768697465222066696c6c2d6f706163696102e08301527f74793d22302e3035222f3e3c706174682069643d227030372220643d224d31306103008301527f30203137354c313033203137384c313030203138314c3830203138314c3737206103208301527f3137384c3830203137354c313030203137355a222066696c6c3d2277686974656103408301527f222066696c6c2d6f7061636974793d22302e3035222f3e3c706174682069643d6103608301527f227031312220643d224d313430203131394c313433203132324c3134302031326103808301527f354c313230203132354c313137203132324c313230203131394c3134302031316103a08301527f395a222066696c6c3d227768697465222066696c6c2d6f7061636974793d22306103c08301527f2e3035222f3e3c706174682069643d227031322220643d224d313133203132366103e08301527f4c313136203132334c31313920313236563134364c313136203134394c3131336104008301527f20313436563132365a222066696c6c3d227768697465222066696c6c2d6f70616104208301527f636974793d22302e3035222f3e3c706174682069643d227031332220643d224d6104408301527f313431203132364c313434203132334c31343720313236563134364c313434206104608301527f3134394c31343120313436563132365a222066696c6c3d2277686974652220666104808301527f696c6c2d6f7061636974793d22302e3035222f3e3c706174682069643d2270316104a08301527f342220643d224d313430203134374c313433203135304c313430203135334c316104c08301527f3230203135334c313137203135304c313230203134374c313430203134375a226104e08301527f2066696c6c3d227768697465222066696c6c2d6f7061636974793d22302e303590816105008401527f222f3e3c706174682069643d227031352220643d224d313133203135344c31316105208401527f36203135314c31313920313534563137344c313136203137374c3131332031376105408401527f34563135345a222066696c6c3d227768697465222066696c6c2d6f70616369746105608401527f793d22302e3035222f3e3c706174682069643d227031362220643d224d3134316105808401527f203135344c313434203135314c31343720313534563137344c313434203137376105a08401527f4c31343120313734563135345a222066696c6c3d227768697465222066696c6c6105c08401527f2d6f7061636974793d22302e3035222f3e3c706174682069643d2270313722206105e08401527f643d224d313430203137354c313433203137384c313430203138314c313230206106008401527f3138314c313137203137384c313230203137354c313430203137355a222066696106208401527f6c6c3d227768697465222066696c6c2d6f7061636974793d22302e3035222f3e6106408401527f3c706174682069643d227032312220643d224d313830203131394c31383320316106608401527f32324c313830203132354c313630203132354c313537203132324c31363020316106808401527f31394c313830203131395a222066696c6c3d227768697465222066696c6c2d6f6106a08401527f7061636974793d22302e3035222f3e3c706174682069643d227032322220643d6106c08401527f224d313533203132364c313536203132334c31353920313236563134364c31356106e08401527f36203134394c31353320313436563132365a222066696c6c3d227768697465226107008401526107208301527f7032332220643d224d313831203132364c313834203132334c313837203132366107408301527f563134364c313834203134394c31383120313436563132365a222066696c6c3d6107608301527f227768697465222066696c6c2d6f7061636974793d22302e3035222f3e3c70616107808301527f74682069643d227032342220643d224d313830203134374c313833203135304c6107a08301527f313830203135334c313630203135334c313537203135304c313630203134374c6107c08301527f313830203134375a222066696c6c3d227768697465222066696c6c2d6f7061636107e08301527f6974793d22302e3035222f3e3c706174682069643d227032352220643d224d316108008301527f3533203135344c313536203135314c31353920313534563137344c31353620316108208301527f37374c31353320313734563135345a222066696c6c3d227768697465222066696108408301527f6c6c2d6f7061636974793d22302e3035222f3e3c706174682069643d227032366108608301527f2220643d224d313831203135344c313834203135314c313837203135345631376108808301527f344c313834203137374c31383120313734563135345a222066696c6c3d2277686108a08301527f697465222066696c6c2d6f7061636974793d22302e3035222f3e3c70617468206108c08301527f69643d227032372220643d224d313830203137354c313833203137384c3138306108e08301527f203138314c313630203138314c313537203137384c313630203137354c3138306109008301527f203137355a222066696c6c3d227768697465222066696c6c2d6f7061636974796109208301527f3d22302e3035222f3e3c706174682069643d227033312220643d224d323230206109408301527f3131394c323233203132324c323230203132354c323030203132354c313937206109608301527f3132324c323030203131394c323230203131395a222066696c6c3d22776869746109808301527f65222066696c6c2d6f7061636974793d22302e3035222f3e3c706174682069646109a08301527f3d227033322220643d224d313933203132364c313936203132334c31393920316109c08301527f3236563134364c313936203134394c31393320313436563132365a222066696c6109e08301527f6c3d227768697465222066696c6c2d6f7061636974793d22302e3035222f3e3c610a008301527f706174682069643d227033332220643d224d323231203132364c323234203132610a208301527f334c32323720313236563134364c323234203134394c32323120313436563132610a408301527f365a222066696c6c3d227768697465222066696c6c2d6f7061636974793d2230610a608301527f2e3035222f3e3c706174682069643d227033342220643d224d32323020313437610a808301527f4c323233203135304c323230203135334c323030203135334c31393720313530610aa08301527f4c323030203134374c323230203134375a222066696c6c3d2277686974652220610ac08301527f66696c6c2d6f7061636974793d22302e3035222f3e3c706174682069643d2270610ae08301527f33352220643d224d313933203135344c313936203135314c3139392031353456610b008301527f3137344c313936203137374c31393320313734563135345a222066696c6c3d22610b208301527f7768697465222066696c6c2d6f7061636974793d22302e3035222f3e3c706174610b408301527f682069643d227033362220643d224d323231203135344c323234203135314c32610b608301527f323720313534563137344c323234203137374c32323120313734563135345a22610b80830152610ba08201527f222f3e3c706174682069643d227033372220643d224d323230203137354c3232610bc08201527f33203137384c323230203138314c323030203138314c313937203137384c3230610be08201527f30203137354c323230203137355a222066696c6c3d227768697465222066696c610c008201520152565b6102da90612dea612e61612e47611944612d84611ed7565b96612d8f81516139bd565b612e096020968792611944612ddd612da9868801516139bd565b611944612ddd612dbd6040809b01516139bd565b958a519b8c9a8b01600b906a054f6ccd2d8d874e4cec4560ab1b81520190565b600b60fa1b815260010190565b72297d2362677b66696c6c3a233043304330437d60681b815260130190565b0395612e1d601f1997888101855284610662565b82612e2f612e29611346565b83613a52565b15612e6d575b505061194490519788958601906112ee565b6d1e17b9ba3cb6329f1e17b9bb339f60911b8152600e0190565b03908101835282610662565b612e78825192613002565b9160018103612ec1575050612eb86119449293612eac612e9e60606119449501516137eb565b86519485938b8501906112ee565b03888101835282610662565b915b9038612e35565b60028103612f1d575050612f178293612eac612e9e606085612f108d8d612f048b611944612ef76119449e6119449e01516137e3565b91519a8b948501906112ee565b03908101875286610662565b01516137eb565b91612eba565b60038103612f6b575050612f178293612eac612e9e606085612f538d8d612f046119449b611944612ef7846119449e01516137db565b612f108d8d612f048c611944612ef7828801516137e3565b909190600414612f81575b505061194490612eba565b82935061194491612eac612e9e606084612fad8d8d612f046119449b611944612ef7612fc59c51613322565b612f538d8d612f048c611944612ef7848801516137db565b919038612f76565b60405190612fda826105d0565b606080838181528160208201528160408201520152565b908151811015611293570160200190565b61301361300d612fcd565b91613130565b60005b815181101561312b5780613049911561310e575b600181146130d8575b60028114613094575b6003811461304e57611261565b613016565b611a1961308d61306f6130618487612ff1565b516001600160f81b03191690565b6040516001600160f81b031990911660208201529182906021820190565b8452611261565b6130a16130618285612ff1565b6040516001600160f81b03199091166020808301919091526130d082602181015b03601f198101845283610662565b85015261303c565b6130c26130e86130618386612ff1565b61310660409182519384916020830160019160ff60f81b1681520190565b850152613033565b611a1961312161306f6130618487612ff1565b606085015261302a565b505090565b9081511561319f576131428251611d2a565b6000805b8451811015613198576001600160f81b03196131628287612ff1565b51169085518181039081116111905760001981019081116111905761318d61319393851a9186612ff1565b53611261565b613146565b5090925050565b634e487b7160e01b600052600160045260246000fd5b604051906131c282610629565b60018252600360fc1b6020830152565b604051906131df82610629565b60018252603160f81b6020830152565b604051906131fc82610629565b60018252601960f91b6020830152565b6040519061321982610629565b60018252603360f81b6020830152565b6040519061323682610629565b60018252600d60fa1b6020830152565b6040519061325382610629565b60018252603560f81b6020830152565b6040519061327082610629565b60018252601b60f91b6020830152565b6040519061328d82610629565b60018252603760f81b6020830152565b604051906132aa82610629565b60018252600760fb1b6020830152565b604051906132c782610629565b60018252603960f81b6020830152565b604051906132e482610629565b600582526432b93937b960d91b6020830152565b61023760f41b815260020190565b610c4b60f21b815260020190565b610c8b60f21b815260020190565b61332a6131b5565b9061333c6133366131b5565b82613a52565b1561341f5750604051809160208201613354906132f8565b61335e90826112ee565b61336790613306565b613370906132f8565b61337a90826112ee565b61338390613314565b61338c906132f8565b61339690826112ee565b610ccb60f21b81526002015b6133ab906132f8565b6133b590826112ee565b610d4b60f21b81526002015b6133ca906132f8565b6133d490826112ee565b610d8b60f21b81526002015b6133e9906132f8565b6133f2916112ee565b7137207b66696c6c2d6f7061636974793a317d60701b815260120103601f19810182526102da9082610662565b61342a6133366131d2565b1561348c57506102da61346e91611a1960405193849261194461346961345b613455602088016132f8565b846112ee565b610ccb60f21b815260020190565b6132f8565b7136207b66696c6c2d6f7061636974793a317d60701b815260120190565b6134976133366131ef565b1561352157506040518091602082016134af906132f8565b6134b990826112ee565b6134c290613306565b6134cb906132f8565b6134d590826112ee565b610ccb60f21b81526002016134e9906132f8565b6134f390826112ee565b610d0b60f21b8152600201613507906132f8565b61351190826112ee565b610d4b60f21b81526002016133e0565b61352c61333661320c565b156135995750604051809160208201613544906132f8565b61354e90826112ee565b61355790613306565b613560906132f8565b61356a90826112ee565b610ccb60f21b81526002015b61357f906132f8565b61358990826112ee565b610d0b60f21b81526002016133c1565b6135a4613336613229565b1561360057506102da6020611a1961346e6135e1946119446134696135f261345561346961345b6135ec6134696135e76040519e8f9d8e016132f8565b8a6112ee565b613314565b876112ee565b610d0b60f21b815260020190565b61360b613336613246565b156136525750604051809160208201613623906132f8565b61362d90826112ee565b61363690613306565b61363f906132f8565b61364990826112ee565b61357690613314565b61365d613336613263565b156136c75750604051809160208201613675906132f8565b61367f90826112ee565b61368890613306565b613691906132f8565b61369b90826112ee565b6136a490613314565b6136ad906132f8565b6136b790826112ee565b610d0b60f21b81526002016133a2565b6136d2613336613280565b1561370b57506102da61346e91611a1960405193849261194461346961345b6134556134696137066135ec60208b016132f8565b613306565b61371661333661329d565b15613780575060405180916020820161372e906132f8565b61373890826112ee565b61374190613306565b61374a906132f8565b61375490826112ee565b61375d90613314565b613766906132f8565b61377090826112ee565b610ccb60f21b81526002016136a4565b61378c906116836132ba565b156137d2576040518091602082016137a3906132f8565b6137ad90826112ee565b6137b690613306565b6137bf906132f8565b6137c990826112ee565b61355790613314565b506102da6132d7565b61332a61381e565b61332a6138b1565b61332a613937565b6040519061380082610629565b600a825260203681840137565b60ff166030019060ff821161119057565b600080600180805b61389d57508061383584611d2a565b93915b6138425750505090565b60001982019182116111905781600a918281049280840290848204148415171561119057810390811161119057613896906001600160f81b0319906138899060ff1661380d565b60f81b16851a9186612ff1565b5380613838565b926138a9600a91611261565b930480613826565b600080600280805b6139235750806138c884611d2a565b93915b6138d55750505090565b60001982019182116111905781600a91828104928084029084820414841517156111905781039081116111905761391c906001600160f81b0319906138899060ff1661380d565b53806138cb565b9261392f600a91611261565b9304806138b9565b600080600380805b6139a957508061394e84611d2a565b93915b61395b5750505090565b60001982019182116111905781600a9182810492808402908482041484151715611190578103908111611190576139a2906001600160f81b0319906138899060ff1661380d565b5380613951565b926139b5600a91611261565b93048061393f565b8015613a4957806000908282935b613a355750806139da84611d2a565b93915b6139e75750505090565b60001982019182116111905781600a918281049280840290848204148415171561119057810390811161119057613a2e906001600160f81b0319906138899060ff1661380d565b53806139dd565b92613a41600a91611261565b9304806139cb565b506102da6131b5565b9060405191602092613a80848281613a738183019687815193849201610281565b8101038084520182610662565b51902091613aa0604051918281613a738183019687815193849201610281565b5190201490565b60405190613ab482610629565b600a8252693031323334353637383960b01b6020830152565b60405190613ada82610629565b60049081835260203681850137613aef6137f3565b50613af8613aa7565b90600091825b848110613b0d57505050505090565b613b3b906001600160f81b0319613b2d613b278387613b9f565b85612ff1565b5116851a61318d8289612ff1565b613afe565b60405190613b4d82610629565b60019081835260203681850137613b626137f3565b50613b6b613aa7565b90600091825b848110613b8057505050505090565b613b9a906001600160f81b0319613b2d613b278387613b9f565b613b71565b600a916040519060208201928352604082015260408152613bbf8161060d565b5190200690565b6107e78101809111611190576003906040516020810191825260208152613bec81610629565b51902006600403600481116111905760001981019081116111905790565b6107e781018091116111905760ff906040516020810191825260208152613c3081610629565b519020166101009081039081116111905760001981019081116111905790565b60405190613c5d8261060d565b6060368337565b919091613c6f613c50565b908315613cce5760005b60038110613c88575090925050565b80613c95613cad926111c6565b8603613cb25760ff613ca782866118b8565b52611261565b613c79565b613cc4613cbf82856111d4565b613c0a565b613ca782866118b8565b5090915060005b60038110613ce1575090565b8060ff613ca7613cf193856118b8565b613cd5565b428110613d0a574281039081116111905790565b50600090565b6001600160a01b0390613d2290613d26565b1690565b6000818060011115613d45575b604051636f96cda160e11b8152600490fd5b8154811015613d335781526004906020918083526040928383205494600160e01b861615613d7557505050613d33565b93929190935b8515613d8957505050505090565b60001901808352818552838320549550613d7b565b80600111159081613dcd575b81613db3575090565b90506000526004602052600160e01b604060002054161590565b60005481109150613daa565b90613de383613d26565b6001600160a01b0383811692828216849003613f9657600086815260066020526040902080549092613e246001600160a01b03881633908114908414171590565b613f3b575b8216958615613f2957613e7c93613e5a92613f1f575b506001600160a01b0316600090815260056020526040902090565b80546000190190556001600160a01b0316600090815260056020526040902090565b80546001019055600160e11b804260a01b851717613ea4866000526004602052604060002090565b55811615613ed5575b507fddf252ad1be2c89b69c2b068fc378daa952ba7f163c4a11628f55a4df523b3ef600080a4565b60018401613eed816000526004602052604060002090565b5415613efa575b50613ead565b6000548114613ef457613f17906000526004602052604060002090565b553880613ef4565b6000905538613e3f565b604051633a954ecd60e21b8152600490fd5b613f7f611689613f7833613f618b60018060a01b03166000526007602052604060002090565b9060018060a01b0316600052602052604060002090565b5460ff1690565b15613e2957604051632ce44b5f60e11b8152600490fd5b60405162a1148160e81b8152600490fd5b929190613fb5828286613dd9565b803b613fc2575b50505050565b613fcb93614061565b15613fd95738808080613fbc565b6040516368d2bf6b60e11b8152600490fd5b9081602091031261020e57516102da816101fc565b6001600160a01b0391821681529116602082015260408101919091526080606082018190526102da929101906102a4565b3d1561405c573d9061404282610cbc565b916140506040519384610662565b82523d6000602084013e565b606090565b9260209161408a936000604051809681958294630a85bd0160e11b9a8b85523360048601614000565b03926001600160a01b03165af1600091816140da575b506140cc576140ad614031565b805190816140c7576040516368d2bf6b60e11b8152600490fd5b602001fd5b6001600160e01b0319161490565b6140fc91925060203d8111614103575b6140f48183610662565b810190613feb565b90386140a0565b503d6140ea565b9060009081549281156141cd576001600160a01b0381166000908152600560205260409020805468010000000000000001840201905560008481526004602052604090206001600160a01b03909116916001914260a01b83831460e11b1784179055840193817fddf252ad1be2c89b69c2b068fc378daa952ba7f163c4a11628f55a4df523b3ef91808587858180a4015b8581036141be57505050156141ad5755565b604051622e076360e81b8152600490fd5b8083918587858180a40161419b565b60405163b562e8dd60e01b8152600490fd5b60006141ea82613d26565b600083815260066020526040902080546001600160a01b0383169291906142dc575b506001600160a01b038216600090815260056020526040902080546fffffffffffffffffffffffffffffffff01905560008481526004602052604090204260a01b8317600360e01b179055600160e11b811615614293575b507fddf252ad1be2c89b69c2b068fc378daa952ba7f163c4a11628f55a4df523b3ef8280a46001805401600155565b600184016142ab816000526004602052604060002090565b54156142b8575b50614264565b835481146142b2576142d4906000526004602052604060002090565b5538806142b2565b8390553861420c56fedf6966c971051c3d54ec59162606531493a51404a002842f56009d7e5cf4a8c7a2646970667358221220c6e08408c290442e9304e9da2866ba2073adcbd5724ff160fdb0d86ca0b672e064736f6c63430008130033",
			"opcodes": "PUSH1 0x80 CALLVALUE PUSH3 0x366 JUMPI PUSH1 0x1 PUSH1 0x1 PUSH1 0x40 SHL SUB SWAP1 PUSH1 0x40 SWAP1 DUP1 DUP3 ADD DUP4 DUP2 GT DUP3 DUP3 LT OR PUSH3 0x278 JUMPI DUP3 MSTORE PUSH1 0x13 DUP2 MSTORE PUSH1 0x20 PUSH32 0x434F4D42494E452D4E554D4245522D5445535400000000000000000000000000 DUP2 DUP4 ADD MSTORE DUP3 MLOAD SWAP4 DUP4 DUP6 ADD DUP6 DUP2 LT DUP3 DUP3 GT OR PUSH3 0x278 JUMPI DUP5 MSTORE PUSH1 0x4 DUP6 MSTORE PUSH4 0x10D09395 PUSH1 0xE2 SHL DUP3 DUP7 ADD MSTORE DUP3 MLOAD DUP2 DUP2 GT PUSH3 0x278 JUMPI PUSH1 0x2 SLOAD SWAP1 PUSH1 0x1 SWAP5 DUP6 DUP4 DUP2 SHR SWAP4 AND DUP1 ISZERO PUSH3 0x35B JUMPI JUMPDEST DUP6 DUP5 LT EQ PUSH3 0x257 JUMPI DUP2 SWAP1 PUSH1 0x1F SWAP4 DUP5 DUP2 GT PUSH3 0x304 JUMPI JUMPDEST POP DUP6 SWAP1 DUP5 DUP4 GT PUSH1 0x1 EQ PUSH3 0x29A JUMPI PUSH1 0x0 SWAP3 PUSH3 0x28E JUMPI JUMPDEST POP POP PUSH1 0x0 NOT PUSH1 0x3 DUP4 SWAP1 SHL SHR NOT AND SWAP1 DUP6 SHL OR PUSH1 0x2 SSTORE JUMPDEST DUP6 MLOAD SWAP2 DUP3 GT PUSH3 0x278 JUMPI PUSH1 0x3 SWAP3 DUP4 SLOAD DUP6 DUP2 DUP2 SHR SWAP2 AND DUP1 ISZERO PUSH3 0x26D JUMPI JUMPDEST DUP3 DUP3 LT EQ PUSH3 0x257 JUMPI DUP3 DUP2 GT PUSH3 0x20C JUMPI JUMPDEST POP DUP1 SWAP2 DUP4 GT PUSH1 0x1 EQ PUSH3 0x1A1 JUMPI POP DUP2 SWAP3 SWAP4 SWAP5 SWAP6 PUSH1 0x0 SWAP3 PUSH3 0x195 JUMPI JUMPDEST POP POP PUSH1 0x0 NOT DUP3 DUP5 SHL SHR NOT AND SWAP1 DUP4 SHL OR SWAP1 SSTORE JUMPDEST PUSH1 0x0 SSTORE PUSH1 0x8 SLOAD SWAP1 CALLER PUSH1 0x1 DUP1 PUSH1 0xA0 SHL SUB NOT DUP4 AND OR PUSH1 0x8 SSTORE MLOAD SWAP1 CALLER SWAP1 PUSH1 0x1 DUP1 PUSH1 0xA0 SHL SUB AND PUSH32 0x8BE0079C531659141344CD1FD0A4F28419497F9722A3DAAFE3B4186F6B6457E0 PUSH1 0x0 DUP1 LOG3 PUSH1 0x0 PUSH1 0x9 SSTORE PUSH1 0xFF NOT PUSH1 0xA SLOAD AND PUSH1 0xA SSTORE PUSH2 0x433B SWAP1 DUP2 PUSH3 0x36C DUP3 CODECOPY RETURN JUMPDEST ADD MLOAD SWAP1 POP CODESIZE DUP1 PUSH3 0x120 JUMP JUMPDEST SWAP1 PUSH1 0x1F NOT DUP4 AND SWAP7 DUP5 PUSH1 0x0 MSTORE DUP3 PUSH1 0x0 KECCAK256 SWAP3 PUSH1 0x0 SWAP1 JUMPDEST DUP10 DUP3 LT PUSH3 0x1F4 JUMPI POP POP DUP4 DUP7 SWAP8 SWAP9 SWAP7 SWAP6 SWAP7 LT PUSH3 0x1DB JUMPI JUMPDEST POP POP POP DUP2 SHL ADD SWAP1 SSTORE PUSH3 0x132 JUMP JUMPDEST ADD MLOAD PUSH1 0x0 NOT DUP4 DUP7 SHL PUSH1 0xF8 AND SHR NOT AND SWAP1 SSTORE CODESIZE DUP1 DUP1 PUSH3 0x1CD JUMP JUMPDEST DUP1 DUP9 DUP6 SWAP7 DUP3 SWAP5 SWAP7 DUP7 ADD MLOAD DUP2 SSTORE ADD SWAP6 ADD SWAP4 ADD SWAP1 PUSH3 0x1B5 JUMP JUMPDEST DUP5 PUSH1 0x0 MSTORE DUP2 PUSH1 0x0 KECCAK256 DUP4 DUP1 DUP7 ADD PUSH1 0x5 SHR DUP3 ADD SWAP3 DUP5 DUP8 LT PUSH3 0x24D JUMPI JUMPDEST ADD PUSH1 0x5 SHR ADD SWAP1 DUP7 SWAP1 JUMPDEST DUP3 DUP2 LT PUSH3 0x240 JUMPI POP POP PUSH3 0x104 JUMP JUMPDEST PUSH1 0x0 DUP2 SSTORE ADD DUP7 SWAP1 PUSH3 0x230 JUMP JUMPDEST SWAP3 POP DUP2 SWAP3 PUSH3 0x227 JUMP JUMPDEST PUSH4 0x4E487B71 PUSH1 0xE0 SHL PUSH1 0x0 MSTORE PUSH1 0x22 PUSH1 0x4 MSTORE PUSH1 0x24 PUSH1 0x0 REVERT JUMPDEST SWAP1 PUSH1 0x7F AND SWAP1 PUSH3 0xF2 JUMP JUMPDEST PUSH4 0x4E487B71 PUSH1 0xE0 SHL PUSH1 0x0 MSTORE PUSH1 0x41 PUSH1 0x4 MSTORE PUSH1 0x24 PUSH1 0x0 REVERT JUMPDEST ADD MLOAD SWAP1 POP CODESIZE DUP1 PUSH3 0xC0 JUMP JUMPDEST SWAP1 DUP8 SWAP4 POP PUSH1 0x1F NOT DUP4 AND SWAP2 PUSH1 0x2 PUSH1 0x0 MSTORE DUP8 PUSH1 0x0 KECCAK256 SWAP3 PUSH1 0x0 JUMPDEST DUP10 DUP3 DUP3 LT PUSH3 0x2ED JUMPI POP POP DUP5 GT PUSH3 0x2D3 JUMPI JUMPDEST POP POP POP DUP2 SHL ADD PUSH1 0x2 SSTORE PUSH3 0xD5 JUMP JUMPDEST ADD MLOAD PUSH1 0x0 NOT PUSH1 0xF8 DUP5 PUSH1 0x3 SHL AND SHR NOT AND SWAP1 SSTORE CODESIZE DUP1 DUP1 PUSH3 0x2C4 JUMP JUMPDEST DUP4 DUP6 ADD MLOAD DUP7 SSTORE DUP12 SWAP8 SWAP1 SWAP6 ADD SWAP5 SWAP4 DUP5 ADD SWAP4 ADD PUSH3 0x2B1 JUMP JUMPDEST SWAP1 SWAP2 POP PUSH1 0x2 PUSH1 0x0 MSTORE DUP6 PUSH1 0x0 KECCAK256 DUP5 DUP1 DUP6 ADD PUSH1 0x5 SHR DUP3 ADD SWAP3 DUP9 DUP7 LT PUSH3 0x351 JUMPI JUMPDEST SWAP2 DUP10 SWAP2 DUP7 SWAP6 SWAP5 SWAP4 ADD PUSH1 0x5 SHR ADD SWAP2 JUMPDEST DUP3 DUP2 LT PUSH3 0x341 JUMPI POP POP PUSH3 0xA9 JUMP JUMPDEST PUSH1 0x0 DUP2 SSTORE DUP6 SWAP5 POP DUP10 SWAP2 ADD PUSH3 0x331 JUMP JUMPDEST SWAP3 POP DUP2 SWAP3 PUSH3 0x323 JUMP JUMPDEST SWAP3 PUSH1 0x7F AND SWAP3 PUSH3 0x92 JUMP JUMPDEST PUSH1 0x0 DUP1 REVERT INVALID PUSH1 0x80 PUSH1 0x40 MSTORE PUSH1 0x4 CALLDATASIZE LT ISZERO PUSH2 0x12 JUMPI PUSH1 0x0 DUP1 REVERT JUMPDEST PUSH1 0x0 CALLDATALOAD PUSH1 0xE0 SHR DUP1 PUSH4 0x1FFC9A7 EQ PUSH2 0x1F7 JUMPI DUP1 PUSH4 0x6FDDE03 EQ PUSH2 0x1F2 JUMPI DUP1 PUSH4 0x81812FC EQ PUSH2 0x1ED JUMPI DUP1 PUSH4 0x95EA7B3 EQ PUSH2 0x1E8 JUMPI DUP1 PUSH4 0xFF4C916 EQ PUSH2 0x1E3 JUMPI DUP1 PUSH4 0x18160DDD EQ PUSH2 0x1DE JUMPI DUP1 PUSH4 0x21CF7ECF EQ PUSH2 0x1D9 JUMPI DUP1 PUSH4 0x23B872DD EQ PUSH2 0x1D4 JUMPI DUP1 PUSH4 0x25E514C6 EQ PUSH2 0x1CF JUMPI DUP1 PUSH4 0x35C53541 EQ PUSH2 0x1CA JUMPI DUP1 PUSH4 0x37C5FA0D EQ PUSH2 0x1C5 JUMPI DUP1 PUSH4 0x3CCFD60B EQ PUSH2 0x1C0 JUMPI DUP1 PUSH4 0x42842E0E EQ PUSH2 0x1BB JUMPI DUP1 PUSH4 0x6352211E EQ PUSH2 0x1B6 JUMPI DUP1 PUSH4 0x70A08231 EQ PUSH2 0x1B1 JUMPI DUP1 PUSH4 0x715018A6 EQ PUSH2 0x1AC JUMPI DUP1 PUSH4 0x8DA5CB5B EQ PUSH2 0x1A7 JUMPI DUP1 PUSH4 0x8EF9AE59 EQ PUSH2 0x1A2 JUMPI DUP1 PUSH4 0x95D89B41 EQ PUSH2 0x19D JUMPI DUP1 PUSH4 0x9659867E EQ PUSH2 0x198 JUMPI DUP1 PUSH4 0x9AC9F2A0 EQ PUSH2 0x193 JUMPI DUP1 PUSH4 0xA035B1FE EQ PUSH2 0x18E JUMPI DUP1 PUSH4 0xA0712D68 EQ PUSH2 0x189 JUMPI DUP1 PUSH4 0xA22CB465 EQ PUSH2 0x184 JUMPI DUP1 PUSH4 0xB88D4FDE EQ PUSH2 0x17F JUMPI DUP1 PUSH4 0xB8BE6E98 EQ PUSH2 0x17A JUMPI DUP1 PUSH4 0xBF205EBC EQ PUSH2 0x175 JUMPI DUP1 PUSH4 0xC87B56DD EQ PUSH2 0x170 JUMPI DUP1 PUSH4 0xE985E9C5 EQ PUSH2 0x16B JUMPI PUSH4 0xF2FDE38B EQ PUSH2 0x166 JUMPI PUSH1 0x0 DUP1 REVERT JUMPDEST PUSH2 0x1041 JUMP JUMPDEST PUSH2 0xFE4 JUMP JUMPDEST PUSH2 0xF33 JUMP JUMPDEST PUSH2 0xF17 JUMP JUMPDEST PUSH2 0xD5C JUMP JUMPDEST PUSH2 0xCD8 JUMP JUMPDEST PUSH2 0xC2E JUMP JUMPDEST PUSH2 0xB18 JUMP JUMPDEST PUSH2 0xAFA JUMP JUMPDEST PUSH2 0xAD4 JUMP JUMPDEST PUSH2 0xAB2 JUMP JUMPDEST PUSH2 0xA0B JUMP JUMPDEST PUSH2 0x910 JUMP JUMPDEST PUSH2 0x8E7 JUMP JUMPDEST PUSH2 0x889 JUMP JUMPDEST PUSH2 0x82D JUMP JUMPDEST PUSH2 0x7FE JUMP JUMPDEST PUSH2 0x7DB JUMP JUMPDEST PUSH2 0x7A0 JUMP JUMPDEST PUSH2 0x77D JUMP JUMPDEST PUSH2 0x70B JUMP JUMPDEST PUSH2 0x684 JUMP JUMPDEST PUSH2 0x5A6 JUMP JUMPDEST PUSH2 0x553 JUMP JUMPDEST PUSH2 0x52C JUMP JUMPDEST PUSH2 0x4F9 JUMP JUMPDEST PUSH2 0x442 JUMP JUMPDEST PUSH2 0x3C2 JUMP JUMPDEST PUSH2 0x2DD JUMP JUMPDEST PUSH2 0x213 JUMP JUMPDEST PUSH1 0x1 PUSH1 0x1 PUSH1 0xE0 SHL SUB NOT DUP2 AND SUB PUSH2 0x20E JUMPI JUMP JUMPDEST PUSH1 0x0 DUP1 REVERT JUMPDEST CALLVALUE PUSH2 0x20E JUMPI PUSH1 0x20 CALLDATASIZE PUSH1 0x3 NOT ADD SLT PUSH2 0x20E JUMPI PUSH1 0x20 PUSH1 0x4 CALLDATALOAD PUSH2 0x232 DUP2 PUSH2 0x1FC JUMP JUMPDEST PUSH4 0xFFFFFFFF PUSH1 0xE0 SHL AND PUSH4 0x1FFC9A7 PUSH1 0xE0 SHL DUP2 EQ SWAP1 DUP2 ISZERO PUSH2 0x270 JUMPI JUMPDEST DUP2 ISZERO PUSH2 0x25F JUMPI JUMPDEST POP PUSH1 0x40 MLOAD SWAP1 ISZERO ISZERO DUP2 MSTORE RETURN JUMPDEST PUSH4 0x5B5E139F PUSH1 0xE0 SHL EQ SWAP1 POP CODESIZE PUSH2 0x254 JUMP JUMPDEST PUSH4 0x80AC58CD PUSH1 0xE0 SHL DUP2 EQ SWAP2 POP PUSH2 0x24D JUMP JUMPDEST PUSH1 0x0 JUMPDEST DUP4 DUP2 LT PUSH2 0x294 JUMPI POP POP PUSH1 0x0 SWAP2 ADD MSTORE JUMP JUMPDEST DUP2 DUP2 ADD MLOAD DUP4 DUP3 ADD MSTORE PUSH1 0x20 ADD PUSH2 0x284 JUMP JUMPDEST SWAP1 PUSH1 0x20 SWAP2 PUSH2 0x2BD DUP2 MLOAD DUP1 SWAP3 DUP2 DUP6 MSTORE DUP6 DUP1 DUP7 ADD SWAP2 ADD PUSH2 0x281 JUMP JUMPDEST PUSH1 0x1F ADD PUSH1 0x1F NOT AND ADD ADD SWAP1 JUMP JUMPDEST SWAP1 PUSH1 0x20 PUSH2 0x2DA SWAP3 DUP2 DUP2 MSTORE ADD SWAP1 PUSH2 0x2A4 JUMP JUMPDEST SWAP1 JUMP JUMPDEST CALLVALUE PUSH2 0x20E JUMPI PUSH1 0x0 DUP1 PUSH1 0x3 NOT CALLDATASIZE ADD SLT PUSH2 0x3BF JUMPI PUSH1 0x40 MLOAD SWAP1 DUP1 PUSH1 0x2 SLOAD PUSH2 0x300 DUP2 PUSH2 0xD8D JUMP JUMPDEST DUP1 DUP6 MSTORE SWAP2 PUSH1 0x1 SWAP2 DUP1 DUP4 AND SWAP1 DUP2 ISZERO PUSH2 0x395 JUMPI POP PUSH1 0x1 EQ PUSH2 0x33A JUMPI JUMPDEST PUSH2 0x336 DUP6 PUSH2 0x32A DUP2 DUP8 SUB DUP3 PUSH2 0x662 JUMP JUMPDEST PUSH1 0x40 MLOAD SWAP2 DUP3 SWAP2 DUP3 PUSH2 0x2C9 JUMP JUMPDEST SUB SWAP1 RETURN JUMPDEST SWAP3 POP PUSH1 0x2 DUP4 MSTORE PUSH32 0x405787FA12A823E0F2B7631CC41B3BA8828B3321CA811111FA75CD3AA3BB5ACE JUMPDEST DUP3 DUP5 LT PUSH2 0x37D JUMPI POP POP POP DUP2 ADD PUSH1 0x20 ADD PUSH2 0x32A DUP3 PUSH2 0x336 PUSH2 0x31A JUMP JUMPDEST DUP1 SLOAD PUSH1 0x20 DUP6 DUP8 ADD DUP2 ADD SWAP2 SWAP1 SWAP2 MSTORE SWAP1 SWAP4 ADD SWAP3 DUP2 ADD PUSH2 0x362 JUMP JUMPDEST DUP7 SWAP6 POP PUSH2 0x336 SWAP7 SWAP4 POP PUSH1 0x20 SWAP3 POP PUSH2 0x32A SWAP5 SWAP2 POP PUSH1 0xFF NOT AND DUP3 DUP5 ADD MSTORE ISZERO ISZERO PUSH1 0x5 SHL DUP3 ADD ADD SWAP3 SWAP4 PUSH2 0x31A JUMP JUMPDEST DUP1 REVERT JUMPDEST CALLVALUE PUSH2 0x20E JUMPI PUSH1 0x20 CALLDATASIZE PUSH1 0x3 NOT ADD SLT PUSH2 0x20E JUMPI PUSH1 0x4 CALLDATALOAD PUSH2 0x3DF DUP2 PUSH2 0x3D9E JUMP JUMPDEST ISZERO PUSH2 0x404 JUMPI PUSH1 0x0 MSTORE PUSH1 0x6 PUSH1 0x20 MSTORE PUSH1 0x20 PUSH1 0x1 DUP1 PUSH1 0xA0 SHL SUB PUSH1 0x40 PUSH1 0x0 KECCAK256 SLOAD AND PUSH1 0x40 MLOAD SWAP1 DUP2 MSTORE RETURN JUMPDEST PUSH1 0x40 MLOAD PUSH4 0x33D1C039 PUSH1 0xE2 SHL DUP2 MSTORE PUSH1 0x4 SWAP1 REVERT JUMPDEST PUSH1 0x4 CALLDATALOAD SWAP1 PUSH1 0x1 PUSH1 0x1 PUSH1 0xA0 SHL SUB DUP3 AND DUP3 SUB PUSH2 0x20E JUMPI JUMP JUMPDEST PUSH1 0x24 CALLDATALOAD SWAP1 PUSH1 0x1 PUSH1 0x1 PUSH1 0xA0 SHL SUB DUP3 AND DUP3 SUB PUSH2 0x20E JUMPI JUMP JUMPDEST PUSH1 0x40 CALLDATASIZE PUSH1 0x3 NOT ADD SLT PUSH2 0x20E JUMPI PUSH2 0x456 PUSH2 0x416 JUMP JUMPDEST PUSH1 0x24 CALLDATALOAD PUSH1 0x1 PUSH1 0x1 PUSH1 0xA0 SHL SUB DUP1 PUSH2 0x46B DUP4 PUSH2 0x3D26 JUMP JUMPDEST AND SWAP1 DUP2 CALLER SUB PUSH2 0x4C6 JUMPI JUMPDEST PUSH1 0x0 DUP4 DUP2 MSTORE PUSH1 0x6 PUSH1 0x20 MSTORE PUSH1 0x40 DUP2 KECCAK256 DUP1 SLOAD PUSH1 0x1 PUSH1 0x1 PUSH1 0xA0 SHL SUB NOT AND PUSH1 0x1 PUSH1 0x1 PUSH1 0xA0 SHL SUB DUP8 AND OR SWAP1 SSTORE SWAP4 AND SWAP1 PUSH32 0x8C5BE1E5EBEC7D5BD14F71427D1E84F3DD0314C0F7B2291E5B200AC8C7C3B925 DUP5 DUP1 LOG4 DUP1 RETURN JUMPDEST PUSH1 0x0 DUP3 DUP2 MSTORE PUSH1 0x7 PUSH1 0x20 SWAP1 DUP2 MSTORE PUSH1 0x40 DUP1 DUP4 KECCAK256 CALLER DUP5 MSTORE SWAP1 SWAP2 MSTORE SWAP1 KECCAK256 SLOAD PUSH1 0xFF AND PUSH2 0x475 JUMPI PUSH1 0x40 MLOAD PUSH4 0x67D9DCA1 PUSH1 0xE1 SHL DUP2 MSTORE PUSH1 0x4 SWAP1 REVERT JUMPDEST CALLVALUE PUSH2 0x20E JUMPI PUSH1 0x20 CALLDATASIZE PUSH1 0x3 NOT ADD SLT PUSH2 0x20E JUMPI PUSH2 0x336 PUSH2 0x518 PUSH1 0x4 CALLDATALOAD PUSH2 0x1846 JUMP JUMPDEST PUSH1 0x40 MLOAD SWAP2 DUP3 SWAP2 PUSH1 0x20 DUP4 MSTORE PUSH1 0x20 DUP4 ADD SWAP1 PUSH2 0x2A4 JUMP JUMPDEST CALLVALUE PUSH2 0x20E JUMPI PUSH1 0x0 CALLDATASIZE PUSH1 0x3 NOT ADD SLT PUSH2 0x20E JUMPI PUSH1 0x0 SLOAD PUSH1 0x1 SLOAD PUSH1 0x40 MLOAD SWAP2 SUB PUSH1 0x0 NOT ADD DUP2 MSTORE PUSH1 0x20 SWAP1 RETURN JUMPDEST CALLVALUE PUSH2 0x20E JUMPI PUSH1 0x0 CALLDATASIZE PUSH1 0x3 NOT ADD SLT PUSH2 0x20E JUMPI PUSH1 0x20 PUSH1 0xB SLOAD PUSH1 0x40 MLOAD SWAP1 DUP2 MSTORE RETURN JUMPDEST PUSH1 0x60 SWAP1 PUSH1 0x3 NOT ADD SLT PUSH2 0x20E JUMPI PUSH1 0x1 PUSH1 0x1 PUSH1 0xA0 SHL SUB SWAP1 PUSH1 0x4 CALLDATALOAD DUP3 DUP2 AND DUP2 SUB PUSH2 0x20E JUMPI SWAP2 PUSH1 0x24 CALLDATALOAD SWAP1 DUP2 AND DUP2 SUB PUSH2 0x20E JUMPI SWAP1 PUSH1 0x44 CALLDATALOAD SWAP1 JUMP JUMPDEST PUSH2 0x5B8 PUSH2 0x5B2 CALLDATASIZE PUSH2 0x571 JUMP JUMPDEST SWAP2 PUSH2 0x3DD9 JUMP JUMPDEST STOP JUMPDEST PUSH4 0x4E487B71 PUSH1 0xE0 SHL PUSH1 0x0 MSTORE PUSH1 0x41 PUSH1 0x4 MSTORE PUSH1 0x24 PUSH1 0x0 REVERT JUMPDEST PUSH1 0x80 DUP2 ADD SWAP1 DUP2 LT PUSH8 0xFFFFFFFFFFFFFFFF DUP3 GT OR PUSH2 0x5EC JUMPI PUSH1 0x40 MSTORE JUMP JUMPDEST PUSH2 0x5BA JUMP JUMPDEST PUSH1 0x20 DUP2 ADD SWAP1 DUP2 LT PUSH8 0xFFFFFFFFFFFFFFFF DUP3 GT OR PUSH2 0x5EC JUMPI PUSH1 0x40 MSTORE JUMP JUMPDEST PUSH1 0x60 DUP2 ADD SWAP1 DUP2 LT PUSH8 0xFFFFFFFFFFFFFFFF DUP3 GT OR PUSH2 0x5EC JUMPI PUSH1 0x40 MSTORE JUMP JUMPDEST PUSH1 0x40 DUP2 ADD SWAP1 DUP2 LT PUSH8 0xFFFFFFFFFFFFFFFF DUP3 GT OR PUSH2 0x5EC JUMPI PUSH1 0x40 MSTORE JUMP JUMPDEST PUSH2 0xC40 DUP2 ADD SWAP1 DUP2 LT PUSH8 0xFFFFFFFFFFFFFFFF DUP3 GT OR PUSH2 0x5EC JUMPI PUSH1 0x40 MSTORE JUMP JUMPDEST SWAP1 PUSH1 0x1F DUP1 NOT SWAP2 ADD AND DUP2 ADD SWAP1 DUP2 LT PUSH8 0xFFFFFFFFFFFFFFFF DUP3 GT OR PUSH2 0x5EC JUMPI PUSH1 0x40 MSTORE JUMP JUMPDEST CALLVALUE PUSH2 0x20E JUMPI PUSH1 0x20 DUP1 PUSH1 0x3 NOT CALLDATASIZE ADD SLT PUSH2 0x20E JUMPI PUSH8 0xFFFFFFFFFFFFFFFF PUSH1 0x4 CALLDATALOAD DUP2 DUP2 GT PUSH2 0x20E JUMPI CALLDATASIZE PUSH1 0x23 DUP3 ADD SLT ISZERO PUSH2 0x20E JUMPI DUP1 PUSH1 0x4 ADD CALLDATALOAD SWAP2 DUP3 GT PUSH2 0x5EC JUMPI DUP2 PUSH1 0x5 SHL PUSH1 0x40 MLOAD SWAP3 PUSH2 0x6D4 DUP6 DUP4 ADD DUP6 PUSH2 0x662 JUMP JUMPDEST DUP4 MSTORE PUSH1 0x24 DUP5 DUP5 ADD SWAP2 DUP4 ADD ADD SWAP2 CALLDATASIZE DUP4 GT PUSH2 0x20E JUMPI PUSH1 0x24 ADD SWAP1 JUMPDEST DUP3 DUP3 LT PUSH2 0x6FC JUMPI PUSH2 0x5B8 DUP5 PUSH2 0x15E2 JUMP JUMPDEST DUP2 CALLDATALOAD DUP2 MSTORE SWAP1 DUP5 ADD SWAP1 DUP5 ADD PUSH2 0x6EC JUMP JUMPDEST CALLVALUE PUSH2 0x20E JUMPI PUSH1 0x0 DUP1 PUSH1 0x3 NOT CALLDATASIZE ADD SLT PUSH2 0x3BF JUMPI PUSH2 0x725 PUSH2 0x110A JUMP JUMPDEST PUSH2 0x730 PUSH1 0xC SLOAD PUSH2 0xD8D JUMP JUMPDEST PUSH1 0x1F DUP2 GT PUSH2 0x74B JUMPI JUMPDEST POP PUSH1 0x8 PUSH4 0x30313233 PUSH1 0xE0 SHL ADD PUSH1 0xC SSTORE DUP1 RETURN JUMPDEST PUSH1 0x1F PUSH1 0x0 DUP1 MLOAD PUSH1 0x20 PUSH2 0x42E6 DUP4 CODECOPY DUP2 MLOAD SWAP2 MSTORE SWAP2 ADD PUSH1 0x5 SHR DUP2 ADD SWAP1 JUMPDEST DUP2 DUP2 LT PUSH2 0x772 JUMPI POP PUSH2 0x739 JUMP JUMPDEST DUP3 DUP2 SSTORE PUSH1 0x1 ADD PUSH2 0x765 JUMP JUMPDEST CALLVALUE PUSH2 0x20E JUMPI PUSH1 0x0 CALLDATASIZE PUSH1 0x3 NOT ADD SLT PUSH2 0x20E JUMPI PUSH1 0x20 PUSH1 0xFF PUSH1 0xA SLOAD AND PUSH1 0x40 MLOAD SWAP1 ISZERO ISZERO DUP2 MSTORE RETURN JUMPDEST CALLVALUE PUSH2 0x20E JUMPI PUSH1 0x0 DUP1 PUSH1 0x3 NOT CALLDATASIZE ADD SLT PUSH2 0x3BF JUMPI PUSH2 0x7BA PUSH2 0x110A JUMP JUMPDEST DUP1 DUP1 DUP1 DUP1 SELFBALANCE DUP2 DUP2 ISZERO PUSH2 0x7D2 JUMPI JUMPDEST CALLER SWAP1 CALL ISZERO PUSH2 0x3BF JUMPI DUP1 RETURN JUMPDEST POP PUSH2 0x8FC PUSH2 0x7C7 JUMP JUMPDEST PUSH2 0x5B8 PUSH2 0x7E7 CALLDATASIZE PUSH2 0x571 JUMP JUMPDEST SWAP1 PUSH1 0x40 MLOAD SWAP3 PUSH2 0x7F5 DUP5 PUSH2 0x5F1 JUMP JUMPDEST PUSH1 0x0 DUP5 MSTORE PUSH2 0x3FA7 JUMP JUMPDEST CALLVALUE PUSH2 0x20E JUMPI PUSH1 0x20 CALLDATASIZE PUSH1 0x3 NOT ADD SLT PUSH2 0x20E JUMPI PUSH1 0x20 PUSH1 0x1 PUSH1 0x1 PUSH1 0xA0 SHL SUB PUSH2 0x824 PUSH1 0x4 CALLDATALOAD PUSH2 0x3D26 JUMP JUMPDEST AND PUSH1 0x40 MLOAD SWAP1 DUP2 MSTORE RETURN JUMPDEST CALLVALUE PUSH2 0x20E JUMPI PUSH1 0x20 CALLDATASIZE PUSH1 0x3 NOT ADD SLT PUSH2 0x20E JUMPI PUSH1 0x1 PUSH1 0x1 PUSH1 0xA0 SHL SUB PUSH2 0x84E PUSH2 0x416 JUMP JUMPDEST AND DUP1 ISZERO PUSH2 0x877 JUMPI PUSH1 0x0 MSTORE PUSH1 0x5 PUSH1 0x20 MSTORE PUSH1 0x20 PUSH8 0xFFFFFFFFFFFFFFFF PUSH1 0x40 PUSH1 0x0 KECCAK256 SLOAD AND PUSH1 0x40 MLOAD SWAP1 DUP2 MSTORE RETURN JUMPDEST PUSH1 0x40 MLOAD PUSH4 0x23D3AD81 PUSH1 0xE2 SHL DUP2 MSTORE PUSH1 0x4 SWAP1 REVERT JUMPDEST CALLVALUE PUSH2 0x20E JUMPI PUSH1 0x0 DUP1 PUSH1 0x3 NOT CALLDATASIZE ADD SLT PUSH2 0x3BF JUMPI PUSH2 0x8A3 PUSH2 0x110A JUMP JUMPDEST PUSH1 0x8 DUP1 SLOAD PUSH1 0x1 PUSH1 0x1 PUSH1 0xA0 SHL SUB NOT DUP2 AND SWAP1 SWAP2 SSTORE DUP2 SWAP1 PUSH1 0x1 PUSH1 0x1 PUSH1 0xA0 SHL SUB AND PUSH32 0x8BE0079C531659141344CD1FD0A4F28419497F9722A3DAAFE3B4186F6B6457E0 DUP3 DUP1 LOG3 DUP1 RETURN JUMPDEST CALLVALUE PUSH2 0x20E JUMPI PUSH1 0x0 CALLDATASIZE PUSH1 0x3 NOT ADD SLT PUSH2 0x20E JUMPI PUSH1 0x8 SLOAD PUSH1 0x40 MLOAD PUSH1 0x1 PUSH1 0x1 PUSH1 0xA0 SHL SUB SWAP1 SWAP2 AND DUP2 MSTORE PUSH1 0x20 SWAP1 RETURN JUMPDEST CALLVALUE PUSH2 0x20E JUMPI PUSH1 0x0 DUP1 PUSH1 0x3 NOT CALLDATASIZE ADD SLT PUSH2 0x3BF JUMPI PUSH2 0x92A PUSH2 0x110A JUMP JUMPDEST PUSH2 0x933 TIMESTAMP PUSH2 0x3ACD JUMP JUMPDEST SWAP1 DUP2 MLOAD PUSH8 0xFFFFFFFFFFFFFFFF DUP2 GT PUSH2 0x5EC JUMPI PUSH2 0x959 DUP2 PUSH2 0x954 PUSH1 0xC SLOAD PUSH2 0xD8D JUMP JUMPDEST PUSH2 0x1455 JUMP JUMPDEST PUSH1 0x20 DUP1 PUSH1 0x1F DUP4 GT PUSH1 0x1 EQ PUSH2 0x995 JUMPI POP DUP3 SWAP4 DUP3 SWAP4 SWAP3 PUSH2 0x98A JUMPI JUMPDEST POP POP DUP2 PUSH1 0x1 SHL SWAP2 PUSH1 0x0 NOT SWAP1 PUSH1 0x3 SHL SHR NOT AND OR PUSH1 0xC SSTORE DUP1 RETURN JUMPDEST ADD MLOAD SWAP1 POP CODESIZE DUP1 PUSH2 0x972 JUMP JUMPDEST SWAP1 PUSH1 0x1F NOT DUP4 AND SWAP5 PUSH2 0x9B6 PUSH1 0xC PUSH1 0x0 MSTORE PUSH1 0x0 DUP1 MLOAD PUSH1 0x20 PUSH2 0x42E6 DUP4 CODECOPY DUP2 MLOAD SWAP2 MSTORE SWAP1 JUMP JUMPDEST SWAP3 DUP6 SWAP1 JUMPDEST DUP8 DUP3 LT PUSH2 0x9F3 JUMPI POP POP DUP4 PUSH1 0x1 SWAP6 SWAP7 LT PUSH2 0x9DA JUMPI JUMPDEST POP POP POP DUP2 SHL ADD PUSH1 0xC SSTORE DUP1 RETURN JUMPDEST ADD MLOAD PUSH1 0x0 NOT PUSH1 0xF8 DUP5 PUSH1 0x3 SHL AND SHR NOT AND SWAP1 SSTORE CODESIZE DUP1 DUP1 PUSH2 0x9CE JUMP JUMPDEST DUP1 PUSH1 0x1 DUP6 SWAP7 DUP3 SWAP5 SWAP7 DUP7 ADD MLOAD DUP2 SSTORE ADD SWAP6 ADD SWAP4 ADD SWAP1 PUSH2 0x9BA JUMP JUMPDEST CALLVALUE PUSH2 0x20E JUMPI PUSH1 0x0 DUP1 PUSH1 0x3 NOT CALLDATASIZE ADD SLT PUSH2 0x3BF JUMPI PUSH1 0x40 MLOAD SWAP1 DUP1 PUSH1 0x3 SLOAD PUSH2 0xA2E DUP2 PUSH2 0xD8D JUMP JUMPDEST DUP1 DUP6 MSTORE SWAP2 PUSH1 0x1 SWAP2 DUP1 DUP4 AND SWAP1 DUP2 ISZERO PUSH2 0x395 JUMPI POP PUSH1 0x1 EQ PUSH2 0xA57 JUMPI PUSH2 0x336 DUP6 PUSH2 0x32A DUP2 DUP8 SUB DUP3 PUSH2 0x662 JUMP JUMPDEST SWAP3 POP PUSH1 0x3 DUP4 MSTORE PUSH32 0xC2575A0E9E593C00F959F8C92F12DB2869C3395A3B0502D05E2516446F71F85B JUMPDEST DUP3 DUP5 LT PUSH2 0xA9A JUMPI POP POP POP DUP2 ADD PUSH1 0x20 ADD PUSH2 0x32A DUP3 PUSH2 0x336 PUSH2 0x31A JUMP JUMPDEST DUP1 SLOAD PUSH1 0x20 DUP6 DUP8 ADD DUP2 ADD SWAP2 SWAP1 SWAP2 MSTORE SWAP1 SWAP4 ADD SWAP3 DUP2 ADD PUSH2 0xA7F JUMP JUMPDEST CALLVALUE PUSH2 0x20E JUMPI PUSH1 0x0 CALLDATASIZE PUSH1 0x3 NOT ADD SLT PUSH2 0x20E JUMPI PUSH1 0x20 PUSH1 0x0 NOT PUSH1 0x0 SLOAD ADD PUSH1 0x40 MLOAD SWAP1 DUP2 MSTORE RETURN JUMPDEST CALLVALUE PUSH2 0x20E JUMPI PUSH1 0x0 CALLDATASIZE PUSH1 0x3 NOT ADD SLT PUSH2 0x20E JUMPI PUSH1 0x20 PUSH2 0xAF2 PUSH1 0xB SLOAD PUSH2 0x3CF6 JUMP JUMPDEST PUSH1 0x40 MLOAD SWAP1 DUP2 MSTORE RETURN JUMPDEST CALLVALUE PUSH2 0x20E JUMPI PUSH1 0x0 CALLDATASIZE PUSH1 0x3 NOT ADD SLT PUSH2 0x20E JUMPI PUSH1 0x20 PUSH1 0x9 SLOAD PUSH1 0x40 MLOAD SWAP1 DUP2 MSTORE RETURN JUMPDEST PUSH1 0x20 CALLDATASIZE PUSH1 0x3 NOT ADD SLT PUSH2 0x20E JUMPI PUSH1 0x4 CALLDATALOAD PUSH2 0xB33 PUSH1 0x9 SLOAD DUP3 PUSH2 0x1195 JUMP JUMPDEST CALLVALUE LT PUSH2 0xBF8 JUMPI PUSH1 0x0 SLOAD PUSH2 0x5B8 SWAP2 SWAP1 PUSH1 0x0 NOT ADD PUSH2 0x3E8 DUP3 DUP2 DUP4 LT PUSH2 0xBDD JUMPI POP POP PUSH2 0xB67 PUSH2 0xB60 PUSH1 0xB SLOAD PUSH2 0x3CF6 JUMP JUMPDEST ISZERO ISZERO PUSH2 0x11E1 JUMP JUMPDEST PUSH2 0x1388 DUP3 DUP2 DUP4 LT SWAP3 DUP4 PUSH2 0xBC8 JUMPI JUMPDEST POP POP POP PUSH2 0xB83 JUMPI JUMPDEST CALLER PUSH2 0x410A JUMP JUMPDEST PUSH2 0xB94 PUSH2 0xB8F TIMESTAMP PUSH2 0x11A8 JUMP JUMPDEST PUSH1 0xB SSTORE JUMP JUMPDEST PUSH1 0xB SLOAD PUSH1 0x40 MLOAD SWAP1 DUP2 MSTORE PUSH32 0xF5B316BF09D21E0058EB23BE118A6B81BD52674B4CB843E0F446B986CE22433E SWAP1 PUSH1 0x20 SWAP1 LOG1 PUSH2 0xB7D JUMP JUMPDEST PUSH2 0xBD3 SWAP3 SWAP4 POP PUSH2 0x11D4 JUMP JUMPDEST LT ISZERO CODESIZE DUP3 DUP2 PUSH2 0xB75 JUMP JUMPDEST PUSH2 0xBE7 SWAP2 SWAP3 PUSH2 0x11D4 JUMP JUMPDEST LT PUSH2 0xB7D JUMPI PUSH2 0xB94 PUSH2 0xB8F TIMESTAMP PUSH2 0x11A8 JUMP JUMPDEST PUSH1 0x40 MLOAD PUSH3 0x461BCD PUSH1 0xE5 SHL DUP2 MSTORE PUSH1 0x20 PUSH1 0x4 DUP3 ADD MSTORE PUSH1 0xE PUSH1 0x24 DUP3 ADD MSTORE PUSH14 0xDCDEE840CADCDEEACED040CAE8D PUSH1 0x93 SHL PUSH1 0x44 DUP3 ADD MSTORE PUSH1 0x64 SWAP1 REVERT JUMPDEST CALLVALUE PUSH2 0x20E JUMPI PUSH1 0x40 CALLDATASIZE PUSH1 0x3 NOT ADD SLT PUSH2 0x20E JUMPI PUSH2 0xC47 PUSH2 0x416 JUMP JUMPDEST PUSH1 0x24 CALLDATALOAD SWAP1 DUP2 ISZERO ISZERO DUP1 SWAP3 SUB PUSH2 0x20E JUMPI CALLER PUSH1 0x0 SWAP1 DUP2 MSTORE PUSH1 0x7 PUSH1 0x20 SWAP1 DUP2 MSTORE PUSH1 0x40 DUP1 DUP4 KECCAK256 PUSH1 0x1 PUSH1 0x1 PUSH1 0xA0 SHL SUB DUP6 AND DUP5 MSTORE SWAP1 SWAP2 MSTORE SWAP1 KECCAK256 PUSH1 0xFF NOT DUP2 SLOAD AND PUSH1 0xFF DUP5 AND OR SWAP1 SSTORE PUSH1 0x40 MLOAD SWAP2 DUP3 MSTORE PUSH1 0x1 DUP1 PUSH1 0xA0 SHL SUB AND SWAP1 PUSH32 0x17307EAB39AB6107E8899845AD3D59BD9653F200F220920489CA2B5937696C31 PUSH1 0x20 CALLER SWAP3 LOG3 STOP JUMPDEST PUSH8 0xFFFFFFFFFFFFFFFF DUP2 GT PUSH2 0x5EC JUMPI PUSH1 0x1F ADD PUSH1 0x1F NOT AND PUSH1 0x20 ADD SWAP1 JUMP JUMPDEST PUSH1 0x80 CALLDATASIZE PUSH1 0x3 NOT ADD SLT PUSH2 0x20E JUMPI PUSH2 0xCEC PUSH2 0x416 JUMP JUMPDEST PUSH2 0xCF4 PUSH2 0x42C JUMP JUMPDEST PUSH1 0x64 CALLDATALOAD SWAP2 PUSH8 0xFFFFFFFFFFFFFFFF DUP4 GT PUSH2 0x20E JUMPI CALLDATASIZE PUSH1 0x23 DUP5 ADD SLT ISZERO PUSH2 0x20E JUMPI DUP3 PUSH1 0x4 ADD CALLDATALOAD SWAP2 PUSH2 0xD21 DUP4 PUSH2 0xCBC JUMP JUMPDEST SWAP3 PUSH2 0xD2F PUSH1 0x40 MLOAD SWAP5 DUP6 PUSH2 0x662 JUMP JUMPDEST DUP1 DUP5 MSTORE CALLDATASIZE PUSH1 0x24 DUP3 DUP8 ADD ADD GT PUSH2 0x20E JUMPI PUSH1 0x20 DUP2 PUSH1 0x0 SWAP3 PUSH1 0x24 PUSH2 0x5B8 SWAP9 ADD DUP4 DUP9 ADD CALLDATACOPY DUP6 ADD ADD MSTORE PUSH1 0x44 CALLDATALOAD SWAP2 PUSH2 0x3FA7 JUMP JUMPDEST CALLVALUE PUSH2 0x20E JUMPI PUSH1 0x0 CALLDATASIZE PUSH1 0x3 NOT ADD SLT PUSH2 0x20E JUMPI PUSH2 0xD75 PUSH2 0x110A JUMP JUMPDEST PUSH1 0xA SLOAD PUSH1 0xFF DUP1 DUP3 AND ISZERO AND SWAP1 PUSH1 0xFF NOT AND OR PUSH1 0xA SSTORE PUSH1 0x0 DUP1 RETURN JUMPDEST SWAP1 PUSH1 0x1 DUP3 DUP2 SHR SWAP3 AND DUP1 ISZERO PUSH2 0xDBD JUMPI JUMPDEST PUSH1 0x20 DUP4 LT EQ PUSH2 0xDA7 JUMPI JUMP JUMPDEST PUSH4 0x4E487B71 PUSH1 0xE0 SHL PUSH1 0x0 MSTORE PUSH1 0x22 PUSH1 0x4 MSTORE PUSH1 0x24 PUSH1 0x0 REVERT JUMPDEST SWAP2 PUSH1 0x7F AND SWAP2 PUSH2 0xD9C JUMP JUMPDEST PUSH1 0x40 MLOAD SWAP1 PUSH1 0x0 DUP3 PUSH1 0xC SLOAD SWAP2 PUSH2 0xDDB DUP4 PUSH2 0xD8D JUMP JUMPDEST DUP1 DUP4 MSTORE SWAP3 PUSH1 0x1 SWAP1 DUP2 DUP2 AND SWAP1 DUP2 ISZERO PUSH2 0xE51 JUMPI POP PUSH1 0x1 EQ PUSH2 0xE04 JUMPI JUMPDEST POP PUSH2 0xE02 SWAP3 POP SUB DUP4 PUSH2 0x662 JUMP JUMPDEST JUMP JUMPDEST PUSH1 0xC PUSH1 0x0 SWAP1 DUP2 MSTORE SWAP2 POP PUSH1 0x0 DUP1 MLOAD PUSH1 0x20 PUSH2 0x42E6 DUP4 CODECOPY DUP2 MLOAD SWAP2 MSTORE JUMPDEST DUP5 DUP4 LT PUSH2 0xE36 JUMPI POP PUSH2 0xE02 SWAP4 POP POP DUP2 ADD PUSH1 0x20 ADD CODESIZE PUSH2 0xDF5 JUMP JUMPDEST DUP2 SWAP4 POP SWAP1 DUP2 PUSH1 0x20 SWAP3 SLOAD DUP4 DUP6 DUP11 ADD ADD MSTORE ADD SWAP2 ADD SWAP1 SWAP2 DUP6 SWAP3 PUSH2 0xE1D JUMP JUMPDEST SWAP1 POP PUSH1 0x20 SWAP3 POP PUSH2 0xE02 SWAP5 SWAP2 POP PUSH1 0xFF NOT AND DUP3 DUP5 ADD MSTORE ISZERO ISZERO PUSH1 0x5 SHL DUP3 ADD ADD CODESIZE PUSH2 0xDF5 JUMP JUMPDEST SWAP1 PUSH1 0x40 MLOAD SWAP2 DUP3 PUSH1 0x0 DUP3 SLOAD SWAP3 PUSH2 0xE87 DUP5 PUSH2 0xD8D JUMP JUMPDEST SWAP1 DUP2 DUP5 MSTORE PUSH1 0x1 SWAP5 DUP6 DUP2 AND SWAP1 DUP2 PUSH1 0x0 EQ PUSH2 0xEF4 JUMPI POP PUSH1 0x1 EQ PUSH2 0xEB1 JUMPI JUMPDEST POP POP PUSH2 0xE02 SWAP3 POP SUB DUP4 PUSH2 0x662 JUMP JUMPDEST SWAP1 SWAP4 SWAP2 POP PUSH1 0x0 MSTORE PUSH1 0x20 SWAP1 DUP2 PUSH1 0x0 KECCAK256 SWAP4 PUSH1 0x0 SWAP2 JUMPDEST DUP2 DUP4 LT PUSH2 0xEDC JUMPI POP POP PUSH2 0xE02 SWAP4 POP DUP3 ADD ADD CODESIZE DUP1 PUSH2 0xEA3 JUMP JUMPDEST DUP6 SLOAD DUP9 DUP5 ADD DUP6 ADD MSTORE SWAP5 DUP6 ADD SWAP5 DUP8 SWAP5 POP SWAP2 DUP4 ADD SWAP2 PUSH2 0xEC4 JUMP JUMPDEST SWAP2 POP POP PUSH2 0xE02 SWAP5 POP PUSH1 0x20 SWAP3 POP PUSH1 0xFF NOT AND DUP3 DUP5 ADD MSTORE ISZERO ISZERO PUSH1 0x5 SHL DUP3 ADD ADD CODESIZE DUP1 PUSH2 0xEA3 JUMP JUMPDEST CALLVALUE PUSH2 0x20E JUMPI PUSH1 0x0 CALLDATASIZE PUSH1 0x3 NOT ADD SLT PUSH2 0x20E JUMPI PUSH2 0x336 PUSH2 0x518 PUSH2 0xDC7 JUMP JUMPDEST CALLVALUE PUSH2 0x20E JUMPI PUSH1 0x20 CALLDATASIZE PUSH1 0x3 NOT ADD SLT PUSH2 0x20E JUMPI PUSH2 0x336 PUSH2 0x32A PUSH1 0x4 CALLDATALOAD PUSH1 0x0 PUSH2 0xF58 DUP3 PUSH2 0x3D9E JUMP JUMPDEST PUSH2 0xF85 JUMPI POP PUSH2 0xF65 PUSH2 0x1346 JUMP JUMPDEST SWAP1 PUSH1 0x1 SWAP2 JUMPDEST PUSH2 0xF7E DUP3 PUSH1 0x0 MSTORE PUSH1 0xE PUSH1 0x20 MSTORE PUSH1 0x40 PUSH1 0x0 KECCAK256 SWAP1 JUMP JUMPDEST SLOAD SWAP2 PUSH2 0x18C9 JUMP JUMPDEST DUP2 DUP2 MSTORE PUSH1 0xD PUSH1 0x20 MSTORE PUSH2 0xFB1 PUSH2 0xF9C PUSH1 0x40 DUP4 KECCAK256 PUSH2 0xE73 JUMP JUMPDEST PUSH1 0x40 MLOAD SWAP1 PUSH2 0xFA9 DUP3 PUSH2 0x5F1 JUMP JUMPDEST DUP4 DUP3 MSTORE PUSH2 0x3A52 JUMP JUMPDEST PUSH2 0xFD5 JUMPI POP DUP1 PUSH1 0x0 MSTORE PUSH1 0xD PUSH1 0x20 MSTORE PUSH2 0xFCC PUSH1 0x40 PUSH1 0x0 KECCAK256 PUSH2 0xE73 JUMP JUMPDEST SWAP1 PUSH1 0x0 SWAP2 PUSH2 0xF6A JUMP JUMPDEST SWAP1 PUSH2 0xFDF DUP2 PUSH2 0x3B40 JUMP JUMPDEST PUSH2 0xF6A JUMP JUMPDEST CALLVALUE PUSH2 0x20E JUMPI PUSH1 0x40 CALLDATASIZE PUSH1 0x3 NOT ADD SLT PUSH2 0x20E JUMPI PUSH1 0x20 PUSH1 0xFF PUSH2 0x1035 PUSH2 0x1004 PUSH2 0x416 JUMP JUMPDEST PUSH2 0x100C PUSH2 0x42C JUMP JUMPDEST PUSH1 0x1 PUSH1 0x1 PUSH1 0xA0 SHL SUB SWAP2 DUP3 AND PUSH1 0x0 SWAP1 DUP2 MSTORE PUSH1 0x7 DUP7 MSTORE PUSH1 0x40 DUP1 DUP3 KECCAK256 SWAP3 SWAP1 SWAP4 AND DUP2 MSTORE PUSH1 0x20 SWAP2 SWAP1 SWAP2 MSTORE KECCAK256 SWAP1 JUMP JUMPDEST SLOAD AND PUSH1 0x40 MLOAD SWAP1 ISZERO ISZERO DUP2 MSTORE RETURN JUMPDEST CALLVALUE PUSH2 0x20E JUMPI PUSH1 0x20 CALLDATASIZE PUSH1 0x3 NOT ADD SLT PUSH2 0x20E JUMPI PUSH2 0x105A PUSH2 0x416 JUMP JUMPDEST PUSH2 0x1062 PUSH2 0x110A JUMP JUMPDEST PUSH1 0x1 PUSH1 0x1 PUSH1 0xA0 SHL SUB SWAP1 DUP2 AND SWAP1 DUP2 ISZERO PUSH2 0x10B6 JUMPI PUSH1 0x8 SLOAD DUP3 PUSH12 0xFFFFFFFFFFFFFFFFFFFFFFFF PUSH1 0xA0 SHL DUP3 AND OR PUSH1 0x8 SSTORE AND PUSH32 0x8BE0079C531659141344CD1FD0A4F28419497F9722A3DAAFE3B4186F6B6457E0 PUSH1 0x0 DUP1 LOG3 STOP JUMPDEST PUSH1 0x40 MLOAD PUSH3 0x461BCD PUSH1 0xE5 SHL DUP2 MSTORE PUSH1 0x20 PUSH1 0x4 DUP3 ADD MSTORE PUSH1 0x26 PUSH1 0x24 DUP3 ADD MSTORE PUSH32 0x4F776E61626C653A206E6577206F776E657220697320746865207A65726F2061 PUSH1 0x44 DUP3 ADD MSTORE PUSH6 0x646472657373 PUSH1 0xD0 SHL PUSH1 0x64 DUP3 ADD MSTORE PUSH1 0x84 SWAP1 REVERT JUMPDEST PUSH1 0x8 SLOAD PUSH1 0x1 PUSH1 0x1 PUSH1 0xA0 SHL SUB AND CALLER SUB PUSH2 0x111E JUMPI JUMP JUMPDEST PUSH1 0x64 PUSH1 0x40 MLOAD PUSH3 0x461BCD PUSH1 0xE5 SHL DUP2 MSTORE PUSH1 0x20 PUSH1 0x4 DUP3 ADD MSTORE PUSH1 0x20 PUSH1 0x24 DUP3 ADD MSTORE PUSH32 0x4F776E61626C653A2063616C6C6572206973206E6F7420746865206F776E6572 PUSH1 0x44 DUP3 ADD MSTORE REVERT JUMPDEST PUSH4 0x4E487B71 PUSH1 0xE0 SHL PUSH1 0x0 MSTORE PUSH1 0x11 PUSH1 0x4 MSTORE PUSH1 0x24 PUSH1 0x0 REVERT JUMPDEST PUSH1 0x2 DUP2 SWAP1 SHL SWAP2 SWAP1 PUSH1 0x1 PUSH1 0x1 PUSH1 0xFE SHL SUB DUP2 AND SUB PUSH2 0x1190 JUMPI JUMP JUMPDEST PUSH2 0x1162 JUMP JUMPDEST DUP2 DUP2 MUL SWAP3 SWAP2 DUP2 ISZERO SWAP2 DUP5 DIV EQ OR ISZERO PUSH2 0x1190 JUMPI JUMP JUMPDEST SWAP1 PUSH3 0x15180 DUP3 ADD DUP1 SWAP3 GT PUSH2 0x1190 JUMPI JUMP JUMPDEST SWAP1 PUSH1 0x2 DUP3 ADD DUP1 SWAP3 GT PUSH2 0x1190 JUMPI JUMP JUMPDEST SWAP1 PUSH1 0x1 DUP3 ADD DUP1 SWAP3 GT PUSH2 0x1190 JUMPI JUMP JUMPDEST SWAP2 SWAP1 DUP3 ADD DUP1 SWAP3 GT PUSH2 0x1190 JUMPI JUMP JUMPDEST ISZERO PUSH2 0x11E8 JUMPI JUMP JUMPDEST PUSH1 0x40 MLOAD PUSH3 0x461BCD PUSH1 0xE5 SHL DUP2 MSTORE PUSH1 0x20 PUSH1 0x4 DUP3 ADD MSTORE PUSH1 0xE PUSH1 0x24 DUP3 ADD MSTORE PUSH14 0x1B5A5B9D081A5CC818DB1BDCD959 PUSH1 0x92 SHL PUSH1 0x44 DUP3 ADD MSTORE PUSH1 0x64 SWAP1 REVERT JUMPDEST ISZERO PUSH2 0x1225 JUMPI JUMP JUMPDEST PUSH1 0x40 MLOAD PUSH3 0x461BCD PUSH1 0xE5 SHL DUP2 MSTORE PUSH1 0x20 PUSH1 0x4 DUP3 ADD MSTORE PUSH1 0x14 PUSH1 0x24 DUP3 ADD MSTORE PUSH20 0x636F6D62696E696E67206E6F7420616374697665 PUSH1 0x60 SHL PUSH1 0x44 DUP3 ADD MSTORE PUSH1 0x64 SWAP1 REVERT JUMPDEST PUSH1 0x0 NOT DUP2 EQ PUSH2 0x1190 JUMPI PUSH1 0x1 ADD SWAP1 JUMP JUMPDEST PUSH4 0x4E487B71 PUSH1 0xE0 SHL PUSH1 0x0 MSTORE PUSH1 0x32 PUSH1 0x4 MSTORE PUSH1 0x24 PUSH1 0x0 REVERT JUMPDEST DUP1 MLOAD ISZERO PUSH2 0x1293 JUMPI PUSH1 0x20 ADD SWAP1 JUMP JUMPDEST PUSH2 0x1270 JUMP JUMPDEST DUP1 MLOAD DUP3 LT ISZERO PUSH2 0x1293 JUMPI PUSH1 0x20 SWAP2 PUSH1 0x5 SHL ADD ADD SWAP1 JUMP JUMPDEST ISZERO PUSH2 0x12B3 JUMPI JUMP JUMPDEST PUSH1 0x40 MLOAD PUSH3 0x461BCD PUSH1 0xE5 SHL DUP2 MSTORE PUSH1 0x20 PUSH1 0x4 DUP3 ADD MSTORE PUSH1 0x13 PUSH1 0x24 DUP3 ADD MSTORE PUSH19 0x6D757374206F776E20616C6C20746F6B656E73 PUSH1 0x68 SHL PUSH1 0x44 DUP3 ADD MSTORE PUSH1 0x64 SWAP1 REVERT JUMPDEST SWAP1 PUSH2 0x1301 PUSH1 0x20 SWAP3 DUP3 DUP2 MLOAD SWAP5 DUP6 SWAP3 ADD PUSH2 0x281 JUMP JUMPDEST ADD SWAP1 JUMP JUMPDEST PUSH1 0x20 PUSH2 0xE02 SWAP2 SWAP4 SWAP3 SWAP4 PUSH1 0x40 MLOAD SWAP5 DUP2 PUSH2 0x1326 DUP8 SWAP4 MLOAD DUP1 SWAP3 DUP7 DUP1 DUP8 ADD SWAP2 ADD PUSH2 0x281 JUMP JUMPDEST DUP3 ADD PUSH2 0x133A DUP3 MLOAD DUP1 SWAP4 DUP7 DUP1 DUP6 ADD SWAP2 ADD PUSH2 0x281 JUMP JUMPDEST ADD SUB DUP1 DUP6 MSTORE ADD DUP4 PUSH2 0x662 JUMP JUMPDEST PUSH1 0x40 MLOAD SWAP1 PUSH2 0x1353 DUP3 PUSH2 0x5F1 JUMP JUMPDEST PUSH1 0x0 DUP3 MSTORE JUMP JUMPDEST PUSH1 0x40 MLOAD SWAP1 PUSH1 0x20 PUSH32 0x63616E277420636F6D62696E652062656361757365206C75636B79206E756D62 DUP2 DUP5 ADD MSTORE PUSH6 0x32B91034B99 PUSH1 0xD5 SHL PUSH1 0x40 DUP5 ADD MSTORE DUP3 PUSH1 0x0 PUSH1 0xC SLOAD SWAP3 PUSH2 0x13A3 DUP5 PUSH2 0xD8D JUMP JUMPDEST SWAP4 PUSH1 0x1 SWAP1 DUP2 DUP2 AND SWAP1 DUP2 ISZERO PUSH2 0x141B JUMPI POP PUSH1 0x1 EQ PUSH2 0x13CF JUMPI JUMPDEST POP POP PUSH2 0xE02 SWAP3 POP SUB PUSH1 0x1F NOT DUP2 ADD DUP5 MSTORE DUP4 PUSH2 0x662 JUMP JUMPDEST PUSH1 0xC PUSH1 0x0 SWAP1 DUP2 MSTORE SWAP2 SWAP3 POP PUSH1 0x0 DUP1 MLOAD PUSH1 0x20 PUSH2 0x42E6 DUP4 CODECOPY DUP2 MLOAD SWAP2 MSTORE JUMPDEST DUP6 DUP4 LT PUSH2 0x1404 JUMPI POP POP POP POP PUSH1 0x46 PUSH2 0xE02 SWAP3 DUP3 ADD ADD CODESIZE DUP1 PUSH2 0x13BA JUMP JUMPDEST DUP1 SLOAD DUP9 DUP5 ADD PUSH1 0x46 ADD MSTORE DUP8 SWAP5 POP SWAP2 DUP4 ADD SWAP2 DUP2 ADD PUSH2 0x13E9 JUMP JUMPDEST SWAP2 POP POP PUSH1 0x46 SWAP3 POP PUSH2 0xE02 SWAP5 SWAP2 POP PUSH1 0xFF NOT AND DUP3 DUP5 ADD MSTORE DUP1 ISZERO ISZERO MUL DUP3 ADD ADD CODESIZE DUP1 PUSH2 0x13BA JUMP JUMPDEST DUP2 DUP2 LT PUSH2 0x1449 JUMPI POP POP JUMP JUMPDEST PUSH1 0x0 DUP2 SSTORE PUSH1 0x1 ADD PUSH2 0x143E JUMP JUMPDEST SWAP1 PUSH1 0x1F DUP3 GT PUSH2 0x1462 JUMPI POP POP JUMP JUMPDEST PUSH2 0xE02 SWAP2 PUSH1 0xC PUSH1 0x0 MSTORE PUSH1 0x0 DUP1 MLOAD PUSH1 0x20 PUSH2 0x42E6 DUP4 CODECOPY DUP2 MLOAD SWAP2 MSTORE SWAP1 PUSH1 0x20 PUSH1 0x1F DUP5 ADD PUSH1 0x5 SHR DUP4 ADD SWAP4 LT PUSH2 0x149A JUMPI JUMPDEST PUSH1 0x1F ADD PUSH1 0x5 SHR ADD SWAP1 PUSH2 0x143E JUMP JUMPDEST SWAP1 SWAP2 POP DUP2 SWAP1 PUSH2 0x148D JUMP JUMPDEST SWAP2 SWAP1 PUSH1 0x1F DUP2 GT PUSH2 0x14B3 JUMPI POP POP POP JUMP JUMPDEST PUSH2 0xE02 SWAP3 PUSH1 0x0 MSTORE PUSH1 0x20 PUSH1 0x0 KECCAK256 SWAP1 PUSH1 0x20 PUSH1 0x1F DUP5 ADD PUSH1 0x5 SHR DUP4 ADD SWAP4 LT PUSH2 0x149A JUMPI PUSH1 0x1F ADD PUSH1 0x5 SHR ADD SWAP1 PUSH2 0x143E JUMP JUMPDEST PUSH1 0x0 SWAP1 PUSH2 0x14EB DUP2 SLOAD PUSH2 0xD8D JUMP JUMPDEST PUSH1 0x1F DUP2 GT PUSH2 0x14F7 JUMPI POP SSTORE JUMP JUMPDEST DUP2 DUP4 MSTORE PUSH1 0x20 DUP4 KECCAK256 PUSH2 0x1510 SWAP2 PUSH1 0x1F ADD PUSH1 0x5 SHR DUP2 ADD SWAP1 PUSH2 0x143E JUMP JUMPDEST SSTORE JUMP JUMPDEST SWAP2 SWAP1 SWAP2 DUP3 MLOAD PUSH8 0xFFFFFFFFFFFFFFFF DUP2 GT PUSH2 0x5EC JUMPI PUSH2 0x153B DUP2 PUSH2 0x1535 DUP5 SLOAD PUSH2 0xD8D JUMP JUMPDEST DUP5 PUSH2 0x14A4 JUMP JUMPDEST PUSH1 0x20 DUP1 PUSH1 0x1F DUP4 GT PUSH1 0x1 EQ PUSH2 0x1577 JUMPI POP DUP2 SWAP3 SWAP4 SWAP5 PUSH1 0x0 SWAP3 PUSH2 0x156C JUMPI JUMPDEST POP POP DUP2 PUSH1 0x1 SHL SWAP2 PUSH1 0x0 NOT SWAP1 PUSH1 0x3 SHL SHR NOT AND OR SWAP1 SSTORE JUMP JUMPDEST ADD MLOAD SWAP1 POP CODESIZE DUP1 PUSH2 0x1556 JUMP JUMPDEST SWAP1 PUSH1 0x1F NOT DUP4 AND SWAP6 PUSH2 0x158D DUP6 PUSH1 0x0 MSTORE PUSH1 0x20 PUSH1 0x0 KECCAK256 SWAP1 JUMP JUMPDEST SWAP3 PUSH1 0x0 SWAP1 JUMPDEST DUP9 DUP3 LT PUSH2 0x15CA JUMPI POP POP DUP4 PUSH1 0x1 SWAP6 SWAP7 SWAP8 LT PUSH2 0x15B1 JUMPI JUMPDEST POP POP POP DUP2 SHL ADD SWAP1 SSTORE JUMP JUMPDEST ADD MLOAD PUSH1 0x0 NOT PUSH1 0xF8 DUP5 PUSH1 0x3 SHL AND SHR NOT AND SWAP1 SSTORE CODESIZE DUP1 DUP1 PUSH2 0x15A7 JUMP JUMPDEST DUP1 PUSH1 0x1 DUP6 SWAP7 DUP3 SWAP5 SWAP7 DUP7 ADD MLOAD DUP2 SSTORE ADD SWAP6 ADD SWAP4 ADD SWAP1 PUSH2 0x1592 JUMP JUMPDEST SWAP1 PUSH2 0x15F7 PUSH2 0x15F2 PUSH1 0xA SLOAD PUSH1 0xFF AND SWAP1 JUMP JUMPDEST PUSH2 0x121E JUMP JUMPDEST PUSH1 0x0 SWAP1 DUP2 SWAP1 PUSH1 0x60 JUMPDEST DUP5 MLOAD DUP4 LT ISZERO PUSH2 0x1660 JUMPI PUSH2 0x1654 PUSH2 0x165A SWAP2 PUSH2 0x163B CALLER PUSH2 0x1635 PUSH2 0x1629 PUSH2 0x1623 DUP10 DUP13 PUSH2 0x1298 JUMP JUMPDEST MLOAD PUSH2 0x3D10 JUMP JUMPDEST PUSH1 0x1 PUSH1 0x1 PUSH1 0xA0 SHL SUB AND SWAP1 JUMP JUMPDEST EQ PUSH2 0x12AC JUMP JUMPDEST PUSH2 0x164E PUSH2 0x1648 DUP7 DUP10 PUSH2 0x1298 JUMP JUMPDEST MLOAD PUSH2 0x1846 JUMP JUMPDEST SWAP1 PUSH2 0x1305 JUMP JUMPDEST SWAP3 PUSH2 0x1261 JUMP JUMPDEST SWAP2 PUSH2 0x15FF JUMP JUMPDEST SWAP2 POP SWAP3 SWAP2 PUSH1 0x4 DUP3 MLOAD GT PUSH2 0x1801 JUMPI PUSH2 0x168D PUSH2 0x1689 PUSH2 0x167B PUSH2 0xDC7 JUMP JUMPDEST PUSH2 0x1683 PUSH2 0x1346 JUMP JUMPDEST SWAP1 PUSH2 0x3A52 JUMP JUMPDEST ISZERO SWAP1 JUMP JUMPDEST DUP1 PUSH2 0x17EA JUMPI JUMPDEST PUSH2 0x17C3 JUMPI PUSH1 0x1 SWAP1 DUP2 DUP1 JUMPDEST PUSH2 0x173E JUMPI JUMPDEST POP POP POP PUSH2 0x1728 DUP3 PUSH2 0x16F3 PUSH2 0x1739 SWAP4 PUSH2 0x16EE PUSH2 0x16DD PUSH32 0xF8E1A15ABA9398E019F0B49DF1A4FDE98EE17AE345CB5F6B5E2C27F5033E8CE7 SWAP8 PUSH2 0x1286 JUMP JUMPDEST MLOAD PUSH1 0x0 MSTORE PUSH1 0xD PUSH1 0x20 MSTORE PUSH1 0x40 PUSH1 0x0 KECCAK256 SWAP1 JUMP JUMPDEST PUSH2 0x1513 JUMP JUMPDEST PUSH2 0x1705 PUSH2 0x16FF DUP3 PUSH2 0x1286 JUMP JUMPDEST MLOAD PUSH2 0x3BC6 JUMP JUMPDEST PUSH2 0x1722 PUSH2 0x1711 DUP4 PUSH2 0x1286 JUMP JUMPDEST MLOAD PUSH1 0x0 MSTORE PUSH1 0xE PUSH1 0x20 MSTORE PUSH1 0x40 PUSH1 0x0 KECCAK256 SWAP1 JUMP JUMPDEST SSTORE PUSH2 0x1286 JUMP JUMPDEST MLOAD PUSH1 0x40 MLOAD SWAP1 DUP2 MSTORE SWAP1 DUP2 SWAP1 PUSH1 0x20 DUP3 ADD SWAP1 JUMP JUMPDEST SUB SWAP1 LOG1 JUMP JUMPDEST DUP5 MLOAD DUP2 LT ISZERO PUSH2 0x17BE JUMPI DUP1 PUSH2 0x175E PUSH2 0x1758 PUSH2 0x17B8 SWAP4 DUP9 PUSH2 0x1298 JUMP JUMPDEST MLOAD PUSH2 0x41DF JUMP JUMPDEST PUSH2 0x1773 PUSH2 0x176E PUSH2 0x16DD DUP4 DUP10 PUSH2 0x1298 JUMP JUMPDEST PUSH2 0x14DE JUMP JUMPDEST DUP3 PUSH2 0x1781 PUSH2 0x1711 DUP4 DUP10 PUSH2 0x1298 JUMP JUMPDEST SSTORE PUSH32 0xF8E1A15ABA9398E019F0B49DF1A4FDE98EE17AE345CB5F6B5E2C27F5033E8CE7 PUSH2 0x17B0 PUSH2 0x1728 DUP4 DUP10 PUSH2 0x1298 JUMP JUMPDEST SUB SWAP1 LOG1 PUSH2 0x1261 JUMP JUMPDEST DUP3 PUSH2 0x169D JUMP JUMPDEST PUSH2 0x16A2 JUMP JUMPDEST PUSH2 0x17E6 PUSH2 0x17CE PUSH2 0x1359 JUMP JUMPDEST PUSH1 0x40 MLOAD PUSH3 0x461BCD PUSH1 0xE5 SHL DUP2 MSTORE SWAP2 DUP3 SWAP2 PUSH1 0x4 DUP4 ADD PUSH2 0x2C9 JUMP JUMPDEST SUB SWAP1 REVERT JUMPDEST POP PUSH2 0x17FC DUP3 PUSH2 0x17F7 PUSH2 0xDC7 JUMP JUMPDEST PUSH2 0x3A52 JUMP JUMPDEST PUSH2 0x1693 JUMP JUMPDEST PUSH1 0x40 MLOAD PUSH3 0x461BCD PUSH1 0xE5 SHL DUP2 MSTORE PUSH1 0x20 PUSH1 0x4 DUP3 ADD MSTORE PUSH1 0x1F PUSH1 0x24 DUP3 ADD MSTORE PUSH32 0x76616C7565206E6F206D6F7265207468616E2034206368617261637465727300 PUSH1 0x44 DUP3 ADD MSTORE PUSH1 0x64 SWAP1 REVERT JUMPDEST PUSH2 0x184F DUP2 PUSH2 0x3D9E JUMP JUMPDEST PUSH2 0x1867 JUMPI POP PUSH1 0x40 MLOAD PUSH2 0x1860 DUP2 PUSH2 0x5F1 JUMP JUMPDEST PUSH1 0x0 DUP2 MSTORE SWAP1 JUMP JUMPDEST DUP1 PUSH1 0x0 MSTORE PUSH1 0xD PUSH1 0x20 MSTORE PUSH2 0x1896 PUSH2 0x1880 PUSH1 0x40 PUSH1 0x0 KECCAK256 PUSH2 0xE73 JUMP JUMPDEST PUSH1 0x40 MLOAD SWAP1 PUSH2 0x188D DUP3 PUSH2 0x5F1 JUMP JUMPDEST PUSH1 0x0 DUP3 MSTORE PUSH2 0x3A52 JUMP JUMPDEST PUSH2 0x18AF JUMPI PUSH1 0x0 MSTORE PUSH1 0xD PUSH1 0x20 MSTORE PUSH2 0x2DA PUSH1 0x40 PUSH1 0x0 KECCAK256 PUSH2 0xE73 JUMP JUMPDEST PUSH2 0x2DA SWAP1 PUSH2 0x3B40 JUMP JUMPDEST SWAP1 PUSH1 0x3 DUP2 LT ISZERO PUSH2 0x1293 JUMPI PUSH1 0x5 SHL ADD SWAP1 JUMP JUMPDEST SWAP1 SWAP3 SWAP2 PUSH2 0x18D6 DUP2 DUP4 PUSH2 0x3C64 JUMP JUMPDEST SWAP3 ISZERO PUSH2 0x1A5C JUMPI POP PUSH2 0x194A PUSH2 0x1909 PUSH2 0x1A19 SWAP5 PUSH2 0x1A19 PUSH2 0x1A0B PUSH2 0x190E PUSH2 0x1909 PUSH2 0x2DA SWAP9 PUSH2 0x1903 PUSH2 0x1A27 SWAP10 PUSH2 0x39BD JUMP JUMPDEST SWAP6 PUSH2 0x2D6C JUMP JUMPDEST PUSH2 0x1D5C JUMP JUMPDEST PUSH2 0x1944 PUSH1 0x40 MLOAD SWAP7 DUP8 SWAP6 PUSH2 0x1944 PUSH1 0x20 DUP9 ADD PUSH1 0x19 SWAP1 PUSH25 0x3D913730B6B2911D101121A7A6A124A722AFA72AA6A122A91 PUSH1 0x3D SHL DUP2 MSTORE ADD SWAP1 JUMP JUMPDEST SWAP1 PUSH2 0x12EE JUMP JUMPDEST PUSH32 0x205B4255524E45445D222C20226465736372697074696F6E223A20224E756D62 DUP2 MSTORE PUSH32 0x65727320617265206172742C20616E642077652061726520617274697374732E PUSH1 0x20 DUP3 ADD MSTORE PUSH32 0x222C202261747472696275746573223A5B7B2274726169745F74797065223A20 PUSH1 0x40 DUP3 ADD MSTORE PUSH32 0x224275726E6564222C202276616C7565223A2022596573227D5D2C2022696D61 PUSH1 0x60 DUP3 ADD MSTORE PUSH32 0x6765223A2022646174613A696D6167652F7376672B786D6C3B6261736536342C PUSH1 0x80 DUP3 ADD MSTORE PUSH1 0xA0 ADD SWAP1 JUMP JUMPDEST PUSH2 0x227D PUSH1 0xF0 SHL DUP2 MSTORE PUSH1 0x2 ADD SWAP1 JUMP JUMPDEST SUB PUSH1 0x1F NOT DUP2 ADD DUP4 MSTORE DUP3 PUSH2 0x662 JUMP JUMPDEST PUSH1 0x40 MLOAD PUSH32 0x646174613A6170706C69636174696F6E2F6A736F6E3B6261736536342C000000 PUSH1 0x20 DUP3 ADD MSTORE SWAP3 DUP4 SWAP2 PUSH1 0x3D DUP4 ADD PUSH2 0x1944 JUMP JUMPDEST SWAP2 SWAP1 PUSH2 0x1A67 SWAP1 PUSH2 0x39BD JUMP JUMPDEST SWAP2 PUSH2 0x1A71 SWAP1 PUSH2 0x1E37 JUMP JUMPDEST SWAP1 DUP1 MLOAD PUSH2 0x1A7D SWAP1 PUSH2 0x39BD JUMP JUMPDEST PUSH1 0x20 DUP3 ADD MLOAD PUSH2 0x1A8B SWAP1 PUSH2 0x39BD JUMP JUMPDEST SWAP1 PUSH1 0x40 DUP4 ADD MLOAD PUSH2 0x1A9A SWAP1 PUSH2 0x39BD JUMP JUMPDEST SWAP3 PUSH2 0x1AA5 SWAP1 DUP8 PUSH2 0x2D6C JUMP JUMPDEST PUSH2 0x1AAE SWAP1 PUSH2 0x1D5C JUMP JUMPDEST PUSH1 0x40 MLOAD PUSH25 0x3D913730B6B2911D101121A7A6A124A722AFA72AA6A122A91 PUSH1 0x3D SHL PUSH1 0x20 DUP3 ADD MSTORE SWAP7 DUP8 SWAP7 SWAP2 SWAP6 SWAP2 PUSH1 0x39 DUP9 ADD PUSH2 0x1AE6 SWAP2 PUSH2 0x12EE JUMP JUMPDEST PUSH32 0x222C20226465736372697074696F6E223A20224E756D62657273206172652061 DUP2 MSTORE PUSH32 0x72742C20616E642077652061726520617274697374732E222C20226174747269 PUSH1 0x20 DUP3 ADD MSTORE PUSH32 0x6275746573223A5B7B2274726169745F74797065223A20224E756D626572222C PUSH1 0x40 DUP3 ADD MSTORE PUSH32 0x20226D61785F76616C7565223A20393939392C202276616C7565223A20000000 PUSH1 0x60 DUP3 ADD MSTORE PUSH1 0x7D ADD PUSH2 0x1B87 SWAP2 PUSH2 0x12EE JUMP JUMPDEST PUSH32 0x7D2C7B2274726169745F74797065223A20224275726E6564222C202276616C75 DUP2 MSTORE PUSH32 0x65223A20224E6F227D2C7B2274726169745F74797065223A2022426173652043 PUSH1 0x20 DUP3 ADD MSTORE PUSH17 0x37B637B9111610113B30B63AB2911D1011 PUSH1 0x79 SHL PUSH1 0x40 DUP3 ADD MSTORE PUSH1 0x51 ADD PUSH2 0x1BF6 SWAP2 PUSH2 0x12EE JUMP JUMPDEST PUSH32 0x227D2C7B2274726169745F74797065223A2022436F6C6F72222C202276616C75 DUP2 MSTORE PUSH9 0xCA44744044A48E845 PUSH1 0xBB SHL PUSH1 0x20 DUP3 ADD MSTORE PUSH1 0x29 ADD PUSH2 0x1C37 SWAP2 PUSH2 0x12EE JUMP JUMPDEST PUSH1 0xB PUSH1 0xFA SHL DUP2 MSTORE PUSH1 0x1 ADD PUSH2 0x1C4A SWAP2 PUSH2 0x12EE JUMP JUMPDEST PUSH1 0xB PUSH1 0xFA SHL DUP2 MSTORE PUSH1 0x1 ADD PUSH2 0x1C5D SWAP2 PUSH2 0x12EE JUMP JUMPDEST PUSH32 0x29227D5D2C2022696D616765223A2022646174613A696D6167652F7376672B78 DUP2 MSTORE PUSH10 0x1B5B0ED8985CD94D8D0B PUSH1 0xB2 SHL PUSH1 0x20 DUP3 ADD MSTORE PUSH1 0x2A ADD PUSH2 0x1C9F SWAP2 PUSH2 0x12EE JUMP JUMPDEST PUSH2 0x227D PUSH1 0xF0 SHL DUP2 MSTORE PUSH1 0x2 ADD SUB PUSH1 0x1F NOT DUP2 ADD DUP3 MSTORE PUSH2 0x1CBC SWAP1 DUP3 PUSH2 0x662 JUMP JUMPDEST PUSH2 0x2DA PUSH2 0x1A27 PUSH2 0x1A19 SWAP3 PUSH2 0x1D5C JUMP JUMPDEST PUSH1 0x40 MLOAD SWAP1 PUSH2 0x1CD8 DUP3 PUSH2 0x60D JUMP JUMPDEST PUSH1 0x40 DUP3 MSTORE PUSH32 0x6768696A6B6C6D6E6F707172737475767778797A303132333435363738392B2F PUSH1 0x40 DUP4 PUSH32 0x4142434445464748494A4B4C4D4E4F505152535455565758595A616263646566 PUSH1 0x20 DUP3 ADD MSTORE ADD MSTORE JUMP JUMPDEST SWAP1 PUSH2 0x1D34 DUP3 PUSH2 0xCBC JUMP JUMPDEST PUSH2 0x1D41 PUSH1 0x40 MLOAD SWAP2 DUP3 PUSH2 0x662 JUMP JUMPDEST DUP3 DUP2 MSTORE DUP1 SWAP3 PUSH2 0x1D52 PUSH1 0x1F NOT SWAP2 PUSH2 0xCBC JUMP JUMPDEST ADD SWAP1 PUSH1 0x20 CALLDATASIZE SWAP2 ADD CALLDATACOPY JUMP JUMPDEST DUP1 MLOAD ISZERO PUSH2 0x1E2E JUMPI PUSH2 0x1D6B PUSH2 0x1CCB JUMP JUMPDEST PUSH2 0x1D8F PUSH2 0x1D8A PUSH2 0x1D85 PUSH2 0x1D7E DUP6 MLOAD PUSH2 0x11B8 JUMP JUMPDEST PUSH1 0x3 SWAP1 DIV SWAP1 JUMP JUMPDEST PUSH2 0x1178 JUMP JUMPDEST PUSH2 0x1D2A JUMP JUMPDEST SWAP2 PUSH1 0x20 DUP4 ADD SWAP2 DUP2 DUP3 MLOAD DUP4 ADD SWAP2 JUMPDEST DUP3 DUP3 LT PUSH2 0x1DDC JUMPI POP POP POP PUSH1 0x3 SWAP1 MLOAD MOD DUP1 PUSH1 0x1 EQ PUSH2 0x1DC9 JUMPI PUSH1 0x2 EQ PUSH2 0x1DBE JUMPI POP SWAP1 JUMP JUMPDEST PUSH1 0x3D SWAP1 PUSH1 0x0 NOT ADD MSTORE8 SWAP1 JUMP JUMPDEST POP PUSH1 0x3D SWAP1 DUP2 PUSH1 0x0 NOT DUP3 ADD MSTORE8 PUSH1 0x1 NOT ADD MSTORE8 SWAP1 JUMP JUMPDEST SWAP1 SWAP2 SWAP4 PUSH1 0x4 SWAP1 PUSH1 0x3 DUP1 SWAP5 ADD SWAP4 DUP5 MLOAD PUSH1 0x1 SWAP1 PUSH1 0x3F SWAP1 DUP3 DUP3 DUP3 PUSH1 0x12 SHR AND DUP9 ADD ADD MLOAD DUP6 MSTORE8 DUP3 DUP3 DUP3 PUSH1 0xC SHR AND DUP9 ADD ADD MLOAD DUP4 DUP7 ADD MSTORE8 DUP3 DUP3 DUP3 PUSH1 0x6 SHR AND DUP9 ADD ADD MLOAD PUSH1 0x2 DUP7 ADD MSTORE8 AND DUP6 ADD ADD MLOAD SWAP1 DUP3 ADD MSTORE8 ADD SWAP4 SWAP2 SWAP1 PUSH2 0x1D9C JUMP JUMPDEST POP PUSH2 0x2DA PUSH2 0x1346 JUMP JUMPDEST PUSH1 0x40 SWAP1 DUP2 MLOAD SWAP2 PUSH2 0x1E46 DUP4 PUSH2 0x5D0 JUMP JUMPDEST DUP1 MLOAD PUSH2 0x1E51 DUP2 PUSH2 0x629 JUMP JUMPDEST PUSH1 0x5 DUP2 MSTORE PUSH5 0x5768697465 PUSH1 0xD8 SHL PUSH1 0x20 DUP3 ADD MSTORE DUP4 MSTORE DUP1 MLOAD PUSH2 0x1E70 DUP2 PUSH2 0x629 JUMP JUMPDEST PUSH1 0x3 DUP2 MSTORE PUSH3 0x149959 PUSH1 0xEA SHL PUSH1 0x20 DUP3 ADD MSTORE PUSH1 0x20 DUP5 ADD MSTORE DUP1 MLOAD PUSH2 0x1E90 DUP2 PUSH2 0x629 JUMP JUMPDEST PUSH1 0x5 DUP2 MSTORE PUSH5 0x23B932B2B7 PUSH1 0xD9 SHL PUSH1 0x20 DUP3 ADD MSTORE DUP2 DUP5 ADD MSTORE MLOAD PUSH2 0x1EB0 DUP2 PUSH2 0x629 JUMP JUMPDEST PUSH1 0x4 DUP2 MSTORE PUSH4 0x426C7565 PUSH1 0xE0 SHL PUSH1 0x20 DUP3 ADD MSTORE PUSH1 0x60 DUP4 ADD MSTORE PUSH1 0x4 DUP2 LT ISZERO PUSH2 0x1293 JUMPI PUSH1 0x5 SHL ADD MLOAD SWAP1 JUMP JUMPDEST PUSH1 0x40 MLOAD SWAP1 PUSH2 0x1EE4 DUP3 PUSH2 0x645 JUMP JUMPDEST PUSH2 0xC19 DUP3 MSTORE PUSH32 0x6C2D6F7061636974793D22302E3035222F3E3C7374796C653E00000000000000 PUSH2 0xC20 DUP4 PUSH32 0x3C7376672076696577426F783D223020302033303020333030222066696C6C3D PUSH1 0x20 DUP3 ADD MSTORE PUSH32 0x226E6F6E652220786D6C6E733D22687474703A2F2F7777772E77332E6F72672F PUSH1 0x40 DUP3 ADD MSTORE PUSH32 0x323030302F737667223E3C726563742069643D226267222077696474683D2233 PUSH1 0x60 DUP3 ADD MSTORE PUSH32 0x303022206865696768743D22333030222066696C6C3D2223304330433043222F PUSH1 0x80 DUP3 ADD MSTORE PUSH32 0x3E3C706174682069643D227030312220643D224D313030203131394C31303320 PUSH1 0xA0 DUP3 ADD MSTORE PUSH32 0x3132324C313030203132354C3830203132354C3737203132324C383020313139 PUSH1 0xC0 DUP3 ADD MSTORE PUSH32 0x4C313030203131395A222066696C6C3D227768697465222066696C6C2D6F7061 PUSH1 0xE0 DUP3 ADD MSTORE PUSH32 0x636974793D22302E3035222F3E3C706174682069643D227030322220643D224D PUSH2 0x100 DUP3 ADD MSTORE PUSH32 0x3733203132364C3736203132334C373920313236563134364C3736203134394C PUSH2 0x120 DUP3 ADD MSTORE PUSH32 0x373320313436563132365A222066696C6C3D227768697465222066696C6C2D6F PUSH2 0x140 DUP3 ADD MSTORE PUSH32 0x7061636974793D22302E3035222F3E3C706174682069643D227030332220643D PUSH2 0x160 DUP3 ADD MSTORE PUSH32 0x224D313031203132364C313034203132334C31303720313236563134364C3130 PUSH2 0x180 DUP3 ADD MSTORE PUSH32 0x34203134394C31303120313436563132365A222066696C6C3D22776869746522 PUSH2 0x1A0 DUP3 ADD MSTORE PUSH32 0x2066696C6C2D6F7061636974793D22302E3035222F3E3C706174682069643D22 DUP1 PUSH2 0x1C0 DUP4 ADD MSTORE PUSH32 0x7030342220643D224D313030203134374C313033203135304C31303020313533 PUSH2 0x1E0 DUP4 ADD MSTORE PUSH32 0x4C3830203135334C3737203135304C3830203134374C313030203134375A2220 PUSH2 0x200 DUP4 ADD MSTORE PUSH32 0x66696C6C3D227768697465222066696C6C2D6F7061636974793D22302E303522 PUSH2 0x220 DUP4 ADD MSTORE PUSH32 0x2F3E3C706174682069643D227030352220643D224D3733203135344C37362031 PUSH2 0x240 DUP4 ADD MSTORE PUSH32 0x35314C373920313534563137344C3736203137374C373320313734563135345A PUSH2 0x260 DUP4 ADD MSTORE PUSH32 0x222066696C6C3D227768697465222066696C6C2D6F7061636974793D22302E30 PUSH2 0x280 DUP4 ADD MSTORE PUSH32 0x35222F3E3C706174682069643D227030362220643D224D313031203135344C31 PUSH2 0x2A0 DUP4 ADD MSTORE PUSH32 0x3034203135314C31303720313534563137344C313034203137374C3130312031 PUSH2 0x2C0 DUP4 ADD MSTORE PUSH32 0x3734563135345A222066696C6C3D227768697465222066696C6C2D6F70616369 PUSH2 0x2E0 DUP4 ADD MSTORE PUSH32 0x74793D22302E3035222F3E3C706174682069643D227030372220643D224D3130 PUSH2 0x300 DUP4 ADD MSTORE PUSH32 0x30203137354C313033203137384C313030203138314C3830203138314C373720 PUSH2 0x320 DUP4 ADD MSTORE PUSH32 0x3137384C3830203137354C313030203137355A222066696C6C3D227768697465 PUSH2 0x340 DUP4 ADD MSTORE PUSH32 0x222066696C6C2D6F7061636974793D22302E3035222F3E3C706174682069643D PUSH2 0x360 DUP4 ADD MSTORE PUSH32 0x227031312220643D224D313430203131394C313433203132324C313430203132 PUSH2 0x380 DUP4 ADD MSTORE PUSH32 0x354C313230203132354C313137203132324C313230203131394C313430203131 PUSH2 0x3A0 DUP4 ADD MSTORE PUSH32 0x395A222066696C6C3D227768697465222066696C6C2D6F7061636974793D2230 PUSH2 0x3C0 DUP4 ADD MSTORE PUSH32 0x2E3035222F3E3C706174682069643D227031322220643D224D31313320313236 PUSH2 0x3E0 DUP4 ADD MSTORE PUSH32 0x4C313136203132334C31313920313236563134364C313136203134394C313133 PUSH2 0x400 DUP4 ADD MSTORE PUSH32 0x20313436563132365A222066696C6C3D227768697465222066696C6C2D6F7061 PUSH2 0x420 DUP4 ADD MSTORE PUSH32 0x636974793D22302E3035222F3E3C706174682069643D227031332220643D224D PUSH2 0x440 DUP4 ADD MSTORE PUSH32 0x313431203132364C313434203132334C31343720313236563134364C31343420 PUSH2 0x460 DUP4 ADD MSTORE PUSH32 0x3134394C31343120313436563132365A222066696C6C3D227768697465222066 PUSH2 0x480 DUP4 ADD MSTORE PUSH32 0x696C6C2D6F7061636974793D22302E3035222F3E3C706174682069643D227031 PUSH2 0x4A0 DUP4 ADD MSTORE PUSH32 0x342220643D224D313430203134374C313433203135304C313430203135334C31 PUSH2 0x4C0 DUP4 ADD MSTORE PUSH32 0x3230203135334C313137203135304C313230203134374C313430203134375A22 PUSH2 0x4E0 DUP4 ADD MSTORE PUSH32 0x2066696C6C3D227768697465222066696C6C2D6F7061636974793D22302E3035 SWAP1 DUP2 PUSH2 0x500 DUP5 ADD MSTORE PUSH32 0x222F3E3C706174682069643D227031352220643D224D313133203135344C3131 PUSH2 0x520 DUP5 ADD MSTORE PUSH32 0x36203135314C31313920313534563137344C313136203137374C313133203137 PUSH2 0x540 DUP5 ADD MSTORE PUSH32 0x34563135345A222066696C6C3D227768697465222066696C6C2D6F7061636974 PUSH2 0x560 DUP5 ADD MSTORE PUSH32 0x793D22302E3035222F3E3C706174682069643D227031362220643D224D313431 PUSH2 0x580 DUP5 ADD MSTORE PUSH32 0x203135344C313434203135314C31343720313534563137344C31343420313737 PUSH2 0x5A0 DUP5 ADD MSTORE PUSH32 0x4C31343120313734563135345A222066696C6C3D227768697465222066696C6C PUSH2 0x5C0 DUP5 ADD MSTORE PUSH32 0x2D6F7061636974793D22302E3035222F3E3C706174682069643D227031372220 PUSH2 0x5E0 DUP5 ADD MSTORE PUSH32 0x643D224D313430203137354C313433203137384C313430203138314C31323020 PUSH2 0x600 DUP5 ADD MSTORE PUSH32 0x3138314C313137203137384C313230203137354C313430203137355A22206669 PUSH2 0x620 DUP5 ADD MSTORE PUSH32 0x6C6C3D227768697465222066696C6C2D6F7061636974793D22302E3035222F3E PUSH2 0x640 DUP5 ADD MSTORE PUSH32 0x3C706174682069643D227032312220643D224D313830203131394C3138332031 PUSH2 0x660 DUP5 ADD MSTORE PUSH32 0x32324C313830203132354C313630203132354C313537203132324C3136302031 PUSH2 0x680 DUP5 ADD MSTORE PUSH32 0x31394C313830203131395A222066696C6C3D227768697465222066696C6C2D6F PUSH2 0x6A0 DUP5 ADD MSTORE PUSH32 0x7061636974793D22302E3035222F3E3C706174682069643D227032322220643D PUSH2 0x6C0 DUP5 ADD MSTORE PUSH32 0x224D313533203132364C313536203132334C31353920313236563134364C3135 PUSH2 0x6E0 DUP5 ADD MSTORE PUSH32 0x36203134394C31353320313436563132365A222066696C6C3D22776869746522 PUSH2 0x700 DUP5 ADD MSTORE PUSH2 0x720 DUP4 ADD MSTORE PUSH32 0x7032332220643D224D313831203132364C313834203132334C31383720313236 PUSH2 0x740 DUP4 ADD MSTORE PUSH32 0x563134364C313834203134394C31383120313436563132365A222066696C6C3D PUSH2 0x760 DUP4 ADD MSTORE PUSH32 0x227768697465222066696C6C2D6F7061636974793D22302E3035222F3E3C7061 PUSH2 0x780 DUP4 ADD MSTORE PUSH32 0x74682069643D227032342220643D224D313830203134374C313833203135304C PUSH2 0x7A0 DUP4 ADD MSTORE PUSH32 0x313830203135334C313630203135334C313537203135304C313630203134374C PUSH2 0x7C0 DUP4 ADD MSTORE PUSH32 0x313830203134375A222066696C6C3D227768697465222066696C6C2D6F706163 PUSH2 0x7E0 DUP4 ADD MSTORE PUSH32 0x6974793D22302E3035222F3E3C706174682069643D227032352220643D224D31 PUSH2 0x800 DUP4 ADD MSTORE PUSH32 0x3533203135344C313536203135314C31353920313534563137344C3135362031 PUSH2 0x820 DUP4 ADD MSTORE PUSH32 0x37374C31353320313734563135345A222066696C6C3D22776869746522206669 PUSH2 0x840 DUP4 ADD MSTORE PUSH32 0x6C6C2D6F7061636974793D22302E3035222F3E3C706174682069643D22703236 PUSH2 0x860 DUP4 ADD MSTORE PUSH32 0x2220643D224D313831203135344C313834203135314C31383720313534563137 PUSH2 0x880 DUP4 ADD MSTORE PUSH32 0x344C313834203137374C31383120313734563135345A222066696C6C3D227768 PUSH2 0x8A0 DUP4 ADD MSTORE PUSH32 0x697465222066696C6C2D6F7061636974793D22302E3035222F3E3C7061746820 PUSH2 0x8C0 DUP4 ADD MSTORE PUSH32 0x69643D227032372220643D224D313830203137354C313833203137384C313830 PUSH2 0x8E0 DUP4 ADD MSTORE PUSH32 0x203138314C313630203138314C313537203137384C313630203137354C313830 PUSH2 0x900 DUP4 ADD MSTORE PUSH32 0x203137355A222066696C6C3D227768697465222066696C6C2D6F706163697479 PUSH2 0x920 DUP4 ADD MSTORE PUSH32 0x3D22302E3035222F3E3C706174682069643D227033312220643D224D32323020 PUSH2 0x940 DUP4 ADD MSTORE PUSH32 0x3131394C323233203132324C323230203132354C323030203132354C31393720 PUSH2 0x960 DUP4 ADD MSTORE PUSH32 0x3132324C323030203131394C323230203131395A222066696C6C3D2277686974 PUSH2 0x980 DUP4 ADD MSTORE PUSH32 0x65222066696C6C2D6F7061636974793D22302E3035222F3E3C70617468206964 PUSH2 0x9A0 DUP4 ADD MSTORE PUSH32 0x3D227033322220643D224D313933203132364C313936203132334C3139392031 PUSH2 0x9C0 DUP4 ADD MSTORE PUSH32 0x3236563134364C313936203134394C31393320313436563132365A222066696C PUSH2 0x9E0 DUP4 ADD MSTORE PUSH32 0x6C3D227768697465222066696C6C2D6F7061636974793D22302E3035222F3E3C PUSH2 0xA00 DUP4 ADD MSTORE PUSH32 0x706174682069643D227033332220643D224D323231203132364C323234203132 PUSH2 0xA20 DUP4 ADD MSTORE PUSH32 0x334C32323720313236563134364C323234203134394C32323120313436563132 PUSH2 0xA40 DUP4 ADD MSTORE PUSH32 0x365A222066696C6C3D227768697465222066696C6C2D6F7061636974793D2230 PUSH2 0xA60 DUP4 ADD MSTORE PUSH32 0x2E3035222F3E3C706174682069643D227033342220643D224D32323020313437 PUSH2 0xA80 DUP4 ADD MSTORE PUSH32 0x4C323233203135304C323230203135334C323030203135334C31393720313530 PUSH2 0xAA0 DUP4 ADD MSTORE PUSH32 0x4C323030203134374C323230203134375A222066696C6C3D2277686974652220 PUSH2 0xAC0 DUP4 ADD MSTORE PUSH32 0x66696C6C2D6F7061636974793D22302E3035222F3E3C706174682069643D2270 PUSH2 0xAE0 DUP4 ADD MSTORE PUSH32 0x33352220643D224D313933203135344C313936203135314C3139392031353456 PUSH2 0xB00 DUP4 ADD MSTORE PUSH32 0x3137344C313936203137374C31393320313734563135345A222066696C6C3D22 PUSH2 0xB20 DUP4 ADD MSTORE PUSH32 0x7768697465222066696C6C2D6F7061636974793D22302E3035222F3E3C706174 PUSH2 0xB40 DUP4 ADD MSTORE PUSH32 0x682069643D227033362220643D224D323231203135344C323234203135314C32 PUSH2 0xB60 DUP4 ADD MSTORE PUSH32 0x323720313534563137344C323234203137374C32323120313734563135345A22 PUSH2 0xB80 DUP4 ADD MSTORE PUSH2 0xBA0 DUP3 ADD MSTORE PUSH32 0x222F3E3C706174682069643D227033372220643D224D323230203137354C3232 PUSH2 0xBC0 DUP3 ADD MSTORE PUSH32 0x33203137384C323230203138314C323030203138314C313937203137384C3230 PUSH2 0xBE0 DUP3 ADD MSTORE PUSH32 0x30203137354C323230203137355A222066696C6C3D227768697465222066696C PUSH2 0xC00 DUP3 ADD MSTORE ADD MSTORE JUMP JUMPDEST PUSH2 0x2DA SWAP1 PUSH2 0x2DEA PUSH2 0x2E61 PUSH2 0x2E47 PUSH2 0x1944 PUSH2 0x2D84 PUSH2 0x1ED7 JUMP JUMPDEST SWAP7 PUSH2 0x2D8F DUP2 MLOAD PUSH2 0x39BD JUMP JUMPDEST PUSH2 0x2E09 PUSH1 0x20 SWAP7 DUP8 SWAP3 PUSH2 0x1944 PUSH2 0x2DDD PUSH2 0x2DA9 DUP7 DUP9 ADD MLOAD PUSH2 0x39BD JUMP JUMPDEST PUSH2 0x1944 PUSH2 0x2DDD PUSH2 0x2DBD PUSH1 0x40 DUP1 SWAP12 ADD MLOAD PUSH2 0x39BD JUMP JUMPDEST SWAP6 DUP11 MLOAD SWAP12 DUP13 SWAP11 DUP12 ADD PUSH1 0xB SWAP1 PUSH11 0x54F6CCD2D8D874E4CEC45 PUSH1 0xAB SHL DUP2 MSTORE ADD SWAP1 JUMP JUMPDEST PUSH1 0xB PUSH1 0xFA SHL DUP2 MSTORE PUSH1 0x1 ADD SWAP1 JUMP JUMPDEST PUSH19 0x297D2362677B66696C6C3A233043304330437D PUSH1 0x68 SHL DUP2 MSTORE PUSH1 0x13 ADD SWAP1 JUMP JUMPDEST SUB SWAP6 PUSH2 0x2E1D PUSH1 0x1F NOT SWAP8 DUP9 DUP2 ADD DUP6 MSTORE DUP5 PUSH2 0x662 JUMP JUMPDEST DUP3 PUSH2 0x2E2F PUSH2 0x2E29 PUSH2 0x1346 JUMP JUMPDEST DUP4 PUSH2 0x3A52 JUMP JUMPDEST ISZERO PUSH2 0x2E6D JUMPI JUMPDEST POP POP PUSH2 0x1944 SWAP1 MLOAD SWAP8 DUP9 SWAP6 DUP7 ADD SWAP1 PUSH2 0x12EE JUMP JUMPDEST PUSH14 0x1E17B9BA3CB6329F1E17B9BB339F PUSH1 0x91 SHL DUP2 MSTORE PUSH1 0xE ADD SWAP1 JUMP JUMPDEST SUB SWAP1 DUP2 ADD DUP4 MSTORE DUP3 PUSH2 0x662 JUMP JUMPDEST PUSH2 0x2E78 DUP3 MLOAD SWAP3 PUSH2 0x3002 JUMP JUMPDEST SWAP2 PUSH1 0x1 DUP2 SUB PUSH2 0x2EC1 JUMPI POP POP PUSH2 0x2EB8 PUSH2 0x1944 SWAP3 SWAP4 PUSH2 0x2EAC PUSH2 0x2E9E PUSH1 0x60 PUSH2 0x1944 SWAP6 ADD MLOAD PUSH2 0x37EB JUMP JUMPDEST DUP7 MLOAD SWAP5 DUP6 SWAP4 DUP12 DUP6 ADD SWAP1 PUSH2 0x12EE JUMP JUMPDEST SUB DUP9 DUP2 ADD DUP4 MSTORE DUP3 PUSH2 0x662 JUMP JUMPDEST SWAP2 JUMPDEST SWAP1 CODESIZE PUSH2 0x2E35 JUMP JUMPDEST PUSH1 0x2 DUP2 SUB PUSH2 0x2F1D JUMPI POP POP PUSH2 0x2F17 DUP3 SWAP4 PUSH2 0x2EAC PUSH2 0x2E9E PUSH1 0x60 DUP6 PUSH2 0x2F10 DUP14 DUP14 PUSH2 0x2F04 DUP12 PUSH2 0x1944 PUSH2 0x2EF7 PUSH2 0x1944 SWAP15 PUSH2 0x1944 SWAP15 ADD MLOAD PUSH2 0x37E3 JUMP JUMPDEST SWAP2 MLOAD SWAP11 DUP12 SWAP5 DUP6 ADD SWAP1 PUSH2 0x12EE JUMP JUMPDEST SUB SWAP1 DUP2 ADD DUP8 MSTORE DUP7 PUSH2 0x662 JUMP JUMPDEST ADD MLOAD PUSH2 0x37EB JUMP JUMPDEST SWAP2 PUSH2 0x2EBA JUMP JUMPDEST PUSH1 0x3 DUP2 SUB PUSH2 0x2F6B JUMPI POP POP PUSH2 0x2F17 DUP3 SWAP4 PUSH2 0x2EAC PUSH2 0x2E9E PUSH1 0x60 DUP6 PUSH2 0x2F53 DUP14 DUP14 PUSH2 0x2F04 PUSH2 0x1944 SWAP12 PUSH2 0x1944 PUSH2 0x2EF7 DUP5 PUSH2 0x1944 SWAP15 ADD MLOAD PUSH2 0x37DB JUMP JUMPDEST PUSH2 0x2F10 DUP14 DUP14 PUSH2 0x2F04 DUP13 PUSH2 0x1944 PUSH2 0x2EF7 DUP3 DUP9 ADD MLOAD PUSH2 0x37E3 JUMP JUMPDEST SWAP1 SWAP2 SWAP1 PUSH1 0x4 EQ PUSH2 0x2F81 JUMPI JUMPDEST POP POP PUSH2 0x1944 SWAP1 PUSH2 0x2EBA JUMP JUMPDEST DUP3 SWAP4 POP PUSH2 0x1944 SWAP2 PUSH2 0x2EAC PUSH2 0x2E9E PUSH1 0x60 DUP5 PUSH2 0x2FAD DUP14 DUP14 PUSH2 0x2F04 PUSH2 0x1944 SWAP12 PUSH2 0x1944 PUSH2 0x2EF7 PUSH2 0x2FC5 SWAP13 MLOAD PUSH2 0x3322 JUMP JUMPDEST PUSH2 0x2F53 DUP14 DUP14 PUSH2 0x2F04 DUP13 PUSH2 0x1944 PUSH2 0x2EF7 DUP5 DUP9 ADD MLOAD PUSH2 0x37DB JUMP JUMPDEST SWAP2 SWAP1 CODESIZE PUSH2 0x2F76 JUMP JUMPDEST PUSH1 0x40 MLOAD SWAP1 PUSH2 0x2FDA DUP3 PUSH2 0x5D0 JUMP JUMPDEST PUSH1 0x60 DUP1 DUP4 DUP2 DUP2 MSTORE DUP2 PUSH1 0x20 DUP3 ADD MSTORE DUP2 PUSH1 0x40 DUP3 ADD MSTORE ADD MSTORE JUMP JUMPDEST SWAP1 DUP2 MLOAD DUP2 LT ISZERO PUSH2 0x1293 JUMPI ADD PUSH1 0x20 ADD SWAP1 JUMP JUMPDEST PUSH2 0x3013 PUSH2 0x300D PUSH2 0x2FCD JUMP JUMPDEST SWAP2 PUSH2 0x3130 JUMP JUMPDEST PUSH1 0x0 JUMPDEST DUP2 MLOAD DUP2 LT ISZERO PUSH2 0x312B JUMPI DUP1 PUSH2 0x3049 SWAP2 ISZERO PUSH2 0x310E JUMPI JUMPDEST PUSH1 0x1 DUP2 EQ PUSH2 0x30D8 JUMPI JUMPDEST PUSH1 0x2 DUP2 EQ PUSH2 0x3094 JUMPI JUMPDEST PUSH1 0x3 DUP2 EQ PUSH2 0x304E JUMPI PUSH2 0x1261 JUMP JUMPDEST PUSH2 0x3016 JUMP JUMPDEST PUSH2 0x1A19 PUSH2 0x308D PUSH2 0x306F PUSH2 0x3061 DUP5 DUP8 PUSH2 0x2FF1 JUMP JUMPDEST MLOAD PUSH1 0x1 PUSH1 0x1 PUSH1 0xF8 SHL SUB NOT AND SWAP1 JUMP JUMPDEST PUSH1 0x40 MLOAD PUSH1 0x1 PUSH1 0x1 PUSH1 0xF8 SHL SUB NOT SWAP1 SWAP2 AND PUSH1 0x20 DUP3 ADD MSTORE SWAP2 DUP3 SWAP1 PUSH1 0x21 DUP3 ADD SWAP1 JUMP JUMPDEST DUP5 MSTORE PUSH2 0x1261 JUMP JUMPDEST PUSH2 0x30A1 PUSH2 0x3061 DUP3 DUP6 PUSH2 0x2FF1 JUMP JUMPDEST PUSH1 0x40 MLOAD PUSH1 0x1 PUSH1 0x1 PUSH1 0xF8 SHL SUB NOT SWAP1 SWAP2 AND PUSH1 0x20 DUP1 DUP4 ADD SWAP2 SWAP1 SWAP2 MSTORE PUSH2 0x30D0 DUP3 PUSH1 0x21 DUP2 ADD JUMPDEST SUB PUSH1 0x1F NOT DUP2 ADD DUP5 MSTORE DUP4 PUSH2 0x662 JUMP JUMPDEST DUP6 ADD MSTORE PUSH2 0x303C JUMP JUMPDEST PUSH2 0x30C2 PUSH2 0x30E8 PUSH2 0x3061 DUP4 DUP7 PUSH2 0x2FF1 JUMP JUMPDEST PUSH2 0x3106 PUSH1 0x40 SWAP2 DUP3 MLOAD SWAP4 DUP5 SWAP2 PUSH1 0x20 DUP4 ADD PUSH1 0x1 SWAP2 PUSH1 0xFF PUSH1 0xF8 SHL AND DUP2 MSTORE ADD SWAP1 JUMP JUMPDEST DUP6 ADD MSTORE PUSH2 0x3033 JUMP JUMPDEST PUSH2 0x1A19 PUSH2 0x3121 PUSH2 0x306F PUSH2 0x3061 DUP5 DUP8 PUSH2 0x2FF1 JUMP JUMPDEST PUSH1 0x60 DUP6 ADD MSTORE PUSH2 0x302A JUMP JUMPDEST POP POP SWAP1 JUMP JUMPDEST SWAP1 DUP2 MLOAD ISZERO PUSH2 0x319F JUMPI PUSH2 0x3142 DUP3 MLOAD PUSH2 0x1D2A JUMP JUMPDEST PUSH1 0x0 DUP1 JUMPDEST DUP5 MLOAD DUP2 LT ISZERO PUSH2 0x3198 JUMPI PUSH1 0x1 PUSH1 0x1 PUSH1 0xF8 SHL SUB NOT PUSH2 0x3162 DUP3 DUP8 PUSH2 0x2FF1 JUMP JUMPDEST MLOAD AND SWAP1 DUP6 MLOAD DUP2 DUP2 SUB SWAP1 DUP2 GT PUSH2 0x1190 JUMPI PUSH1 0x0 NOT DUP2 ADD SWAP1 DUP2 GT PUSH2 0x1190 JUMPI PUSH2 0x318D PUSH2 0x3193 SWAP4 DUP6 BYTE SWAP2 DUP7 PUSH2 0x2FF1 JUMP JUMPDEST MSTORE8 PUSH2 0x1261 JUMP JUMPDEST PUSH2 0x3146 JUMP JUMPDEST POP SWAP1 SWAP3 POP POP JUMP JUMPDEST PUSH4 0x4E487B71 PUSH1 0xE0 SHL PUSH1 0x0 MSTORE PUSH1 0x1 PUSH1 0x4 MSTORE PUSH1 0x24 PUSH1 0x0 REVERT JUMPDEST PUSH1 0x40 MLOAD SWAP1 PUSH2 0x31C2 DUP3 PUSH2 0x629 JUMP JUMPDEST PUSH1 0x1 DUP3 MSTORE PUSH1 0x3 PUSH1 0xFC SHL PUSH1 0x20 DUP4 ADD MSTORE JUMP JUMPDEST PUSH1 0x40 MLOAD SWAP1 PUSH2 0x31DF DUP3 PUSH2 0x629 JUMP JUMPDEST PUSH1 0x1 DUP3 MSTORE PUSH1 0x31 PUSH1 0xF8 SHL PUSH1 0x20 DUP4 ADD MSTORE JUMP JUMPDEST PUSH1 0x40 MLOAD SWAP1 PUSH2 0x31FC DUP3 PUSH2 0x629 JUMP JUMPDEST PUSH1 0x1 DUP3 MSTORE PUSH1 0x19 PUSH1 0xF9 SHL PUSH1 0x20 DUP4 ADD MSTORE JUMP JUMPDEST PUSH1 0x40 MLOAD SWAP1 PUSH2 0x3219 DUP3 PUSH2 0x629 JUMP JUMPDEST PUSH1 0x1 DUP3 MSTORE PUSH1 0x33 PUSH1 0xF8 SHL PUSH1 0x20 DUP4 ADD MSTORE JUMP JUMPDEST PUSH1 0x40 MLOAD SWAP1 PUSH2 0x3236 DUP3 PUSH2 0x629 JUMP JUMPDEST PUSH1 0x1 DUP3 MSTORE PUSH1 0xD PUSH1 0xFA SHL PUSH1 0x20 DUP4 ADD MSTORE JUMP JUMPDEST PUSH1 0x40 MLOAD SWAP1 PUSH2 0x3253 DUP3 PUSH2 0x629 JUMP JUMPDEST PUSH1 0x1 DUP3 MSTORE PUSH1 0x35 PUSH1 0xF8 SHL PUSH1 0x20 DUP4 ADD MSTORE JUMP JUMPDEST PUSH1 0x40 MLOAD SWAP1 PUSH2 0x3270 DUP3 PUSH2 0x629 JUMP JUMPDEST PUSH1 0x1 DUP3 MSTORE PUSH1 0x1B PUSH1 0xF9 SHL PUSH1 0x20 DUP4 ADD MSTORE JUMP JUMPDEST PUSH1 0x40 MLOAD SWAP1 PUSH2 0x328D DUP3 PUSH2 0x629 JUMP JUMPDEST PUSH1 0x1 DUP3 MSTORE PUSH1 0x37 PUSH1 0xF8 SHL PUSH1 0x20 DUP4 ADD MSTORE JUMP JUMPDEST PUSH1 0x40 MLOAD SWAP1 PUSH2 0x32AA DUP3 PUSH2 0x629 JUMP JUMPDEST PUSH1 0x1 DUP3 MSTORE PUSH1 0x7 PUSH1 0xFB SHL PUSH1 0x20 DUP4 ADD MSTORE JUMP JUMPDEST PUSH1 0x40 MLOAD SWAP1 PUSH2 0x32C7 DUP3 PUSH2 0x629 JUMP JUMPDEST PUSH1 0x1 DUP3 MSTORE PUSH1 0x39 PUSH1 0xF8 SHL PUSH1 0x20 DUP4 ADD MSTORE JUMP JUMPDEST PUSH1 0x40 MLOAD SWAP1 PUSH2 0x32E4 DUP3 PUSH2 0x629 JUMP JUMPDEST PUSH1 0x5 DUP3 MSTORE PUSH5 0x32B93937B9 PUSH1 0xD9 SHL PUSH1 0x20 DUP4 ADD MSTORE JUMP JUMPDEST PUSH2 0x237 PUSH1 0xF4 SHL DUP2 MSTORE PUSH1 0x2 ADD SWAP1 JUMP JUMPDEST PUSH2 0xC4B PUSH1 0xF2 SHL DUP2 MSTORE PUSH1 0x2 ADD SWAP1 JUMP JUMPDEST PUSH2 0xC8B PUSH1 0xF2 SHL DUP2 MSTORE PUSH1 0x2 ADD SWAP1 JUMP JUMPDEST PUSH2 0x332A PUSH2 0x31B5 JUMP JUMPDEST SWAP1 PUSH2 0x333C PUSH2 0x3336 PUSH2 0x31B5 JUMP JUMPDEST DUP3 PUSH2 0x3A52 JUMP JUMPDEST ISZERO PUSH2 0x341F JUMPI POP PUSH1 0x40 MLOAD DUP1 SWAP2 PUSH1 0x20 DUP3 ADD PUSH2 0x3354 SWAP1 PUSH2 0x32F8 JUMP JUMPDEST PUSH2 0x335E SWAP1 DUP3 PUSH2 0x12EE JUMP JUMPDEST PUSH2 0x3367 SWAP1 PUSH2 0x3306 JUMP JUMPDEST PUSH2 0x3370 SWAP1 PUSH2 0x32F8 JUMP JUMPDEST PUSH2 0x337A SWAP1 DUP3 PUSH2 0x12EE JUMP JUMPDEST PUSH2 0x3383 SWAP1 PUSH2 0x3314 JUMP JUMPDEST PUSH2 0x338C SWAP1 PUSH2 0x32F8 JUMP JUMPDEST PUSH2 0x3396 SWAP1 DUP3 PUSH2 0x12EE JUMP JUMPDEST PUSH2 0xCCB PUSH1 0xF2 SHL DUP2 MSTORE PUSH1 0x2 ADD JUMPDEST PUSH2 0x33AB SWAP1 PUSH2 0x32F8 JUMP JUMPDEST PUSH2 0x33B5 SWAP1 DUP3 PUSH2 0x12EE JUMP JUMPDEST PUSH2 0xD4B PUSH1 0xF2 SHL DUP2 MSTORE PUSH1 0x2 ADD JUMPDEST PUSH2 0x33CA SWAP1 PUSH2 0x32F8 JUMP JUMPDEST PUSH2 0x33D4 SWAP1 DUP3 PUSH2 0x12EE JUMP JUMPDEST PUSH2 0xD8B PUSH1 0xF2 SHL DUP2 MSTORE PUSH1 0x2 ADD JUMPDEST PUSH2 0x33E9 SWAP1 PUSH2 0x32F8 JUMP JUMPDEST PUSH2 0x33F2 SWAP2 PUSH2 0x12EE JUMP JUMPDEST PUSH18 0x37207B66696C6C2D6F7061636974793A317D PUSH1 0x70 SHL DUP2 MSTORE PUSH1 0x12 ADD SUB PUSH1 0x1F NOT DUP2 ADD DUP3 MSTORE PUSH2 0x2DA SWAP1 DUP3 PUSH2 0x662 JUMP JUMPDEST PUSH2 0x342A PUSH2 0x3336 PUSH2 0x31D2 JUMP JUMPDEST ISZERO PUSH2 0x348C JUMPI POP PUSH2 0x2DA PUSH2 0x346E SWAP2 PUSH2 0x1A19 PUSH1 0x40 MLOAD SWAP4 DUP5 SWAP3 PUSH2 0x1944 PUSH2 0x3469 PUSH2 0x345B PUSH2 0x3455 PUSH1 0x20 DUP9 ADD PUSH2 0x32F8 JUMP JUMPDEST DUP5 PUSH2 0x12EE JUMP JUMPDEST PUSH2 0xCCB PUSH1 0xF2 SHL DUP2 MSTORE PUSH1 0x2 ADD SWAP1 JUMP JUMPDEST PUSH2 0x32F8 JUMP JUMPDEST PUSH18 0x36207B66696C6C2D6F7061636974793A317D PUSH1 0x70 SHL DUP2 MSTORE PUSH1 0x12 ADD SWAP1 JUMP JUMPDEST PUSH2 0x3497 PUSH2 0x3336 PUSH2 0x31EF JUMP JUMPDEST ISZERO PUSH2 0x3521 JUMPI POP PUSH1 0x40 MLOAD DUP1 SWAP2 PUSH1 0x20 DUP3 ADD PUSH2 0x34AF SWAP1 PUSH2 0x32F8 JUMP JUMPDEST PUSH2 0x34B9 SWAP1 DUP3 PUSH2 0x12EE JUMP JUMPDEST PUSH2 0x34C2 SWAP1 PUSH2 0x3306 JUMP JUMPDEST PUSH2 0x34CB SWAP1 PUSH2 0x32F8 JUMP JUMPDEST PUSH2 0x34D5 SWAP1 DUP3 PUSH2 0x12EE JUMP JUMPDEST PUSH2 0xCCB PUSH1 0xF2 SHL DUP2 MSTORE PUSH1 0x2 ADD PUSH2 0x34E9 SWAP1 PUSH2 0x32F8 JUMP JUMPDEST PUSH2 0x34F3 SWAP1 DUP3 PUSH2 0x12EE JUMP JUMPDEST PUSH2 0xD0B PUSH1 0xF2 SHL DUP2 MSTORE PUSH1 0x2 ADD PUSH2 0x3507 SWAP1 PUSH2 0x32F8 JUMP JUMPDEST PUSH2 0x3511 SWAP1 DUP3 PUSH2 0x12EE JUMP JUMPDEST PUSH2 0xD4B PUSH1 0xF2 SHL DUP2 MSTORE PUSH1 0x2 ADD PUSH2 0x33E0 JUMP JUMPDEST PUSH2 0x352C PUSH2 0x3336 PUSH2 0x320C JUMP JUMPDEST ISZERO PUSH2 0x3599 JUMPI POP PUSH1 0x40 MLOAD DUP1 SWAP2 PUSH1 0x20 DUP3 ADD PUSH2 0x3544 SWAP1 PUSH2 0x32F8 JUMP JUMPDEST PUSH2 0x354E SWAP1 DUP3 PUSH2 0x12EE JUMP JUMPDEST PUSH2 0x3557 SWAP1 PUSH2 0x3306 JUMP JUMPDEST PUSH2 0x3560 SWAP1 PUSH2 0x32F8 JUMP JUMPDEST PUSH2 0x356A SWAP1 DUP3 PUSH2 0x12EE JUMP JUMPDEST PUSH2 0xCCB PUSH1 0xF2 SHL DUP2 MSTORE PUSH1 0x2 ADD JUMPDEST PUSH2 0x357F SWAP1 PUSH2 0x32F8 JUMP JUMPDEST PUSH2 0x3589 SWAP1 DUP3 PUSH2 0x12EE JUMP JUMPDEST PUSH2 0xD0B PUSH1 0xF2 SHL DUP2 MSTORE PUSH1 0x2 ADD PUSH2 0x33C1 JUMP JUMPDEST PUSH2 0x35A4 PUSH2 0x3336 PUSH2 0x3229 JUMP JUMPDEST ISZERO PUSH2 0x3600 JUMPI POP PUSH2 0x2DA PUSH1 0x20 PUSH2 0x1A19 PUSH2 0x346E PUSH2 0x35E1 SWAP5 PUSH2 0x1944 PUSH2 0x3469 PUSH2 0x35F2 PUSH2 0x3455 PUSH2 0x3469 PUSH2 0x345B PUSH2 0x35EC PUSH2 0x3469 PUSH2 0x35E7 PUSH1 0x40 MLOAD SWAP15 DUP16 SWAP14 DUP15 ADD PUSH2 0x32F8 JUMP JUMPDEST DUP11 PUSH2 0x12EE JUMP JUMPDEST PUSH2 0x3314 JUMP JUMPDEST DUP8 PUSH2 0x12EE JUMP JUMPDEST PUSH2 0xD0B PUSH1 0xF2 SHL DUP2 MSTORE PUSH1 0x2 ADD SWAP1 JUMP JUMPDEST PUSH2 0x360B PUSH2 0x3336 PUSH2 0x3246 JUMP JUMPDEST ISZERO PUSH2 0x3652 JUMPI POP PUSH1 0x40 MLOAD DUP1 SWAP2 PUSH1 0x20 DUP3 ADD PUSH2 0x3623 SWAP1 PUSH2 0x32F8 JUMP JUMPDEST PUSH2 0x362D SWAP1 DUP3 PUSH2 0x12EE JUMP JUMPDEST PUSH2 0x3636 SWAP1 PUSH2 0x3306 JUMP JUMPDEST PUSH2 0x363F SWAP1 PUSH2 0x32F8 JUMP JUMPDEST PUSH2 0x3649 SWAP1 DUP3 PUSH2 0x12EE JUMP JUMPDEST PUSH2 0x3576 SWAP1 PUSH2 0x3314 JUMP JUMPDEST PUSH2 0x365D PUSH2 0x3336 PUSH2 0x3263 JUMP JUMPDEST ISZERO PUSH2 0x36C7 JUMPI POP PUSH1 0x40 MLOAD DUP1 SWAP2 PUSH1 0x20 DUP3 ADD PUSH2 0x3675 SWAP1 PUSH2 0x32F8 JUMP JUMPDEST PUSH2 0x367F SWAP1 DUP3 PUSH2 0x12EE JUMP JUMPDEST PUSH2 0x3688 SWAP1 PUSH2 0x3306 JUMP JUMPDEST PUSH2 0x3691 SWAP1 PUSH2 0x32F8 JUMP JUMPDEST PUSH2 0x369B SWAP1 DUP3 PUSH2 0x12EE JUMP JUMPDEST PUSH2 0x36A4 SWAP1 PUSH2 0x3314 JUMP JUMPDEST PUSH2 0x36AD SWAP1 PUSH2 0x32F8 JUMP JUMPDEST PUSH2 0x36B7 SWAP1 DUP3 PUSH2 0x12EE JUMP JUMPDEST PUSH2 0xD0B PUSH1 0xF2 SHL DUP2 MSTORE PUSH1 0x2 ADD PUSH2 0x33A2 JUMP JUMPDEST PUSH2 0x36D2 PUSH2 0x3336 PUSH2 0x3280 JUMP JUMPDEST ISZERO PUSH2 0x370B JUMPI POP PUSH2 0x2DA PUSH2 0x346E SWAP2 PUSH2 0x1A19 PUSH1 0x40 MLOAD SWAP4 DUP5 SWAP3 PUSH2 0x1944 PUSH2 0x3469 PUSH2 0x345B PUSH2 0x3455 PUSH2 0x3469 PUSH2 0x3706 PUSH2 0x35EC PUSH1 0x20 DUP12 ADD PUSH2 0x32F8 JUMP JUMPDEST PUSH2 0x3306 JUMP JUMPDEST PUSH2 0x3716 PUSH2 0x3336 PUSH2 0x329D JUMP JUMPDEST ISZERO PUSH2 0x3780 JUMPI POP PUSH1 0x40 MLOAD DUP1 SWAP2 PUSH1 0x20 DUP3 ADD PUSH2 0x372E SWAP1 PUSH2 0x32F8 JUMP JUMPDEST PUSH2 0x3738 SWAP1 DUP3 PUSH2 0x12EE JUMP JUMPDEST PUSH2 0x3741 SWAP1 PUSH2 0x3306 JUMP JUMPDEST PUSH2 0x374A SWAP1 PUSH2 0x32F8 JUMP JUMPDEST PUSH2 0x3754 SWAP1 DUP3 PUSH2 0x12EE JUMP JUMPDEST PUSH2 0x375D SWAP1 PUSH2 0x3314 JUMP JUMPDEST PUSH2 0x3766 SWAP1 PUSH2 0x32F8 JUMP JUMPDEST PUSH2 0x3770 SWAP1 DUP3 PUSH2 0x12EE JUMP JUMPDEST PUSH2 0xCCB PUSH1 0xF2 SHL DUP2 MSTORE PUSH1 0x2 ADD PUSH2 0x36A4 JUMP JUMPDEST PUSH2 0x378C SWAP1 PUSH2 0x1683 PUSH2 0x32BA JUMP JUMPDEST ISZERO PUSH2 0x37D2 JUMPI PUSH1 0x40 MLOAD DUP1 SWAP2 PUSH1 0x20 DUP3 ADD PUSH2 0x37A3 SWAP1 PUSH2 0x32F8 JUMP JUMPDEST PUSH2 0x37AD SWAP1 DUP3 PUSH2 0x12EE JUMP JUMPDEST PUSH2 0x37B6 SWAP1 PUSH2 0x3306 JUMP JUMPDEST PUSH2 0x37BF SWAP1 PUSH2 0x32F8 JUMP JUMPDEST PUSH2 0x37C9 SWAP1 DUP3 PUSH2 0x12EE JUMP JUMPDEST PUSH2 0x3557 SWAP1 PUSH2 0x3314 JUMP JUMPDEST POP PUSH2 0x2DA PUSH2 0x32D7 JUMP JUMPDEST PUSH2 0x332A PUSH2 0x381E JUMP JUMPDEST PUSH2 0x332A PUSH2 0x38B1 JUMP JUMPDEST PUSH2 0x332A PUSH2 0x3937 JUMP JUMPDEST PUSH1 0x40 MLOAD SWAP1 PUSH2 0x3800 DUP3 PUSH2 0x629 JUMP JUMPDEST PUSH1 0xA DUP3 MSTORE PUSH1 0x20 CALLDATASIZE DUP2 DUP5 ADD CALLDATACOPY JUMP JUMPDEST PUSH1 0xFF AND PUSH1 0x30 ADD SWAP1 PUSH1 0xFF DUP3 GT PUSH2 0x1190 JUMPI JUMP JUMPDEST PUSH1 0x0 DUP1 PUSH1 0x1 DUP1 DUP1 JUMPDEST PUSH2 0x389D JUMPI POP DUP1 PUSH2 0x3835 DUP5 PUSH2 0x1D2A JUMP JUMPDEST SWAP4 SWAP2 JUMPDEST PUSH2 0x3842 JUMPI POP POP POP SWAP1 JUMP JUMPDEST PUSH1 0x0 NOT DUP3 ADD SWAP2 DUP3 GT PUSH2 0x1190 JUMPI DUP2 PUSH1 0xA SWAP2 DUP3 DUP2 DIV SWAP3 DUP1 DUP5 MUL SWAP1 DUP5 DUP3 DIV EQ DUP5 ISZERO OR ISZERO PUSH2 0x1190 JUMPI DUP2 SUB SWAP1 DUP2 GT PUSH2 0x1190 JUMPI PUSH2 0x3896 SWAP1 PUSH1 0x1 PUSH1 0x1 PUSH1 0xF8 SHL SUB NOT SWAP1 PUSH2 0x3889 SWAP1 PUSH1 0xFF AND PUSH2 0x380D JUMP JUMPDEST PUSH1 0xF8 SHL AND DUP6 BYTE SWAP2 DUP7 PUSH2 0x2FF1 JUMP JUMPDEST MSTORE8 DUP1 PUSH2 0x3838 JUMP JUMPDEST SWAP3 PUSH2 0x38A9 PUSH1 0xA SWAP2 PUSH2 0x1261 JUMP JUMPDEST SWAP4 DIV DUP1 PUSH2 0x3826 JUMP JUMPDEST PUSH1 0x0 DUP1 PUSH1 0x2 DUP1 DUP1 JUMPDEST PUSH2 0x3923 JUMPI POP DUP1 PUSH2 0x38C8 DUP5 PUSH2 0x1D2A JUMP JUMPDEST SWAP4 SWAP2 JUMPDEST PUSH2 0x38D5 JUMPI POP POP POP SWAP1 JUMP JUMPDEST PUSH1 0x0 NOT DUP3 ADD SWAP2 DUP3 GT PUSH2 0x1190 JUMPI DUP2 PUSH1 0xA SWAP2 DUP3 DUP2 DIV SWAP3 DUP1 DUP5 MUL SWAP1 DUP5 DUP3 DIV EQ DUP5 ISZERO OR ISZERO PUSH2 0x1190 JUMPI DUP2 SUB SWAP1 DUP2 GT PUSH2 0x1190 JUMPI PUSH2 0x391C SWAP1 PUSH1 0x1 PUSH1 0x1 PUSH1 0xF8 SHL SUB NOT SWAP1 PUSH2 0x3889 SWAP1 PUSH1 0xFF AND PUSH2 0x380D JUMP JUMPDEST MSTORE8 DUP1 PUSH2 0x38CB JUMP JUMPDEST SWAP3 PUSH2 0x392F PUSH1 0xA SWAP2 PUSH2 0x1261 JUMP JUMPDEST SWAP4 DIV DUP1 PUSH2 0x38B9 JUMP JUMPDEST PUSH1 0x0 DUP1 PUSH1 0x3 DUP1 DUP1 JUMPDEST PUSH2 0x39A9 JUMPI POP DUP1 PUSH2 0x394E DUP5 PUSH2 0x1D2A JUMP JUMPDEST SWAP4 SWAP2 JUMPDEST PUSH2 0x395B JUMPI POP POP POP SWAP1 JUMP JUMPDEST PUSH1 0x0 NOT DUP3 ADD SWAP2 DUP3 GT PUSH2 0x1190 JUMPI DUP2 PUSH1 0xA SWAP2 DUP3 DUP2 DIV SWAP3 DUP1 DUP5 MUL SWAP1 DUP5 DUP3 DIV EQ DUP5 ISZERO OR ISZERO PUSH2 0x1190 JUMPI DUP2 SUB SWAP1 DUP2 GT PUSH2 0x1190 JUMPI PUSH2 0x39A2 SWAP1 PUSH1 0x1 PUSH1 0x1 PUSH1 0xF8 SHL SUB NOT SWAP1 PUSH2 0x3889 SWAP1 PUSH1 0xFF AND PUSH2 0x380D JUMP JUMPDEST MSTORE8 DUP1 PUSH2 0x3951 JUMP JUMPDEST SWAP3 PUSH2 0x39B5 PUSH1 0xA SWAP2 PUSH2 0x1261 JUMP JUMPDEST SWAP4 DIV DUP1 PUSH2 0x393F JUMP JUMPDEST DUP1 ISZERO PUSH2 0x3A49 JUMPI DUP1 PUSH1 0x0 SWAP1 DUP3 DUP3 SWAP4 JUMPDEST PUSH2 0x3A35 JUMPI POP DUP1 PUSH2 0x39DA DUP5 PUSH2 0x1D2A JUMP JUMPDEST SWAP4 SWAP2 JUMPDEST PUSH2 0x39E7 JUMPI POP POP POP SWAP1 JUMP JUMPDEST PUSH1 0x0 NOT DUP3 ADD SWAP2 DUP3 GT PUSH2 0x1190 JUMPI DUP2 PUSH1 0xA SWAP2 DUP3 DUP2 DIV SWAP3 DUP1 DUP5 MUL SWAP1 DUP5 DUP3 DIV EQ DUP5 ISZERO OR ISZERO PUSH2 0x1190 JUMPI DUP2 SUB SWAP1 DUP2 GT PUSH2 0x1190 JUMPI PUSH2 0x3A2E SWAP1 PUSH1 0x1 PUSH1 0x1 PUSH1 0xF8 SHL SUB NOT SWAP1 PUSH2 0x3889 SWAP1 PUSH1 0xFF AND PUSH2 0x380D JUMP JUMPDEST MSTORE8 DUP1 PUSH2 0x39DD JUMP JUMPDEST SWAP3 PUSH2 0x3A41 PUSH1 0xA SWAP2 PUSH2 0x1261 JUMP JUMPDEST SWAP4 DIV DUP1 PUSH2 0x39CB JUMP JUMPDEST POP PUSH2 0x2DA PUSH2 0x31B5 JUMP JUMPDEST SWAP1 PUSH1 0x40 MLOAD SWAP2 PUSH1 0x20 SWAP3 PUSH2 0x3A80 DUP5 DUP3 DUP2 PUSH2 0x3A73 DUP2 DUP4 ADD SWAP7 DUP8 DUP2 MLOAD SWAP4 DUP5 SWAP3 ADD PUSH2 0x281 JUMP JUMPDEST DUP2 ADD SUB DUP1 DUP5 MSTORE ADD DUP3 PUSH2 0x662 JUMP JUMPDEST MLOAD SWAP1 KECCAK256 SWAP2 PUSH2 0x3AA0 PUSH1 0x40 MLOAD SWAP2 DUP3 DUP2 PUSH2 0x3A73 DUP2 DUP4 ADD SWAP7 DUP8 DUP2 MLOAD SWAP4 DUP5 SWAP3 ADD PUSH2 0x281 JUMP JUMPDEST MLOAD SWAP1 KECCAK256 EQ SWAP1 JUMP JUMPDEST PUSH1 0x40 MLOAD SWAP1 PUSH2 0x3AB4 DUP3 PUSH2 0x629 JUMP JUMPDEST PUSH1 0xA DUP3 MSTORE PUSH10 0x30313233343536373839 PUSH1 0xB0 SHL PUSH1 0x20 DUP4 ADD MSTORE JUMP JUMPDEST PUSH1 0x40 MLOAD SWAP1 PUSH2 0x3ADA DUP3 PUSH2 0x629 JUMP JUMPDEST PUSH1 0x4 SWAP1 DUP2 DUP4 MSTORE PUSH1 0x20 CALLDATASIZE DUP2 DUP6 ADD CALLDATACOPY PUSH2 0x3AEF PUSH2 0x37F3 JUMP JUMPDEST POP PUSH2 0x3AF8 PUSH2 0x3AA7 JUMP JUMPDEST SWAP1 PUSH1 0x0 SWAP2 DUP3 JUMPDEST DUP5 DUP2 LT PUSH2 0x3B0D JUMPI POP POP POP POP POP SWAP1 JUMP JUMPDEST PUSH2 0x3B3B SWAP1 PUSH1 0x1 PUSH1 0x1 PUSH1 0xF8 SHL SUB NOT PUSH2 0x3B2D PUSH2 0x3B27 DUP4 DUP8 PUSH2 0x3B9F JUMP JUMPDEST DUP6 PUSH2 0x2FF1 JUMP JUMPDEST MLOAD AND DUP6 BYTE PUSH2 0x318D DUP3 DUP10 PUSH2 0x2FF1 JUMP JUMPDEST PUSH2 0x3AFE JUMP JUMPDEST PUSH1 0x40 MLOAD SWAP1 PUSH2 0x3B4D DUP3 PUSH2 0x629 JUMP JUMPDEST PUSH1 0x1 SWAP1 DUP2 DUP4 MSTORE PUSH1 0x20 CALLDATASIZE DUP2 DUP6 ADD CALLDATACOPY PUSH2 0x3B62 PUSH2 0x37F3 JUMP JUMPDEST POP PUSH2 0x3B6B PUSH2 0x3AA7 JUMP JUMPDEST SWAP1 PUSH1 0x0 SWAP2 DUP3 JUMPDEST DUP5 DUP2 LT PUSH2 0x3B80 JUMPI POP POP POP POP POP SWAP1 JUMP JUMPDEST PUSH2 0x3B9A SWAP1 PUSH1 0x1 PUSH1 0x1 PUSH1 0xF8 SHL SUB NOT PUSH2 0x3B2D PUSH2 0x3B27 DUP4 DUP8 PUSH2 0x3B9F JUMP JUMPDEST PUSH2 0x3B71 JUMP JUMPDEST PUSH1 0xA SWAP2 PUSH1 0x40 MLOAD SWAP1 PUSH1 0x20 DUP3 ADD SWAP3 DUP4 MSTORE PUSH1 0x40 DUP3 ADD MSTORE PUSH1 0x40 DUP2 MSTORE PUSH2 0x3BBF DUP2 PUSH2 0x60D JUMP JUMPDEST MLOAD SWAP1 KECCAK256 MOD SWAP1 JUMP JUMPDEST PUSH2 0x7E7 DUP2 ADD DUP1 SWAP2 GT PUSH2 0x1190 JUMPI PUSH1 0x3 SWAP1 PUSH1 0x40 MLOAD PUSH1 0x20 DUP2 ADD SWAP2 DUP3 MSTORE PUSH1 0x20 DUP2 MSTORE PUSH2 0x3BEC DUP2 PUSH2 0x629 JUMP JUMPDEST MLOAD SWAP1 KECCAK256 MOD PUSH1 0x4 SUB PUSH1 0x4 DUP2 GT PUSH2 0x1190 JUMPI PUSH1 0x0 NOT DUP2 ADD SWAP1 DUP2 GT PUSH2 0x1190 JUMPI SWAP1 JUMP JUMPDEST PUSH2 0x7E7 DUP2 ADD DUP1 SWAP2 GT PUSH2 0x1190 JUMPI PUSH1 0xFF SWAP1 PUSH1 0x40 MLOAD PUSH1 0x20 DUP2 ADD SWAP2 DUP3 MSTORE PUSH1 0x20 DUP2 MSTORE PUSH2 0x3C30 DUP2 PUSH2 0x629 JUMP JUMPDEST MLOAD SWAP1 KECCAK256 AND PUSH2 0x100 SWAP1 DUP2 SUB SWAP1 DUP2 GT PUSH2 0x1190 JUMPI PUSH1 0x0 NOT DUP2 ADD SWAP1 DUP2 GT PUSH2 0x1190 JUMPI SWAP1 JUMP JUMPDEST PUSH1 0x40 MLOAD SWAP1 PUSH2 0x3C5D DUP3 PUSH2 0x60D JUMP JUMPDEST PUSH1 0x60 CALLDATASIZE DUP4 CALLDATACOPY JUMP JUMPDEST SWAP2 SWAP1 SWAP2 PUSH2 0x3C6F PUSH2 0x3C50 JUMP JUMPDEST SWAP1 DUP4 ISZERO PUSH2 0x3CCE JUMPI PUSH1 0x0 JUMPDEST PUSH1 0x3 DUP2 LT PUSH2 0x3C88 JUMPI POP SWAP1 SWAP3 POP POP JUMP JUMPDEST DUP1 PUSH2 0x3C95 PUSH2 0x3CAD SWAP3 PUSH2 0x11C6 JUMP JUMPDEST DUP7 SUB PUSH2 0x3CB2 JUMPI PUSH1 0xFF PUSH2 0x3CA7 DUP3 DUP7 PUSH2 0x18B8 JUMP JUMPDEST MSTORE PUSH2 0x1261 JUMP JUMPDEST PUSH2 0x3C79 JUMP JUMPDEST PUSH2 0x3CC4 PUSH2 0x3CBF DUP3 DUP6 PUSH2 0x11D4 JUMP JUMPDEST PUSH2 0x3C0A JUMP JUMPDEST PUSH2 0x3CA7 DUP3 DUP7 PUSH2 0x18B8 JUMP JUMPDEST POP SWAP1 SWAP2 POP PUSH1 0x0 JUMPDEST PUSH1 0x3 DUP2 LT PUSH2 0x3CE1 JUMPI POP SWAP1 JUMP JUMPDEST DUP1 PUSH1 0xFF PUSH2 0x3CA7 PUSH2 0x3CF1 SWAP4 DUP6 PUSH2 0x18B8 JUMP JUMPDEST PUSH2 0x3CD5 JUMP JUMPDEST TIMESTAMP DUP2 LT PUSH2 0x3D0A JUMPI TIMESTAMP DUP2 SUB SWAP1 DUP2 GT PUSH2 0x1190 JUMPI SWAP1 JUMP JUMPDEST POP PUSH1 0x0 SWAP1 JUMP JUMPDEST PUSH1 0x1 PUSH1 0x1 PUSH1 0xA0 SHL SUB SWAP1 PUSH2 0x3D22 SWAP1 PUSH2 0x3D26 JUMP JUMPDEST AND SWAP1 JUMP JUMPDEST PUSH1 0x0 DUP2 DUP1 PUSH1 0x1 GT ISZERO PUSH2 0x3D45 JUMPI JUMPDEST PUSH1 0x40 MLOAD PUSH4 0x6F96CDA1 PUSH1 0xE1 SHL DUP2 MSTORE PUSH1 0x4 SWAP1 REVERT JUMPDEST DUP2 SLOAD DUP2 LT ISZERO PUSH2 0x3D33 JUMPI DUP2 MSTORE PUSH1 0x4 SWAP1 PUSH1 0x20 SWAP2 DUP1 DUP4 MSTORE PUSH1 0x40 SWAP3 DUP4 DUP4 KECCAK256 SLOAD SWAP5 PUSH1 0x1 PUSH1 0xE0 SHL DUP7 AND ISZERO PUSH2 0x3D75 JUMPI POP POP POP PUSH2 0x3D33 JUMP JUMPDEST SWAP4 SWAP3 SWAP2 SWAP1 SWAP4 JUMPDEST DUP6 ISZERO PUSH2 0x3D89 JUMPI POP POP POP POP POP SWAP1 JUMP JUMPDEST PUSH1 0x0 NOT ADD DUP1 DUP4 MSTORE DUP2 DUP6 MSTORE DUP4 DUP4 KECCAK256 SLOAD SWAP6 POP PUSH2 0x3D7B JUMP JUMPDEST DUP1 PUSH1 0x1 GT ISZERO SWAP1 DUP2 PUSH2 0x3DCD JUMPI JUMPDEST DUP2 PUSH2 0x3DB3 JUMPI POP SWAP1 JUMP JUMPDEST SWAP1 POP PUSH1 0x0 MSTORE PUSH1 0x4 PUSH1 0x20 MSTORE PUSH1 0x1 PUSH1 0xE0 SHL PUSH1 0x40 PUSH1 0x0 KECCAK256 SLOAD AND ISZERO SWAP1 JUMP JUMPDEST PUSH1 0x0 SLOAD DUP2 LT SWAP2 POP PUSH2 0x3DAA JUMP JUMPDEST SWAP1 PUSH2 0x3DE3 DUP4 PUSH2 0x3D26 JUMP JUMPDEST PUSH1 0x1 PUSH1 0x1 PUSH1 0xA0 SHL SUB DUP4 DUP2 AND SWAP3 DUP3 DUP3 AND DUP5 SWAP1 SUB PUSH2 0x3F96 JUMPI PUSH1 0x0 DUP7 DUP2 MSTORE PUSH1 0x6 PUSH1 0x20 MSTORE PUSH1 0x40 SWAP1 KECCAK256 DUP1 SLOAD SWAP1 SWAP3 PUSH2 0x3E24 PUSH1 0x1 PUSH1 0x1 PUSH1 0xA0 SHL SUB DUP9 AND CALLER SWAP1 DUP2 EQ SWAP1 DUP5 EQ OR ISZERO SWAP1 JUMP JUMPDEST PUSH2 0x3F3B JUMPI JUMPDEST DUP3 AND SWAP6 DUP7 ISZERO PUSH2 0x3F29 JUMPI PUSH2 0x3E7C SWAP4 PUSH2 0x3E5A SWAP3 PUSH2 0x3F1F JUMPI JUMPDEST POP PUSH1 0x1 PUSH1 0x1 PUSH1 0xA0 SHL SUB AND PUSH1 0x0 SWAP1 DUP2 MSTORE PUSH1 0x5 PUSH1 0x20 MSTORE PUSH1 0x40 SWAP1 KECCAK256 SWAP1 JUMP JUMPDEST DUP1 SLOAD PUSH1 0x0 NOT ADD SWAP1 SSTORE PUSH1 0x1 PUSH1 0x1 PUSH1 0xA0 SHL SUB AND PUSH1 0x0 SWAP1 DUP2 MSTORE PUSH1 0x5 PUSH1 0x20 MSTORE PUSH1 0x40 SWAP1 KECCAK256 SWAP1 JUMP JUMPDEST DUP1 SLOAD PUSH1 0x1 ADD SWAP1 SSTORE PUSH1 0x1 PUSH1 0xE1 SHL DUP1 TIMESTAMP PUSH1 0xA0 SHL DUP6 OR OR PUSH2 0x3EA4 DUP7 PUSH1 0x0 MSTORE PUSH1 0x4 PUSH1 0x20 MSTORE PUSH1 0x40 PUSH1 0x0 KECCAK256 SWAP1 JUMP JUMPDEST SSTORE DUP2 AND ISZERO PUSH2 0x3ED5 JUMPI JUMPDEST POP PUSH32 0xDDF252AD1BE2C89B69C2B068FC378DAA952BA7F163C4A11628F55A4DF523B3EF PUSH1 0x0 DUP1 LOG4 JUMP JUMPDEST PUSH1 0x1 DUP5 ADD PUSH2 0x3EED DUP2 PUSH1 0x0 MSTORE PUSH1 0x4 PUSH1 0x20 MSTORE PUSH1 0x40 PUSH1 0x0 KECCAK256 SWAP1 JUMP JUMPDEST SLOAD ISZERO PUSH2 0x3EFA JUMPI JUMPDEST POP PUSH2 0x3EAD JUMP JUMPDEST PUSH1 0x0 SLOAD DUP2 EQ PUSH2 0x3EF4 JUMPI PUSH2 0x3F17 SWAP1 PUSH1 0x0 MSTORE PUSH1 0x4 PUSH1 0x20 MSTORE PUSH1 0x40 PUSH1 0x0 KECCAK256 SWAP1 JUMP JUMPDEST SSTORE CODESIZE DUP1 PUSH2 0x3EF4 JUMP JUMPDEST PUSH1 0x0 SWAP1 SSTORE CODESIZE PUSH2 0x3E3F JUMP JUMPDEST PUSH1 0x40 MLOAD PUSH4 0x3A954ECD PUSH1 0xE2 SHL DUP2 MSTORE PUSH1 0x4 SWAP1 REVERT JUMPDEST PUSH2 0x3F7F PUSH2 0x1689 PUSH2 0x3F78 CALLER PUSH2 0x3F61 DUP12 PUSH1 0x1 DUP1 PUSH1 0xA0 SHL SUB AND PUSH1 0x0 MSTORE PUSH1 0x7 PUSH1 0x20 MSTORE PUSH1 0x40 PUSH1 0x0 KECCAK256 SWAP1 JUMP JUMPDEST SWAP1 PUSH1 0x1 DUP1 PUSH1 0xA0 SHL SUB AND PUSH1 0x0 MSTORE PUSH1 0x20 MSTORE PUSH1 0x40 PUSH1 0x0 KECCAK256 SWAP1 JUMP JUMPDEST SLOAD PUSH1 0xFF AND SWAP1 JUMP JUMPDEST ISZERO PUSH2 0x3E29 JUMPI PUSH1 0x40 MLOAD PUSH4 0x2CE44B5F PUSH1 0xE1 SHL DUP2 MSTORE PUSH1 0x4 SWAP1 REVERT JUMPDEST PUSH1 0x40 MLOAD PUSH3 0xA11481 PUSH1 0xE8 SHL DUP2 MSTORE PUSH1 0x4 SWAP1 REVERT JUMPDEST SWAP3 SWAP2 SWAP1 PUSH2 0x3FB5 DUP3 DUP3 DUP7 PUSH2 0x3DD9 JUMP JUMPDEST DUP1 EXTCODESIZE PUSH2 0x3FC2 JUMPI JUMPDEST POP POP POP POP JUMP JUMPDEST PUSH2 0x3FCB SWAP4 PUSH2 0x4061 JUMP JUMPDEST ISZERO PUSH2 0x3FD9 JUMPI CODESIZE DUP1 DUP1 DUP1 PUSH2 0x3FBC JUMP JUMPDEST PUSH1 0x40 MLOAD PUSH4 0x68D2BF6B PUSH1 0xE1 SHL DUP2 MSTORE PUSH1 0x4 SWAP1 REVERT JUMPDEST SWAP1 DUP2 PUSH1 0x20 SWAP2 SUB SLT PUSH2 0x20E JUMPI MLOAD PUSH2 0x2DA DUP2 PUSH2 0x1FC JUMP JUMPDEST PUSH1 0x1 PUSH1 0x1 PUSH1 0xA0 SHL SUB SWAP2 DUP3 AND DUP2 MSTORE SWAP2 AND PUSH1 0x20 DUP3 ADD MSTORE PUSH1 0x40 DUP2 ADD SWAP2 SWAP1 SWAP2 MSTORE PUSH1 0x80 PUSH1 0x60 DUP3 ADD DUP2 SWAP1 MSTORE PUSH2 0x2DA SWAP3 SWAP2 ADD SWAP1 PUSH2 0x2A4 JUMP JUMPDEST RETURNDATASIZE ISZERO PUSH2 0x405C JUMPI RETURNDATASIZE SWAP1 PUSH2 0x4042 DUP3 PUSH2 0xCBC JUMP JUMPDEST SWAP2 PUSH2 0x4050 PUSH1 0x40 MLOAD SWAP4 DUP5 PUSH2 0x662 JUMP JUMPDEST DUP3 MSTORE RETURNDATASIZE PUSH1 0x0 PUSH1 0x20 DUP5 ADD RETURNDATACOPY JUMP JUMPDEST PUSH1 0x60 SWAP1 JUMP JUMPDEST SWAP3 PUSH1 0x20 SWAP2 PUSH2 0x408A SWAP4 PUSH1 0x0 PUSH1 0x40 MLOAD DUP1 SWAP7 DUP2 SWAP6 DUP3 SWAP5 PUSH4 0xA85BD01 PUSH1 0xE1 SHL SWAP11 DUP12 DUP6 MSTORE CALLER PUSH1 0x4 DUP7 ADD PUSH2 0x4000 JUMP JUMPDEST SUB SWAP3 PUSH1 0x1 PUSH1 0x1 PUSH1 0xA0 SHL SUB AND GAS CALL PUSH1 0x0 SWAP2 DUP2 PUSH2 0x40DA JUMPI JUMPDEST POP PUSH2 0x40CC JUMPI PUSH2 0x40AD PUSH2 0x4031 JUMP JUMPDEST DUP1 MLOAD SWAP1 DUP2 PUSH2 0x40C7 JUMPI PUSH1 0x40 MLOAD PUSH4 0x68D2BF6B PUSH1 0xE1 SHL DUP2 MSTORE PUSH1 0x4 SWAP1 REVERT JUMPDEST PUSH1 0x20 ADD REVERT JUMPDEST PUSH1 0x1 PUSH1 0x1 PUSH1 0xE0 SHL SUB NOT AND EQ SWAP1 JUMP JUMPDEST PUSH2 0x40FC SWAP2 SWAP3 POP PUSH1 0x20 RETURNDATASIZE DUP2 GT PUSH2 0x4103 JUMPI JUMPDEST PUSH2 0x40F4 DUP2 DUP4 PUSH2 0x662 JUMP JUMPDEST DUP2 ADD SWAP1 PUSH2 0x3FEB JUMP JUMPDEST SWAP1 CODESIZE PUSH2 0x40A0 JUMP JUMPDEST POP RETURNDATASIZE PUSH2 0x40EA JUMP JUMPDEST SWAP1 PUSH1 0x0 SWAP1 DUP2 SLOAD SWAP3 DUP2 ISZERO PUSH2 0x41CD JUMPI PUSH1 0x1 PUSH1 0x1 PUSH1 0xA0 SHL SUB DUP2 AND PUSH1 0x0 SWAP1 DUP2 MSTORE PUSH1 0x5 PUSH1 0x20 MSTORE PUSH1 0x40 SWAP1 KECCAK256 DUP1 SLOAD PUSH9 0x10000000000000001 DUP5 MUL ADD SWAP1 SSTORE PUSH1 0x0 DUP5 DUP2 MSTORE PUSH1 0x4 PUSH1 0x20 MSTORE PUSH1 0x40 SWAP1 KECCAK256 PUSH1 0x1 PUSH1 0x1 PUSH1 0xA0 SHL SUB SWAP1 SWAP2 AND SWAP2 PUSH1 0x1 SWAP2 TIMESTAMP PUSH1 0xA0 SHL DUP4 DUP4 EQ PUSH1 0xE1 SHL OR DUP5 OR SWAP1 SSTORE DUP5 ADD SWAP4 DUP2 PUSH32 0xDDF252AD1BE2C89B69C2B068FC378DAA952BA7F163C4A11628F55A4DF523B3EF SWAP2 DUP1 DUP6 DUP8 DUP6 DUP2 DUP1 LOG4 ADD JUMPDEST DUP6 DUP2 SUB PUSH2 0x41BE JUMPI POP POP POP ISZERO PUSH2 0x41AD JUMPI SSTORE JUMP JUMPDEST PUSH1 0x40 MLOAD PUSH3 0x2E0763 PUSH1 0xE8 SHL DUP2 MSTORE PUSH1 0x4 SWAP1 REVERT JUMPDEST DUP1 DUP4 SWAP2 DUP6 DUP8 DUP6 DUP2 DUP1 LOG4 ADD PUSH2 0x419B JUMP JUMPDEST PUSH1 0x40 MLOAD PUSH4 0xB562E8DD PUSH1 0xE0 SHL DUP2 MSTORE PUSH1 0x4 SWAP1 REVERT JUMPDEST PUSH1 0x0 PUSH2 0x41EA DUP3 PUSH2 0x3D26 JUMP JUMPDEST PUSH1 0x0 DUP4 DUP2 MSTORE PUSH1 0x6 PUSH1 0x20 MSTORE PUSH1 0x40 SWAP1 KECCAK256 DUP1 SLOAD PUSH1 0x1 PUSH1 0x1 PUSH1 0xA0 SHL SUB DUP4 AND SWAP3 SWAP2 SWAP1 PUSH2 0x42DC JUMPI JUMPDEST POP PUSH1 0x1 PUSH1 0x1 PUSH1 0xA0 SHL SUB DUP3 AND PUSH1 0x0 SWAP1 DUP2 MSTORE PUSH1 0x5 PUSH1 0x20 MSTORE PUSH1 0x40 SWAP1 KECCAK256 DUP1 SLOAD PUSH16 0xFFFFFFFFFFFFFFFFFFFFFFFFFFFFFFFF ADD SWAP1 SSTORE PUSH1 0x0 DUP5 DUP2 MSTORE PUSH1 0x4 PUSH1 0x20 MSTORE PUSH1 0x40 SWAP1 KECCAK256 TIMESTAMP PUSH1 0xA0 SHL DUP4 OR PUSH1 0x3 PUSH1 0xE0 SHL OR SWAP1 SSTORE PUSH1 0x1 PUSH1 0xE1 SHL DUP2 AND ISZERO PUSH2 0x4293 JUMPI JUMPDEST POP PUSH32 0xDDF252AD1BE2C89B69C2B068FC378DAA952BA7F163C4A11628F55A4DF523B3EF DUP3 DUP1 LOG4 PUSH1 0x1 DUP1 SLOAD ADD PUSH1 0x1 SSTORE JUMP JUMPDEST PUSH1 0x1 DUP5 ADD PUSH2 0x42AB DUP2 PUSH1 0x0 MSTORE PUSH1 0x4 PUSH1 0x20 MSTORE PUSH1 0x40 PUSH1 0x0 KECCAK256 SWAP1 JUMP JUMPDEST SLOAD ISZERO PUSH2 0x42B8 JUMPI JUMPDEST POP PUSH2 0x4264 JUMP JUMPDEST DUP4 SLOAD DUP2 EQ PUSH2 0x42B2 JUMPI PUSH2 0x42D4 SWAP1 PUSH1 0x0 MSTORE PUSH1 0x4 PUSH1 0x20 MSTORE PUSH1 0x40 PUSH1 0x0 KECCAK256 SWAP1 JUMP JUMPDEST SSTORE CODESIZE DUP1 PUSH2 0x42B2 JUMP JUMPDEST DUP4 SWAP1 SSTORE CODESIZE PUSH2 0x420C JUMP INVALID 0xDF PUSH10 0x66C971051C3D54EC5916 0x26 MOD MSTORE8 EQ SWAP4 0xA5 EQ DIV LOG0 MUL DUP5 0x2F JUMP STOP SWAP14 PUSH31 0x5CF4A8C7A2646970667358221220C6E08408C290442E9304E9DA2866BA2073 0xAD 0xCB 0xD5 PUSH19 0x4FF160FDB0D86CA0B672E064736F6C63430008 SGT STOP CALLER "
		},
		"gasEstimates": {
			"creation": {
				"codeDepositCost": "3442200",
				"executionCost": "infinite",
				"totalCost": "infinite"
			},
			"external": {
				"approve(address,uint256)": "infinite",
				"balanceOf(address)": "2746",
				"combine(uint256[])": "infinite",
				"finalMintingBlock()": "2394",
				"fixedLuckyNumber()": "infinite",
				"getApproved(uint256)": "6794",
				"getSecondsRemaining()": "2790",
				"getValue(uint256)": "infinite",
				"isApprovedForAll(address,address)": "3219",
				"isCombinable()": "2494",
				"luckyNumber()": "infinite",
				"mint(uint256)": "infinite",
				"mintCount()": "2689",
				"name()": "infinite",
				"owner()": "2638",
				"ownerOf(uint256)": "infinite",
				"price()": "2724",
				"randomLuckyNumber()": "infinite",
				"renounceOwnership()": "28403",
				"safeTransferFrom(address,address,uint256)": "infinite",
				"safeTransferFrom(address,address,uint256,bytes)": "infinite",
				"setApprovalForAll(address,bool)": "26951",
				"supportsInterface(bytes4)": "373",
				"symbol()": "infinite",
				"toggleCombinable()": "27093",
				"tokenURI(uint256)": "infinite",
				"totalSupply()": "4490",
				"transferFrom(address,address,uint256)": "infinite",
				"transferOwnership(address)": "28791",
				"withdraw()": "infinite"
			},
			"internal": {
				"_startTokenId()": "infinite",
				"handleMint(address,uint256)": "infinite"
			}
		},
		"methodIdentifiers": {
			"approve(address,uint256)": "095ea7b3",
			"balanceOf(address)": "70a08231",
			"combine(uint256[])": "25e514c6",
			"finalMintingBlock()": "21cf7ecf",
			"fixedLuckyNumber()": "35c53541",
			"getApproved(uint256)": "081812fc",
			"getSecondsRemaining()": "9ac9f2a0",
			"getValue(uint256)": "0ff4c916",
			"isApprovedForAll(address,address)": "e985e9c5",
			"isCombinable()": "37c5fa0d",
			"luckyNumber()": "bf205ebc",
			"mint(uint256)": "a0712d68",
			"mintCount()": "9659867e",
			"name()": "06fdde03",
			"owner()": "8da5cb5b",
			"ownerOf(uint256)": "6352211e",
			"price()": "a035b1fe",
			"randomLuckyNumber()": "8ef9ae59",
			"renounceOwnership()": "715018a6",
			"safeTransferFrom(address,address,uint256)": "42842e0e",
			"safeTransferFrom(address,address,uint256,bytes)": "b88d4fde",
			"setApprovalForAll(address,bool)": "a22cb465",
			"supportsInterface(bytes4)": "01ffc9a7",
			"symbol()": "95d89b41",
			"toggleCombinable()": "b8be6e98",
			"tokenURI(uint256)": "c87b56dd",
			"totalSupply()": "18160ddd",
			"transferFrom(address,address,uint256)": "23b872dd",
			"transferOwnership(address)": "f2fde38b",
			"withdraw()": "3ccfd60b"
		}
	},
	"abi": [
		{
			"inputs": [],
			"stateMutability": "nonpayable",
			"type": "constructor"
		},
		{
			"inputs": [],
			"name": "ApprovalCallerNotOwnerNorApproved",
			"type": "error"
		},
		{
			"inputs": [],
			"name": "ApprovalQueryForNonexistentToken",
			"type": "error"
		},
		{
			"inputs": [],
			"name": "BalanceQueryForZeroAddress",
			"type": "error"
		},
		{
			"inputs": [],
			"name": "MintERC2309QuantityExceedsLimit",
			"type": "error"
		},
		{
			"inputs": [],
			"name": "MintToZeroAddress",
			"type": "error"
		},
		{
			"inputs": [],
			"name": "MintZeroQuantity",
			"type": "error"
		},
		{
			"inputs": [],
			"name": "OwnerQueryForNonexistentToken",
			"type": "error"
		},
		{
			"inputs": [],
			"name": "OwnershipNotInitializedForExtraData",
			"type": "error"
		},
		{
			"inputs": [],
			"name": "TransferCallerNotOwnerNorApproved",
			"type": "error"
		},
		{
			"inputs": [],
			"name": "TransferFromIncorrectOwner",
			"type": "error"
		},
		{
			"inputs": [],
			"name": "TransferToNonERC721ReceiverImplementer",
			"type": "error"
		},
		{
			"inputs": [],
			"name": "TransferToZeroAddress",
			"type": "error"
		},
		{
			"inputs": [],
			"name": "URIQueryForNonexistentToken",
			"type": "error"
		},
		{
			"anonymous": false,
			"inputs": [
				{
					"indexed": true,
					"internalType": "address",
					"name": "owner",
					"type": "address"
				},
				{
					"indexed": true,
					"internalType": "address",
					"name": "approved",
					"type": "address"
				},
				{
					"indexed": true,
					"internalType": "uint256",
					"name": "tokenId",
					"type": "uint256"
				}
			],
			"name": "Approval",
			"type": "event"
		},
		{
			"anonymous": false,
			"inputs": [
				{
					"indexed": true,
					"internalType": "address",
					"name": "owner",
					"type": "address"
				},
				{
					"indexed": true,
					"internalType": "address",
					"name": "operator",
					"type": "address"
				},
				{
					"indexed": false,
					"internalType": "bool",
					"name": "approved",
					"type": "bool"
				}
			],
			"name": "ApprovalForAll",
			"type": "event"
		},
		{
			"anonymous": false,
			"inputs": [
				{
					"indexed": true,
					"internalType": "uint256",
					"name": "fromTokenId",
					"type": "uint256"
				},
				{
					"indexed": false,
					"internalType": "uint256",
					"name": "toTokenId",
					"type": "uint256"
				},
				{
					"indexed": true,
					"internalType": "address",
					"name": "from",
					"type": "address"
				},
				{
					"indexed": true,
					"internalType": "address",
					"name": "to",
					"type": "address"
				}
			],
			"name": "ConsecutiveTransfer",
			"type": "event"
		},
		{
			"anonymous": false,
			"inputs": [
				{
					"indexed": false,
					"internalType": "uint256",
					"name": "_finalBlock",
					"type": "uint256"
				}
			],
			"name": "CountdownExtended",
			"type": "event"
		},
		{
			"anonymous": false,
			"inputs": [
				{
					"indexed": false,
					"internalType": "uint256",
					"name": "_tokenId",
					"type": "uint256"
				}
			],
			"name": "MetadataUpdate",
			"type": "event"
		},
		{
			"anonymous": false,
			"inputs": [
				{
					"indexed": true,
					"internalType": "address",
					"name": "previousOwner",
					"type": "address"
				},
				{
					"indexed": true,
					"internalType": "address",
					"name": "newOwner",
					"type": "address"
				}
			],
			"name": "OwnershipTransferred",
			"type": "event"
		},
		{
			"anonymous": false,
			"inputs": [
				{
					"indexed": true,
					"internalType": "address",
					"name": "from",
					"type": "address"
				},
				{
					"indexed": true,
					"internalType": "address",
					"name": "to",
					"type": "address"
				},
				{
					"indexed": true,
					"internalType": "uint256",
					"name": "tokenId",
					"type": "uint256"
				}
			],
			"name": "Transfer",
			"type": "event"
		},
		{
			"inputs": [
				{
					"internalType": "address",
					"name": "to",
					"type": "address"
				},
				{
					"internalType": "uint256",
					"name": "tokenId",
					"type": "uint256"
				}
			],
			"name": "approve",
			"outputs": [],
			"stateMutability": "payable",
			"type": "function"
		},
		{
			"inputs": [
				{
					"internalType": "address",
					"name": "owner",
					"type": "address"
				}
			],
			"name": "balanceOf",
			"outputs": [
				{
					"internalType": "uint256",
					"name": "",
					"type": "uint256"
				}
			],
			"stateMutability": "view",
			"type": "function"
		},
		{
			"inputs": [
				{
					"internalType": "uint256[]",
					"name": "tokens",
					"type": "uint256[]"
				}
			],
			"name": "combine",
			"outputs": [],
			"stateMutability": "nonpayable",
			"type": "function"
		},
		{
			"inputs": [],
			"name": "finalMintingBlock",
			"outputs": [
				{
					"internalType": "uint256",
					"name": "",
					"type": "uint256"
				}
			],
			"stateMutability": "view",
			"type": "function"
		},
		{
			"inputs": [],
			"name": "fixedLuckyNumber",
			"outputs": [],
			"stateMutability": "nonpayable",
			"type": "function"
		},
		{
			"inputs": [
				{
					"internalType": "uint256",
					"name": "tokenId",
					"type": "uint256"
				}
			],
			"name": "getApproved",
			"outputs": [
				{
					"internalType": "address",
					"name": "",
					"type": "address"
				}
			],
			"stateMutability": "view",
			"type": "function"
		},
		{
			"inputs": [],
			"name": "getSecondsRemaining",
			"outputs": [
				{
					"internalType": "uint256",
					"name": "",
					"type": "uint256"
				}
			],
			"stateMutability": "view",
			"type": "function"
		},
		{
			"inputs": [
				{
					"internalType": "uint256",
					"name": "tokenId",
					"type": "uint256"
				}
			],
			"name": "getValue",
			"outputs": [
				{
					"internalType": "string",
					"name": "",
					"type": "string"
				}
			],
			"stateMutability": "view",
			"type": "function"
		},
		{
			"inputs": [
				{
					"internalType": "address",
					"name": "owner",
					"type": "address"
				},
				{
					"internalType": "address",
					"name": "operator",
					"type": "address"
				}
			],
			"name": "isApprovedForAll",
			"outputs": [
				{
					"internalType": "bool",
					"name": "",
					"type": "bool"
				}
			],
			"stateMutability": "view",
			"type": "function"
		},
		{
			"inputs": [],
			"name": "isCombinable",
			"outputs": [
				{
					"internalType": "bool",
					"name": "",
					"type": "bool"
				}
			],
			"stateMutability": "view",
			"type": "function"
		},
		{
			"inputs": [],
			"name": "luckyNumber",
			"outputs": [
				{
					"internalType": "string",
					"name": "",
					"type": "string"
				}
			],
			"stateMutability": "view",
			"type": "function"
		},
		{
			"inputs": [
				{
					"internalType": "uint256",
					"name": "quantity",
					"type": "uint256"
				}
			],
			"name": "mint",
			"outputs": [],
			"stateMutability": "payable",
			"type": "function"
		},
		{
			"inputs": [],
			"name": "mintCount",
			"outputs": [
				{
					"internalType": "uint256",
					"name": "",
					"type": "uint256"
				}
			],
			"stateMutability": "view",
			"type": "function"
		},
		{
			"inputs": [],
			"name": "name",
			"outputs": [
				{
					"internalType": "string",
					"name": "",
					"type": "string"
				}
			],
			"stateMutability": "view",
			"type": "function"
		},
		{
			"inputs": [],
			"name": "owner",
			"outputs": [
				{
					"internalType": "address",
					"name": "",
					"type": "address"
				}
			],
			"stateMutability": "view",
			"type": "function"
		},
		{
			"inputs": [
				{
					"internalType": "uint256",
					"name": "tokenId",
					"type": "uint256"
				}
			],
			"name": "ownerOf",
			"outputs": [
				{
					"internalType": "address",
					"name": "",
					"type": "address"
				}
			],
			"stateMutability": "view",
			"type": "function"
		},
		{
			"inputs": [],
			"name": "price",
			"outputs": [
				{
					"internalType": "uint256",
					"name": "",
					"type": "uint256"
				}
			],
			"stateMutability": "view",
			"type": "function"
		},
		{
			"inputs": [],
			"name": "randomLuckyNumber",
			"outputs": [],
			"stateMutability": "nonpayable",
			"type": "function"
		},
		{
			"inputs": [],
			"name": "renounceOwnership",
			"outputs": [],
			"stateMutability": "nonpayable",
			"type": "function"
		},
		{
			"inputs": [
				{
					"internalType": "address",
					"name": "from",
					"type": "address"
				},
				{
					"internalType": "address",
					"name": "to",
					"type": "address"
				},
				{
					"internalType": "uint256",
					"name": "tokenId",
					"type": "uint256"
				}
			],
			"name": "safeTransferFrom",
			"outputs": [],
			"stateMutability": "payable",
			"type": "function"
		},
		{
			"inputs": [
				{
					"internalType": "address",
					"name": "from",
					"type": "address"
				},
				{
					"internalType": "address",
					"name": "to",
					"type": "address"
				},
				{
					"internalType": "uint256",
					"name": "tokenId",
					"type": "uint256"
				},
				{
					"internalType": "bytes",
					"name": "_data",
					"type": "bytes"
				}
			],
			"name": "safeTransferFrom",
			"outputs": [],
			"stateMutability": "payable",
			"type": "function"
		},
		{
			"inputs": [
				{
					"internalType": "address",
					"name": "operator",
					"type": "address"
				},
				{
					"internalType": "bool",
					"name": "approved",
					"type": "bool"
				}
			],
			"name": "setApprovalForAll",
			"outputs": [],
			"stateMutability": "nonpayable",
			"type": "function"
		},
		{
			"inputs": [
				{
					"internalType": "bytes4",
					"name": "interfaceId",
					"type": "bytes4"
				}
			],
			"name": "supportsInterface",
			"outputs": [
				{
					"internalType": "bool",
					"name": "",
					"type": "bool"
				}
			],
			"stateMutability": "view",
			"type": "function"
		},
		{
			"inputs": [],
			"name": "symbol",
			"outputs": [
				{
					"internalType": "string",
					"name": "",
					"type": "string"
				}
			],
			"stateMutability": "view",
			"type": "function"
		},
		{
			"inputs": [],
			"name": "toggleCombinable",
			"outputs": [],
			"stateMutability": "nonpayable",
			"type": "function"
		},
		{
			"inputs": [
				{
					"internalType": "uint256",
					"name": "tokenId",
					"type": "uint256"
				}
			],
			"name": "tokenURI",
			"outputs": [
				{
					"internalType": "string",
					"name": "",
					"type": "string"
				}
			],
			"stateMutability": "view",
			"type": "function"
		},
		{
			"inputs": [],
			"name": "totalSupply",
			"outputs": [
				{
					"internalType": "uint256",
					"name": "",
					"type": "uint256"
				}
			],
			"stateMutability": "view",
			"type": "function"
		},
		{
			"inputs": [
				{
					"internalType": "address",
					"name": "from",
					"type": "address"
				},
				{
					"internalType": "address",
					"name": "to",
					"type": "address"
				},
				{
					"internalType": "uint256",
					"name": "tokenId",
					"type": "uint256"
				}
			],
			"name": "transferFrom",
			"outputs": [],
			"stateMutability": "payable",
			"type": "function"
		},
		{
			"inputs": [
				{
					"internalType": "address",
					"name": "newOwner",
					"type": "address"
				}
			],
			"name": "transferOwnership",
			"outputs": [],
			"stateMutability": "nonpayable",
			"type": "function"
		},
		{
			"inputs": [],
			"name": "withdraw",
			"outputs": [],
			"stateMutability": "nonpayable",
			"type": "function"
		}
	]
}