{
	"data": {
		"bytecode": {
			"linkReferences": {},
			"object": "608060405260006009556000600a60006101000a81548160ff0219169083151502179055503480156200003157600080fd5b506040518060400160405280601381526020017f434f4d42494e452d4e554d4245522d54455354000000000000000000000000008152506040518060400160405280600481526020017f43424e54000000000000000000000000000000000000000000000000000000008152508160029081620000af919062000451565b508060039081620000c1919062000451565b50620000d26200010060201b60201c565b6000819055505050620000fa620000ee6200010960201b60201c565b6200011160201b60201c565b62000538565b60006001905090565b600033905090565b6000600860009054906101000a900473ffffffffffffffffffffffffffffffffffffffff16905081600860006101000a81548173ffffffffffffffffffffffffffffffffffffffff021916908373ffffffffffffffffffffffffffffffffffffffff1602179055508173ffffffffffffffffffffffffffffffffffffffff168173ffffffffffffffffffffffffffffffffffffffff167f8be0079c531659141344cd1fd0a4f28419497f9722a3daafe3b4186f6b6457e060405160405180910390a35050565b600081519050919050565b7f4e487b7100000000000000000000000000000000000000000000000000000000600052604160045260246000fd5b7f4e487b7100000000000000000000000000000000000000000000000000000000600052602260045260246000fd5b600060028204905060018216806200025957607f821691505b6020821081036200026f576200026e62000211565b5b50919050565b60008190508160005260206000209050919050565b60006020601f8301049050919050565b600082821b905092915050565b600060088302620002d97fffffffffffffffffffffffffffffffffffffffffffffffffffffffffffffffff826200029a565b620002e586836200029a565b95508019841693508086168417925050509392505050565b6000819050919050565b6000819050919050565b6000620003326200032c6200032684620002fd565b62000307565b620002fd565b9050919050565b6000819050919050565b6200034e8362000311565b620003666200035d8262000339565b848454620002a7565b825550505050565b600090565b6200037d6200036e565b6200038a81848462000343565b505050565b5b81811015620003b257620003a660008262000373565b60018101905062000390565b5050565b601f8211156200040157620003cb8162000275565b620003d6846200028a565b81016020851015620003e6578190505b620003fe620003f5856200028a565b8301826200038f565b50505b505050565b600082821c905092915050565b6000620004266000198460080262000406565b1980831691505092915050565b600062000441838362000413565b9150826002028217905092915050565b6200045c82620001d7565b67ffffffffffffffff811115620004785762000477620001e2565b5b62000484825462000240565b62000491828285620003b6565b600060209050601f831160018114620004c95760008415620004b4578287015190505b620004c0858262000433565b86555062000530565b601f198416620004d98662000275565b60005b828110156200050357848901518255600182019150602085019450602081019050620004dc565b868310156200052357848901516200051f601f89168262000413565b8355505b6001600288020188555050505b505050505050565b616a7480620005486000396000f3fe6080604052600436106101cd5760003560e01c8063715018a6116100f7578063a0712d6811610095578063bf205ebc11610064578063bf205ebc146105d7578063c87b56dd14610602578063e985e9c51461063f578063f2fde38b1461067c576101cd565b8063a0712d681461055f578063a22cb4651461057b578063b88d4fde146105a4578063b8be6e98146105c0576101cd565b806395d89b41116100d157806395d89b41146104b35780639659867e146104de5780639ac9f2a014610509578063a035b1fe14610534576101cd565b8063715018a61461045a5780638da5cb5b146104715780638ef9ae591461049c576101cd565b806323b872dd1161016f5780633ccfd60b1161013e5780633ccfd60b146103ad57806342842e0e146103c45780636352211e146103e057806370a082311461041d576101cd565b806323b872dd1461032657806325e514c61461034257806335c535411461036b57806337c5fa0d14610382576101cd565b8063095ea7b3116101ab578063095ea7b3146102775780630ff4c9161461029357806318160ddd146102d057806321cf7ecf146102fb576101cd565b806301ffc9a7146101d257806306fdde031461020f578063081812fc1461023a575b600080fd5b3480156101de57600080fd5b506101f960048036038101906101f49190613a7e565b6106a5565b6040516102069190613ac6565b60405180910390f35b34801561021b57600080fd5b50610224610737565b6040516102319190613b71565b60405180910390f35b34801561024657600080fd5b50610261600480360381019061025c9190613bc9565b6107c9565b60405161026e9190613c37565b60405180910390f35b610291600480360381019061028c9190613c7e565b610848565b005b34801561029f57600080fd5b506102ba60048036038101906102b59190613bc9565b61098c565b6040516102c79190613b71565b60405180910390f35b3480156102dc57600080fd5b506102e5610b1e565b6040516102f29190613ccd565b60405180910390f35b34801561030757600080fd5b50610310610b35565b60405161031d9190613ccd565b60405180910390f35b610340600480360381019061033b9190613ce8565b610b3b565b005b34801561034e57600080fd5b5061036960048036038101906103649190613e83565b610e5d565b005b34801561037757600080fd5b5061038061138c565b005b34801561038e57600080fd5b506103976113db565b6040516103a49190613ac6565b60405180910390f35b3480156103b957600080fd5b506103c26113ee565b005b6103de60048036038101906103d99190613ce8565b611436565b005b3480156103ec57600080fd5b5061040760048036038101906104029190613bc9565b611456565b6040516104149190613c37565b60405180910390f35b34801561042957600080fd5b50610444600480360381019061043f9190613ecc565b611468565b6040516104519190613ccd565b60405180910390f35b34801561046657600080fd5b5061046f611520565b005b34801561047d57600080fd5b50610486611534565b6040516104939190613c37565b60405180910390f35b3480156104a857600080fd5b506104b161155e565b005b3480156104bf57600080fd5b506104c8611582565b6040516104d59190613b71565b60405180910390f35b3480156104ea57600080fd5b506104f3611614565b6040516105009190613ccd565b60405180910390f35b34801561051557600080fd5b5061051e611623565b60405161052b9190613ccd565b60405180910390f35b34801561054057600080fd5b50610549611635565b6040516105569190613ccd565b60405180910390f35b61057960048036038101906105749190613bc9565b61163b565b005b34801561058757600080fd5b506105a2600480360381019061059d9190613f25565b611698565b005b6105be60048036038101906105b9919061401a565b6117a3565b005b3480156105cc57600080fd5b506105d5611816565b005b3480156105e357600080fd5b506105ec61184a565b6040516105f99190613b71565b60405180910390f35b34801561060e57600080fd5b5061062960048036038101906106249190613bc9565b6118d8565b6040516106369190613b71565b60405180910390f35b34801561064b57600080fd5b506106666004803603810190610661919061409d565b611a9e565b6040516106739190613ac6565b60405180910390f35b34801561068857600080fd5b506106a3600480360381019061069e9190613ecc565b611b32565b005b60006301ffc9a760e01b827bffffffffffffffffffffffffffffffffffffffffffffffffffffffff1916148061070057506380ac58cd60e01b827bffffffffffffffffffffffffffffffffffffffffffffffffffffffff1916145b806107305750635b5e139f60e01b827bffffffffffffffffffffffffffffffffffffffffffffffffffffffff1916145b9050919050565b6060600280546107469061410c565b80601f01602080910402602001604051908101604052809291908181526020018280546107729061410c565b80156107bf5780601f10610794576101008083540402835291602001916107bf565b820191906000526020600020905b8154815290600101906020018083116107a257829003601f168201915b5050505050905090565b60006107d482611bb5565b61080a576040517fcf4700e400000000000000000000000000000000000000000000000000000000815260040160405180910390fd5b6006600083815260200190815260200160002060000160009054906101000a900473ffffffffffffffffffffffffffffffffffffffff169050919050565b600061085382611456565b90508073ffffffffffffffffffffffffffffffffffffffff16610874611c14565b73ffffffffffffffffffffffffffffffffffffffff16146108d7576108a08161089b611c14565b611a9e565b6108d6576040517fcfb3b94200000000000000000000000000000000000000000000000000000000815260040160405180910390fd5b5b826006600084815260200190815260200160002060000160006101000a81548173ffffffffffffffffffffffffffffffffffffffff021916908373ffffffffffffffffffffffffffffffffffffffff160217905550818373ffffffffffffffffffffffffffffffffffffffff168273ffffffffffffffffffffffffffffffffffffffff167f8c5be1e5ebec7d5bd14f71427d1e84f3dd0314c0f7b2291e5b200ac8c7c3b92560405160405180910390a4505050565b606061099782611bb5565b6109b257604051806020016040528060008152509050610b19565b610a66600d600084815260200190815260200160002080546109d39061410c565b80601f01602080910402602001604051908101604052809291908181526020018280546109ff9061410c565b8015610a4c5780601f10610a2157610100808354040283529160200191610a4c565b820191906000526020600020905b815481529060010190602001808311610a2f57829003601f168201915b505050505060405180602001604052806000815250611c1c565b610b0d57600d60008381526020019081526020016000208054610a889061410c565b80601f0160208091040260200160405190810160405280929190818152602001828054610ab49061410c565b8015610b015780601f10610ad657610100808354040283529160200191610b01565b820191906000526020600020905b815481529060010190602001808311610ae457829003601f168201915b50505050509050610b19565b610b1682611c75565b90505b919050565b6000610b28611c89565b6001546000540303905090565b600b5481565b6000610b4682611c92565b90508373ffffffffffffffffffffffffffffffffffffffff168173ffffffffffffffffffffffffffffffffffffffff1614610bad576040517fa114810000000000000000000000000000000000000000000000000000000000815260040160405180910390fd5b600080610bb984611d5e565b91509150610bcf8187610bca611c14565b611d85565b610c1b57610be486610bdf611c14565b611a9e565b610c1a576040517f59c896be00000000000000000000000000000000000000000000000000000000815260040160405180910390fd5b5b600073ffffffffffffffffffffffffffffffffffffffff168573ffffffffffffffffffffffffffffffffffffffff1603610c81576040517fea553b3400000000000000000000000000000000000000000000000000000000815260040160405180910390fd5b610c8e8686866001611dc9565b8015610c9957600082555b600560008773ffffffffffffffffffffffffffffffffffffffff1673ffffffffffffffffffffffffffffffffffffffff168152602001908152602001600020600081546001900391905081905550600560008673ffffffffffffffffffffffffffffffffffffffff1673ffffffffffffffffffffffffffffffffffffffff1681526020019081526020016000206000815460010191905081905550610d6785610d43888887611dcf565b7c020000000000000000000000000000000000000000000000000000000017611df7565b600460008681526020019081526020016000208190555060007c0200000000000000000000000000000000000000000000000000000000841603610ded5760006001850190506000600460008381526020019081526020016000205403610deb576000548114610dea578360046000838152602001908152602001600020819055505b5b505b838573ffffffffffffffffffffffffffffffffffffffff168773ffffffffffffffffffffffffffffffffffffffff167fddf252ad1be2c89b69c2b068fc378daa952ba7f163c4a11628f55a4df523b3ef60405160405180910390a4610e558686866001611e22565b505050505050565b600a60009054906101000a900460ff16610eac576040517f08c379a0000000000000000000000000000000000000000000000000000000008152600401610ea390614189565b60405180910390fd5b606060005b8251811015610fa3573373ffffffffffffffffffffffffffffffffffffffff16610ef4848381518110610ee757610ee66141a9565b5b6020026020010151611456565b73ffffffffffffffffffffffffffffffffffffffff1614610f4a576040517f08c379a0000000000000000000000000000000000000000000000000000000008152600401610f4190614224565b60405180910390fd5b81610f6e848381518110610f6157610f606141a9565b5b602002602001015161098c565b604051602001610f7f929190614280565b60405160208183030381529060405291508080610f9b906142d3565b915050610eb1565b50600481511115610fe9576040517f08c379a0000000000000000000000000000000000000000000000000000000008152600401610fe090614367565b60405180910390fd5b61108c600c8054610ff99061410c565b80601f01602080910402602001604051908101604052809291908181526020018280546110259061410c565b80156110725780601f1061104757610100808354040283529160200191611072565b820191906000526020600020905b81548152906001019060200180831161105557829003601f168201915b505050505060405180602001604052806000815250611c1c565b1580156111295750611128600c80546110a49061410c565b80601f01602080910402602001604051908101604052809291908181526020018280546110d09061410c565b801561111d5780601f106110f25761010080835404028352916020019161111d565b820191906000526020600020905b81548152906001019060200180831161110057829003601f168201915b505050505082611c1c565b5b1561118b57600c6040516020016111409190614491565b6040516020818303038152906040526040517f08c379a00000000000000000000000000000000000000000000000000000000081526004016111829190613b71565b60405180910390fd5b6000600190505b825181101561129f576111be8382815181106111b1576111b06141a9565b5b6020026020010151611e28565b60405180602001604052806000815250600d60008584815181106111e5576111e46141a9565b5b602002602001015181526020019081526020016000209081611207919061464a565b506000600e6000858481518110611221576112206141a9565b5b60200260200101518152602001908152602001600020819055507ff8e1a15aba9398e019f0b49df1a4fde98ee17ae345cb5f6b5e2c27f5033e8ce783828151811061126f5761126e6141a9565b5b60200260200101516040516112849190613ccd565b60405180910390a18080611297906142d3565b915050611192565b5080600d6000846000815181106112b9576112b86141a9565b5b6020026020010151815260200190815260200160002090816112db919061464a565b50611304826000815181106112f3576112f26141a9565b5b602002602001015160016004611e36565b600e60008460008151811061131c5761131b6141a9565b5b60200260200101518152602001908152602001600020819055507ff8e1a15aba9398e019f0b49df1a4fde98ee17ae345cb5f6b5e2c27f5033e8ce78260008151811061136b5761136a6141a9565b5b60200260200101516040516113809190613ccd565b60405180910390a15050565b611394611e78565b6040518060400160405280600481526020017f3031323300000000000000000000000000000000000000000000000000000000815250600c90816113d8919061464a565b50565b600a60009054906101000a900460ff1681565b6113f6611e78565b3373ffffffffffffffffffffffffffffffffffffffff166108fc479081150290604051600060405180830381858888f1935050505061143457600080fd5b565b611451838383604051806020016040528060008152506117a3565b505050565b600061146182611c92565b9050919050565b60008073ffffffffffffffffffffffffffffffffffffffff168273ffffffffffffffffffffffffffffffffffffffff16036114cf576040517f8f4eb60400000000000000000000000000000000000000000000000000000000815260040160405180910390fd5b67ffffffffffffffff600560008473ffffffffffffffffffffffffffffffffffffffff1673ffffffffffffffffffffffffffffffffffffffff16815260200190815260200160002054169050919050565b611528611e78565b6115326000611ef6565b565b6000600860009054906101000a900473ffffffffffffffffffffffffffffffffffffffff16905090565b611566611e78565b611571426004611fbc565b600c908161157f919061464a565b50565b6060600380546115919061410c565b80601f01602080910402602001604051908101604052809291908181526020018280546115bd9061410c565b801561160a5780601f106115df5761010080835404028352916020019161160a565b820191906000526020600020905b8154815290600101906020018083116115ed57829003601f168201915b5050505050905090565b600061161e6121bc565b905090565b6000611630600b546121cf565b905090565b60095481565b60095481611649919061471c565b34101561168b576040517f08c379a0000000000000000000000000000000000000000000000000000000008152600401611682906147aa565b60405180910390fd5b61169533826121f5565b50565b80600760006116a5611c14565b73ffffffffffffffffffffffffffffffffffffffff1673ffffffffffffffffffffffffffffffffffffffff16815260200190815260200160002060008473ffffffffffffffffffffffffffffffffffffffff1673ffffffffffffffffffffffffffffffffffffffff16815260200190815260200160002060006101000a81548160ff0219169083151502179055508173ffffffffffffffffffffffffffffffffffffffff16611752611c14565b73ffffffffffffffffffffffffffffffffffffffff167f17307eab39ab6107e8899845ad3d59bd9653f200f220920489ca2b5937696c31836040516117979190613ac6565b60405180910390a35050565b6117ae848484610b3b565b60008373ffffffffffffffffffffffffffffffffffffffff163b14611810576117d984848484612341565b61180f576040517fd1a57ed600000000000000000000000000000000000000000000000000000000815260040160405180910390fd5b5b50505050565b61181e611e78565b600a60009054906101000a900460ff1615600a60006101000a81548160ff021916908315150217905550565b600c80546118579061410c565b80601f01602080910402602001604051908101604052809291908181526020018280546118839061410c565b80156118d05780601f106118a5576101008083540402835291602001916118d0565b820191906000526020600020905b8154815290600101906020018083116118b357829003601f168201915b505050505081565b6060600060606118e784611bb5565b6119065760405180602001604052806000815250905060019150611a76565b6119ba600d600086815260200190815260200160002080546119279061410c565b80601f01602080910402602001604051908101604052809291908181526020018280546119539061410c565b80156119a05780601f10611975576101008083540402835291602001916119a0565b820191906000526020600020905b81548152906001019060200180831161198357829003601f168201915b505050505060405180602001604052806000815250611c1c565b611a6557600d600085815260200190815260200160002080546119dc9061410c565b80601f0160208091040260200160405190810160405280929190818152602001828054611a089061410c565b8015611a555780601f10611a2a57610100808354040283529160200191611a55565b820191906000526020600020905b815481529060010190602001808311611a3857829003601f168201915b5050505050905060009150611a75565b611a6e84611c75565b9050600091505b5b611a958482600e60008881526020019081526020016000205485612491565b92505050919050565b6000600760008473ffffffffffffffffffffffffffffffffffffffff1673ffffffffffffffffffffffffffffffffffffffff16815260200190815260200160002060008373ffffffffffffffffffffffffffffffffffffffff1673ffffffffffffffffffffffffffffffffffffffff16815260200190815260200160002060009054906101000a900460ff16905092915050565b611b3a611e78565b600073ffffffffffffffffffffffffffffffffffffffff168173ffffffffffffffffffffffffffffffffffffffff1603611ba9576040517f08c379a0000000000000000000000000000000000000000000000000000000008152600401611ba09061483c565b60405180910390fd5b611bb281611ef6565b50565b600081611bc0611c89565b11158015611bcf575060005482105b8015611c0d575060007c0100000000000000000000000000000000000000000000000000000000600460008581526020019081526020016000205416145b9050919050565b600033905090565b600081604051602001611c2f919061485c565b6040516020818303038152906040528051906020012083604051602001611c56919061485c565b6040516020818303038152906040528051906020012014905092915050565b6060611c82826001611fbc565b9050919050565b60006001905090565b60008082905080611ca1611c89565b11611d2757600054811015611d265760006004600083815260200190815260200160002054905060007c0100000000000000000000000000000000000000000000000000000000821603611d24575b60008103611d1a576004600083600190039350838152602001908152602001600020549050611cf0565b8092505050611d59565b505b5b6040517fdf2d9b4200000000000000000000000000000000000000000000000000000000815260040160405180910390fd5b919050565b60008060006006600085815260200190815260200160002090508092508254915050915091565b600073ffffffffffffffffffffffffffffffffffffffff8316925073ffffffffffffffffffffffffffffffffffffffff821691508382148383141790509392505050565b50505050565b60008060e883901c905060e8611de68686846125cf565b62ffffff16901b9150509392505050565b600073ffffffffffffffffffffffffffffffffffffffff83169250814260a01b178317905092915050565b50505050565b611e338160006125d8565b50565b6000828483604051602001611e4c929190614894565b6040516020818303038152906040528051906020012060001c611e6f91906148ef565b90509392505050565b611e8061282a565b73ffffffffffffffffffffffffffffffffffffffff16611e9e611534565b73ffffffffffffffffffffffffffffffffffffffff1614611ef4576040517f08c379a0000000000000000000000000000000000000000000000000000000008152600401611eeb9061496c565b60405180910390fd5b565b6000600860009054906101000a900473ffffffffffffffffffffffffffffffffffffffff16905081600860006101000a81548173ffffffffffffffffffffffffffffffffffffffff021916908373ffffffffffffffffffffffffffffffffffffffff1602179055508173ffffffffffffffffffffffffffffffffffffffff168173ffffffffffffffffffffffffffffffffffffffff167f8be0079c531659141344cd1fd0a4f28419497f9722a3daafe3b4186f6b6457e060405160405180910390a35050565b60606004821115612002576040517f08c379a0000000000000000000000000000000000000000000000000000000008152600401611ff9906149d8565b60405180910390fd5b6001821015612046576040517f08c379a000000000000000000000000000000000000000000000000000000000815260040161203d90614a44565b60405180910390fd5b60008267ffffffffffffffff81111561206257612061613d40565b5b6040519080825280601f01601f1916602001820160405280156120945781602001600182028036833780820191505090505b5090506000600a67ffffffffffffffff8111156120b4576120b3613d40565b5b6040519080825280601f01601f1916602001820160405280156120e65781602001600182028036833780820191505090505b5090506040518060400160405280600a81526020017f3031323334353637383900000000000000000000000000000000000000000000815250905060005b848110156121b057600061213a87600a84611e36565b905082818151811061214f5761214e6141a9565b5b602001015160f81c60f81b84838151811061216d5761216c6141a9565b5b60200101907effffffffffffffffffffffffffffffffffffffffffffffffffffffffffffff1916908160001a9053505080806121a8906142d3565b915050612124565b50819250505092915050565b60006121c6611c89565b60005403905090565b60008142116121eb5742826121e49190614a64565b90506121f0565b600090505b919050565b60006121ff6121bc565b90506103e881106122ce576000612217600b546121cf565b11612257576040517f08c379a000000000000000000000000000000000000000000000000000000000815260040161224e90614ae4565b60405180910390fd5b61138881108015612275575061138882826122729190614b04565b10155b156122c95762015180426122899190614b04565b600b819055507ff5b316bf09d21e0058eb23be118a6b81bd52674b4cb843e0f446b986ce22433e600b546040516122c09190613ccd565b60405180910390a15b612332565b6103e882826122dd9190614b04565b106123315762015180426122f19190614b04565b600b819055507ff5b316bf09d21e0058eb23be118a6b81bd52674b4cb843e0f446b986ce22433e600b546040516123289190613ccd565b60405180910390a15b5b61233c8383612832565b505050565b60008373ffffffffffffffffffffffffffffffffffffffff1663150b7a02612367611c14565b8786866040518563ffffffff1660e01b81526004016123899493929190614b8d565b6020604051808303816000875af19250505080156123c557506040513d601f19601f820116820180604052508101906123c29190614bee565b60015b61243e573d80600081146123f5576040519150601f19603f3d011682016040523d82523d6000602084013e6123fa565b606091505b506000815103612436576040517fd1a57ed600000000000000000000000000000000000000000000000000000000815260040160405180910390fd5b805181602001fd5b63150b7a0260e01b7bffffffffffffffffffffffffffffffffffffffffffffffffffffffff1916817bffffffffffffffffffffffffffffffffffffffffffffffffffffffff191614915050949350505050565b6060600061249f86856129ed565b9050606083156124eb576124b287612ad4565b6124c46124bf8885612c5c565b612f6b565b6040516020016124d5929190614d97565b604051602081830303815290604052905061259b565b6124f487612ad4565b866124fe876130ce565b61251f85600060038110612515576125146141a9565b5b6020020151612ad4565b61254086600160038110612536576125356141a9565b5b6020020151612ad4565b61256187600260038110612557576125566141a9565b5b6020020151612ad4565b61257361256e8d8a612c5c565b612f6b565b6040516020016125899796959493929190615062565b60405160208183030381529060405290505b6125a481612f6b565b6040516020016125b4919061516b565b60405160208183030381529060405292505050949350505050565b60009392505050565b60006125e383611c92565b905060008190506000806125f686611d5e565b91509150841561265f57612612818461260d611c14565b611d85565b61265e5761262783612622611c14565b611a9e565b61265d576040517f59c896be00000000000000000000000000000000000000000000000000000000815260040160405180910390fd5b5b5b61266d836000886001611dc9565b801561267857600082555b600160806001901b03600560008573ffffffffffffffffffffffffffffffffffffffff1673ffffffffffffffffffffffffffffffffffffffff16815260200190815260200160002060008282540192505081905550612720836126dd85600088611dcf565b7c02000000000000000000000000000000000000000000000000000000007c01000000000000000000000000000000000000000000000000000000001717611df7565b600460008881526020019081526020016000208190555060007c02000000000000000000000000000000000000000000000000000000008516036127a657600060018701905060006004600083815260200190815260200160002054036127a45760005481146127a3578460046000838152602001908152602001600020819055505b5b505b85600073ffffffffffffffffffffffffffffffffffffffff168473ffffffffffffffffffffffffffffffffffffffff167fddf252ad1be2c89b69c2b068fc378daa952ba7f163c4a11628f55a4df523b3ef60405160405180910390a4612810836000886001611e22565b600160008154809291906001019190505550505050505050565b600033905090565b60008054905060008203612872576040517fb562e8dd00000000000000000000000000000000000000000000000000000000815260040160405180910390fd5b61287f6000848385611dc9565b600160406001901b178202600560008573ffffffffffffffffffffffffffffffffffffffff1673ffffffffffffffffffffffffffffffffffffffff168152602001908152602001600020600082825401925050819055506128f6836128e76000866000611dcf565b6128f0856131e9565b17611df7565b6004600083815260200190815260200160002081905550600080838301905073ffffffffffffffffffffffffffffffffffffffff85169150828260007fddf252ad1be2c89b69c2b068fc378daa952ba7f163c4a11628f55a4df523b3ef600080a4600183015b81811461299757808360007fddf252ad1be2c89b69c2b068fc378daa952ba7f163c4a11628f55a4df523b3ef600080a460018101905061295c565b50600082036129d2576040517f2e07630000000000000000000000000000000000000000000000000000000000815260040160405180910390fd5b8060008190555050506129e86000848385611e22565b505050565b6129f56139c8565b6000821115612a8f5760005b6003811015612a8957600181612a179190614b04565b8303612a405760ff828260038110612a3257612a316141a9565b5b602002018181525050612a76565b612a598185612a4f9190614b04565b60006101006131f9565b828260038110612a6c57612a6b6141a9565b5b6020020181815250505b8080612a81906142d3565b915050612a01565b50612ace565b60005b6003811015612acc5760ff828260038110612ab057612aaf6141a9565b5b6020020181815250508080612ac4906142d3565b915050612a92565b505b92915050565b606060008203612b1b576040518060400160405280600181526020017f30000000000000000000000000000000000000000000000000000000000000008152509050612c57565b600082905060005b60008214612b4d578080612b36906142d3565b915050600a82612b46919061518d565b9150612b23565b60008167ffffffffffffffff811115612b6957612b68613d40565b5b6040519080825280601f01601f191660200182016040528015612b9b5781602001600182028036833780820191505090505b50905060008290505b60008614612c4f57600181612bb99190614a64565b90506000600a8088612bcb919061518d565b612bd5919061471c565b87612be09190614a64565b6030612bec91906151cb565b905060008160f81b905080848481518110612c0a57612c096141a9565b5b60200101907effffffffffffffffffffffffffffffffffffffffffffffffffffffffffffff1916908160001a905350600a88612c46919061518d565b97505050612ba4565b819450505050505b919050565b606060405180610c400160405280610c198152602001615e26610c19913990506000612c9f83600060038110612c9557612c946141a9565b5b6020020151612ad4565b612cc084600160038110612cb657612cb56141a9565b5b6020020151612ad4565b612ce185600260038110612cd757612cd66141a9565b5b6020020151612ad4565b604051602001612cf393929190615298565b60405160208183030381529060405290506000845190506000612d158661326d565b905060018203612d565782612d2f600383606001516133e0565b604051602001612d40929190614280565b6040516020818303038152906040529250612f3e565b60028203612dc75782612d6e600283604001516133e0565b604051602001612d7f929190614280565b604051602081830303815290604052925082612da0600383606001516133e0565b604051602001612db1929190614280565b6040516020818303038152906040529250612f3d565b60038203612e6a5782612ddf600183602001516133e0565b604051602001612df0929190614280565b604051602081830303815290604052925082612e11600283604001516133e0565b604051602001612e22929190614280565b604051602081830303815290604052925082612e43600383606001516133e0565b604051602001612e54929190614280565b6040516020818303038152906040529250612f3c565b60048203612f3b5782612e82600083600001516133e0565b604051602001612e93929190614280565b604051602081830303815290604052925082612eb4600183602001516133e0565b604051602001612ec5929190614280565b604051602081830303815290604052925082612ee6600283604001516133e0565b604051602001612ef7929190614280565b604051602081830303815290604052925082612f18600383606001516133e0565b604051602001612f29929190614280565b60405160208183030381529060405292505b5b5b5b8383604051602001612f51929190615341565b604051602081830303815290604052935050505092915050565b60606000825103612f8d576040518060200160405280600081525090506130c9565b6000604051806060016040528060408152602001615de66040913990506000600360028551612fbc9190614b04565b612fc6919061518d565b6004612fd2919061471c565b67ffffffffffffffff811115612feb57612fea613d40565b5b6040519080825280601f01601f19166020018201604052801561301d5781602001600182028036833780820191505090505b509050600182016020820185865187015b80821015613089576003820191508151603f8160121c168501518453600184019350603f81600c1c168501518453600184019350603f8160061c168501518453600184019350603f811685015184536001840193505061302e565b50506003865106600181146130a557600281146130b8576130c0565b603d6001830353603d60028303536130c0565b603d60018303535b50505080925050505b919050565b6060600060405180608001604052806040518060400160405280600581526020017f576869746500000000000000000000000000000000000000000000000000000081525081526020016040518060400160405280600381526020017f526564000000000000000000000000000000000000000000000000000000000081525081526020016040518060400160405280600581526020017f477265656e00000000000000000000000000000000000000000000000000000081525081526020016040518060400160405280600481526020017f426c75650000000000000000000000000000000000000000000000000000000081525081525090508083600481106131dc576131db6141a9565b5b6020020151915050919050565b60006001821460e11b9050919050565b60008083836132089190614a64565b90506001816107e78761321b9190614b04565b60405160200161322b9190615370565b6040516020818303038152906040528051906020012060001c61324e91906148ef565b846132599190614a64565b6132639190614a64565b9150509392505050565b6132756139ea565b6000613280836138b5565b905060005b81518110156133d957600081036132dc578181815181106132a9576132a86141a9565b5b602001015160f81c60f81b6040516020016132c491906153d8565b60405160208183030381529060405283606001819052505b6001810361332a578181815181106132f7576132f66141a9565b5b602001015160f81c60f81b60405160200161331291906153d8565b60405160208183030381529060405283604001819052505b6002810361337857818181518110613345576133446141a9565b5b602001015160f81c60f81b60405160200161336091906153d8565b60405160208183030381529060405283602001819052505b600381036133c657818181518110613393576133926141a9565b5b602001015160f81c60f81b6040516020016133ae91906153d8565b60405160208183030381529060405283600001819052505b80806133d1906142d3565b915050613285565b5050919050565b606060006133ed84612ad4565b905061342e836040518060400160405280600181526020017f3000000000000000000000000000000000000000000000000000000000000000815250611c1c565b156134655780818283848560405160200161344e96959493929190615607565b6040516020818303038152906040529150506138af565b6134a4836040518060400160405280600181526020017f3100000000000000000000000000000000000000000000000000000000000000815250611c1c565b156134d35780816040516020016134bc92919061572f565b6040516020818303038152906040529150506138af565b613512836040518060400160405280600181526020017f3200000000000000000000000000000000000000000000000000000000000000815250611c1c565b156135475780818283846040516020016135309594939291906157cb565b6040516020818303038152906040529150506138af565b613586836040518060400160405280600181526020017f3300000000000000000000000000000000000000000000000000000000000000815250611c1c565b156135bb5780818283846040516020016135a4959493929190615884565b6040516020818303038152906040529150506138af565b6135fa836040518060400160405280600181526020017f3400000000000000000000000000000000000000000000000000000000000000815250611c1c565b1561362d5780818283604051602001613616949392919061593d565b6040516020818303038152906040529150506138af565b61366c836040518060400160405280600181526020017f3500000000000000000000000000000000000000000000000000000000000000815250611c1c565b156136a157808182838460405160200161368a9594939291906159d3565b6040516020818303038152906040529150506138af565b6136e0836040518060400160405280600181526020017f3600000000000000000000000000000000000000000000000000000000000000815250611c1c565b156137175780818283848560405160200161370096959493929190615a8c565b6040516020818303038152906040529150506138af565b613756836040518060400160405280600181526020017f3700000000000000000000000000000000000000000000000000000000000000815250611c1c565b156137875780818260405160200161377093929190615b68565b6040516020818303038152906040529150506138af565b6137c6836040518060400160405280600181526020017f3800000000000000000000000000000000000000000000000000000000000000815250611c1c565b156137ff57808182838485866040516020016137e89796959493929190615bdb565b6040516020818303038152906040529150506138af565b61383e836040518060400160405280600181526020017f3900000000000000000000000000000000000000000000000000000000000000815250611c1c565b156138755780818283848560405160200161385e96959493929190615cda565b6040516020818303038152906040529150506138af565b6040518060400160405280600581526020017f6572726f720000000000000000000000000000000000000000000000000000008152509150505b92915050565b6060600082905060008151116138ce576138cd615db6565b5b6000815167ffffffffffffffff8111156138eb576138ea613d40565b5b6040519080825280601f01601f19166020018201604052801561391d5781602001600182028036833780820191505090505b509050600081905060005b83518110156139bc57838181518110613944576139436141a9565b5b602001015160f81c60f81b82600183875161395f9190614a64565b6139699190614a64565b8151811061397a576139796141a9565b5b60200101907effffffffffffffffffffffffffffffffffffffffffffffffffffffffffffff1916908160001a90535080806139b4906142d3565b915050613928565b50809350505050919050565b6040518060600160405280600390602082028036833780820191505090505090565b6040518060800160405280606081526020016060815260200160608152602001606081525090565b6000604051905090565b600080fd5b600080fd5b60007fffffffff0000000000000000000000000000000000000000000000000000000082169050919050565b613a5b81613a26565b8114613a6657600080fd5b50565b600081359050613a7881613a52565b92915050565b600060208284031215613a9457613a93613a1c565b5b6000613aa284828501613a69565b91505092915050565b60008115159050919050565b613ac081613aab565b82525050565b6000602082019050613adb6000830184613ab7565b92915050565b600081519050919050565b600082825260208201905092915050565b60005b83811015613b1b578082015181840152602081019050613b00565b60008484015250505050565b6000601f19601f8301169050919050565b6000613b4382613ae1565b613b4d8185613aec565b9350613b5d818560208601613afd565b613b6681613b27565b840191505092915050565b60006020820190508181036000830152613b8b8184613b38565b905092915050565b6000819050919050565b613ba681613b93565b8114613bb157600080fd5b50565b600081359050613bc381613b9d565b92915050565b600060208284031215613bdf57613bde613a1c565b5b6000613bed84828501613bb4565b91505092915050565b600073ffffffffffffffffffffffffffffffffffffffff82169050919050565b6000613c2182613bf6565b9050919050565b613c3181613c16565b82525050565b6000602082019050613c4c6000830184613c28565b92915050565b613c5b81613c16565b8114613c6657600080fd5b50565b600081359050613c7881613c52565b92915050565b60008060408385031215613c9557613c94613a1c565b5b6000613ca385828601613c69565b9250506020613cb485828601613bb4565b9150509250929050565b613cc781613b93565b82525050565b6000602082019050613ce26000830184613cbe565b92915050565b600080600060608486031215613d0157613d00613a1c565b5b6000613d0f86828701613c69565b9350506020613d2086828701613c69565b9250506040613d3186828701613bb4565b9150509250925092565b600080fd5b7f4e487b7100000000000000000000000000000000000000000000000000000000600052604160045260246000fd5b613d7882613b27565b810181811067ffffffffffffffff82111715613d9757613d96613d40565b5b80604052505050565b6000613daa613a12565b9050613db68282613d6f565b919050565b600067ffffffffffffffff821115613dd657613dd5613d40565b5b602082029050602081019050919050565b600080fd5b6000613dff613dfa84613dbb565b613da0565b90508083825260208201905060208402830185811115613e2257613e21613de7565b5b835b81811015613e4b5780613e378882613bb4565b845260208401935050602081019050613e24565b5050509392505050565b600082601f830112613e6a57613e69613d3b565b5b8135613e7a848260208601613dec565b91505092915050565b600060208284031215613e9957613e98613a1c565b5b600082013567ffffffffffffffff811115613eb757613eb6613a21565b5b613ec384828501613e55565b91505092915050565b600060208284031215613ee257613ee1613a1c565b5b6000613ef084828501613c69565b91505092915050565b613f0281613aab565b8114613f0d57600080fd5b50565b600081359050613f1f81613ef9565b92915050565b60008060408385031215613f3c57613f3b613a1c565b5b6000613f4a85828601613c69565b9250506020613f5b85828601613f10565b9150509250929050565b600080fd5b600067ffffffffffffffff821115613f8557613f84613d40565b5b613f8e82613b27565b9050602081019050919050565b82818337600083830152505050565b6000613fbd613fb884613f6a565b613da0565b905082815260208101848484011115613fd957613fd8613f65565b5b613fe4848285613f9b565b509392505050565b600082601f83011261400157614000613d3b565b5b8135614011848260208601613faa565b91505092915050565b6000806000806080858703121561403457614033613a1c565b5b600061404287828801613c69565b945050602061405387828801613c69565b935050604061406487828801613bb4565b925050606085013567ffffffffffffffff81111561408557614084613a21565b5b61409187828801613fec565b91505092959194509250565b600080604083850312156140b4576140b3613a1c565b5b60006140c285828601613c69565b92505060206140d385828601613c69565b9150509250929050565b7f4e487b7100000000000000000000000000000000000000000000000000000000600052602260045260246000fd5b6000600282049050600182168061412457607f821691505b602082108103614137576141366140dd565b5b50919050565b7f636f6d62696e696e67206e6f7420616374697665000000000000000000000000600082015250565b6000614173601483613aec565b915061417e8261413d565b602082019050919050565b600060208201905081810360008301526141a281614166565b9050919050565b7f4e487b7100000000000000000000000000000000000000000000000000000000600052603260045260246000fd5b7f6d757374206f776e20616c6c20746f6b656e7300000000000000000000000000600082015250565b600061420e601383613aec565b9150614219826141d8565b602082019050919050565b6000602082019050818103600083015261423d81614201565b9050919050565b600081905092915050565b600061425a82613ae1565b6142648185614244565b9350614274818560208601613afd565b80840191505092915050565b600061428c828561424f565b9150614298828461424f565b91508190509392505050565b7f4e487b7100000000000000000000000000000000000000000000000000000000600052601160045260246000fd5b60006142de82613b93565b91507fffffffffffffffffffffffffffffffffffffffffffffffffffffffffffffffff82036143105761430f6142a4565b5b600182019050919050565b7f76616c7565206e6f206d6f7265207468616e2034206368617261637465727300600082015250565b6000614351601f83613aec565b915061435c8261431b565b602082019050919050565b6000602082019050818103600083015261438081614344565b9050919050565b7f63616e277420636f6d62696e652062656361757365206c75636b79206e756d6260008201527f6572206973200000000000000000000000000000000000000000000000000000602082015250565b60006143e3602683614244565b91506143ee82614387565b602682019050919050565b60008190508160005260206000209050919050565b6000815461441b8161410c565b6144258186614244565b94506001821660008114614440576001811461445557614488565b60ff1983168652811515820286019350614488565b61445e856143f9565b60005b8381101561448057815481890152600182019150602081019050614461565b838801955050505b50505092915050565b600061449c826143d6565b91506144a8828461440e565b915081905092915050565b60006020601f8301049050919050565b600082821b905092915050565b6000600883026145007fffffffffffffffffffffffffffffffffffffffffffffffffffffffffffffffff826144c3565b61450a86836144c3565b95508019841693508086168417925050509392505050565b6000819050919050565b600061454761454261453d84613b93565b614522565b613b93565b9050919050565b6000819050919050565b6145618361452c565b61457561456d8261454e565b8484546144d0565b825550505050565b600090565b61458a61457d565b614595818484614558565b505050565b5b818110156145b9576145ae600082614582565b60018101905061459b565b5050565b601f8211156145fe576145cf816143f9565b6145d8846144b3565b810160208510156145e7578190505b6145fb6145f3856144b3565b83018261459a565b50505b505050565b600082821c905092915050565b600061462160001984600802614603565b1980831691505092915050565b600061463a8383614610565b9150826002028217905092915050565b61465382613ae1565b67ffffffffffffffff81111561466c5761466b613d40565b5b614676825461410c565b6146818282856145bd565b600060209050601f8311600181146146b457600084156146a2578287015190505b6146ac858261462e565b865550614714565b601f1984166146c2866143f9565b60005b828110156146ea578489015182556001820191506020850194506020810190506146c5565b868310156147075784890151614703601f891682614610565b8355505b6001600288020188555050505b505050505050565b600061472782613b93565b915061473283613b93565b925082820261474081613b93565b91508282048414831517614757576147566142a4565b5b5092915050565b7f6e6f7420656e6f75676820657468000000000000000000000000000000000000600082015250565b6000614794600e83613aec565b915061479f8261475e565b602082019050919050565b600060208201905081810360008301526147c381614787565b9050919050565b7f4f776e61626c653a206e6577206f776e657220697320746865207a65726f206160008201527f6464726573730000000000000000000000000000000000000000000000000000602082015250565b6000614826602683613aec565b9150614831826147ca565b604082019050919050565b6000602082019050818103600083015261485581614819565b9050919050565b6000614868828461424f565b915081905092915050565b6000819050919050565b61488e61488982613b93565b614873565b82525050565b60006148a0828561487d565b6020820191506148b0828461487d565b6020820191508190509392505050565b7f4e487b7100000000000000000000000000000000000000000000000000000000600052601260045260246000fd5b60006148fa82613b93565b915061490583613b93565b925082614915576149146148c0565b5b828206905092915050565b7f4f776e61626c653a2063616c6c6572206973206e6f7420746865206f776e6572600082015250565b6000614956602083613aec565b915061496182614920565b602082019050919050565b6000602082019050818103600083015261498581614949565b9050919050565b7f4c656e6774682063616e6e6f742062652067726561746572207468616e203400600082015250565b60006149c2601f83613aec565b91506149cd8261498c565b602082019050919050565b600060208201905081810360008301526149f1816149b5565b9050919050565b7f4c656e6774682063616e6e6f74206265205a65726f0000000000000000000000600082015250565b6000614a2e601583613aec565b9150614a39826149f8565b602082019050919050565b60006020820190508181036000830152614a5d81614a21565b9050919050565b6000614a6f82613b93565b9150614a7a83613b93565b9250828203905081811115614a9257614a916142a4565b5b92915050565b7f6d696e7420697320636c6f736564000000000000000000000000000000000000600082015250565b6000614ace600e83613aec565b9150614ad982614a98565b602082019050919050565b60006020820190508181036000830152614afd81614ac1565b9050919050565b6000614b0f82613b93565b9150614b1a83613b93565b9250828201905080821115614b3257614b316142a4565b5b92915050565b600081519050919050565b600082825260208201905092915050565b6000614b5f82614b38565b614b698185614b43565b9350614b79818560208601613afd565b614b8281613b27565b840191505092915050565b6000608082019050614ba26000830187613c28565b614baf6020830186613c28565b614bbc6040830185613cbe565b8181036060830152614bce8184614b54565b905095945050505050565b600081519050614be881613a52565b92915050565b600060208284031215614c0457614c03613a1c565b5b6000614c1284828501614bd9565b91505092915050565b7f7b226e616d65223a2022434f4d42494e455f4e554d4245522000000000000000600082015250565b6000614c51601983614244565b9150614c5c82614c1b565b601982019050919050565b7f205b4255524e45445d222c20226465736372697074696f6e223a20224e756d6260008201527f65727320617265206172742c20616e642077652061726520617274697374732e60208201527f222c202261747472696275746573223a5b7b2274726169745f74797065223a2060408201527f224275726e6564222c202276616c7565223a2022596573227d5d2c2022696d6160608201527f6765223a2022646174613a696d6167652f7376672b786d6c3b6261736536342c608082015250565b6000614d3560a083614244565b9150614d4082614c67565b60a082019050919050565b7f227d000000000000000000000000000000000000000000000000000000000000600082015250565b6000614d81600283614244565b9150614d8c82614d4b565b600282019050919050565b6000614da282614c44565b9150614dae828561424f565b9150614db982614d28565b9150614dc5828461424f565b9150614dd082614d74565b91508190509392505050565b7f222c20226465736372697074696f6e223a20224e756d6265727320617265206160008201527f72742c20616e642077652061726520617274697374732e222c2022617474726960208201527f6275746573223a5b7b2274726169745f74797065223a20224e756d626572222c60408201527f20226d61785f76616c7565223a20393939392c202276616c7565223a20000000606082015250565b6000614e84607d83614244565b9150614e8f82614ddc565b607d82019050919050565b7f7d2c7b2274726169745f74797065223a20224275726e6564222c202276616c7560008201527f65223a20224e6f227d2c7b2274726169745f74797065223a202242617365204360208201527f6f6c6f72222c202276616c7565223a2022000000000000000000000000000000604082015250565b6000614f1c605183614244565b9150614f2782614e9a565b605182019050919050565b7f227d2c7b2274726169745f74797065223a2022436f6c6f72222c202276616c7560008201527f65223a2022524742280000000000000000000000000000000000000000000000602082015250565b6000614f8e602983614244565b9150614f9982614f32565b602982019050919050565b7f2c00000000000000000000000000000000000000000000000000000000000000600082015250565b6000614fda600183614244565b9150614fe582614fa4565b600182019050919050565b7f29227d5d2c2022696d616765223a2022646174613a696d6167652f7376672b7860008201527f6d6c3b6261736536342c00000000000000000000000000000000000000000000602082015250565b600061504c602a83614244565b915061505782614ff0565b602a82019050919050565b600061506d82614c44565b9150615079828a61424f565b915061508482614e77565b9150615090828961424f565b915061509b82614f0f565b91506150a7828861424f565b91506150b282614f81565b91506150be828761424f565b91506150c982614fcd565b91506150d5828661424f565b91506150e082614fcd565b91506150ec828561424f565b91506150f78261503f565b9150615103828461424f565b915061510e82614d74565b915081905098975050505050505050565b7f646174613a6170706c69636174696f6e2f6a736f6e3b6261736536342c000000600082015250565b6000615155601d83614244565b91506151608261511f565b601d82019050919050565b600061517682615148565b9150615182828461424f565b915081905092915050565b600061519882613b93565b91506151a383613b93565b9250826151b3576151b26148c0565b5b828204905092915050565b600060ff82169050919050565b60006151d6826151be565b91506151e1836151be565b9250828201905060ff8111156151fa576151f96142a4565b5b92915050565b7f2a7b66696c6c3a72676228000000000000000000000000000000000000000000600082015250565b6000615236600b83614244565b915061524182615200565b600b82019050919050565b7f297d2362677b66696c6c3a233043304330437d00000000000000000000000000600082015250565b6000615282601383614244565b915061528d8261524c565b601382019050919050565b60006152a382615229565b91506152af828661424f565b91506152ba82614fcd565b91506152c6828561424f565b91506152d182614fcd565b91506152dd828461424f565b91506152e882615275565b9150819050949350505050565b7f3c2f7374796c653e3c2f7376673e000000000000000000000000000000000000600082015250565b600061532b600e83614244565b9150615336826152f5565b600e82019050919050565b600061534d828561424f565b9150615359828461424f565b91506153648261531e565b91508190509392505050565b600061537c828461487d565b60208201915081905092915050565b60007fff0000000000000000000000000000000000000000000000000000000000000082169050919050565b6000819050919050565b6153d26153cd8261538b565b6153b7565b82525050565b60006153e482846153c1565b60018201915081905092915050565b7f2370000000000000000000000000000000000000000000000000000000000000600082015250565b6000615429600283614244565b9150615434826153f3565b600282019050919050565b7f312c000000000000000000000000000000000000000000000000000000000000600082015250565b6000615475600283614244565b91506154808261543f565b600282019050919050565b7f322c000000000000000000000000000000000000000000000000000000000000600082015250565b60006154c1600283614244565b91506154cc8261548b565b600282019050919050565b7f332c000000000000000000000000000000000000000000000000000000000000600082015250565b600061550d600283614244565b9150615518826154d7565b600282019050919050565b7f352c000000000000000000000000000000000000000000000000000000000000600082015250565b6000615559600283614244565b915061556482615523565b600282019050919050565b7f362c000000000000000000000000000000000000000000000000000000000000600082015250565b60006155a5600283614244565b91506155b08261556f565b600282019050919050565b7f37207b66696c6c2d6f7061636974793a317d0000000000000000000000000000600082015250565b60006155f1601283614244565b91506155fc826155bb565b601282019050919050565b60006156128261541c565b915061561e828961424f565b915061562982615468565b91506156348261541c565b9150615640828861424f565b915061564b826154b4565b91506156568261541c565b9150615662828761424f565b915061566d82615500565b91506156788261541c565b9150615684828661424f565b915061568f8261554c565b915061569a8261541c565b91506156a6828561424f565b91506156b182615598565b91506156bc8261541c565b91506156c8828461424f565b91506156d3826155e4565b9150819050979650505050505050565b7f36207b66696c6c2d6f7061636974793a317d0000000000000000000000000000600082015250565b6000615719601283614244565b9150615724826156e3565b601282019050919050565b600061573a8261541c565b9150615746828561424f565b915061575182615500565b915061575c8261541c565b9150615768828461424f565b91506157738261570c565b91508190509392505050565b7f342c000000000000000000000000000000000000000000000000000000000000600082015250565b60006157b5600283614244565b91506157c08261577f565b600282019050919050565b60006157d68261541c565b91506157e2828861424f565b91506157ed82615468565b91506157f88261541c565b9150615804828761424f565b915061580f82615500565b915061581a8261541c565b9150615826828661424f565b9150615831826157a8565b915061583c8261541c565b9150615848828561424f565b91506158538261554c565b915061585e8261541c565b915061586a828461424f565b9150615875826155e4565b91508190509695505050505050565b600061588f8261541c565b915061589b828861424f565b91506158a682615468565b91506158b18261541c565b91506158bd828761424f565b91506158c882615500565b91506158d38261541c565b91506158df828661424f565b91506158ea826157a8565b91506158f58261541c565b9150615901828561424f565b915061590c82615598565b91506159178261541c565b9150615923828461424f565b915061592e826155e4565b91508190509695505050505050565b60006159488261541c565b9150615954828761424f565b915061595f826154b4565b915061596a8261541c565b9150615976828661424f565b915061598182615500565b915061598c8261541c565b9150615998828561424f565b91506159a3826157a8565b91506159ae8261541c565b91506159ba828461424f565b91506159c58261570c565b915081905095945050505050565b60006159de8261541c565b91506159ea828861424f565b91506159f582615468565b9150615a008261541c565b9150615a0c828761424f565b9150615a17826154b4565b9150615a228261541c565b9150615a2e828661424f565b9150615a39826157a8565b9150615a448261541c565b9150615a50828561424f565b9150615a5b82615598565b9150615a668261541c565b9150615a72828461424f565b9150615a7d826155e4565b91508190509695505050505050565b6000615a978261541c565b9150615aa3828961424f565b9150615aae82615468565b9150615ab98261541c565b9150615ac5828861424f565b9150615ad0826154b4565b9150615adb8261541c565b9150615ae7828761424f565b9150615af2826157a8565b9150615afd8261541c565b9150615b09828661424f565b9150615b148261554c565b9150615b1f8261541c565b9150615b2b828561424f565b9150615b3682615598565b9150615b418261541c565b9150615b4d828461424f565b9150615b58826155e4565b9150819050979650505050505050565b6000615b738261541c565b9150615b7f828661424f565b9150615b8a82615468565b9150615b958261541c565b9150615ba1828561424f565b9150615bac82615500565b9150615bb78261541c565b9150615bc3828461424f565b9150615bce8261570c565b9150819050949350505050565b6000615be68261541c565b9150615bf2828a61424f565b9150615bfd82615468565b9150615c088261541c565b9150615c14828961424f565b9150615c1f826154b4565b9150615c2a8261541c565b9150615c36828861424f565b9150615c4182615500565b9150615c4c8261541c565b9150615c58828761424f565b9150615c63826157a8565b9150615c6e8261541c565b9150615c7a828661424f565b9150615c858261554c565b9150615c908261541c565b9150615c9c828561424f565b9150615ca782615598565b9150615cb28261541c565b9150615cbe828461424f565b9150615cc9826155e4565b915081905098975050505050505050565b6000615ce58261541c565b9150615cf1828961424f565b9150615cfc82615468565b9150615d078261541c565b9150615d13828861424f565b9150615d1e826154b4565b9150615d298261541c565b9150615d35828761424f565b9150615d4082615500565b9150615d4b8261541c565b9150615d57828661424f565b9150615d62826157a8565b9150615d6d8261541c565b9150615d79828561424f565b9150615d8482615598565b9150615d8f8261541c565b9150615d9b828461424f565b9150615da6826155e4565b9150819050979650505050505050565b7f4e487b7100000000000000000000000000000000000000000000000000000000600052600160045260246000fdfe4142434445464748494a4b4c4d4e4f505152535455565758595a6162636465666768696a6b6c6d6e6f707172737475767778797a303132333435363738392b2f3c7376672076696577426f783d223020302033303020333030222066696c6c3d226e6f6e652220786d6c6e733d22687474703a2f2f7777772e77332e6f72672f323030302f737667223e3c726563742069643d226267222077696474683d2233303022206865696768743d22333030222066696c6c3d2223304330433043222f3e3c706174682069643d227030312220643d224d313030203131394c313033203132324c313030203132354c3830203132354c3737203132324c3830203131394c313030203131395a222066696c6c3d227768697465222066696c6c2d6f7061636974793d22302e3035222f3e3c706174682069643d227030322220643d224d3733203132364c3736203132334c373920313236563134364c3736203134394c373320313436563132365a222066696c6c3d227768697465222066696c6c2d6f7061636974793d22302e3035222f3e3c706174682069643d227030332220643d224d313031203132364c313034203132334c31303720313236563134364c313034203134394c31303120313436563132365a222066696c6c3d227768697465222066696c6c2d6f7061636974793d22302e3035222f3e3c706174682069643d227030342220643d224d313030203134374c313033203135304c313030203135334c3830203135334c3737203135304c3830203134374c313030203134375a222066696c6c3d227768697465222066696c6c2d6f7061636974793d22302e3035222f3e3c706174682069643d227030352220643d224d3733203135344c3736203135314c373920313534563137344c3736203137374c373320313734563135345a222066696c6c3d227768697465222066696c6c2d6f7061636974793d22302e3035222f3e3c706174682069643d227030362220643d224d313031203135344c313034203135314c31303720313534563137344c313034203137374c31303120313734563135345a222066696c6c3d227768697465222066696c6c2d6f7061636974793d22302e3035222f3e3c706174682069643d227030372220643d224d313030203137354c313033203137384c313030203138314c3830203138314c3737203137384c3830203137354c313030203137355a222066696c6c3d227768697465222066696c6c2d6f7061636974793d22302e3035222f3e3c706174682069643d227031312220643d224d313430203131394c313433203132324c313430203132354c313230203132354c313137203132324c313230203131394c313430203131395a222066696c6c3d227768697465222066696c6c2d6f7061636974793d22302e3035222f3e3c706174682069643d227031322220643d224d313133203132364c313136203132334c31313920313236563134364c313136203134394c31313320313436563132365a222066696c6c3d227768697465222066696c6c2d6f7061636974793d22302e3035222f3e3c706174682069643d227031332220643d224d313431203132364c313434203132334c31343720313236563134364c313434203134394c31343120313436563132365a222066696c6c3d227768697465222066696c6c2d6f7061636974793d22302e3035222f3e3c706174682069643d227031342220643d224d313430203134374c313433203135304c313430203135334c313230203135334c313137203135304c313230203134374c313430203134375a222066696c6c3d227768697465222066696c6c2d6f7061636974793d22302e3035222f3e3c706174682069643d227031352220643d224d313133203135344c313136203135314c31313920313534563137344c313136203137374c31313320313734563135345a222066696c6c3d227768697465222066696c6c2d6f7061636974793d22302e3035222f3e3c706174682069643d227031362220643d224d313431203135344c313434203135314c31343720313534563137344c313434203137374c31343120313734563135345a222066696c6c3d227768697465222066696c6c2d6f7061636974793d22302e3035222f3e3c706174682069643d227031372220643d224d313430203137354c313433203137384c313430203138314c313230203138314c313137203137384c313230203137354c313430203137355a222066696c6c3d227768697465222066696c6c2d6f7061636974793d22302e3035222f3e3c706174682069643d227032312220643d224d313830203131394c313833203132324c313830203132354c313630203132354c313537203132324c313630203131394c313830203131395a222066696c6c3d227768697465222066696c6c2d6f7061636974793d22302e3035222f3e3c706174682069643d227032322220643d224d313533203132364c313536203132334c31353920313236563134364c313536203134394c31353320313436563132365a222066696c6c3d227768697465222066696c6c2d6f7061636974793d22302e3035222f3e3c706174682069643d227032332220643d224d313831203132364c313834203132334c31383720313236563134364c313834203134394c31383120313436563132365a222066696c6c3d227768697465222066696c6c2d6f7061636974793d22302e3035222f3e3c706174682069643d227032342220643d224d313830203134374c313833203135304c313830203135334c313630203135334c313537203135304c313630203134374c313830203134375a222066696c6c3d227768697465222066696c6c2d6f7061636974793d22302e3035222f3e3c706174682069643d227032352220643d224d313533203135344c313536203135314c31353920313534563137344c313536203137374c31353320313734563135345a222066696c6c3d227768697465222066696c6c2d6f7061636974793d22302e3035222f3e3c706174682069643d227032362220643d224d313831203135344c313834203135314c31383720313534563137344c313834203137374c31383120313734563135345a222066696c6c3d227768697465222066696c6c2d6f7061636974793d22302e3035222f3e3c706174682069643d227032372220643d224d313830203137354c313833203137384c313830203138314c313630203138314c313537203137384c313630203137354c313830203137355a222066696c6c3d227768697465222066696c6c2d6f7061636974793d22302e3035222f3e3c706174682069643d227033312220643d224d323230203131394c323233203132324c323230203132354c323030203132354c313937203132324c323030203131394c323230203131395a222066696c6c3d227768697465222066696c6c2d6f7061636974793d22302e3035222f3e3c706174682069643d227033322220643d224d313933203132364c313936203132334c31393920313236563134364c313936203134394c31393320313436563132365a222066696c6c3d227768697465222066696c6c2d6f7061636974793d22302e3035222f3e3c706174682069643d227033332220643d224d323231203132364c323234203132334c32323720313236563134364c323234203134394c32323120313436563132365a222066696c6c3d227768697465222066696c6c2d6f7061636974793d22302e3035222f3e3c706174682069643d227033342220643d224d323230203134374c323233203135304c323230203135334c323030203135334c313937203135304c323030203134374c323230203134375a222066696c6c3d227768697465222066696c6c2d6f7061636974793d22302e3035222f3e3c706174682069643d227033352220643d224d313933203135344c313936203135314c31393920313534563137344c313936203137374c31393320313734563135345a222066696c6c3d227768697465222066696c6c2d6f7061636974793d22302e3035222f3e3c706174682069643d227033362220643d224d323231203135344c323234203135314c32323720313534563137344c323234203137374c32323120313734563135345a222066696c6c3d227768697465222066696c6c2d6f7061636974793d22302e3035222f3e3c706174682069643d227033372220643d224d323230203137354c323233203137384c323230203138314c323030203138314c313937203137384c323030203137354c323230203137355a222066696c6c3d227768697465222066696c6c2d6f7061636974793d22302e3035222f3e3c7374796c653ea264697066735822122016f7a40a452356e9b4d44394fcc76d55b1bc6c7665c6974e929f6a6883b2dcde64736f6c63430008130033",
			"opcodes": "PUSH1 0x80 PUSH1 0x40 MSTORE PUSH1 0x0 PUSH1 0x9 SSTORE PUSH1 0x0 PUSH1 0xA PUSH1 0x0 PUSH2 0x100 EXP DUP2 SLOAD DUP2 PUSH1 0xFF MUL NOT AND SWAP1 DUP4 ISZERO ISZERO MUL OR SWAP1 SSTORE POP CALLVALUE DUP1 ISZERO PUSH3 0x31 JUMPI PUSH1 0x0 DUP1 REVERT JUMPDEST POP PUSH1 0x40 MLOAD DUP1 PUSH1 0x40 ADD PUSH1 0x40 MSTORE DUP1 PUSH1 0x13 DUP2 MSTORE PUSH1 0x20 ADD PUSH32 0x434F4D42494E452D4E554D4245522D5445535400000000000000000000000000 DUP2 MSTORE POP PUSH1 0x40 MLOAD DUP1 PUSH1 0x40 ADD PUSH1 0x40 MSTORE DUP1 PUSH1 0x4 DUP2 MSTORE PUSH1 0x20 ADD PUSH32 0x43424E5400000000000000000000000000000000000000000000000000000000 DUP2 MSTORE POP DUP2 PUSH1 0x2 SWAP1 DUP2 PUSH3 0xAF SWAP2 SWAP1 PUSH3 0x451 JUMP JUMPDEST POP DUP1 PUSH1 0x3 SWAP1 DUP2 PUSH3 0xC1 SWAP2 SWAP1 PUSH3 0x451 JUMP JUMPDEST POP PUSH3 0xD2 PUSH3 0x100 PUSH1 0x20 SHL PUSH1 0x20 SHR JUMP JUMPDEST PUSH1 0x0 DUP2 SWAP1 SSTORE POP POP POP PUSH3 0xFA PUSH3 0xEE PUSH3 0x109 PUSH1 0x20 SHL PUSH1 0x20 SHR JUMP JUMPDEST PUSH3 0x111 PUSH1 0x20 SHL PUSH1 0x20 SHR JUMP JUMPDEST PUSH3 0x538 JUMP JUMPDEST PUSH1 0x0 PUSH1 0x1 SWAP1 POP SWAP1 JUMP JUMPDEST PUSH1 0x0 CALLER SWAP1 POP SWAP1 JUMP JUMPDEST PUSH1 0x0 PUSH1 0x8 PUSH1 0x0 SWAP1 SLOAD SWAP1 PUSH2 0x100 EXP SWAP1 DIV PUSH20 0xFFFFFFFFFFFFFFFFFFFFFFFFFFFFFFFFFFFFFFFF AND SWAP1 POP DUP2 PUSH1 0x8 PUSH1 0x0 PUSH2 0x100 EXP DUP2 SLOAD DUP2 PUSH20 0xFFFFFFFFFFFFFFFFFFFFFFFFFFFFFFFFFFFFFFFF MUL NOT AND SWAP1 DUP4 PUSH20 0xFFFFFFFFFFFFFFFFFFFFFFFFFFFFFFFFFFFFFFFF AND MUL OR SWAP1 SSTORE POP DUP2 PUSH20 0xFFFFFFFFFFFFFFFFFFFFFFFFFFFFFFFFFFFFFFFF AND DUP2 PUSH20 0xFFFFFFFFFFFFFFFFFFFFFFFFFFFFFFFFFFFFFFFF AND PUSH32 0x8BE0079C531659141344CD1FD0A4F28419497F9722A3DAAFE3B4186F6B6457E0 PUSH1 0x40 MLOAD PUSH1 0x40 MLOAD DUP1 SWAP2 SUB SWAP1 LOG3 POP POP JUMP JUMPDEST PUSH1 0x0 DUP2 MLOAD SWAP1 POP SWAP2 SWAP1 POP JUMP JUMPDEST PUSH32 0x4E487B7100000000000000000000000000000000000000000000000000000000 PUSH1 0x0 MSTORE PUSH1 0x41 PUSH1 0x4 MSTORE PUSH1 0x24 PUSH1 0x0 REVERT JUMPDEST PUSH32 0x4E487B7100000000000000000000000000000000000000000000000000000000 PUSH1 0x0 MSTORE PUSH1 0x22 PUSH1 0x4 MSTORE PUSH1 0x24 PUSH1 0x0 REVERT JUMPDEST PUSH1 0x0 PUSH1 0x2 DUP3 DIV SWAP1 POP PUSH1 0x1 DUP3 AND DUP1 PUSH3 0x259 JUMPI PUSH1 0x7F DUP3 AND SWAP2 POP JUMPDEST PUSH1 0x20 DUP3 LT DUP2 SUB PUSH3 0x26F JUMPI PUSH3 0x26E PUSH3 0x211 JUMP JUMPDEST JUMPDEST POP SWAP2 SWAP1 POP JUMP JUMPDEST PUSH1 0x0 DUP2 SWAP1 POP DUP2 PUSH1 0x0 MSTORE PUSH1 0x20 PUSH1 0x0 KECCAK256 SWAP1 POP SWAP2 SWAP1 POP JUMP JUMPDEST PUSH1 0x0 PUSH1 0x20 PUSH1 0x1F DUP4 ADD DIV SWAP1 POP SWAP2 SWAP1 POP JUMP JUMPDEST PUSH1 0x0 DUP3 DUP3 SHL SWAP1 POP SWAP3 SWAP2 POP POP JUMP JUMPDEST PUSH1 0x0 PUSH1 0x8 DUP4 MUL PUSH3 0x2D9 PUSH32 0xFFFFFFFFFFFFFFFFFFFFFFFFFFFFFFFFFFFFFFFFFFFFFFFFFFFFFFFFFFFFFFFF DUP3 PUSH3 0x29A JUMP JUMPDEST PUSH3 0x2E5 DUP7 DUP4 PUSH3 0x29A JUMP JUMPDEST SWAP6 POP DUP1 NOT DUP5 AND SWAP4 POP DUP1 DUP7 AND DUP5 OR SWAP3 POP POP POP SWAP4 SWAP3 POP POP POP JUMP JUMPDEST PUSH1 0x0 DUP2 SWAP1 POP SWAP2 SWAP1 POP JUMP JUMPDEST PUSH1 0x0 DUP2 SWAP1 POP SWAP2 SWAP1 POP JUMP JUMPDEST PUSH1 0x0 PUSH3 0x332 PUSH3 0x32C PUSH3 0x326 DUP5 PUSH3 0x2FD JUMP JUMPDEST PUSH3 0x307 JUMP JUMPDEST PUSH3 0x2FD JUMP JUMPDEST SWAP1 POP SWAP2 SWAP1 POP JUMP JUMPDEST PUSH1 0x0 DUP2 SWAP1 POP SWAP2 SWAP1 POP JUMP JUMPDEST PUSH3 0x34E DUP4 PUSH3 0x311 JUMP JUMPDEST PUSH3 0x366 PUSH3 0x35D DUP3 PUSH3 0x339 JUMP JUMPDEST DUP5 DUP5 SLOAD PUSH3 0x2A7 JUMP JUMPDEST DUP3 SSTORE POP POP POP POP JUMP JUMPDEST PUSH1 0x0 SWAP1 JUMP JUMPDEST PUSH3 0x37D PUSH3 0x36E JUMP JUMPDEST PUSH3 0x38A DUP2 DUP5 DUP5 PUSH3 0x343 JUMP JUMPDEST POP POP POP JUMP JUMPDEST JUMPDEST DUP2 DUP2 LT ISZERO PUSH3 0x3B2 JUMPI PUSH3 0x3A6 PUSH1 0x0 DUP3 PUSH3 0x373 JUMP JUMPDEST PUSH1 0x1 DUP2 ADD SWAP1 POP PUSH3 0x390 JUMP JUMPDEST POP POP JUMP JUMPDEST PUSH1 0x1F DUP3 GT ISZERO PUSH3 0x401 JUMPI PUSH3 0x3CB DUP2 PUSH3 0x275 JUMP JUMPDEST PUSH3 0x3D6 DUP5 PUSH3 0x28A JUMP JUMPDEST DUP2 ADD PUSH1 0x20 DUP6 LT ISZERO PUSH3 0x3E6 JUMPI DUP2 SWAP1 POP JUMPDEST PUSH3 0x3FE PUSH3 0x3F5 DUP6 PUSH3 0x28A JUMP JUMPDEST DUP4 ADD DUP3 PUSH3 0x38F JUMP JUMPDEST POP POP JUMPDEST POP POP POP JUMP JUMPDEST PUSH1 0x0 DUP3 DUP3 SHR SWAP1 POP SWAP3 SWAP2 POP POP JUMP JUMPDEST PUSH1 0x0 PUSH3 0x426 PUSH1 0x0 NOT DUP5 PUSH1 0x8 MUL PUSH3 0x406 JUMP JUMPDEST NOT DUP1 DUP4 AND SWAP2 POP POP SWAP3 SWAP2 POP POP JUMP JUMPDEST PUSH1 0x0 PUSH3 0x441 DUP4 DUP4 PUSH3 0x413 JUMP JUMPDEST SWAP2 POP DUP3 PUSH1 0x2 MUL DUP3 OR SWAP1 POP SWAP3 SWAP2 POP POP JUMP JUMPDEST PUSH3 0x45C DUP3 PUSH3 0x1D7 JUMP JUMPDEST PUSH8 0xFFFFFFFFFFFFFFFF DUP2 GT ISZERO PUSH3 0x478 JUMPI PUSH3 0x477 PUSH3 0x1E2 JUMP JUMPDEST JUMPDEST PUSH3 0x484 DUP3 SLOAD PUSH3 0x240 JUMP JUMPDEST PUSH3 0x491 DUP3 DUP3 DUP6 PUSH3 0x3B6 JUMP JUMPDEST PUSH1 0x0 PUSH1 0x20 SWAP1 POP PUSH1 0x1F DUP4 GT PUSH1 0x1 DUP2 EQ PUSH3 0x4C9 JUMPI PUSH1 0x0 DUP5 ISZERO PUSH3 0x4B4 JUMPI DUP3 DUP8 ADD MLOAD SWAP1 POP JUMPDEST PUSH3 0x4C0 DUP6 DUP3 PUSH3 0x433 JUMP JUMPDEST DUP7 SSTORE POP PUSH3 0x530 JUMP JUMPDEST PUSH1 0x1F NOT DUP5 AND PUSH3 0x4D9 DUP7 PUSH3 0x275 JUMP JUMPDEST PUSH1 0x0 JUMPDEST DUP3 DUP2 LT ISZERO PUSH3 0x503 JUMPI DUP5 DUP10 ADD MLOAD DUP3 SSTORE PUSH1 0x1 DUP3 ADD SWAP2 POP PUSH1 0x20 DUP6 ADD SWAP5 POP PUSH1 0x20 DUP2 ADD SWAP1 POP PUSH3 0x4DC JUMP JUMPDEST DUP7 DUP4 LT ISZERO PUSH3 0x523 JUMPI DUP5 DUP10 ADD MLOAD PUSH3 0x51F PUSH1 0x1F DUP10 AND DUP3 PUSH3 0x413 JUMP JUMPDEST DUP4 SSTORE POP JUMPDEST PUSH1 0x1 PUSH1 0x2 DUP9 MUL ADD DUP9 SSTORE POP POP POP JUMPDEST POP POP POP POP POP POP JUMP JUMPDEST PUSH2 0x6A74 DUP1 PUSH3 0x548 PUSH1 0x0 CODECOPY PUSH1 0x0 RETURN INVALID PUSH1 0x80 PUSH1 0x40 MSTORE PUSH1 0x4 CALLDATASIZE LT PUSH2 0x1CD JUMPI PUSH1 0x0 CALLDATALOAD PUSH1 0xE0 SHR DUP1 PUSH4 0x715018A6 GT PUSH2 0xF7 JUMPI DUP1 PUSH4 0xA0712D68 GT PUSH2 0x95 JUMPI DUP1 PUSH4 0xBF205EBC GT PUSH2 0x64 JUMPI DUP1 PUSH4 0xBF205EBC EQ PUSH2 0x5D7 JUMPI DUP1 PUSH4 0xC87B56DD EQ PUSH2 0x602 JUMPI DUP1 PUSH4 0xE985E9C5 EQ PUSH2 0x63F JUMPI DUP1 PUSH4 0xF2FDE38B EQ PUSH2 0x67C JUMPI PUSH2 0x1CD JUMP JUMPDEST DUP1 PUSH4 0xA0712D68 EQ PUSH2 0x55F JUMPI DUP1 PUSH4 0xA22CB465 EQ PUSH2 0x57B JUMPI DUP1 PUSH4 0xB88D4FDE EQ PUSH2 0x5A4 JUMPI DUP1 PUSH4 0xB8BE6E98 EQ PUSH2 0x5C0 JUMPI PUSH2 0x1CD JUMP JUMPDEST DUP1 PUSH4 0x95D89B41 GT PUSH2 0xD1 JUMPI DUP1 PUSH4 0x95D89B41 EQ PUSH2 0x4B3 JUMPI DUP1 PUSH4 0x9659867E EQ PUSH2 0x4DE JUMPI DUP1 PUSH4 0x9AC9F2A0 EQ PUSH2 0x509 JUMPI DUP1 PUSH4 0xA035B1FE EQ PUSH2 0x534 JUMPI PUSH2 0x1CD JUMP JUMPDEST DUP1 PUSH4 0x715018A6 EQ PUSH2 0x45A JUMPI DUP1 PUSH4 0x8DA5CB5B EQ PUSH2 0x471 JUMPI DUP1 PUSH4 0x8EF9AE59 EQ PUSH2 0x49C JUMPI PUSH2 0x1CD JUMP JUMPDEST DUP1 PUSH4 0x23B872DD GT PUSH2 0x16F JUMPI DUP1 PUSH4 0x3CCFD60B GT PUSH2 0x13E JUMPI DUP1 PUSH4 0x3CCFD60B EQ PUSH2 0x3AD JUMPI DUP1 PUSH4 0x42842E0E EQ PUSH2 0x3C4 JUMPI DUP1 PUSH4 0x6352211E EQ PUSH2 0x3E0 JUMPI DUP1 PUSH4 0x70A08231 EQ PUSH2 0x41D JUMPI PUSH2 0x1CD JUMP JUMPDEST DUP1 PUSH4 0x23B872DD EQ PUSH2 0x326 JUMPI DUP1 PUSH4 0x25E514C6 EQ PUSH2 0x342 JUMPI DUP1 PUSH4 0x35C53541 EQ PUSH2 0x36B JUMPI DUP1 PUSH4 0x37C5FA0D EQ PUSH2 0x382 JUMPI PUSH2 0x1CD JUMP JUMPDEST DUP1 PUSH4 0x95EA7B3 GT PUSH2 0x1AB JUMPI DUP1 PUSH4 0x95EA7B3 EQ PUSH2 0x277 JUMPI DUP1 PUSH4 0xFF4C916 EQ PUSH2 0x293 JUMPI DUP1 PUSH4 0x18160DDD EQ PUSH2 0x2D0 JUMPI DUP1 PUSH4 0x21CF7ECF EQ PUSH2 0x2FB JUMPI PUSH2 0x1CD JUMP JUMPDEST DUP1 PUSH4 0x1FFC9A7 EQ PUSH2 0x1D2 JUMPI DUP1 PUSH4 0x6FDDE03 EQ PUSH2 0x20F JUMPI DUP1 PUSH4 0x81812FC EQ PUSH2 0x23A JUMPI JUMPDEST PUSH1 0x0 DUP1 REVERT JUMPDEST CALLVALUE DUP1 ISZERO PUSH2 0x1DE JUMPI PUSH1 0x0 DUP1 REVERT JUMPDEST POP PUSH2 0x1F9 PUSH1 0x4 DUP1 CALLDATASIZE SUB DUP2 ADD SWAP1 PUSH2 0x1F4 SWAP2 SWAP1 PUSH2 0x3A7E JUMP JUMPDEST PUSH2 0x6A5 JUMP JUMPDEST PUSH1 0x40 MLOAD PUSH2 0x206 SWAP2 SWAP1 PUSH2 0x3AC6 JUMP JUMPDEST PUSH1 0x40 MLOAD DUP1 SWAP2 SUB SWAP1 RETURN JUMPDEST CALLVALUE DUP1 ISZERO PUSH2 0x21B JUMPI PUSH1 0x0 DUP1 REVERT JUMPDEST POP PUSH2 0x224 PUSH2 0x737 JUMP JUMPDEST PUSH1 0x40 MLOAD PUSH2 0x231 SWAP2 SWAP1 PUSH2 0x3B71 JUMP JUMPDEST PUSH1 0x40 MLOAD DUP1 SWAP2 SUB SWAP1 RETURN JUMPDEST CALLVALUE DUP1 ISZERO PUSH2 0x246 JUMPI PUSH1 0x0 DUP1 REVERT JUMPDEST POP PUSH2 0x261 PUSH1 0x4 DUP1 CALLDATASIZE SUB DUP2 ADD SWAP1 PUSH2 0x25C SWAP2 SWAP1 PUSH2 0x3BC9 JUMP JUMPDEST PUSH2 0x7C9 JUMP JUMPDEST PUSH1 0x40 MLOAD PUSH2 0x26E SWAP2 SWAP1 PUSH2 0x3C37 JUMP JUMPDEST PUSH1 0x40 MLOAD DUP1 SWAP2 SUB SWAP1 RETURN JUMPDEST PUSH2 0x291 PUSH1 0x4 DUP1 CALLDATASIZE SUB DUP2 ADD SWAP1 PUSH2 0x28C SWAP2 SWAP1 PUSH2 0x3C7E JUMP JUMPDEST PUSH2 0x848 JUMP JUMPDEST STOP JUMPDEST CALLVALUE DUP1 ISZERO PUSH2 0x29F JUMPI PUSH1 0x0 DUP1 REVERT JUMPDEST POP PUSH2 0x2BA PUSH1 0x4 DUP1 CALLDATASIZE SUB DUP2 ADD SWAP1 PUSH2 0x2B5 SWAP2 SWAP1 PUSH2 0x3BC9 JUMP JUMPDEST PUSH2 0x98C JUMP JUMPDEST PUSH1 0x40 MLOAD PUSH2 0x2C7 SWAP2 SWAP1 PUSH2 0x3B71 JUMP JUMPDEST PUSH1 0x40 MLOAD DUP1 SWAP2 SUB SWAP1 RETURN JUMPDEST CALLVALUE DUP1 ISZERO PUSH2 0x2DC JUMPI PUSH1 0x0 DUP1 REVERT JUMPDEST POP PUSH2 0x2E5 PUSH2 0xB1E JUMP JUMPDEST PUSH1 0x40 MLOAD PUSH2 0x2F2 SWAP2 SWAP1 PUSH2 0x3CCD JUMP JUMPDEST PUSH1 0x40 MLOAD DUP1 SWAP2 SUB SWAP1 RETURN JUMPDEST CALLVALUE DUP1 ISZERO PUSH2 0x307 JUMPI PUSH1 0x0 DUP1 REVERT JUMPDEST POP PUSH2 0x310 PUSH2 0xB35 JUMP JUMPDEST PUSH1 0x40 MLOAD PUSH2 0x31D SWAP2 SWAP1 PUSH2 0x3CCD JUMP JUMPDEST PUSH1 0x40 MLOAD DUP1 SWAP2 SUB SWAP1 RETURN JUMPDEST PUSH2 0x340 PUSH1 0x4 DUP1 CALLDATASIZE SUB DUP2 ADD SWAP1 PUSH2 0x33B SWAP2 SWAP1 PUSH2 0x3CE8 JUMP JUMPDEST PUSH2 0xB3B JUMP JUMPDEST STOP JUMPDEST CALLVALUE DUP1 ISZERO PUSH2 0x34E JUMPI PUSH1 0x0 DUP1 REVERT JUMPDEST POP PUSH2 0x369 PUSH1 0x4 DUP1 CALLDATASIZE SUB DUP2 ADD SWAP1 PUSH2 0x364 SWAP2 SWAP1 PUSH2 0x3E83 JUMP JUMPDEST PUSH2 0xE5D JUMP JUMPDEST STOP JUMPDEST CALLVALUE DUP1 ISZERO PUSH2 0x377 JUMPI PUSH1 0x0 DUP1 REVERT JUMPDEST POP PUSH2 0x380 PUSH2 0x138C JUMP JUMPDEST STOP JUMPDEST CALLVALUE DUP1 ISZERO PUSH2 0x38E JUMPI PUSH1 0x0 DUP1 REVERT JUMPDEST POP PUSH2 0x397 PUSH2 0x13DB JUMP JUMPDEST PUSH1 0x40 MLOAD PUSH2 0x3A4 SWAP2 SWAP1 PUSH2 0x3AC6 JUMP JUMPDEST PUSH1 0x40 MLOAD DUP1 SWAP2 SUB SWAP1 RETURN JUMPDEST CALLVALUE DUP1 ISZERO PUSH2 0x3B9 JUMPI PUSH1 0x0 DUP1 REVERT JUMPDEST POP PUSH2 0x3C2 PUSH2 0x13EE JUMP JUMPDEST STOP JUMPDEST PUSH2 0x3DE PUSH1 0x4 DUP1 CALLDATASIZE SUB DUP2 ADD SWAP1 PUSH2 0x3D9 SWAP2 SWAP1 PUSH2 0x3CE8 JUMP JUMPDEST PUSH2 0x1436 JUMP JUMPDEST STOP JUMPDEST CALLVALUE DUP1 ISZERO PUSH2 0x3EC JUMPI PUSH1 0x0 DUP1 REVERT JUMPDEST POP PUSH2 0x407 PUSH1 0x4 DUP1 CALLDATASIZE SUB DUP2 ADD SWAP1 PUSH2 0x402 SWAP2 SWAP1 PUSH2 0x3BC9 JUMP JUMPDEST PUSH2 0x1456 JUMP JUMPDEST PUSH1 0x40 MLOAD PUSH2 0x414 SWAP2 SWAP1 PUSH2 0x3C37 JUMP JUMPDEST PUSH1 0x40 MLOAD DUP1 SWAP2 SUB SWAP1 RETURN JUMPDEST CALLVALUE DUP1 ISZERO PUSH2 0x429 JUMPI PUSH1 0x0 DUP1 REVERT JUMPDEST POP PUSH2 0x444 PUSH1 0x4 DUP1 CALLDATASIZE SUB DUP2 ADD SWAP1 PUSH2 0x43F SWAP2 SWAP1 PUSH2 0x3ECC JUMP JUMPDEST PUSH2 0x1468 JUMP JUMPDEST PUSH1 0x40 MLOAD PUSH2 0x451 SWAP2 SWAP1 PUSH2 0x3CCD JUMP JUMPDEST PUSH1 0x40 MLOAD DUP1 SWAP2 SUB SWAP1 RETURN JUMPDEST CALLVALUE DUP1 ISZERO PUSH2 0x466 JUMPI PUSH1 0x0 DUP1 REVERT JUMPDEST POP PUSH2 0x46F PUSH2 0x1520 JUMP JUMPDEST STOP JUMPDEST CALLVALUE DUP1 ISZERO PUSH2 0x47D JUMPI PUSH1 0x0 DUP1 REVERT JUMPDEST POP PUSH2 0x486 PUSH2 0x1534 JUMP JUMPDEST PUSH1 0x40 MLOAD PUSH2 0x493 SWAP2 SWAP1 PUSH2 0x3C37 JUMP JUMPDEST PUSH1 0x40 MLOAD DUP1 SWAP2 SUB SWAP1 RETURN JUMPDEST CALLVALUE DUP1 ISZERO PUSH2 0x4A8 JUMPI PUSH1 0x0 DUP1 REVERT JUMPDEST POP PUSH2 0x4B1 PUSH2 0x155E JUMP JUMPDEST STOP JUMPDEST CALLVALUE DUP1 ISZERO PUSH2 0x4BF JUMPI PUSH1 0x0 DUP1 REVERT JUMPDEST POP PUSH2 0x4C8 PUSH2 0x1582 JUMP JUMPDEST PUSH1 0x40 MLOAD PUSH2 0x4D5 SWAP2 SWAP1 PUSH2 0x3B71 JUMP JUMPDEST PUSH1 0x40 MLOAD DUP1 SWAP2 SUB SWAP1 RETURN JUMPDEST CALLVALUE DUP1 ISZERO PUSH2 0x4EA JUMPI PUSH1 0x0 DUP1 REVERT JUMPDEST POP PUSH2 0x4F3 PUSH2 0x1614 JUMP JUMPDEST PUSH1 0x40 MLOAD PUSH2 0x500 SWAP2 SWAP1 PUSH2 0x3CCD JUMP JUMPDEST PUSH1 0x40 MLOAD DUP1 SWAP2 SUB SWAP1 RETURN JUMPDEST CALLVALUE DUP1 ISZERO PUSH2 0x515 JUMPI PUSH1 0x0 DUP1 REVERT JUMPDEST POP PUSH2 0x51E PUSH2 0x1623 JUMP JUMPDEST PUSH1 0x40 MLOAD PUSH2 0x52B SWAP2 SWAP1 PUSH2 0x3CCD JUMP JUMPDEST PUSH1 0x40 MLOAD DUP1 SWAP2 SUB SWAP1 RETURN JUMPDEST CALLVALUE DUP1 ISZERO PUSH2 0x540 JUMPI PUSH1 0x0 DUP1 REVERT JUMPDEST POP PUSH2 0x549 PUSH2 0x1635 JUMP JUMPDEST PUSH1 0x40 MLOAD PUSH2 0x556 SWAP2 SWAP1 PUSH2 0x3CCD JUMP JUMPDEST PUSH1 0x40 MLOAD DUP1 SWAP2 SUB SWAP1 RETURN JUMPDEST PUSH2 0x579 PUSH1 0x4 DUP1 CALLDATASIZE SUB DUP2 ADD SWAP1 PUSH2 0x574 SWAP2 SWAP1 PUSH2 0x3BC9 JUMP JUMPDEST PUSH2 0x163B JUMP JUMPDEST STOP JUMPDEST CALLVALUE DUP1 ISZERO PUSH2 0x587 JUMPI PUSH1 0x0 DUP1 REVERT JUMPDEST POP PUSH2 0x5A2 PUSH1 0x4 DUP1 CALLDATASIZE SUB DUP2 ADD SWAP1 PUSH2 0x59D SWAP2 SWAP1 PUSH2 0x3F25 JUMP JUMPDEST PUSH2 0x1698 JUMP JUMPDEST STOP JUMPDEST PUSH2 0x5BE PUSH1 0x4 DUP1 CALLDATASIZE SUB DUP2 ADD SWAP1 PUSH2 0x5B9 SWAP2 SWAP1 PUSH2 0x401A JUMP JUMPDEST PUSH2 0x17A3 JUMP JUMPDEST STOP JUMPDEST CALLVALUE DUP1 ISZERO PUSH2 0x5CC JUMPI PUSH1 0x0 DUP1 REVERT JUMPDEST POP PUSH2 0x5D5 PUSH2 0x1816 JUMP JUMPDEST STOP JUMPDEST CALLVALUE DUP1 ISZERO PUSH2 0x5E3 JUMPI PUSH1 0x0 DUP1 REVERT JUMPDEST POP PUSH2 0x5EC PUSH2 0x184A JUMP JUMPDEST PUSH1 0x40 MLOAD PUSH2 0x5F9 SWAP2 SWAP1 PUSH2 0x3B71 JUMP JUMPDEST PUSH1 0x40 MLOAD DUP1 SWAP2 SUB SWAP1 RETURN JUMPDEST CALLVALUE DUP1 ISZERO PUSH2 0x60E JUMPI PUSH1 0x0 DUP1 REVERT JUMPDEST POP PUSH2 0x629 PUSH1 0x4 DUP1 CALLDATASIZE SUB DUP2 ADD SWAP1 PUSH2 0x624 SWAP2 SWAP1 PUSH2 0x3BC9 JUMP JUMPDEST PUSH2 0x18D8 JUMP JUMPDEST PUSH1 0x40 MLOAD PUSH2 0x636 SWAP2 SWAP1 PUSH2 0x3B71 JUMP JUMPDEST PUSH1 0x40 MLOAD DUP1 SWAP2 SUB SWAP1 RETURN JUMPDEST CALLVALUE DUP1 ISZERO PUSH2 0x64B JUMPI PUSH1 0x0 DUP1 REVERT JUMPDEST POP PUSH2 0x666 PUSH1 0x4 DUP1 CALLDATASIZE SUB DUP2 ADD SWAP1 PUSH2 0x661 SWAP2 SWAP1 PUSH2 0x409D JUMP JUMPDEST PUSH2 0x1A9E JUMP JUMPDEST PUSH1 0x40 MLOAD PUSH2 0x673 SWAP2 SWAP1 PUSH2 0x3AC6 JUMP JUMPDEST PUSH1 0x40 MLOAD DUP1 SWAP2 SUB SWAP1 RETURN JUMPDEST CALLVALUE DUP1 ISZERO PUSH2 0x688 JUMPI PUSH1 0x0 DUP1 REVERT JUMPDEST POP PUSH2 0x6A3 PUSH1 0x4 DUP1 CALLDATASIZE SUB DUP2 ADD SWAP1 PUSH2 0x69E SWAP2 SWAP1 PUSH2 0x3ECC JUMP JUMPDEST PUSH2 0x1B32 JUMP JUMPDEST STOP JUMPDEST PUSH1 0x0 PUSH4 0x1FFC9A7 PUSH1 0xE0 SHL DUP3 PUSH28 0xFFFFFFFFFFFFFFFFFFFFFFFFFFFFFFFFFFFFFFFFFFFFFFFFFFFFFFFF NOT AND EQ DUP1 PUSH2 0x700 JUMPI POP PUSH4 0x80AC58CD PUSH1 0xE0 SHL DUP3 PUSH28 0xFFFFFFFFFFFFFFFFFFFFFFFFFFFFFFFFFFFFFFFFFFFFFFFFFFFFFFFF NOT AND EQ JUMPDEST DUP1 PUSH2 0x730 JUMPI POP PUSH4 0x5B5E139F PUSH1 0xE0 SHL DUP3 PUSH28 0xFFFFFFFFFFFFFFFFFFFFFFFFFFFFFFFFFFFFFFFFFFFFFFFFFFFFFFFF NOT AND EQ JUMPDEST SWAP1 POP SWAP2 SWAP1 POP JUMP JUMPDEST PUSH1 0x60 PUSH1 0x2 DUP1 SLOAD PUSH2 0x746 SWAP1 PUSH2 0x410C JUMP JUMPDEST DUP1 PUSH1 0x1F ADD PUSH1 0x20 DUP1 SWAP2 DIV MUL PUSH1 0x20 ADD PUSH1 0x40 MLOAD SWAP1 DUP2 ADD PUSH1 0x40 MSTORE DUP1 SWAP3 SWAP2 SWAP1 DUP2 DUP2 MSTORE PUSH1 0x20 ADD DUP3 DUP1 SLOAD PUSH2 0x772 SWAP1 PUSH2 0x410C JUMP JUMPDEST DUP1 ISZERO PUSH2 0x7BF JUMPI DUP1 PUSH1 0x1F LT PUSH2 0x794 JUMPI PUSH2 0x100 DUP1 DUP4 SLOAD DIV MUL DUP4 MSTORE SWAP2 PUSH1 0x20 ADD SWAP2 PUSH2 0x7BF JUMP JUMPDEST DUP3 ADD SWAP2 SWAP1 PUSH1 0x0 MSTORE PUSH1 0x20 PUSH1 0x0 KECCAK256 SWAP1 JUMPDEST DUP2 SLOAD DUP2 MSTORE SWAP1 PUSH1 0x1 ADD SWAP1 PUSH1 0x20 ADD DUP1 DUP4 GT PUSH2 0x7A2 JUMPI DUP3 SWAP1 SUB PUSH1 0x1F AND DUP3 ADD SWAP2 JUMPDEST POP POP POP POP POP SWAP1 POP SWAP1 JUMP JUMPDEST PUSH1 0x0 PUSH2 0x7D4 DUP3 PUSH2 0x1BB5 JUMP JUMPDEST PUSH2 0x80A JUMPI PUSH1 0x40 MLOAD PUSH32 0xCF4700E400000000000000000000000000000000000000000000000000000000 DUP2 MSTORE PUSH1 0x4 ADD PUSH1 0x40 MLOAD DUP1 SWAP2 SUB SWAP1 REVERT JUMPDEST PUSH1 0x6 PUSH1 0x0 DUP4 DUP2 MSTORE PUSH1 0x20 ADD SWAP1 DUP2 MSTORE PUSH1 0x20 ADD PUSH1 0x0 KECCAK256 PUSH1 0x0 ADD PUSH1 0x0 SWAP1 SLOAD SWAP1 PUSH2 0x100 EXP SWAP1 DIV PUSH20 0xFFFFFFFFFFFFFFFFFFFFFFFFFFFFFFFFFFFFFFFF AND SWAP1 POP SWAP2 SWAP1 POP JUMP JUMPDEST PUSH1 0x0 PUSH2 0x853 DUP3 PUSH2 0x1456 JUMP JUMPDEST SWAP1 POP DUP1 PUSH20 0xFFFFFFFFFFFFFFFFFFFFFFFFFFFFFFFFFFFFFFFF AND PUSH2 0x874 PUSH2 0x1C14 JUMP JUMPDEST PUSH20 0xFFFFFFFFFFFFFFFFFFFFFFFFFFFFFFFFFFFFFFFF AND EQ PUSH2 0x8D7 JUMPI PUSH2 0x8A0 DUP2 PUSH2 0x89B PUSH2 0x1C14 JUMP JUMPDEST PUSH2 0x1A9E JUMP JUMPDEST PUSH2 0x8D6 JUMPI PUSH1 0x40 MLOAD PUSH32 0xCFB3B94200000000000000000000000000000000000000000000000000000000 DUP2 MSTORE PUSH1 0x4 ADD PUSH1 0x40 MLOAD DUP1 SWAP2 SUB SWAP1 REVERT JUMPDEST JUMPDEST DUP3 PUSH1 0x6 PUSH1 0x0 DUP5 DUP2 MSTORE PUSH1 0x20 ADD SWAP1 DUP2 MSTORE PUSH1 0x20 ADD PUSH1 0x0 KECCAK256 PUSH1 0x0 ADD PUSH1 0x0 PUSH2 0x100 EXP DUP2 SLOAD DUP2 PUSH20 0xFFFFFFFFFFFFFFFFFFFFFFFFFFFFFFFFFFFFFFFF MUL NOT AND SWAP1 DUP4 PUSH20 0xFFFFFFFFFFFFFFFFFFFFFFFFFFFFFFFFFFFFFFFF AND MUL OR SWAP1 SSTORE POP DUP2 DUP4 PUSH20 0xFFFFFFFFFFFFFFFFFFFFFFFFFFFFFFFFFFFFFFFF AND DUP3 PUSH20 0xFFFFFFFFFFFFFFFFFFFFFFFFFFFFFFFFFFFFFFFF AND PUSH32 0x8C5BE1E5EBEC7D5BD14F71427D1E84F3DD0314C0F7B2291E5B200AC8C7C3B925 PUSH1 0x40 MLOAD PUSH1 0x40 MLOAD DUP1 SWAP2 SUB SWAP1 LOG4 POP POP POP JUMP JUMPDEST PUSH1 0x60 PUSH2 0x997 DUP3 PUSH2 0x1BB5 JUMP JUMPDEST PUSH2 0x9B2 JUMPI PUSH1 0x40 MLOAD DUP1 PUSH1 0x20 ADD PUSH1 0x40 MSTORE DUP1 PUSH1 0x0 DUP2 MSTORE POP SWAP1 POP PUSH2 0xB19 JUMP JUMPDEST PUSH2 0xA66 PUSH1 0xD PUSH1 0x0 DUP5 DUP2 MSTORE PUSH1 0x20 ADD SWAP1 DUP2 MSTORE PUSH1 0x20 ADD PUSH1 0x0 KECCAK256 DUP1 SLOAD PUSH2 0x9D3 SWAP1 PUSH2 0x410C JUMP JUMPDEST DUP1 PUSH1 0x1F ADD PUSH1 0x20 DUP1 SWAP2 DIV MUL PUSH1 0x20 ADD PUSH1 0x40 MLOAD SWAP1 DUP2 ADD PUSH1 0x40 MSTORE DUP1 SWAP3 SWAP2 SWAP1 DUP2 DUP2 MSTORE PUSH1 0x20 ADD DUP3 DUP1 SLOAD PUSH2 0x9FF SWAP1 PUSH2 0x410C JUMP JUMPDEST DUP1 ISZERO PUSH2 0xA4C JUMPI DUP1 PUSH1 0x1F LT PUSH2 0xA21 JUMPI PUSH2 0x100 DUP1 DUP4 SLOAD DIV MUL DUP4 MSTORE SWAP2 PUSH1 0x20 ADD SWAP2 PUSH2 0xA4C JUMP JUMPDEST DUP3 ADD SWAP2 SWAP1 PUSH1 0x0 MSTORE PUSH1 0x20 PUSH1 0x0 KECCAK256 SWAP1 JUMPDEST DUP2 SLOAD DUP2 MSTORE SWAP1 PUSH1 0x1 ADD SWAP1 PUSH1 0x20 ADD DUP1 DUP4 GT PUSH2 0xA2F JUMPI DUP3 SWAP1 SUB PUSH1 0x1F AND DUP3 ADD SWAP2 JUMPDEST POP POP POP POP POP PUSH1 0x40 MLOAD DUP1 PUSH1 0x20 ADD PUSH1 0x40 MSTORE DUP1 PUSH1 0x0 DUP2 MSTORE POP PUSH2 0x1C1C JUMP JUMPDEST PUSH2 0xB0D JUMPI PUSH1 0xD PUSH1 0x0 DUP4 DUP2 MSTORE PUSH1 0x20 ADD SWAP1 DUP2 MSTORE PUSH1 0x20 ADD PUSH1 0x0 KECCAK256 DUP1 SLOAD PUSH2 0xA88 SWAP1 PUSH2 0x410C JUMP JUMPDEST DUP1 PUSH1 0x1F ADD PUSH1 0x20 DUP1 SWAP2 DIV MUL PUSH1 0x20 ADD PUSH1 0x40 MLOAD SWAP1 DUP2 ADD PUSH1 0x40 MSTORE DUP1 SWAP3 SWAP2 SWAP1 DUP2 DUP2 MSTORE PUSH1 0x20 ADD DUP3 DUP1 SLOAD PUSH2 0xAB4 SWAP1 PUSH2 0x410C JUMP JUMPDEST DUP1 ISZERO PUSH2 0xB01 JUMPI DUP1 PUSH1 0x1F LT PUSH2 0xAD6 JUMPI PUSH2 0x100 DUP1 DUP4 SLOAD DIV MUL DUP4 MSTORE SWAP2 PUSH1 0x20 ADD SWAP2 PUSH2 0xB01 JUMP JUMPDEST DUP3 ADD SWAP2 SWAP1 PUSH1 0x0 MSTORE PUSH1 0x20 PUSH1 0x0 KECCAK256 SWAP1 JUMPDEST DUP2 SLOAD DUP2 MSTORE SWAP1 PUSH1 0x1 ADD SWAP1 PUSH1 0x20 ADD DUP1 DUP4 GT PUSH2 0xAE4 JUMPI DUP3 SWAP1 SUB PUSH1 0x1F AND DUP3 ADD SWAP2 JUMPDEST POP POP POP POP POP SWAP1 POP PUSH2 0xB19 JUMP JUMPDEST PUSH2 0xB16 DUP3 PUSH2 0x1C75 JUMP JUMPDEST SWAP1 POP JUMPDEST SWAP2 SWAP1 POP JUMP JUMPDEST PUSH1 0x0 PUSH2 0xB28 PUSH2 0x1C89 JUMP JUMPDEST PUSH1 0x1 SLOAD PUSH1 0x0 SLOAD SUB SUB SWAP1 POP SWAP1 JUMP JUMPDEST PUSH1 0xB SLOAD DUP2 JUMP JUMPDEST PUSH1 0x0 PUSH2 0xB46 DUP3 PUSH2 0x1C92 JUMP JUMPDEST SWAP1 POP DUP4 PUSH20 0xFFFFFFFFFFFFFFFFFFFFFFFFFFFFFFFFFFFFFFFF AND DUP2 PUSH20 0xFFFFFFFFFFFFFFFFFFFFFFFFFFFFFFFFFFFFFFFF AND EQ PUSH2 0xBAD JUMPI PUSH1 0x40 MLOAD PUSH32 0xA114810000000000000000000000000000000000000000000000000000000000 DUP2 MSTORE PUSH1 0x4 ADD PUSH1 0x40 MLOAD DUP1 SWAP2 SUB SWAP1 REVERT JUMPDEST PUSH1 0x0 DUP1 PUSH2 0xBB9 DUP5 PUSH2 0x1D5E JUMP JUMPDEST SWAP2 POP SWAP2 POP PUSH2 0xBCF DUP2 DUP8 PUSH2 0xBCA PUSH2 0x1C14 JUMP JUMPDEST PUSH2 0x1D85 JUMP JUMPDEST PUSH2 0xC1B JUMPI PUSH2 0xBE4 DUP7 PUSH2 0xBDF PUSH2 0x1C14 JUMP JUMPDEST PUSH2 0x1A9E JUMP JUMPDEST PUSH2 0xC1A JUMPI PUSH1 0x40 MLOAD PUSH32 0x59C896BE00000000000000000000000000000000000000000000000000000000 DUP2 MSTORE PUSH1 0x4 ADD PUSH1 0x40 MLOAD DUP1 SWAP2 SUB SWAP1 REVERT JUMPDEST JUMPDEST PUSH1 0x0 PUSH20 0xFFFFFFFFFFFFFFFFFFFFFFFFFFFFFFFFFFFFFFFF AND DUP6 PUSH20 0xFFFFFFFFFFFFFFFFFFFFFFFFFFFFFFFFFFFFFFFF AND SUB PUSH2 0xC81 JUMPI PUSH1 0x40 MLOAD PUSH32 0xEA553B3400000000000000000000000000000000000000000000000000000000 DUP2 MSTORE PUSH1 0x4 ADD PUSH1 0x40 MLOAD DUP1 SWAP2 SUB SWAP1 REVERT JUMPDEST PUSH2 0xC8E DUP7 DUP7 DUP7 PUSH1 0x1 PUSH2 0x1DC9 JUMP JUMPDEST DUP1 ISZERO PUSH2 0xC99 JUMPI PUSH1 0x0 DUP3 SSTORE JUMPDEST PUSH1 0x5 PUSH1 0x0 DUP8 PUSH20 0xFFFFFFFFFFFFFFFFFFFFFFFFFFFFFFFFFFFFFFFF AND PUSH20 0xFFFFFFFFFFFFFFFFFFFFFFFFFFFFFFFFFFFFFFFF AND DUP2 MSTORE PUSH1 0x20 ADD SWAP1 DUP2 MSTORE PUSH1 0x20 ADD PUSH1 0x0 KECCAK256 PUSH1 0x0 DUP2 SLOAD PUSH1 0x1 SWAP1 SUB SWAP2 SWAP1 POP DUP2 SWAP1 SSTORE POP PUSH1 0x5 PUSH1 0x0 DUP7 PUSH20 0xFFFFFFFFFFFFFFFFFFFFFFFFFFFFFFFFFFFFFFFF AND PUSH20 0xFFFFFFFFFFFFFFFFFFFFFFFFFFFFFFFFFFFFFFFF AND DUP2 MSTORE PUSH1 0x20 ADD SWAP1 DUP2 MSTORE PUSH1 0x20 ADD PUSH1 0x0 KECCAK256 PUSH1 0x0 DUP2 SLOAD PUSH1 0x1 ADD SWAP2 SWAP1 POP DUP2 SWAP1 SSTORE POP PUSH2 0xD67 DUP6 PUSH2 0xD43 DUP9 DUP9 DUP8 PUSH2 0x1DCF JUMP JUMPDEST PUSH29 0x200000000000000000000000000000000000000000000000000000000 OR PUSH2 0x1DF7 JUMP JUMPDEST PUSH1 0x4 PUSH1 0x0 DUP7 DUP2 MSTORE PUSH1 0x20 ADD SWAP1 DUP2 MSTORE PUSH1 0x20 ADD PUSH1 0x0 KECCAK256 DUP2 SWAP1 SSTORE POP PUSH1 0x0 PUSH29 0x200000000000000000000000000000000000000000000000000000000 DUP5 AND SUB PUSH2 0xDED JUMPI PUSH1 0x0 PUSH1 0x1 DUP6 ADD SWAP1 POP PUSH1 0x0 PUSH1 0x4 PUSH1 0x0 DUP4 DUP2 MSTORE PUSH1 0x20 ADD SWAP1 DUP2 MSTORE PUSH1 0x20 ADD PUSH1 0x0 KECCAK256 SLOAD SUB PUSH2 0xDEB JUMPI PUSH1 0x0 SLOAD DUP2 EQ PUSH2 0xDEA JUMPI DUP4 PUSH1 0x4 PUSH1 0x0 DUP4 DUP2 MSTORE PUSH1 0x20 ADD SWAP1 DUP2 MSTORE PUSH1 0x20 ADD PUSH1 0x0 KECCAK256 DUP2 SWAP1 SSTORE POP JUMPDEST JUMPDEST POP JUMPDEST DUP4 DUP6 PUSH20 0xFFFFFFFFFFFFFFFFFFFFFFFFFFFFFFFFFFFFFFFF AND DUP8 PUSH20 0xFFFFFFFFFFFFFFFFFFFFFFFFFFFFFFFFFFFFFFFF AND PUSH32 0xDDF252AD1BE2C89B69C2B068FC378DAA952BA7F163C4A11628F55A4DF523B3EF PUSH1 0x40 MLOAD PUSH1 0x40 MLOAD DUP1 SWAP2 SUB SWAP1 LOG4 PUSH2 0xE55 DUP7 DUP7 DUP7 PUSH1 0x1 PUSH2 0x1E22 JUMP JUMPDEST POP POP POP POP POP POP JUMP JUMPDEST PUSH1 0xA PUSH1 0x0 SWAP1 SLOAD SWAP1 PUSH2 0x100 EXP SWAP1 DIV PUSH1 0xFF AND PUSH2 0xEAC JUMPI PUSH1 0x40 MLOAD PUSH32 0x8C379A000000000000000000000000000000000000000000000000000000000 DUP2 MSTORE PUSH1 0x4 ADD PUSH2 0xEA3 SWAP1 PUSH2 0x4189 JUMP JUMPDEST PUSH1 0x40 MLOAD DUP1 SWAP2 SUB SWAP1 REVERT JUMPDEST PUSH1 0x60 PUSH1 0x0 JUMPDEST DUP3 MLOAD DUP2 LT ISZERO PUSH2 0xFA3 JUMPI CALLER PUSH20 0xFFFFFFFFFFFFFFFFFFFFFFFFFFFFFFFFFFFFFFFF AND PUSH2 0xEF4 DUP5 DUP4 DUP2 MLOAD DUP2 LT PUSH2 0xEE7 JUMPI PUSH2 0xEE6 PUSH2 0x41A9 JUMP JUMPDEST JUMPDEST PUSH1 0x20 MUL PUSH1 0x20 ADD ADD MLOAD PUSH2 0x1456 JUMP JUMPDEST PUSH20 0xFFFFFFFFFFFFFFFFFFFFFFFFFFFFFFFFFFFFFFFF AND EQ PUSH2 0xF4A JUMPI PUSH1 0x40 MLOAD PUSH32 0x8C379A000000000000000000000000000000000000000000000000000000000 DUP2 MSTORE PUSH1 0x4 ADD PUSH2 0xF41 SWAP1 PUSH2 0x4224 JUMP JUMPDEST PUSH1 0x40 MLOAD DUP1 SWAP2 SUB SWAP1 REVERT JUMPDEST DUP2 PUSH2 0xF6E DUP5 DUP4 DUP2 MLOAD DUP2 LT PUSH2 0xF61 JUMPI PUSH2 0xF60 PUSH2 0x41A9 JUMP JUMPDEST JUMPDEST PUSH1 0x20 MUL PUSH1 0x20 ADD ADD MLOAD PUSH2 0x98C JUMP JUMPDEST PUSH1 0x40 MLOAD PUSH1 0x20 ADD PUSH2 0xF7F SWAP3 SWAP2 SWAP1 PUSH2 0x4280 JUMP JUMPDEST PUSH1 0x40 MLOAD PUSH1 0x20 DUP2 DUP4 SUB SUB DUP2 MSTORE SWAP1 PUSH1 0x40 MSTORE SWAP2 POP DUP1 DUP1 PUSH2 0xF9B SWAP1 PUSH2 0x42D3 JUMP JUMPDEST SWAP2 POP POP PUSH2 0xEB1 JUMP JUMPDEST POP PUSH1 0x4 DUP2 MLOAD GT ISZERO PUSH2 0xFE9 JUMPI PUSH1 0x40 MLOAD PUSH32 0x8C379A000000000000000000000000000000000000000000000000000000000 DUP2 MSTORE PUSH1 0x4 ADD PUSH2 0xFE0 SWAP1 PUSH2 0x4367 JUMP JUMPDEST PUSH1 0x40 MLOAD DUP1 SWAP2 SUB SWAP1 REVERT JUMPDEST PUSH2 0x108C PUSH1 0xC DUP1 SLOAD PUSH2 0xFF9 SWAP1 PUSH2 0x410C JUMP JUMPDEST DUP1 PUSH1 0x1F ADD PUSH1 0x20 DUP1 SWAP2 DIV MUL PUSH1 0x20 ADD PUSH1 0x40 MLOAD SWAP1 DUP2 ADD PUSH1 0x40 MSTORE DUP1 SWAP3 SWAP2 SWAP1 DUP2 DUP2 MSTORE PUSH1 0x20 ADD DUP3 DUP1 SLOAD PUSH2 0x1025 SWAP1 PUSH2 0x410C JUMP JUMPDEST DUP1 ISZERO PUSH2 0x1072 JUMPI DUP1 PUSH1 0x1F LT PUSH2 0x1047 JUMPI PUSH2 0x100 DUP1 DUP4 SLOAD DIV MUL DUP4 MSTORE SWAP2 PUSH1 0x20 ADD SWAP2 PUSH2 0x1072 JUMP JUMPDEST DUP3 ADD SWAP2 SWAP1 PUSH1 0x0 MSTORE PUSH1 0x20 PUSH1 0x0 KECCAK256 SWAP1 JUMPDEST DUP2 SLOAD DUP2 MSTORE SWAP1 PUSH1 0x1 ADD SWAP1 PUSH1 0x20 ADD DUP1 DUP4 GT PUSH2 0x1055 JUMPI DUP3 SWAP1 SUB PUSH1 0x1F AND DUP3 ADD SWAP2 JUMPDEST POP POP POP POP POP PUSH1 0x40 MLOAD DUP1 PUSH1 0x20 ADD PUSH1 0x40 MSTORE DUP1 PUSH1 0x0 DUP2 MSTORE POP PUSH2 0x1C1C JUMP JUMPDEST ISZERO DUP1 ISZERO PUSH2 0x1129 JUMPI POP PUSH2 0x1128 PUSH1 0xC DUP1 SLOAD PUSH2 0x10A4 SWAP1 PUSH2 0x410C JUMP JUMPDEST DUP1 PUSH1 0x1F ADD PUSH1 0x20 DUP1 SWAP2 DIV MUL PUSH1 0x20 ADD PUSH1 0x40 MLOAD SWAP1 DUP2 ADD PUSH1 0x40 MSTORE DUP1 SWAP3 SWAP2 SWAP1 DUP2 DUP2 MSTORE PUSH1 0x20 ADD DUP3 DUP1 SLOAD PUSH2 0x10D0 SWAP1 PUSH2 0x410C JUMP JUMPDEST DUP1 ISZERO PUSH2 0x111D JUMPI DUP1 PUSH1 0x1F LT PUSH2 0x10F2 JUMPI PUSH2 0x100 DUP1 DUP4 SLOAD DIV MUL DUP4 MSTORE SWAP2 PUSH1 0x20 ADD SWAP2 PUSH2 0x111D JUMP JUMPDEST DUP3 ADD SWAP2 SWAP1 PUSH1 0x0 MSTORE PUSH1 0x20 PUSH1 0x0 KECCAK256 SWAP1 JUMPDEST DUP2 SLOAD DUP2 MSTORE SWAP1 PUSH1 0x1 ADD SWAP1 PUSH1 0x20 ADD DUP1 DUP4 GT PUSH2 0x1100 JUMPI DUP3 SWAP1 SUB PUSH1 0x1F AND DUP3 ADD SWAP2 JUMPDEST POP POP POP POP POP DUP3 PUSH2 0x1C1C JUMP JUMPDEST JUMPDEST ISZERO PUSH2 0x118B JUMPI PUSH1 0xC PUSH1 0x40 MLOAD PUSH1 0x20 ADD PUSH2 0x1140 SWAP2 SWAP1 PUSH2 0x4491 JUMP JUMPDEST PUSH1 0x40 MLOAD PUSH1 0x20 DUP2 DUP4 SUB SUB DUP2 MSTORE SWAP1 PUSH1 0x40 MSTORE PUSH1 0x40 MLOAD PUSH32 0x8C379A000000000000000000000000000000000000000000000000000000000 DUP2 MSTORE PUSH1 0x4 ADD PUSH2 0x1182 SWAP2 SWAP1 PUSH2 0x3B71 JUMP JUMPDEST PUSH1 0x40 MLOAD DUP1 SWAP2 SUB SWAP1 REVERT JUMPDEST PUSH1 0x0 PUSH1 0x1 SWAP1 POP JUMPDEST DUP3 MLOAD DUP2 LT ISZERO PUSH2 0x129F JUMPI PUSH2 0x11BE DUP4 DUP3 DUP2 MLOAD DUP2 LT PUSH2 0x11B1 JUMPI PUSH2 0x11B0 PUSH2 0x41A9 JUMP JUMPDEST JUMPDEST PUSH1 0x20 MUL PUSH1 0x20 ADD ADD MLOAD PUSH2 0x1E28 JUMP JUMPDEST PUSH1 0x40 MLOAD DUP1 PUSH1 0x20 ADD PUSH1 0x40 MSTORE DUP1 PUSH1 0x0 DUP2 MSTORE POP PUSH1 0xD PUSH1 0x0 DUP6 DUP5 DUP2 MLOAD DUP2 LT PUSH2 0x11E5 JUMPI PUSH2 0x11E4 PUSH2 0x41A9 JUMP JUMPDEST JUMPDEST PUSH1 0x20 MUL PUSH1 0x20 ADD ADD MLOAD DUP2 MSTORE PUSH1 0x20 ADD SWAP1 DUP2 MSTORE PUSH1 0x20 ADD PUSH1 0x0 KECCAK256 SWAP1 DUP2 PUSH2 0x1207 SWAP2 SWAP1 PUSH2 0x464A JUMP JUMPDEST POP PUSH1 0x0 PUSH1 0xE PUSH1 0x0 DUP6 DUP5 DUP2 MLOAD DUP2 LT PUSH2 0x1221 JUMPI PUSH2 0x1220 PUSH2 0x41A9 JUMP JUMPDEST JUMPDEST PUSH1 0x20 MUL PUSH1 0x20 ADD ADD MLOAD DUP2 MSTORE PUSH1 0x20 ADD SWAP1 DUP2 MSTORE PUSH1 0x20 ADD PUSH1 0x0 KECCAK256 DUP2 SWAP1 SSTORE POP PUSH32 0xF8E1A15ABA9398E019F0B49DF1A4FDE98EE17AE345CB5F6B5E2C27F5033E8CE7 DUP4 DUP3 DUP2 MLOAD DUP2 LT PUSH2 0x126F JUMPI PUSH2 0x126E PUSH2 0x41A9 JUMP JUMPDEST JUMPDEST PUSH1 0x20 MUL PUSH1 0x20 ADD ADD MLOAD PUSH1 0x40 MLOAD PUSH2 0x1284 SWAP2 SWAP1 PUSH2 0x3CCD JUMP JUMPDEST PUSH1 0x40 MLOAD DUP1 SWAP2 SUB SWAP1 LOG1 DUP1 DUP1 PUSH2 0x1297 SWAP1 PUSH2 0x42D3 JUMP JUMPDEST SWAP2 POP POP PUSH2 0x1192 JUMP JUMPDEST POP DUP1 PUSH1 0xD PUSH1 0x0 DUP5 PUSH1 0x0 DUP2 MLOAD DUP2 LT PUSH2 0x12B9 JUMPI PUSH2 0x12B8 PUSH2 0x41A9 JUMP JUMPDEST JUMPDEST PUSH1 0x20 MUL PUSH1 0x20 ADD ADD MLOAD DUP2 MSTORE PUSH1 0x20 ADD SWAP1 DUP2 MSTORE PUSH1 0x20 ADD PUSH1 0x0 KECCAK256 SWAP1 DUP2 PUSH2 0x12DB SWAP2 SWAP1 PUSH2 0x464A JUMP JUMPDEST POP PUSH2 0x1304 DUP3 PUSH1 0x0 DUP2 MLOAD DUP2 LT PUSH2 0x12F3 JUMPI PUSH2 0x12F2 PUSH2 0x41A9 JUMP JUMPDEST JUMPDEST PUSH1 0x20 MUL PUSH1 0x20 ADD ADD MLOAD PUSH1 0x1 PUSH1 0x4 PUSH2 0x1E36 JUMP JUMPDEST PUSH1 0xE PUSH1 0x0 DUP5 PUSH1 0x0 DUP2 MLOAD DUP2 LT PUSH2 0x131C JUMPI PUSH2 0x131B PUSH2 0x41A9 JUMP JUMPDEST JUMPDEST PUSH1 0x20 MUL PUSH1 0x20 ADD ADD MLOAD DUP2 MSTORE PUSH1 0x20 ADD SWAP1 DUP2 MSTORE PUSH1 0x20 ADD PUSH1 0x0 KECCAK256 DUP2 SWAP1 SSTORE POP PUSH32 0xF8E1A15ABA9398E019F0B49DF1A4FDE98EE17AE345CB5F6B5E2C27F5033E8CE7 DUP3 PUSH1 0x0 DUP2 MLOAD DUP2 LT PUSH2 0x136B JUMPI PUSH2 0x136A PUSH2 0x41A9 JUMP JUMPDEST JUMPDEST PUSH1 0x20 MUL PUSH1 0x20 ADD ADD MLOAD PUSH1 0x40 MLOAD PUSH2 0x1380 SWAP2 SWAP1 PUSH2 0x3CCD JUMP JUMPDEST PUSH1 0x40 MLOAD DUP1 SWAP2 SUB SWAP1 LOG1 POP POP JUMP JUMPDEST PUSH2 0x1394 PUSH2 0x1E78 JUMP JUMPDEST PUSH1 0x40 MLOAD DUP1 PUSH1 0x40 ADD PUSH1 0x40 MSTORE DUP1 PUSH1 0x4 DUP2 MSTORE PUSH1 0x20 ADD PUSH32 0x3031323300000000000000000000000000000000000000000000000000000000 DUP2 MSTORE POP PUSH1 0xC SWAP1 DUP2 PUSH2 0x13D8 SWAP2 SWAP1 PUSH2 0x464A JUMP JUMPDEST POP JUMP JUMPDEST PUSH1 0xA PUSH1 0x0 SWAP1 SLOAD SWAP1 PUSH2 0x100 EXP SWAP1 DIV PUSH1 0xFF AND DUP2 JUMP JUMPDEST PUSH2 0x13F6 PUSH2 0x1E78 JUMP JUMPDEST CALLER PUSH20 0xFFFFFFFFFFFFFFFFFFFFFFFFFFFFFFFFFFFFFFFF AND PUSH2 0x8FC SELFBALANCE SWAP1 DUP2 ISZERO MUL SWAP1 PUSH1 0x40 MLOAD PUSH1 0x0 PUSH1 0x40 MLOAD DUP1 DUP4 SUB DUP2 DUP6 DUP9 DUP9 CALL SWAP4 POP POP POP POP PUSH2 0x1434 JUMPI PUSH1 0x0 DUP1 REVERT JUMPDEST JUMP JUMPDEST PUSH2 0x1451 DUP4 DUP4 DUP4 PUSH1 0x40 MLOAD DUP1 PUSH1 0x20 ADD PUSH1 0x40 MSTORE DUP1 PUSH1 0x0 DUP2 MSTORE POP PUSH2 0x17A3 JUMP JUMPDEST POP POP POP JUMP JUMPDEST PUSH1 0x0 PUSH2 0x1461 DUP3 PUSH2 0x1C92 JUMP JUMPDEST SWAP1 POP SWAP2 SWAP1 POP JUMP JUMPDEST PUSH1 0x0 DUP1 PUSH20 0xFFFFFFFFFFFFFFFFFFFFFFFFFFFFFFFFFFFFFFFF AND DUP3 PUSH20 0xFFFFFFFFFFFFFFFFFFFFFFFFFFFFFFFFFFFFFFFF AND SUB PUSH2 0x14CF JUMPI PUSH1 0x40 MLOAD PUSH32 0x8F4EB60400000000000000000000000000000000000000000000000000000000 DUP2 MSTORE PUSH1 0x4 ADD PUSH1 0x40 MLOAD DUP1 SWAP2 SUB SWAP1 REVERT JUMPDEST PUSH8 0xFFFFFFFFFFFFFFFF PUSH1 0x5 PUSH1 0x0 DUP5 PUSH20 0xFFFFFFFFFFFFFFFFFFFFFFFFFFFFFFFFFFFFFFFF AND PUSH20 0xFFFFFFFFFFFFFFFFFFFFFFFFFFFFFFFFFFFFFFFF AND DUP2 MSTORE PUSH1 0x20 ADD SWAP1 DUP2 MSTORE PUSH1 0x20 ADD PUSH1 0x0 KECCAK256 SLOAD AND SWAP1 POP SWAP2 SWAP1 POP JUMP JUMPDEST PUSH2 0x1528 PUSH2 0x1E78 JUMP JUMPDEST PUSH2 0x1532 PUSH1 0x0 PUSH2 0x1EF6 JUMP JUMPDEST JUMP JUMPDEST PUSH1 0x0 PUSH1 0x8 PUSH1 0x0 SWAP1 SLOAD SWAP1 PUSH2 0x100 EXP SWAP1 DIV PUSH20 0xFFFFFFFFFFFFFFFFFFFFFFFFFFFFFFFFFFFFFFFF AND SWAP1 POP SWAP1 JUMP JUMPDEST PUSH2 0x1566 PUSH2 0x1E78 JUMP JUMPDEST PUSH2 0x1571 TIMESTAMP PUSH1 0x4 PUSH2 0x1FBC JUMP JUMPDEST PUSH1 0xC SWAP1 DUP2 PUSH2 0x157F SWAP2 SWAP1 PUSH2 0x464A JUMP JUMPDEST POP JUMP JUMPDEST PUSH1 0x60 PUSH1 0x3 DUP1 SLOAD PUSH2 0x1591 SWAP1 PUSH2 0x410C JUMP JUMPDEST DUP1 PUSH1 0x1F ADD PUSH1 0x20 DUP1 SWAP2 DIV MUL PUSH1 0x20 ADD PUSH1 0x40 MLOAD SWAP1 DUP2 ADD PUSH1 0x40 MSTORE DUP1 SWAP3 SWAP2 SWAP1 DUP2 DUP2 MSTORE PUSH1 0x20 ADD DUP3 DUP1 SLOAD PUSH2 0x15BD SWAP1 PUSH2 0x410C JUMP JUMPDEST DUP1 ISZERO PUSH2 0x160A JUMPI DUP1 PUSH1 0x1F LT PUSH2 0x15DF JUMPI PUSH2 0x100 DUP1 DUP4 SLOAD DIV MUL DUP4 MSTORE SWAP2 PUSH1 0x20 ADD SWAP2 PUSH2 0x160A JUMP JUMPDEST DUP3 ADD SWAP2 SWAP1 PUSH1 0x0 MSTORE PUSH1 0x20 PUSH1 0x0 KECCAK256 SWAP1 JUMPDEST DUP2 SLOAD DUP2 MSTORE SWAP1 PUSH1 0x1 ADD SWAP1 PUSH1 0x20 ADD DUP1 DUP4 GT PUSH2 0x15ED JUMPI DUP3 SWAP1 SUB PUSH1 0x1F AND DUP3 ADD SWAP2 JUMPDEST POP POP POP POP POP SWAP1 POP SWAP1 JUMP JUMPDEST PUSH1 0x0 PUSH2 0x161E PUSH2 0x21BC JUMP JUMPDEST SWAP1 POP SWAP1 JUMP JUMPDEST PUSH1 0x0 PUSH2 0x1630 PUSH1 0xB SLOAD PUSH2 0x21CF JUMP JUMPDEST SWAP1 POP SWAP1 JUMP JUMPDEST PUSH1 0x9 SLOAD DUP2 JUMP JUMPDEST PUSH1 0x9 SLOAD DUP2 PUSH2 0x1649 SWAP2 SWAP1 PUSH2 0x471C JUMP JUMPDEST CALLVALUE LT ISZERO PUSH2 0x168B JUMPI PUSH1 0x40 MLOAD PUSH32 0x8C379A000000000000000000000000000000000000000000000000000000000 DUP2 MSTORE PUSH1 0x4 ADD PUSH2 0x1682 SWAP1 PUSH2 0x47AA JUMP JUMPDEST PUSH1 0x40 MLOAD DUP1 SWAP2 SUB SWAP1 REVERT JUMPDEST PUSH2 0x1695 CALLER DUP3 PUSH2 0x21F5 JUMP JUMPDEST POP JUMP JUMPDEST DUP1 PUSH1 0x7 PUSH1 0x0 PUSH2 0x16A5 PUSH2 0x1C14 JUMP JUMPDEST PUSH20 0xFFFFFFFFFFFFFFFFFFFFFFFFFFFFFFFFFFFFFFFF AND PUSH20 0xFFFFFFFFFFFFFFFFFFFFFFFFFFFFFFFFFFFFFFFF AND DUP2 MSTORE PUSH1 0x20 ADD SWAP1 DUP2 MSTORE PUSH1 0x20 ADD PUSH1 0x0 KECCAK256 PUSH1 0x0 DUP5 PUSH20 0xFFFFFFFFFFFFFFFFFFFFFFFFFFFFFFFFFFFFFFFF AND PUSH20 0xFFFFFFFFFFFFFFFFFFFFFFFFFFFFFFFFFFFFFFFF AND DUP2 MSTORE PUSH1 0x20 ADD SWAP1 DUP2 MSTORE PUSH1 0x20 ADD PUSH1 0x0 KECCAK256 PUSH1 0x0 PUSH2 0x100 EXP DUP2 SLOAD DUP2 PUSH1 0xFF MUL NOT AND SWAP1 DUP4 ISZERO ISZERO MUL OR SWAP1 SSTORE POP DUP2 PUSH20 0xFFFFFFFFFFFFFFFFFFFFFFFFFFFFFFFFFFFFFFFF AND PUSH2 0x1752 PUSH2 0x1C14 JUMP JUMPDEST PUSH20 0xFFFFFFFFFFFFFFFFFFFFFFFFFFFFFFFFFFFFFFFF AND PUSH32 0x17307EAB39AB6107E8899845AD3D59BD9653F200F220920489CA2B5937696C31 DUP4 PUSH1 0x40 MLOAD PUSH2 0x1797 SWAP2 SWAP1 PUSH2 0x3AC6 JUMP JUMPDEST PUSH1 0x40 MLOAD DUP1 SWAP2 SUB SWAP1 LOG3 POP POP JUMP JUMPDEST PUSH2 0x17AE DUP5 DUP5 DUP5 PUSH2 0xB3B JUMP JUMPDEST PUSH1 0x0 DUP4 PUSH20 0xFFFFFFFFFFFFFFFFFFFFFFFFFFFFFFFFFFFFFFFF AND EXTCODESIZE EQ PUSH2 0x1810 JUMPI PUSH2 0x17D9 DUP5 DUP5 DUP5 DUP5 PUSH2 0x2341 JUMP JUMPDEST PUSH2 0x180F JUMPI PUSH1 0x40 MLOAD PUSH32 0xD1A57ED600000000000000000000000000000000000000000000000000000000 DUP2 MSTORE PUSH1 0x4 ADD PUSH1 0x40 MLOAD DUP1 SWAP2 SUB SWAP1 REVERT JUMPDEST JUMPDEST POP POP POP POP JUMP JUMPDEST PUSH2 0x181E PUSH2 0x1E78 JUMP JUMPDEST PUSH1 0xA PUSH1 0x0 SWAP1 SLOAD SWAP1 PUSH2 0x100 EXP SWAP1 DIV PUSH1 0xFF AND ISZERO PUSH1 0xA PUSH1 0x0 PUSH2 0x100 EXP DUP2 SLOAD DUP2 PUSH1 0xFF MUL NOT AND SWAP1 DUP4 ISZERO ISZERO MUL OR SWAP1 SSTORE POP JUMP JUMPDEST PUSH1 0xC DUP1 SLOAD PUSH2 0x1857 SWAP1 PUSH2 0x410C JUMP JUMPDEST DUP1 PUSH1 0x1F ADD PUSH1 0x20 DUP1 SWAP2 DIV MUL PUSH1 0x20 ADD PUSH1 0x40 MLOAD SWAP1 DUP2 ADD PUSH1 0x40 MSTORE DUP1 SWAP3 SWAP2 SWAP1 DUP2 DUP2 MSTORE PUSH1 0x20 ADD DUP3 DUP1 SLOAD PUSH2 0x1883 SWAP1 PUSH2 0x410C JUMP JUMPDEST DUP1 ISZERO PUSH2 0x18D0 JUMPI DUP1 PUSH1 0x1F LT PUSH2 0x18A5 JUMPI PUSH2 0x100 DUP1 DUP4 SLOAD DIV MUL DUP4 MSTORE SWAP2 PUSH1 0x20 ADD SWAP2 PUSH2 0x18D0 JUMP JUMPDEST DUP3 ADD SWAP2 SWAP1 PUSH1 0x0 MSTORE PUSH1 0x20 PUSH1 0x0 KECCAK256 SWAP1 JUMPDEST DUP2 SLOAD DUP2 MSTORE SWAP1 PUSH1 0x1 ADD SWAP1 PUSH1 0x20 ADD DUP1 DUP4 GT PUSH2 0x18B3 JUMPI DUP3 SWAP1 SUB PUSH1 0x1F AND DUP3 ADD SWAP2 JUMPDEST POP POP POP POP POP DUP2 JUMP JUMPDEST PUSH1 0x60 PUSH1 0x0 PUSH1 0x60 PUSH2 0x18E7 DUP5 PUSH2 0x1BB5 JUMP JUMPDEST PUSH2 0x1906 JUMPI PUSH1 0x40 MLOAD DUP1 PUSH1 0x20 ADD PUSH1 0x40 MSTORE DUP1 PUSH1 0x0 DUP2 MSTORE POP SWAP1 POP PUSH1 0x1 SWAP2 POP PUSH2 0x1A76 JUMP JUMPDEST PUSH2 0x19BA PUSH1 0xD PUSH1 0x0 DUP7 DUP2 MSTORE PUSH1 0x20 ADD SWAP1 DUP2 MSTORE PUSH1 0x20 ADD PUSH1 0x0 KECCAK256 DUP1 SLOAD PUSH2 0x1927 SWAP1 PUSH2 0x410C JUMP JUMPDEST DUP1 PUSH1 0x1F ADD PUSH1 0x20 DUP1 SWAP2 DIV MUL PUSH1 0x20 ADD PUSH1 0x40 MLOAD SWAP1 DUP2 ADD PUSH1 0x40 MSTORE DUP1 SWAP3 SWAP2 SWAP1 DUP2 DUP2 MSTORE PUSH1 0x20 ADD DUP3 DUP1 SLOAD PUSH2 0x1953 SWAP1 PUSH2 0x410C JUMP JUMPDEST DUP1 ISZERO PUSH2 0x19A0 JUMPI DUP1 PUSH1 0x1F LT PUSH2 0x1975 JUMPI PUSH2 0x100 DUP1 DUP4 SLOAD DIV MUL DUP4 MSTORE SWAP2 PUSH1 0x20 ADD SWAP2 PUSH2 0x19A0 JUMP JUMPDEST DUP3 ADD SWAP2 SWAP1 PUSH1 0x0 MSTORE PUSH1 0x20 PUSH1 0x0 KECCAK256 SWAP1 JUMPDEST DUP2 SLOAD DUP2 MSTORE SWAP1 PUSH1 0x1 ADD SWAP1 PUSH1 0x20 ADD DUP1 DUP4 GT PUSH2 0x1983 JUMPI DUP3 SWAP1 SUB PUSH1 0x1F AND DUP3 ADD SWAP2 JUMPDEST POP POP POP POP POP PUSH1 0x40 MLOAD DUP1 PUSH1 0x20 ADD PUSH1 0x40 MSTORE DUP1 PUSH1 0x0 DUP2 MSTORE POP PUSH2 0x1C1C JUMP JUMPDEST PUSH2 0x1A65 JUMPI PUSH1 0xD PUSH1 0x0 DUP6 DUP2 MSTORE PUSH1 0x20 ADD SWAP1 DUP2 MSTORE PUSH1 0x20 ADD PUSH1 0x0 KECCAK256 DUP1 SLOAD PUSH2 0x19DC SWAP1 PUSH2 0x410C JUMP JUMPDEST DUP1 PUSH1 0x1F ADD PUSH1 0x20 DUP1 SWAP2 DIV MUL PUSH1 0x20 ADD PUSH1 0x40 MLOAD SWAP1 DUP2 ADD PUSH1 0x40 MSTORE DUP1 SWAP3 SWAP2 SWAP1 DUP2 DUP2 MSTORE PUSH1 0x20 ADD DUP3 DUP1 SLOAD PUSH2 0x1A08 SWAP1 PUSH2 0x410C JUMP JUMPDEST DUP1 ISZERO PUSH2 0x1A55 JUMPI DUP1 PUSH1 0x1F LT PUSH2 0x1A2A JUMPI PUSH2 0x100 DUP1 DUP4 SLOAD DIV MUL DUP4 MSTORE SWAP2 PUSH1 0x20 ADD SWAP2 PUSH2 0x1A55 JUMP JUMPDEST DUP3 ADD SWAP2 SWAP1 PUSH1 0x0 MSTORE PUSH1 0x20 PUSH1 0x0 KECCAK256 SWAP1 JUMPDEST DUP2 SLOAD DUP2 MSTORE SWAP1 PUSH1 0x1 ADD SWAP1 PUSH1 0x20 ADD DUP1 DUP4 GT PUSH2 0x1A38 JUMPI DUP3 SWAP1 SUB PUSH1 0x1F AND DUP3 ADD SWAP2 JUMPDEST POP POP POP POP POP SWAP1 POP PUSH1 0x0 SWAP2 POP PUSH2 0x1A75 JUMP JUMPDEST PUSH2 0x1A6E DUP5 PUSH2 0x1C75 JUMP JUMPDEST SWAP1 POP PUSH1 0x0 SWAP2 POP JUMPDEST JUMPDEST PUSH2 0x1A95 DUP5 DUP3 PUSH1 0xE PUSH1 0x0 DUP9 DUP2 MSTORE PUSH1 0x20 ADD SWAP1 DUP2 MSTORE PUSH1 0x20 ADD PUSH1 0x0 KECCAK256 SLOAD DUP6 PUSH2 0x2491 JUMP JUMPDEST SWAP3 POP POP POP SWAP2 SWAP1 POP JUMP JUMPDEST PUSH1 0x0 PUSH1 0x7 PUSH1 0x0 DUP5 PUSH20 0xFFFFFFFFFFFFFFFFFFFFFFFFFFFFFFFFFFFFFFFF AND PUSH20 0xFFFFFFFFFFFFFFFFFFFFFFFFFFFFFFFFFFFFFFFF AND DUP2 MSTORE PUSH1 0x20 ADD SWAP1 DUP2 MSTORE PUSH1 0x20 ADD PUSH1 0x0 KECCAK256 PUSH1 0x0 DUP4 PUSH20 0xFFFFFFFFFFFFFFFFFFFFFFFFFFFFFFFFFFFFFFFF AND PUSH20 0xFFFFFFFFFFFFFFFFFFFFFFFFFFFFFFFFFFFFFFFF AND DUP2 MSTORE PUSH1 0x20 ADD SWAP1 DUP2 MSTORE PUSH1 0x20 ADD PUSH1 0x0 KECCAK256 PUSH1 0x0 SWAP1 SLOAD SWAP1 PUSH2 0x100 EXP SWAP1 DIV PUSH1 0xFF AND SWAP1 POP SWAP3 SWAP2 POP POP JUMP JUMPDEST PUSH2 0x1B3A PUSH2 0x1E78 JUMP JUMPDEST PUSH1 0x0 PUSH20 0xFFFFFFFFFFFFFFFFFFFFFFFFFFFFFFFFFFFFFFFF AND DUP2 PUSH20 0xFFFFFFFFFFFFFFFFFFFFFFFFFFFFFFFFFFFFFFFF AND SUB PUSH2 0x1BA9 JUMPI PUSH1 0x40 MLOAD PUSH32 0x8C379A000000000000000000000000000000000000000000000000000000000 DUP2 MSTORE PUSH1 0x4 ADD PUSH2 0x1BA0 SWAP1 PUSH2 0x483C JUMP JUMPDEST PUSH1 0x40 MLOAD DUP1 SWAP2 SUB SWAP1 REVERT JUMPDEST PUSH2 0x1BB2 DUP2 PUSH2 0x1EF6 JUMP JUMPDEST POP JUMP JUMPDEST PUSH1 0x0 DUP2 PUSH2 0x1BC0 PUSH2 0x1C89 JUMP JUMPDEST GT ISZERO DUP1 ISZERO PUSH2 0x1BCF JUMPI POP PUSH1 0x0 SLOAD DUP3 LT JUMPDEST DUP1 ISZERO PUSH2 0x1C0D JUMPI POP PUSH1 0x0 PUSH29 0x100000000000000000000000000000000000000000000000000000000 PUSH1 0x4 PUSH1 0x0 DUP6 DUP2 MSTORE PUSH1 0x20 ADD SWAP1 DUP2 MSTORE PUSH1 0x20 ADD PUSH1 0x0 KECCAK256 SLOAD AND EQ JUMPDEST SWAP1 POP SWAP2 SWAP1 POP JUMP JUMPDEST PUSH1 0x0 CALLER SWAP1 POP SWAP1 JUMP JUMPDEST PUSH1 0x0 DUP2 PUSH1 0x40 MLOAD PUSH1 0x20 ADD PUSH2 0x1C2F SWAP2 SWAP1 PUSH2 0x485C JUMP JUMPDEST PUSH1 0x40 MLOAD PUSH1 0x20 DUP2 DUP4 SUB SUB DUP2 MSTORE SWAP1 PUSH1 0x40 MSTORE DUP1 MLOAD SWAP1 PUSH1 0x20 ADD KECCAK256 DUP4 PUSH1 0x40 MLOAD PUSH1 0x20 ADD PUSH2 0x1C56 SWAP2 SWAP1 PUSH2 0x485C JUMP JUMPDEST PUSH1 0x40 MLOAD PUSH1 0x20 DUP2 DUP4 SUB SUB DUP2 MSTORE SWAP1 PUSH1 0x40 MSTORE DUP1 MLOAD SWAP1 PUSH1 0x20 ADD KECCAK256 EQ SWAP1 POP SWAP3 SWAP2 POP POP JUMP JUMPDEST PUSH1 0x60 PUSH2 0x1C82 DUP3 PUSH1 0x1 PUSH2 0x1FBC JUMP JUMPDEST SWAP1 POP SWAP2 SWAP1 POP JUMP JUMPDEST PUSH1 0x0 PUSH1 0x1 SWAP1 POP SWAP1 JUMP JUMPDEST PUSH1 0x0 DUP1 DUP3 SWAP1 POP DUP1 PUSH2 0x1CA1 PUSH2 0x1C89 JUMP JUMPDEST GT PUSH2 0x1D27 JUMPI PUSH1 0x0 SLOAD DUP2 LT ISZERO PUSH2 0x1D26 JUMPI PUSH1 0x0 PUSH1 0x4 PUSH1 0x0 DUP4 DUP2 MSTORE PUSH1 0x20 ADD SWAP1 DUP2 MSTORE PUSH1 0x20 ADD PUSH1 0x0 KECCAK256 SLOAD SWAP1 POP PUSH1 0x0 PUSH29 0x100000000000000000000000000000000000000000000000000000000 DUP3 AND SUB PUSH2 0x1D24 JUMPI JUMPDEST PUSH1 0x0 DUP2 SUB PUSH2 0x1D1A JUMPI PUSH1 0x4 PUSH1 0x0 DUP4 PUSH1 0x1 SWAP1 SUB SWAP4 POP DUP4 DUP2 MSTORE PUSH1 0x20 ADD SWAP1 DUP2 MSTORE PUSH1 0x20 ADD PUSH1 0x0 KECCAK256 SLOAD SWAP1 POP PUSH2 0x1CF0 JUMP JUMPDEST DUP1 SWAP3 POP POP POP PUSH2 0x1D59 JUMP JUMPDEST POP JUMPDEST JUMPDEST PUSH1 0x40 MLOAD PUSH32 0xDF2D9B4200000000000000000000000000000000000000000000000000000000 DUP2 MSTORE PUSH1 0x4 ADD PUSH1 0x40 MLOAD DUP1 SWAP2 SUB SWAP1 REVERT JUMPDEST SWAP2 SWAP1 POP JUMP JUMPDEST PUSH1 0x0 DUP1 PUSH1 0x0 PUSH1 0x6 PUSH1 0x0 DUP6 DUP2 MSTORE PUSH1 0x20 ADD SWAP1 DUP2 MSTORE PUSH1 0x20 ADD PUSH1 0x0 KECCAK256 SWAP1 POP DUP1 SWAP3 POP DUP3 SLOAD SWAP2 POP POP SWAP2 POP SWAP2 JUMP JUMPDEST PUSH1 0x0 PUSH20 0xFFFFFFFFFFFFFFFFFFFFFFFFFFFFFFFFFFFFFFFF DUP4 AND SWAP3 POP PUSH20 0xFFFFFFFFFFFFFFFFFFFFFFFFFFFFFFFFFFFFFFFF DUP3 AND SWAP2 POP DUP4 DUP3 EQ DUP4 DUP4 EQ OR SWAP1 POP SWAP4 SWAP3 POP POP POP JUMP JUMPDEST POP POP POP POP JUMP JUMPDEST PUSH1 0x0 DUP1 PUSH1 0xE8 DUP4 SWAP1 SHR SWAP1 POP PUSH1 0xE8 PUSH2 0x1DE6 DUP7 DUP7 DUP5 PUSH2 0x25CF JUMP JUMPDEST PUSH3 0xFFFFFF AND SWAP1 SHL SWAP2 POP POP SWAP4 SWAP3 POP POP POP JUMP JUMPDEST PUSH1 0x0 PUSH20 0xFFFFFFFFFFFFFFFFFFFFFFFFFFFFFFFFFFFFFFFF DUP4 AND SWAP3 POP DUP2 TIMESTAMP PUSH1 0xA0 SHL OR DUP4 OR SWAP1 POP SWAP3 SWAP2 POP POP JUMP JUMPDEST POP POP POP POP JUMP JUMPDEST PUSH2 0x1E33 DUP2 PUSH1 0x0 PUSH2 0x25D8 JUMP JUMPDEST POP JUMP JUMPDEST PUSH1 0x0 DUP3 DUP5 DUP4 PUSH1 0x40 MLOAD PUSH1 0x20 ADD PUSH2 0x1E4C SWAP3 SWAP2 SWAP1 PUSH2 0x4894 JUMP JUMPDEST PUSH1 0x40 MLOAD PUSH1 0x20 DUP2 DUP4 SUB SUB DUP2 MSTORE SWAP1 PUSH1 0x40 MSTORE DUP1 MLOAD SWAP1 PUSH1 0x20 ADD KECCAK256 PUSH1 0x0 SHR PUSH2 0x1E6F SWAP2 SWAP1 PUSH2 0x48EF JUMP JUMPDEST SWAP1 POP SWAP4 SWAP3 POP POP POP JUMP JUMPDEST PUSH2 0x1E80 PUSH2 0x282A JUMP JUMPDEST PUSH20 0xFFFFFFFFFFFFFFFFFFFFFFFFFFFFFFFFFFFFFFFF AND PUSH2 0x1E9E PUSH2 0x1534 JUMP JUMPDEST PUSH20 0xFFFFFFFFFFFFFFFFFFFFFFFFFFFFFFFFFFFFFFFF AND EQ PUSH2 0x1EF4 JUMPI PUSH1 0x40 MLOAD PUSH32 0x8C379A000000000000000000000000000000000000000000000000000000000 DUP2 MSTORE PUSH1 0x4 ADD PUSH2 0x1EEB SWAP1 PUSH2 0x496C JUMP JUMPDEST PUSH1 0x40 MLOAD DUP1 SWAP2 SUB SWAP1 REVERT JUMPDEST JUMP JUMPDEST PUSH1 0x0 PUSH1 0x8 PUSH1 0x0 SWAP1 SLOAD SWAP1 PUSH2 0x100 EXP SWAP1 DIV PUSH20 0xFFFFFFFFFFFFFFFFFFFFFFFFFFFFFFFFFFFFFFFF AND SWAP1 POP DUP2 PUSH1 0x8 PUSH1 0x0 PUSH2 0x100 EXP DUP2 SLOAD DUP2 PUSH20 0xFFFFFFFFFFFFFFFFFFFFFFFFFFFFFFFFFFFFFFFF MUL NOT AND SWAP1 DUP4 PUSH20 0xFFFFFFFFFFFFFFFFFFFFFFFFFFFFFFFFFFFFFFFF AND MUL OR SWAP1 SSTORE POP DUP2 PUSH20 0xFFFFFFFFFFFFFFFFFFFFFFFFFFFFFFFFFFFFFFFF AND DUP2 PUSH20 0xFFFFFFFFFFFFFFFFFFFFFFFFFFFFFFFFFFFFFFFF AND PUSH32 0x8BE0079C531659141344CD1FD0A4F28419497F9722A3DAAFE3B4186F6B6457E0 PUSH1 0x40 MLOAD PUSH1 0x40 MLOAD DUP1 SWAP2 SUB SWAP1 LOG3 POP POP JUMP JUMPDEST PUSH1 0x60 PUSH1 0x4 DUP3 GT ISZERO PUSH2 0x2002 JUMPI PUSH1 0x40 MLOAD PUSH32 0x8C379A000000000000000000000000000000000000000000000000000000000 DUP2 MSTORE PUSH1 0x4 ADD PUSH2 0x1FF9 SWAP1 PUSH2 0x49D8 JUMP JUMPDEST PUSH1 0x40 MLOAD DUP1 SWAP2 SUB SWAP1 REVERT JUMPDEST PUSH1 0x1 DUP3 LT ISZERO PUSH2 0x2046 JUMPI PUSH1 0x40 MLOAD PUSH32 0x8C379A000000000000000000000000000000000000000000000000000000000 DUP2 MSTORE PUSH1 0x4 ADD PUSH2 0x203D SWAP1 PUSH2 0x4A44 JUMP JUMPDEST PUSH1 0x40 MLOAD DUP1 SWAP2 SUB SWAP1 REVERT JUMPDEST PUSH1 0x0 DUP3 PUSH8 0xFFFFFFFFFFFFFFFF DUP2 GT ISZERO PUSH2 0x2062 JUMPI PUSH2 0x2061 PUSH2 0x3D40 JUMP JUMPDEST JUMPDEST PUSH1 0x40 MLOAD SWAP1 DUP1 DUP3 MSTORE DUP1 PUSH1 0x1F ADD PUSH1 0x1F NOT AND PUSH1 0x20 ADD DUP3 ADD PUSH1 0x40 MSTORE DUP1 ISZERO PUSH2 0x2094 JUMPI DUP2 PUSH1 0x20 ADD PUSH1 0x1 DUP3 MUL DUP1 CALLDATASIZE DUP4 CALLDATACOPY DUP1 DUP3 ADD SWAP2 POP POP SWAP1 POP JUMPDEST POP SWAP1 POP PUSH1 0x0 PUSH1 0xA PUSH8 0xFFFFFFFFFFFFFFFF DUP2 GT ISZERO PUSH2 0x20B4 JUMPI PUSH2 0x20B3 PUSH2 0x3D40 JUMP JUMPDEST JUMPDEST PUSH1 0x40 MLOAD SWAP1 DUP1 DUP3 MSTORE DUP1 PUSH1 0x1F ADD PUSH1 0x1F NOT AND PUSH1 0x20 ADD DUP3 ADD PUSH1 0x40 MSTORE DUP1 ISZERO PUSH2 0x20E6 JUMPI DUP2 PUSH1 0x20 ADD PUSH1 0x1 DUP3 MUL DUP1 CALLDATASIZE DUP4 CALLDATACOPY DUP1 DUP3 ADD SWAP2 POP POP SWAP1 POP JUMPDEST POP SWAP1 POP PUSH1 0x40 MLOAD DUP1 PUSH1 0x40 ADD PUSH1 0x40 MSTORE DUP1 PUSH1 0xA DUP2 MSTORE PUSH1 0x20 ADD PUSH32 0x3031323334353637383900000000000000000000000000000000000000000000 DUP2 MSTORE POP SWAP1 POP PUSH1 0x0 JUMPDEST DUP5 DUP2 LT ISZERO PUSH2 0x21B0 JUMPI PUSH1 0x0 PUSH2 0x213A DUP8 PUSH1 0xA DUP5 PUSH2 0x1E36 JUMP JUMPDEST SWAP1 POP DUP3 DUP2 DUP2 MLOAD DUP2 LT PUSH2 0x214F JUMPI PUSH2 0x214E PUSH2 0x41A9 JUMP JUMPDEST JUMPDEST PUSH1 0x20 ADD ADD MLOAD PUSH1 0xF8 SHR PUSH1 0xF8 SHL DUP5 DUP4 DUP2 MLOAD DUP2 LT PUSH2 0x216D JUMPI PUSH2 0x216C PUSH2 0x41A9 JUMP JUMPDEST JUMPDEST PUSH1 0x20 ADD ADD SWAP1 PUSH31 0xFFFFFFFFFFFFFFFFFFFFFFFFFFFFFFFFFFFFFFFFFFFFFFFFFFFFFFFFFFFFFF NOT AND SWAP1 DUP2 PUSH1 0x0 BYTE SWAP1 MSTORE8 POP POP DUP1 DUP1 PUSH2 0x21A8 SWAP1 PUSH2 0x42D3 JUMP JUMPDEST SWAP2 POP POP PUSH2 0x2124 JUMP JUMPDEST POP DUP2 SWAP3 POP POP POP SWAP3 SWAP2 POP POP JUMP JUMPDEST PUSH1 0x0 PUSH2 0x21C6 PUSH2 0x1C89 JUMP JUMPDEST PUSH1 0x0 SLOAD SUB SWAP1 POP SWAP1 JUMP JUMPDEST PUSH1 0x0 DUP2 TIMESTAMP GT PUSH2 0x21EB JUMPI TIMESTAMP DUP3 PUSH2 0x21E4 SWAP2 SWAP1 PUSH2 0x4A64 JUMP JUMPDEST SWAP1 POP PUSH2 0x21F0 JUMP JUMPDEST PUSH1 0x0 SWAP1 POP JUMPDEST SWAP2 SWAP1 POP JUMP JUMPDEST PUSH1 0x0 PUSH2 0x21FF PUSH2 0x21BC JUMP JUMPDEST SWAP1 POP PUSH2 0x3E8 DUP2 LT PUSH2 0x22CE JUMPI PUSH1 0x0 PUSH2 0x2217 PUSH1 0xB SLOAD PUSH2 0x21CF JUMP JUMPDEST GT PUSH2 0x2257 JUMPI PUSH1 0x40 MLOAD PUSH32 0x8C379A000000000000000000000000000000000000000000000000000000000 DUP2 MSTORE PUSH1 0x4 ADD PUSH2 0x224E SWAP1 PUSH2 0x4AE4 JUMP JUMPDEST PUSH1 0x40 MLOAD DUP1 SWAP2 SUB SWAP1 REVERT JUMPDEST PUSH2 0x1388 DUP2 LT DUP1 ISZERO PUSH2 0x2275 JUMPI POP PUSH2 0x1388 DUP3 DUP3 PUSH2 0x2272 SWAP2 SWAP1 PUSH2 0x4B04 JUMP JUMPDEST LT ISZERO JUMPDEST ISZERO PUSH2 0x22C9 JUMPI PUSH3 0x15180 TIMESTAMP PUSH2 0x2289 SWAP2 SWAP1 PUSH2 0x4B04 JUMP JUMPDEST PUSH1 0xB DUP2 SWAP1 SSTORE POP PUSH32 0xF5B316BF09D21E0058EB23BE118A6B81BD52674B4CB843E0F446B986CE22433E PUSH1 0xB SLOAD PUSH1 0x40 MLOAD PUSH2 0x22C0 SWAP2 SWAP1 PUSH2 0x3CCD JUMP JUMPDEST PUSH1 0x40 MLOAD DUP1 SWAP2 SUB SWAP1 LOG1 JUMPDEST PUSH2 0x2332 JUMP JUMPDEST PUSH2 0x3E8 DUP3 DUP3 PUSH2 0x22DD SWAP2 SWAP1 PUSH2 0x4B04 JUMP JUMPDEST LT PUSH2 0x2331 JUMPI PUSH3 0x15180 TIMESTAMP PUSH2 0x22F1 SWAP2 SWAP1 PUSH2 0x4B04 JUMP JUMPDEST PUSH1 0xB DUP2 SWAP1 SSTORE POP PUSH32 0xF5B316BF09D21E0058EB23BE118A6B81BD52674B4CB843E0F446B986CE22433E PUSH1 0xB SLOAD PUSH1 0x40 MLOAD PUSH2 0x2328 SWAP2 SWAP1 PUSH2 0x3CCD JUMP JUMPDEST PUSH1 0x40 MLOAD DUP1 SWAP2 SUB SWAP1 LOG1 JUMPDEST JUMPDEST PUSH2 0x233C DUP4 DUP4 PUSH2 0x2832 JUMP JUMPDEST POP POP POP JUMP JUMPDEST PUSH1 0x0 DUP4 PUSH20 0xFFFFFFFFFFFFFFFFFFFFFFFFFFFFFFFFFFFFFFFF AND PUSH4 0x150B7A02 PUSH2 0x2367 PUSH2 0x1C14 JUMP JUMPDEST DUP8 DUP7 DUP7 PUSH1 0x40 MLOAD DUP6 PUSH4 0xFFFFFFFF AND PUSH1 0xE0 SHL DUP2 MSTORE PUSH1 0x4 ADD PUSH2 0x2389 SWAP5 SWAP4 SWAP3 SWAP2 SWAP1 PUSH2 0x4B8D JUMP JUMPDEST PUSH1 0x20 PUSH1 0x40 MLOAD DUP1 DUP4 SUB DUP2 PUSH1 0x0 DUP8 GAS CALL SWAP3 POP POP POP DUP1 ISZERO PUSH2 0x23C5 JUMPI POP PUSH1 0x40 MLOAD RETURNDATASIZE PUSH1 0x1F NOT PUSH1 0x1F DUP3 ADD AND DUP3 ADD DUP1 PUSH1 0x40 MSTORE POP DUP2 ADD SWAP1 PUSH2 0x23C2 SWAP2 SWAP1 PUSH2 0x4BEE JUMP JUMPDEST PUSH1 0x1 JUMPDEST PUSH2 0x243E JUMPI RETURNDATASIZE DUP1 PUSH1 0x0 DUP2 EQ PUSH2 0x23F5 JUMPI PUSH1 0x40 MLOAD SWAP2 POP PUSH1 0x1F NOT PUSH1 0x3F RETURNDATASIZE ADD AND DUP3 ADD PUSH1 0x40 MSTORE RETURNDATASIZE DUP3 MSTORE RETURNDATASIZE PUSH1 0x0 PUSH1 0x20 DUP5 ADD RETURNDATACOPY PUSH2 0x23FA JUMP JUMPDEST PUSH1 0x60 SWAP2 POP JUMPDEST POP PUSH1 0x0 DUP2 MLOAD SUB PUSH2 0x2436 JUMPI PUSH1 0x40 MLOAD PUSH32 0xD1A57ED600000000000000000000000000000000000000000000000000000000 DUP2 MSTORE PUSH1 0x4 ADD PUSH1 0x40 MLOAD DUP1 SWAP2 SUB SWAP1 REVERT JUMPDEST DUP1 MLOAD DUP2 PUSH1 0x20 ADD REVERT JUMPDEST PUSH4 0x150B7A02 PUSH1 0xE0 SHL PUSH28 0xFFFFFFFFFFFFFFFFFFFFFFFFFFFFFFFFFFFFFFFFFFFFFFFFFFFFFFFF NOT AND DUP2 PUSH28 0xFFFFFFFFFFFFFFFFFFFFFFFFFFFFFFFFFFFFFFFFFFFFFFFFFFFFFFFF NOT AND EQ SWAP2 POP POP SWAP5 SWAP4 POP POP POP POP JUMP JUMPDEST PUSH1 0x60 PUSH1 0x0 PUSH2 0x249F DUP7 DUP6 PUSH2 0x29ED JUMP JUMPDEST SWAP1 POP PUSH1 0x60 DUP4 ISZERO PUSH2 0x24EB JUMPI PUSH2 0x24B2 DUP8 PUSH2 0x2AD4 JUMP JUMPDEST PUSH2 0x24C4 PUSH2 0x24BF DUP9 DUP6 PUSH2 0x2C5C JUMP JUMPDEST PUSH2 0x2F6B JUMP JUMPDEST PUSH1 0x40 MLOAD PUSH1 0x20 ADD PUSH2 0x24D5 SWAP3 SWAP2 SWAP1 PUSH2 0x4D97 JUMP JUMPDEST PUSH1 0x40 MLOAD PUSH1 0x20 DUP2 DUP4 SUB SUB DUP2 MSTORE SWAP1 PUSH1 0x40 MSTORE SWAP1 POP PUSH2 0x259B JUMP JUMPDEST PUSH2 0x24F4 DUP8 PUSH2 0x2AD4 JUMP JUMPDEST DUP7 PUSH2 0x24FE DUP8 PUSH2 0x30CE JUMP JUMPDEST PUSH2 0x251F DUP6 PUSH1 0x0 PUSH1 0x3 DUP2 LT PUSH2 0x2515 JUMPI PUSH2 0x2514 PUSH2 0x41A9 JUMP JUMPDEST JUMPDEST PUSH1 0x20 MUL ADD MLOAD PUSH2 0x2AD4 JUMP JUMPDEST PUSH2 0x2540 DUP7 PUSH1 0x1 PUSH1 0x3 DUP2 LT PUSH2 0x2536 JUMPI PUSH2 0x2535 PUSH2 0x41A9 JUMP JUMPDEST JUMPDEST PUSH1 0x20 MUL ADD MLOAD PUSH2 0x2AD4 JUMP JUMPDEST PUSH2 0x2561 DUP8 PUSH1 0x2 PUSH1 0x3 DUP2 LT PUSH2 0x2557 JUMPI PUSH2 0x2556 PUSH2 0x41A9 JUMP JUMPDEST JUMPDEST PUSH1 0x20 MUL ADD MLOAD PUSH2 0x2AD4 JUMP JUMPDEST PUSH2 0x2573 PUSH2 0x256E DUP14 DUP11 PUSH2 0x2C5C JUMP JUMPDEST PUSH2 0x2F6B JUMP JUMPDEST PUSH1 0x40 MLOAD PUSH1 0x20 ADD PUSH2 0x2589 SWAP8 SWAP7 SWAP6 SWAP5 SWAP4 SWAP3 SWAP2 SWAP1 PUSH2 0x5062 JUMP JUMPDEST PUSH1 0x40 MLOAD PUSH1 0x20 DUP2 DUP4 SUB SUB DUP2 MSTORE SWAP1 PUSH1 0x40 MSTORE SWAP1 POP JUMPDEST PUSH2 0x25A4 DUP2 PUSH2 0x2F6B JUMP JUMPDEST PUSH1 0x40 MLOAD PUSH1 0x20 ADD PUSH2 0x25B4 SWAP2 SWAP1 PUSH2 0x516B JUMP JUMPDEST PUSH1 0x40 MLOAD PUSH1 0x20 DUP2 DUP4 SUB SUB DUP2 MSTORE SWAP1 PUSH1 0x40 MSTORE SWAP3 POP POP POP SWAP5 SWAP4 POP POP POP POP JUMP JUMPDEST PUSH1 0x0 SWAP4 SWAP3 POP POP POP JUMP JUMPDEST PUSH1 0x0 PUSH2 0x25E3 DUP4 PUSH2 0x1C92 JUMP JUMPDEST SWAP1 POP PUSH1 0x0 DUP2 SWAP1 POP PUSH1 0x0 DUP1 PUSH2 0x25F6 DUP7 PUSH2 0x1D5E JUMP JUMPDEST SWAP2 POP SWAP2 POP DUP5 ISZERO PUSH2 0x265F JUMPI PUSH2 0x2612 DUP2 DUP5 PUSH2 0x260D PUSH2 0x1C14 JUMP JUMPDEST PUSH2 0x1D85 JUMP JUMPDEST PUSH2 0x265E JUMPI PUSH2 0x2627 DUP4 PUSH2 0x2622 PUSH2 0x1C14 JUMP JUMPDEST PUSH2 0x1A9E JUMP JUMPDEST PUSH2 0x265D JUMPI PUSH1 0x40 MLOAD PUSH32 0x59C896BE00000000000000000000000000000000000000000000000000000000 DUP2 MSTORE PUSH1 0x4 ADD PUSH1 0x40 MLOAD DUP1 SWAP2 SUB SWAP1 REVERT JUMPDEST JUMPDEST JUMPDEST PUSH2 0x266D DUP4 PUSH1 0x0 DUP9 PUSH1 0x1 PUSH2 0x1DC9 JUMP JUMPDEST DUP1 ISZERO PUSH2 0x2678 JUMPI PUSH1 0x0 DUP3 SSTORE JUMPDEST PUSH1 0x1 PUSH1 0x80 PUSH1 0x1 SWAP1 SHL SUB PUSH1 0x5 PUSH1 0x0 DUP6 PUSH20 0xFFFFFFFFFFFFFFFFFFFFFFFFFFFFFFFFFFFFFFFF AND PUSH20 0xFFFFFFFFFFFFFFFFFFFFFFFFFFFFFFFFFFFFFFFF AND DUP2 MSTORE PUSH1 0x20 ADD SWAP1 DUP2 MSTORE PUSH1 0x20 ADD PUSH1 0x0 KECCAK256 PUSH1 0x0 DUP3 DUP3 SLOAD ADD SWAP3 POP POP DUP2 SWAP1 SSTORE POP PUSH2 0x2720 DUP4 PUSH2 0x26DD DUP6 PUSH1 0x0 DUP9 PUSH2 0x1DCF JUMP JUMPDEST PUSH29 0x200000000000000000000000000000000000000000000000000000000 PUSH29 0x100000000000000000000000000000000000000000000000000000000 OR OR PUSH2 0x1DF7 JUMP JUMPDEST PUSH1 0x4 PUSH1 0x0 DUP9 DUP2 MSTORE PUSH1 0x20 ADD SWAP1 DUP2 MSTORE PUSH1 0x20 ADD PUSH1 0x0 KECCAK256 DUP2 SWAP1 SSTORE POP PUSH1 0x0 PUSH29 0x200000000000000000000000000000000000000000000000000000000 DUP6 AND SUB PUSH2 0x27A6 JUMPI PUSH1 0x0 PUSH1 0x1 DUP8 ADD SWAP1 POP PUSH1 0x0 PUSH1 0x4 PUSH1 0x0 DUP4 DUP2 MSTORE PUSH1 0x20 ADD SWAP1 DUP2 MSTORE PUSH1 0x20 ADD PUSH1 0x0 KECCAK256 SLOAD SUB PUSH2 0x27A4 JUMPI PUSH1 0x0 SLOAD DUP2 EQ PUSH2 0x27A3 JUMPI DUP5 PUSH1 0x4 PUSH1 0x0 DUP4 DUP2 MSTORE PUSH1 0x20 ADD SWAP1 DUP2 MSTORE PUSH1 0x20 ADD PUSH1 0x0 KECCAK256 DUP2 SWAP1 SSTORE POP JUMPDEST JUMPDEST POP JUMPDEST DUP6 PUSH1 0x0 PUSH20 0xFFFFFFFFFFFFFFFFFFFFFFFFFFFFFFFFFFFFFFFF AND DUP5 PUSH20 0xFFFFFFFFFFFFFFFFFFFFFFFFFFFFFFFFFFFFFFFF AND PUSH32 0xDDF252AD1BE2C89B69C2B068FC378DAA952BA7F163C4A11628F55A4DF523B3EF PUSH1 0x40 MLOAD PUSH1 0x40 MLOAD DUP1 SWAP2 SUB SWAP1 LOG4 PUSH2 0x2810 DUP4 PUSH1 0x0 DUP9 PUSH1 0x1 PUSH2 0x1E22 JUMP JUMPDEST PUSH1 0x1 PUSH1 0x0 DUP2 SLOAD DUP1 SWAP3 SWAP2 SWAP1 PUSH1 0x1 ADD SWAP2 SWAP1 POP SSTORE POP POP POP POP POP POP POP JUMP JUMPDEST PUSH1 0x0 CALLER SWAP1 POP SWAP1 JUMP JUMPDEST PUSH1 0x0 DUP1 SLOAD SWAP1 POP PUSH1 0x0 DUP3 SUB PUSH2 0x2872 JUMPI PUSH1 0x40 MLOAD PUSH32 0xB562E8DD00000000000000000000000000000000000000000000000000000000 DUP2 MSTORE PUSH1 0x4 ADD PUSH1 0x40 MLOAD DUP1 SWAP2 SUB SWAP1 REVERT JUMPDEST PUSH2 0x287F PUSH1 0x0 DUP5 DUP4 DUP6 PUSH2 0x1DC9 JUMP JUMPDEST PUSH1 0x1 PUSH1 0x40 PUSH1 0x1 SWAP1 SHL OR DUP3 MUL PUSH1 0x5 PUSH1 0x0 DUP6 PUSH20 0xFFFFFFFFFFFFFFFFFFFFFFFFFFFFFFFFFFFFFFFF AND PUSH20 0xFFFFFFFFFFFFFFFFFFFFFFFFFFFFFFFFFFFFFFFF AND DUP2 MSTORE PUSH1 0x20 ADD SWAP1 DUP2 MSTORE PUSH1 0x20 ADD PUSH1 0x0 KECCAK256 PUSH1 0x0 DUP3 DUP3 SLOAD ADD SWAP3 POP POP DUP2 SWAP1 SSTORE POP PUSH2 0x28F6 DUP4 PUSH2 0x28E7 PUSH1 0x0 DUP7 PUSH1 0x0 PUSH2 0x1DCF JUMP JUMPDEST PUSH2 0x28F0 DUP6 PUSH2 0x31E9 JUMP JUMPDEST OR PUSH2 0x1DF7 JUMP JUMPDEST PUSH1 0x4 PUSH1 0x0 DUP4 DUP2 MSTORE PUSH1 0x20 ADD SWAP1 DUP2 MSTORE PUSH1 0x20 ADD PUSH1 0x0 KECCAK256 DUP2 SWAP1 SSTORE POP PUSH1 0x0 DUP1 DUP4 DUP4 ADD SWAP1 POP PUSH20 0xFFFFFFFFFFFFFFFFFFFFFFFFFFFFFFFFFFFFFFFF DUP6 AND SWAP2 POP DUP3 DUP3 PUSH1 0x0 PUSH32 0xDDF252AD1BE2C89B69C2B068FC378DAA952BA7F163C4A11628F55A4DF523B3EF PUSH1 0x0 DUP1 LOG4 PUSH1 0x1 DUP4 ADD JUMPDEST DUP2 DUP2 EQ PUSH2 0x2997 JUMPI DUP1 DUP4 PUSH1 0x0 PUSH32 0xDDF252AD1BE2C89B69C2B068FC378DAA952BA7F163C4A11628F55A4DF523B3EF PUSH1 0x0 DUP1 LOG4 PUSH1 0x1 DUP2 ADD SWAP1 POP PUSH2 0x295C JUMP JUMPDEST POP PUSH1 0x0 DUP3 SUB PUSH2 0x29D2 JUMPI PUSH1 0x40 MLOAD PUSH32 0x2E07630000000000000000000000000000000000000000000000000000000000 DUP2 MSTORE PUSH1 0x4 ADD PUSH1 0x40 MLOAD DUP1 SWAP2 SUB SWAP1 REVERT JUMPDEST DUP1 PUSH1 0x0 DUP2 SWAP1 SSTORE POP POP POP PUSH2 0x29E8 PUSH1 0x0 DUP5 DUP4 DUP6 PUSH2 0x1E22 JUMP JUMPDEST POP POP POP JUMP JUMPDEST PUSH2 0x29F5 PUSH2 0x39C8 JUMP JUMPDEST PUSH1 0x0 DUP3 GT ISZERO PUSH2 0x2A8F JUMPI PUSH1 0x0 JUMPDEST PUSH1 0x3 DUP2 LT ISZERO PUSH2 0x2A89 JUMPI PUSH1 0x1 DUP2 PUSH2 0x2A17 SWAP2 SWAP1 PUSH2 0x4B04 JUMP JUMPDEST DUP4 SUB PUSH2 0x2A40 JUMPI PUSH1 0xFF DUP3 DUP3 PUSH1 0x3 DUP2 LT PUSH2 0x2A32 JUMPI PUSH2 0x2A31 PUSH2 0x41A9 JUMP JUMPDEST JUMPDEST PUSH1 0x20 MUL ADD DUP2 DUP2 MSTORE POP POP PUSH2 0x2A76 JUMP JUMPDEST PUSH2 0x2A59 DUP2 DUP6 PUSH2 0x2A4F SWAP2 SWAP1 PUSH2 0x4B04 JUMP JUMPDEST PUSH1 0x0 PUSH2 0x100 PUSH2 0x31F9 JUMP JUMPDEST DUP3 DUP3 PUSH1 0x3 DUP2 LT PUSH2 0x2A6C JUMPI PUSH2 0x2A6B PUSH2 0x41A9 JUMP JUMPDEST JUMPDEST PUSH1 0x20 MUL ADD DUP2 DUP2 MSTORE POP POP JUMPDEST DUP1 DUP1 PUSH2 0x2A81 SWAP1 PUSH2 0x42D3 JUMP JUMPDEST SWAP2 POP POP PUSH2 0x2A01 JUMP JUMPDEST POP PUSH2 0x2ACE JUMP JUMPDEST PUSH1 0x0 JUMPDEST PUSH1 0x3 DUP2 LT ISZERO PUSH2 0x2ACC JUMPI PUSH1 0xFF DUP3 DUP3 PUSH1 0x3 DUP2 LT PUSH2 0x2AB0 JUMPI PUSH2 0x2AAF PUSH2 0x41A9 JUMP JUMPDEST JUMPDEST PUSH1 0x20 MUL ADD DUP2 DUP2 MSTORE POP POP DUP1 DUP1 PUSH2 0x2AC4 SWAP1 PUSH2 0x42D3 JUMP JUMPDEST SWAP2 POP POP PUSH2 0x2A92 JUMP JUMPDEST POP JUMPDEST SWAP3 SWAP2 POP POP JUMP JUMPDEST PUSH1 0x60 PUSH1 0x0 DUP3 SUB PUSH2 0x2B1B JUMPI PUSH1 0x40 MLOAD DUP1 PUSH1 0x40 ADD PUSH1 0x40 MSTORE DUP1 PUSH1 0x1 DUP2 MSTORE PUSH1 0x20 ADD PUSH32 0x3000000000000000000000000000000000000000000000000000000000000000 DUP2 MSTORE POP SWAP1 POP PUSH2 0x2C57 JUMP JUMPDEST PUSH1 0x0 DUP3 SWAP1 POP PUSH1 0x0 JUMPDEST PUSH1 0x0 DUP3 EQ PUSH2 0x2B4D JUMPI DUP1 DUP1 PUSH2 0x2B36 SWAP1 PUSH2 0x42D3 JUMP JUMPDEST SWAP2 POP POP PUSH1 0xA DUP3 PUSH2 0x2B46 SWAP2 SWAP1 PUSH2 0x518D JUMP JUMPDEST SWAP2 POP PUSH2 0x2B23 JUMP JUMPDEST PUSH1 0x0 DUP2 PUSH8 0xFFFFFFFFFFFFFFFF DUP2 GT ISZERO PUSH2 0x2B69 JUMPI PUSH2 0x2B68 PUSH2 0x3D40 JUMP JUMPDEST JUMPDEST PUSH1 0x40 MLOAD SWAP1 DUP1 DUP3 MSTORE DUP1 PUSH1 0x1F ADD PUSH1 0x1F NOT AND PUSH1 0x20 ADD DUP3 ADD PUSH1 0x40 MSTORE DUP1 ISZERO PUSH2 0x2B9B JUMPI DUP2 PUSH1 0x20 ADD PUSH1 0x1 DUP3 MUL DUP1 CALLDATASIZE DUP4 CALLDATACOPY DUP1 DUP3 ADD SWAP2 POP POP SWAP1 POP JUMPDEST POP SWAP1 POP PUSH1 0x0 DUP3 SWAP1 POP JUMPDEST PUSH1 0x0 DUP7 EQ PUSH2 0x2C4F JUMPI PUSH1 0x1 DUP2 PUSH2 0x2BB9 SWAP2 SWAP1 PUSH2 0x4A64 JUMP JUMPDEST SWAP1 POP PUSH1 0x0 PUSH1 0xA DUP1 DUP9 PUSH2 0x2BCB SWAP2 SWAP1 PUSH2 0x518D JUMP JUMPDEST PUSH2 0x2BD5 SWAP2 SWAP1 PUSH2 0x471C JUMP JUMPDEST DUP8 PUSH2 0x2BE0 SWAP2 SWAP1 PUSH2 0x4A64 JUMP JUMPDEST PUSH1 0x30 PUSH2 0x2BEC SWAP2 SWAP1 PUSH2 0x51CB JUMP JUMPDEST SWAP1 POP PUSH1 0x0 DUP2 PUSH1 0xF8 SHL SWAP1 POP DUP1 DUP5 DUP5 DUP2 MLOAD DUP2 LT PUSH2 0x2C0A JUMPI PUSH2 0x2C09 PUSH2 0x41A9 JUMP JUMPDEST JUMPDEST PUSH1 0x20 ADD ADD SWAP1 PUSH31 0xFFFFFFFFFFFFFFFFFFFFFFFFFFFFFFFFFFFFFFFFFFFFFFFFFFFFFFFFFFFFFF NOT AND SWAP1 DUP2 PUSH1 0x0 BYTE SWAP1 MSTORE8 POP PUSH1 0xA DUP9 PUSH2 0x2C46 SWAP2 SWAP1 PUSH2 0x518D JUMP JUMPDEST SWAP8 POP POP POP PUSH2 0x2BA4 JUMP JUMPDEST DUP2 SWAP5 POP POP POP POP POP JUMPDEST SWAP2 SWAP1 POP JUMP JUMPDEST PUSH1 0x60 PUSH1 0x40 MLOAD DUP1 PUSH2 0xC40 ADD PUSH1 0x40 MSTORE DUP1 PUSH2 0xC19 DUP2 MSTORE PUSH1 0x20 ADD PUSH2 0x5E26 PUSH2 0xC19 SWAP2 CODECOPY SWAP1 POP PUSH1 0x0 PUSH2 0x2C9F DUP4 PUSH1 0x0 PUSH1 0x3 DUP2 LT PUSH2 0x2C95 JUMPI PUSH2 0x2C94 PUSH2 0x41A9 JUMP JUMPDEST JUMPDEST PUSH1 0x20 MUL ADD MLOAD PUSH2 0x2AD4 JUMP JUMPDEST PUSH2 0x2CC0 DUP5 PUSH1 0x1 PUSH1 0x3 DUP2 LT PUSH2 0x2CB6 JUMPI PUSH2 0x2CB5 PUSH2 0x41A9 JUMP JUMPDEST JUMPDEST PUSH1 0x20 MUL ADD MLOAD PUSH2 0x2AD4 JUMP JUMPDEST PUSH2 0x2CE1 DUP6 PUSH1 0x2 PUSH1 0x3 DUP2 LT PUSH2 0x2CD7 JUMPI PUSH2 0x2CD6 PUSH2 0x41A9 JUMP JUMPDEST JUMPDEST PUSH1 0x20 MUL ADD MLOAD PUSH2 0x2AD4 JUMP JUMPDEST PUSH1 0x40 MLOAD PUSH1 0x20 ADD PUSH2 0x2CF3 SWAP4 SWAP3 SWAP2 SWAP1 PUSH2 0x5298 JUMP JUMPDEST PUSH1 0x40 MLOAD PUSH1 0x20 DUP2 DUP4 SUB SUB DUP2 MSTORE SWAP1 PUSH1 0x40 MSTORE SWAP1 POP PUSH1 0x0 DUP5 MLOAD SWAP1 POP PUSH1 0x0 PUSH2 0x2D15 DUP7 PUSH2 0x326D JUMP JUMPDEST SWAP1 POP PUSH1 0x1 DUP3 SUB PUSH2 0x2D56 JUMPI DUP3 PUSH2 0x2D2F PUSH1 0x3 DUP4 PUSH1 0x60 ADD MLOAD PUSH2 0x33E0 JUMP JUMPDEST PUSH1 0x40 MLOAD PUSH1 0x20 ADD PUSH2 0x2D40 SWAP3 SWAP2 SWAP1 PUSH2 0x4280 JUMP JUMPDEST PUSH1 0x40 MLOAD PUSH1 0x20 DUP2 DUP4 SUB SUB DUP2 MSTORE SWAP1 PUSH1 0x40 MSTORE SWAP3 POP PUSH2 0x2F3E JUMP JUMPDEST PUSH1 0x2 DUP3 SUB PUSH2 0x2DC7 JUMPI DUP3 PUSH2 0x2D6E PUSH1 0x2 DUP4 PUSH1 0x40 ADD MLOAD PUSH2 0x33E0 JUMP JUMPDEST PUSH1 0x40 MLOAD PUSH1 0x20 ADD PUSH2 0x2D7F SWAP3 SWAP2 SWAP1 PUSH2 0x4280 JUMP JUMPDEST PUSH1 0x40 MLOAD PUSH1 0x20 DUP2 DUP4 SUB SUB DUP2 MSTORE SWAP1 PUSH1 0x40 MSTORE SWAP3 POP DUP3 PUSH2 0x2DA0 PUSH1 0x3 DUP4 PUSH1 0x60 ADD MLOAD PUSH2 0x33E0 JUMP JUMPDEST PUSH1 0x40 MLOAD PUSH1 0x20 ADD PUSH2 0x2DB1 SWAP3 SWAP2 SWAP1 PUSH2 0x4280 JUMP JUMPDEST PUSH1 0x40 MLOAD PUSH1 0x20 DUP2 DUP4 SUB SUB DUP2 MSTORE SWAP1 PUSH1 0x40 MSTORE SWAP3 POP PUSH2 0x2F3D JUMP JUMPDEST PUSH1 0x3 DUP3 SUB PUSH2 0x2E6A JUMPI DUP3 PUSH2 0x2DDF PUSH1 0x1 DUP4 PUSH1 0x20 ADD MLOAD PUSH2 0x33E0 JUMP JUMPDEST PUSH1 0x40 MLOAD PUSH1 0x20 ADD PUSH2 0x2DF0 SWAP3 SWAP2 SWAP1 PUSH2 0x4280 JUMP JUMPDEST PUSH1 0x40 MLOAD PUSH1 0x20 DUP2 DUP4 SUB SUB DUP2 MSTORE SWAP1 PUSH1 0x40 MSTORE SWAP3 POP DUP3 PUSH2 0x2E11 PUSH1 0x2 DUP4 PUSH1 0x40 ADD MLOAD PUSH2 0x33E0 JUMP JUMPDEST PUSH1 0x40 MLOAD PUSH1 0x20 ADD PUSH2 0x2E22 SWAP3 SWAP2 SWAP1 PUSH2 0x4280 JUMP JUMPDEST PUSH1 0x40 MLOAD PUSH1 0x20 DUP2 DUP4 SUB SUB DUP2 MSTORE SWAP1 PUSH1 0x40 MSTORE SWAP3 POP DUP3 PUSH2 0x2E43 PUSH1 0x3 DUP4 PUSH1 0x60 ADD MLOAD PUSH2 0x33E0 JUMP JUMPDEST PUSH1 0x40 MLOAD PUSH1 0x20 ADD PUSH2 0x2E54 SWAP3 SWAP2 SWAP1 PUSH2 0x4280 JUMP JUMPDEST PUSH1 0x40 MLOAD PUSH1 0x20 DUP2 DUP4 SUB SUB DUP2 MSTORE SWAP1 PUSH1 0x40 MSTORE SWAP3 POP PUSH2 0x2F3C JUMP JUMPDEST PUSH1 0x4 DUP3 SUB PUSH2 0x2F3B JUMPI DUP3 PUSH2 0x2E82 PUSH1 0x0 DUP4 PUSH1 0x0 ADD MLOAD PUSH2 0x33E0 JUMP JUMPDEST PUSH1 0x40 MLOAD PUSH1 0x20 ADD PUSH2 0x2E93 SWAP3 SWAP2 SWAP1 PUSH2 0x4280 JUMP JUMPDEST PUSH1 0x40 MLOAD PUSH1 0x20 DUP2 DUP4 SUB SUB DUP2 MSTORE SWAP1 PUSH1 0x40 MSTORE SWAP3 POP DUP3 PUSH2 0x2EB4 PUSH1 0x1 DUP4 PUSH1 0x20 ADD MLOAD PUSH2 0x33E0 JUMP JUMPDEST PUSH1 0x40 MLOAD PUSH1 0x20 ADD PUSH2 0x2EC5 SWAP3 SWAP2 SWAP1 PUSH2 0x4280 JUMP JUMPDEST PUSH1 0x40 MLOAD PUSH1 0x20 DUP2 DUP4 SUB SUB DUP2 MSTORE SWAP1 PUSH1 0x40 MSTORE SWAP3 POP DUP3 PUSH2 0x2EE6 PUSH1 0x2 DUP4 PUSH1 0x40 ADD MLOAD PUSH2 0x33E0 JUMP JUMPDEST PUSH1 0x40 MLOAD PUSH1 0x20 ADD PUSH2 0x2EF7 SWAP3 SWAP2 SWAP1 PUSH2 0x4280 JUMP JUMPDEST PUSH1 0x40 MLOAD PUSH1 0x20 DUP2 DUP4 SUB SUB DUP2 MSTORE SWAP1 PUSH1 0x40 MSTORE SWAP3 POP DUP3 PUSH2 0x2F18 PUSH1 0x3 DUP4 PUSH1 0x60 ADD MLOAD PUSH2 0x33E0 JUMP JUMPDEST PUSH1 0x40 MLOAD PUSH1 0x20 ADD PUSH2 0x2F29 SWAP3 SWAP2 SWAP1 PUSH2 0x4280 JUMP JUMPDEST PUSH1 0x40 MLOAD PUSH1 0x20 DUP2 DUP4 SUB SUB DUP2 MSTORE SWAP1 PUSH1 0x40 MSTORE SWAP3 POP JUMPDEST JUMPDEST JUMPDEST JUMPDEST DUP4 DUP4 PUSH1 0x40 MLOAD PUSH1 0x20 ADD PUSH2 0x2F51 SWAP3 SWAP2 SWAP1 PUSH2 0x5341 JUMP JUMPDEST PUSH1 0x40 MLOAD PUSH1 0x20 DUP2 DUP4 SUB SUB DUP2 MSTORE SWAP1 PUSH1 0x40 MSTORE SWAP4 POP POP POP POP SWAP3 SWAP2 POP POP JUMP JUMPDEST PUSH1 0x60 PUSH1 0x0 DUP3 MLOAD SUB PUSH2 0x2F8D JUMPI PUSH1 0x40 MLOAD DUP1 PUSH1 0x20 ADD PUSH1 0x40 MSTORE DUP1 PUSH1 0x0 DUP2 MSTORE POP SWAP1 POP PUSH2 0x30C9 JUMP JUMPDEST PUSH1 0x0 PUSH1 0x40 MLOAD DUP1 PUSH1 0x60 ADD PUSH1 0x40 MSTORE DUP1 PUSH1 0x40 DUP2 MSTORE PUSH1 0x20 ADD PUSH2 0x5DE6 PUSH1 0x40 SWAP2 CODECOPY SWAP1 POP PUSH1 0x0 PUSH1 0x3 PUSH1 0x2 DUP6 MLOAD PUSH2 0x2FBC SWAP2 SWAP1 PUSH2 0x4B04 JUMP JUMPDEST PUSH2 0x2FC6 SWAP2 SWAP1 PUSH2 0x518D JUMP JUMPDEST PUSH1 0x4 PUSH2 0x2FD2 SWAP2 SWAP1 PUSH2 0x471C JUMP JUMPDEST PUSH8 0xFFFFFFFFFFFFFFFF DUP2 GT ISZERO PUSH2 0x2FEB JUMPI PUSH2 0x2FEA PUSH2 0x3D40 JUMP JUMPDEST JUMPDEST PUSH1 0x40 MLOAD SWAP1 DUP1 DUP3 MSTORE DUP1 PUSH1 0x1F ADD PUSH1 0x1F NOT AND PUSH1 0x20 ADD DUP3 ADD PUSH1 0x40 MSTORE DUP1 ISZERO PUSH2 0x301D JUMPI DUP2 PUSH1 0x20 ADD PUSH1 0x1 DUP3 MUL DUP1 CALLDATASIZE DUP4 CALLDATACOPY DUP1 DUP3 ADD SWAP2 POP POP SWAP1 POP JUMPDEST POP SWAP1 POP PUSH1 0x1 DUP3 ADD PUSH1 0x20 DUP3 ADD DUP6 DUP7 MLOAD DUP8 ADD JUMPDEST DUP1 DUP3 LT ISZERO PUSH2 0x3089 JUMPI PUSH1 0x3 DUP3 ADD SWAP2 POP DUP2 MLOAD PUSH1 0x3F DUP2 PUSH1 0x12 SHR AND DUP6 ADD MLOAD DUP5 MSTORE8 PUSH1 0x1 DUP5 ADD SWAP4 POP PUSH1 0x3F DUP2 PUSH1 0xC SHR AND DUP6 ADD MLOAD DUP5 MSTORE8 PUSH1 0x1 DUP5 ADD SWAP4 POP PUSH1 0x3F DUP2 PUSH1 0x6 SHR AND DUP6 ADD MLOAD DUP5 MSTORE8 PUSH1 0x1 DUP5 ADD SWAP4 POP PUSH1 0x3F DUP2 AND DUP6 ADD MLOAD DUP5 MSTORE8 PUSH1 0x1 DUP5 ADD SWAP4 POP POP PUSH2 0x302E JUMP JUMPDEST POP POP PUSH1 0x3 DUP7 MLOAD MOD PUSH1 0x1 DUP2 EQ PUSH2 0x30A5 JUMPI PUSH1 0x2 DUP2 EQ PUSH2 0x30B8 JUMPI PUSH2 0x30C0 JUMP JUMPDEST PUSH1 0x3D PUSH1 0x1 DUP4 SUB MSTORE8 PUSH1 0x3D PUSH1 0x2 DUP4 SUB MSTORE8 PUSH2 0x30C0 JUMP JUMPDEST PUSH1 0x3D PUSH1 0x1 DUP4 SUB MSTORE8 JUMPDEST POP POP POP DUP1 SWAP3 POP POP POP JUMPDEST SWAP2 SWAP1 POP JUMP JUMPDEST PUSH1 0x60 PUSH1 0x0 PUSH1 0x40 MLOAD DUP1 PUSH1 0x80 ADD PUSH1 0x40 MSTORE DUP1 PUSH1 0x40 MLOAD DUP1 PUSH1 0x40 ADD PUSH1 0x40 MSTORE DUP1 PUSH1 0x5 DUP2 MSTORE PUSH1 0x20 ADD PUSH32 0x5768697465000000000000000000000000000000000000000000000000000000 DUP2 MSTORE POP DUP2 MSTORE PUSH1 0x20 ADD PUSH1 0x40 MLOAD DUP1 PUSH1 0x40 ADD PUSH1 0x40 MSTORE DUP1 PUSH1 0x3 DUP2 MSTORE PUSH1 0x20 ADD PUSH32 0x5265640000000000000000000000000000000000000000000000000000000000 DUP2 MSTORE POP DUP2 MSTORE PUSH1 0x20 ADD PUSH1 0x40 MLOAD DUP1 PUSH1 0x40 ADD PUSH1 0x40 MSTORE DUP1 PUSH1 0x5 DUP2 MSTORE PUSH1 0x20 ADD PUSH32 0x477265656E000000000000000000000000000000000000000000000000000000 DUP2 MSTORE POP DUP2 MSTORE PUSH1 0x20 ADD PUSH1 0x40 MLOAD DUP1 PUSH1 0x40 ADD PUSH1 0x40 MSTORE DUP1 PUSH1 0x4 DUP2 MSTORE PUSH1 0x20 ADD PUSH32 0x426C756500000000000000000000000000000000000000000000000000000000 DUP2 MSTORE POP DUP2 MSTORE POP SWAP1 POP DUP1 DUP4 PUSH1 0x4 DUP2 LT PUSH2 0x31DC JUMPI PUSH2 0x31DB PUSH2 0x41A9 JUMP JUMPDEST JUMPDEST PUSH1 0x20 MUL ADD MLOAD SWAP2 POP POP SWAP2 SWAP1 POP JUMP JUMPDEST PUSH1 0x0 PUSH1 0x1 DUP3 EQ PUSH1 0xE1 SHL SWAP1 POP SWAP2 SWAP1 POP JUMP JUMPDEST PUSH1 0x0 DUP1 DUP4 DUP4 PUSH2 0x3208 SWAP2 SWAP1 PUSH2 0x4A64 JUMP JUMPDEST SWAP1 POP PUSH1 0x1 DUP2 PUSH2 0x7E7 DUP8 PUSH2 0x321B SWAP2 SWAP1 PUSH2 0x4B04 JUMP JUMPDEST PUSH1 0x40 MLOAD PUSH1 0x20 ADD PUSH2 0x322B SWAP2 SWAP1 PUSH2 0x5370 JUMP JUMPDEST PUSH1 0x40 MLOAD PUSH1 0x20 DUP2 DUP4 SUB SUB DUP2 MSTORE SWAP1 PUSH1 0x40 MSTORE DUP1 MLOAD SWAP1 PUSH1 0x20 ADD KECCAK256 PUSH1 0x0 SHR PUSH2 0x324E SWAP2 SWAP1 PUSH2 0x48EF JUMP JUMPDEST DUP5 PUSH2 0x3259 SWAP2 SWAP1 PUSH2 0x4A64 JUMP JUMPDEST PUSH2 0x3263 SWAP2 SWAP1 PUSH2 0x4A64 JUMP JUMPDEST SWAP2 POP POP SWAP4 SWAP3 POP POP POP JUMP JUMPDEST PUSH2 0x3275 PUSH2 0x39EA JUMP JUMPDEST PUSH1 0x0 PUSH2 0x3280 DUP4 PUSH2 0x38B5 JUMP JUMPDEST SWAP1 POP PUSH1 0x0 JUMPDEST DUP2 MLOAD DUP2 LT ISZERO PUSH2 0x33D9 JUMPI PUSH1 0x0 DUP2 SUB PUSH2 0x32DC JUMPI DUP2 DUP2 DUP2 MLOAD DUP2 LT PUSH2 0x32A9 JUMPI PUSH2 0x32A8 PUSH2 0x41A9 JUMP JUMPDEST JUMPDEST PUSH1 0x20 ADD ADD MLOAD PUSH1 0xF8 SHR PUSH1 0xF8 SHL PUSH1 0x40 MLOAD PUSH1 0x20 ADD PUSH2 0x32C4 SWAP2 SWAP1 PUSH2 0x53D8 JUMP JUMPDEST PUSH1 0x40 MLOAD PUSH1 0x20 DUP2 DUP4 SUB SUB DUP2 MSTORE SWAP1 PUSH1 0x40 MSTORE DUP4 PUSH1 0x60 ADD DUP2 SWAP1 MSTORE POP JUMPDEST PUSH1 0x1 DUP2 SUB PUSH2 0x332A JUMPI DUP2 DUP2 DUP2 MLOAD DUP2 LT PUSH2 0x32F7 JUMPI PUSH2 0x32F6 PUSH2 0x41A9 JUMP JUMPDEST JUMPDEST PUSH1 0x20 ADD ADD MLOAD PUSH1 0xF8 SHR PUSH1 0xF8 SHL PUSH1 0x40 MLOAD PUSH1 0x20 ADD PUSH2 0x3312 SWAP2 SWAP1 PUSH2 0x53D8 JUMP JUMPDEST PUSH1 0x40 MLOAD PUSH1 0x20 DUP2 DUP4 SUB SUB DUP2 MSTORE SWAP1 PUSH1 0x40 MSTORE DUP4 PUSH1 0x40 ADD DUP2 SWAP1 MSTORE POP JUMPDEST PUSH1 0x2 DUP2 SUB PUSH2 0x3378 JUMPI DUP2 DUP2 DUP2 MLOAD DUP2 LT PUSH2 0x3345 JUMPI PUSH2 0x3344 PUSH2 0x41A9 JUMP JUMPDEST JUMPDEST PUSH1 0x20 ADD ADD MLOAD PUSH1 0xF8 SHR PUSH1 0xF8 SHL PUSH1 0x40 MLOAD PUSH1 0x20 ADD PUSH2 0x3360 SWAP2 SWAP1 PUSH2 0x53D8 JUMP JUMPDEST PUSH1 0x40 MLOAD PUSH1 0x20 DUP2 DUP4 SUB SUB DUP2 MSTORE SWAP1 PUSH1 0x40 MSTORE DUP4 PUSH1 0x20 ADD DUP2 SWAP1 MSTORE POP JUMPDEST PUSH1 0x3 DUP2 SUB PUSH2 0x33C6 JUMPI DUP2 DUP2 DUP2 MLOAD DUP2 LT PUSH2 0x3393 JUMPI PUSH2 0x3392 PUSH2 0x41A9 JUMP JUMPDEST JUMPDEST PUSH1 0x20 ADD ADD MLOAD PUSH1 0xF8 SHR PUSH1 0xF8 SHL PUSH1 0x40 MLOAD PUSH1 0x20 ADD PUSH2 0x33AE SWAP2 SWAP1 PUSH2 0x53D8 JUMP JUMPDEST PUSH1 0x40 MLOAD PUSH1 0x20 DUP2 DUP4 SUB SUB DUP2 MSTORE SWAP1 PUSH1 0x40 MSTORE DUP4 PUSH1 0x0 ADD DUP2 SWAP1 MSTORE POP JUMPDEST DUP1 DUP1 PUSH2 0x33D1 SWAP1 PUSH2 0x42D3 JUMP JUMPDEST SWAP2 POP POP PUSH2 0x3285 JUMP JUMPDEST POP POP SWAP2 SWAP1 POP JUMP JUMPDEST PUSH1 0x60 PUSH1 0x0 PUSH2 0x33ED DUP5 PUSH2 0x2AD4 JUMP JUMPDEST SWAP1 POP PUSH2 0x342E DUP4 PUSH1 0x40 MLOAD DUP1 PUSH1 0x40 ADD PUSH1 0x40 MSTORE DUP1 PUSH1 0x1 DUP2 MSTORE PUSH1 0x20 ADD PUSH32 0x3000000000000000000000000000000000000000000000000000000000000000 DUP2 MSTORE POP PUSH2 0x1C1C JUMP JUMPDEST ISZERO PUSH2 0x3465 JUMPI DUP1 DUP2 DUP3 DUP4 DUP5 DUP6 PUSH1 0x40 MLOAD PUSH1 0x20 ADD PUSH2 0x344E SWAP7 SWAP6 SWAP5 SWAP4 SWAP3 SWAP2 SWAP1 PUSH2 0x5607 JUMP JUMPDEST PUSH1 0x40 MLOAD PUSH1 0x20 DUP2 DUP4 SUB SUB DUP2 MSTORE SWAP1 PUSH1 0x40 MSTORE SWAP2 POP POP PUSH2 0x38AF JUMP JUMPDEST PUSH2 0x34A4 DUP4 PUSH1 0x40 MLOAD DUP1 PUSH1 0x40 ADD PUSH1 0x40 MSTORE DUP1 PUSH1 0x1 DUP2 MSTORE PUSH1 0x20 ADD PUSH32 0x3100000000000000000000000000000000000000000000000000000000000000 DUP2 MSTORE POP PUSH2 0x1C1C JUMP JUMPDEST ISZERO PUSH2 0x34D3 JUMPI DUP1 DUP2 PUSH1 0x40 MLOAD PUSH1 0x20 ADD PUSH2 0x34BC SWAP3 SWAP2 SWAP1 PUSH2 0x572F JUMP JUMPDEST PUSH1 0x40 MLOAD PUSH1 0x20 DUP2 DUP4 SUB SUB DUP2 MSTORE SWAP1 PUSH1 0x40 MSTORE SWAP2 POP POP PUSH2 0x38AF JUMP JUMPDEST PUSH2 0x3512 DUP4 PUSH1 0x40 MLOAD DUP1 PUSH1 0x40 ADD PUSH1 0x40 MSTORE DUP1 PUSH1 0x1 DUP2 MSTORE PUSH1 0x20 ADD PUSH32 0x3200000000000000000000000000000000000000000000000000000000000000 DUP2 MSTORE POP PUSH2 0x1C1C JUMP JUMPDEST ISZERO PUSH2 0x3547 JUMPI DUP1 DUP2 DUP3 DUP4 DUP5 PUSH1 0x40 MLOAD PUSH1 0x20 ADD PUSH2 0x3530 SWAP6 SWAP5 SWAP4 SWAP3 SWAP2 SWAP1 PUSH2 0x57CB JUMP JUMPDEST PUSH1 0x40 MLOAD PUSH1 0x20 DUP2 DUP4 SUB SUB DUP2 MSTORE SWAP1 PUSH1 0x40 MSTORE SWAP2 POP POP PUSH2 0x38AF JUMP JUMPDEST PUSH2 0x3586 DUP4 PUSH1 0x40 MLOAD DUP1 PUSH1 0x40 ADD PUSH1 0x40 MSTORE DUP1 PUSH1 0x1 DUP2 MSTORE PUSH1 0x20 ADD PUSH32 0x3300000000000000000000000000000000000000000000000000000000000000 DUP2 MSTORE POP PUSH2 0x1C1C JUMP JUMPDEST ISZERO PUSH2 0x35BB JUMPI DUP1 DUP2 DUP3 DUP4 DUP5 PUSH1 0x40 MLOAD PUSH1 0x20 ADD PUSH2 0x35A4 SWAP6 SWAP5 SWAP4 SWAP3 SWAP2 SWAP1 PUSH2 0x5884 JUMP JUMPDEST PUSH1 0x40 MLOAD PUSH1 0x20 DUP2 DUP4 SUB SUB DUP2 MSTORE SWAP1 PUSH1 0x40 MSTORE SWAP2 POP POP PUSH2 0x38AF JUMP JUMPDEST PUSH2 0x35FA DUP4 PUSH1 0x40 MLOAD DUP1 PUSH1 0x40 ADD PUSH1 0x40 MSTORE DUP1 PUSH1 0x1 DUP2 MSTORE PUSH1 0x20 ADD PUSH32 0x3400000000000000000000000000000000000000000000000000000000000000 DUP2 MSTORE POP PUSH2 0x1C1C JUMP JUMPDEST ISZERO PUSH2 0x362D JUMPI DUP1 DUP2 DUP3 DUP4 PUSH1 0x40 MLOAD PUSH1 0x20 ADD PUSH2 0x3616 SWAP5 SWAP4 SWAP3 SWAP2 SWAP1 PUSH2 0x593D JUMP JUMPDEST PUSH1 0x40 MLOAD PUSH1 0x20 DUP2 DUP4 SUB SUB DUP2 MSTORE SWAP1 PUSH1 0x40 MSTORE SWAP2 POP POP PUSH2 0x38AF JUMP JUMPDEST PUSH2 0x366C DUP4 PUSH1 0x40 MLOAD DUP1 PUSH1 0x40 ADD PUSH1 0x40 MSTORE DUP1 PUSH1 0x1 DUP2 MSTORE PUSH1 0x20 ADD PUSH32 0x3500000000000000000000000000000000000000000000000000000000000000 DUP2 MSTORE POP PUSH2 0x1C1C JUMP JUMPDEST ISZERO PUSH2 0x36A1 JUMPI DUP1 DUP2 DUP3 DUP4 DUP5 PUSH1 0x40 MLOAD PUSH1 0x20 ADD PUSH2 0x368A SWAP6 SWAP5 SWAP4 SWAP3 SWAP2 SWAP1 PUSH2 0x59D3 JUMP JUMPDEST PUSH1 0x40 MLOAD PUSH1 0x20 DUP2 DUP4 SUB SUB DUP2 MSTORE SWAP1 PUSH1 0x40 MSTORE SWAP2 POP POP PUSH2 0x38AF JUMP JUMPDEST PUSH2 0x36E0 DUP4 PUSH1 0x40 MLOAD DUP1 PUSH1 0x40 ADD PUSH1 0x40 MSTORE DUP1 PUSH1 0x1 DUP2 MSTORE PUSH1 0x20 ADD PUSH32 0x3600000000000000000000000000000000000000000000000000000000000000 DUP2 MSTORE POP PUSH2 0x1C1C JUMP JUMPDEST ISZERO PUSH2 0x3717 JUMPI DUP1 DUP2 DUP3 DUP4 DUP5 DUP6 PUSH1 0x40 MLOAD PUSH1 0x20 ADD PUSH2 0x3700 SWAP7 SWAP6 SWAP5 SWAP4 SWAP3 SWAP2 SWAP1 PUSH2 0x5A8C JUMP JUMPDEST PUSH1 0x40 MLOAD PUSH1 0x20 DUP2 DUP4 SUB SUB DUP2 MSTORE SWAP1 PUSH1 0x40 MSTORE SWAP2 POP POP PUSH2 0x38AF JUMP JUMPDEST PUSH2 0x3756 DUP4 PUSH1 0x40 MLOAD DUP1 PUSH1 0x40 ADD PUSH1 0x40 MSTORE DUP1 PUSH1 0x1 DUP2 MSTORE PUSH1 0x20 ADD PUSH32 0x3700000000000000000000000000000000000000000000000000000000000000 DUP2 MSTORE POP PUSH2 0x1C1C JUMP JUMPDEST ISZERO PUSH2 0x3787 JUMPI DUP1 DUP2 DUP3 PUSH1 0x40 MLOAD PUSH1 0x20 ADD PUSH2 0x3770 SWAP4 SWAP3 SWAP2 SWAP1 PUSH2 0x5B68 JUMP JUMPDEST PUSH1 0x40 MLOAD PUSH1 0x20 DUP2 DUP4 SUB SUB DUP2 MSTORE SWAP1 PUSH1 0x40 MSTORE SWAP2 POP POP PUSH2 0x38AF JUMP JUMPDEST PUSH2 0x37C6 DUP4 PUSH1 0x40 MLOAD DUP1 PUSH1 0x40 ADD PUSH1 0x40 MSTORE DUP1 PUSH1 0x1 DUP2 MSTORE PUSH1 0x20 ADD PUSH32 0x3800000000000000000000000000000000000000000000000000000000000000 DUP2 MSTORE POP PUSH2 0x1C1C JUMP JUMPDEST ISZERO PUSH2 0x37FF JUMPI DUP1 DUP2 DUP3 DUP4 DUP5 DUP6 DUP7 PUSH1 0x40 MLOAD PUSH1 0x20 ADD PUSH2 0x37E8 SWAP8 SWAP7 SWAP6 SWAP5 SWAP4 SWAP3 SWAP2 SWAP1 PUSH2 0x5BDB JUMP JUMPDEST PUSH1 0x40 MLOAD PUSH1 0x20 DUP2 DUP4 SUB SUB DUP2 MSTORE SWAP1 PUSH1 0x40 MSTORE SWAP2 POP POP PUSH2 0x38AF JUMP JUMPDEST PUSH2 0x383E DUP4 PUSH1 0x40 MLOAD DUP1 PUSH1 0x40 ADD PUSH1 0x40 MSTORE DUP1 PUSH1 0x1 DUP2 MSTORE PUSH1 0x20 ADD PUSH32 0x3900000000000000000000000000000000000000000000000000000000000000 DUP2 MSTORE POP PUSH2 0x1C1C JUMP JUMPDEST ISZERO PUSH2 0x3875 JUMPI DUP1 DUP2 DUP3 DUP4 DUP5 DUP6 PUSH1 0x40 MLOAD PUSH1 0x20 ADD PUSH2 0x385E SWAP7 SWAP6 SWAP5 SWAP4 SWAP3 SWAP2 SWAP1 PUSH2 0x5CDA JUMP JUMPDEST PUSH1 0x40 MLOAD PUSH1 0x20 DUP2 DUP4 SUB SUB DUP2 MSTORE SWAP1 PUSH1 0x40 MSTORE SWAP2 POP POP PUSH2 0x38AF JUMP JUMPDEST PUSH1 0x40 MLOAD DUP1 PUSH1 0x40 ADD PUSH1 0x40 MSTORE DUP1 PUSH1 0x5 DUP2 MSTORE PUSH1 0x20 ADD PUSH32 0x6572726F72000000000000000000000000000000000000000000000000000000 DUP2 MSTORE POP SWAP2 POP POP JUMPDEST SWAP3 SWAP2 POP POP JUMP JUMPDEST PUSH1 0x60 PUSH1 0x0 DUP3 SWAP1 POP PUSH1 0x0 DUP2 MLOAD GT PUSH2 0x38CE JUMPI PUSH2 0x38CD PUSH2 0x5DB6 JUMP JUMPDEST JUMPDEST PUSH1 0x0 DUP2 MLOAD PUSH8 0xFFFFFFFFFFFFFFFF DUP2 GT ISZERO PUSH2 0x38EB JUMPI PUSH2 0x38EA PUSH2 0x3D40 JUMP JUMPDEST JUMPDEST PUSH1 0x40 MLOAD SWAP1 DUP1 DUP3 MSTORE DUP1 PUSH1 0x1F ADD PUSH1 0x1F NOT AND PUSH1 0x20 ADD DUP3 ADD PUSH1 0x40 MSTORE DUP1 ISZERO PUSH2 0x391D JUMPI DUP2 PUSH1 0x20 ADD PUSH1 0x1 DUP3 MUL DUP1 CALLDATASIZE DUP4 CALLDATACOPY DUP1 DUP3 ADD SWAP2 POP POP SWAP1 POP JUMPDEST POP SWAP1 POP PUSH1 0x0 DUP2 SWAP1 POP PUSH1 0x0 JUMPDEST DUP4 MLOAD DUP2 LT ISZERO PUSH2 0x39BC JUMPI DUP4 DUP2 DUP2 MLOAD DUP2 LT PUSH2 0x3944 JUMPI PUSH2 0x3943 PUSH2 0x41A9 JUMP JUMPDEST JUMPDEST PUSH1 0x20 ADD ADD MLOAD PUSH1 0xF8 SHR PUSH1 0xF8 SHL DUP3 PUSH1 0x1 DUP4 DUP8 MLOAD PUSH2 0x395F SWAP2 SWAP1 PUSH2 0x4A64 JUMP JUMPDEST PUSH2 0x3969 SWAP2 SWAP1 PUSH2 0x4A64 JUMP JUMPDEST DUP2 MLOAD DUP2 LT PUSH2 0x397A JUMPI PUSH2 0x3979 PUSH2 0x41A9 JUMP JUMPDEST JUMPDEST PUSH1 0x20 ADD ADD SWAP1 PUSH31 0xFFFFFFFFFFFFFFFFFFFFFFFFFFFFFFFFFFFFFFFFFFFFFFFFFFFFFFFFFFFFFF NOT AND SWAP1 DUP2 PUSH1 0x0 BYTE SWAP1 MSTORE8 POP DUP1 DUP1 PUSH2 0x39B4 SWAP1 PUSH2 0x42D3 JUMP JUMPDEST SWAP2 POP POP PUSH2 0x3928 JUMP JUMPDEST POP DUP1 SWAP4 POP POP POP POP SWAP2 SWAP1 POP JUMP JUMPDEST PUSH1 0x40 MLOAD DUP1 PUSH1 0x60 ADD PUSH1 0x40 MSTORE DUP1 PUSH1 0x3 SWAP1 PUSH1 0x20 DUP3 MUL DUP1 CALLDATASIZE DUP4 CALLDATACOPY DUP1 DUP3 ADD SWAP2 POP POP SWAP1 POP POP SWAP1 JUMP JUMPDEST PUSH1 0x40 MLOAD DUP1 PUSH1 0x80 ADD PUSH1 0x40 MSTORE DUP1 PUSH1 0x60 DUP2 MSTORE PUSH1 0x20 ADD PUSH1 0x60 DUP2 MSTORE PUSH1 0x20 ADD PUSH1 0x60 DUP2 MSTORE PUSH1 0x20 ADD PUSH1 0x60 DUP2 MSTORE POP SWAP1 JUMP JUMPDEST PUSH1 0x0 PUSH1 0x40 MLOAD SWAP1 POP SWAP1 JUMP JUMPDEST PUSH1 0x0 DUP1 REVERT JUMPDEST PUSH1 0x0 DUP1 REVERT JUMPDEST PUSH1 0x0 PUSH32 0xFFFFFFFF00000000000000000000000000000000000000000000000000000000 DUP3 AND SWAP1 POP SWAP2 SWAP1 POP JUMP JUMPDEST PUSH2 0x3A5B DUP2 PUSH2 0x3A26 JUMP JUMPDEST DUP2 EQ PUSH2 0x3A66 JUMPI PUSH1 0x0 DUP1 REVERT JUMPDEST POP JUMP JUMPDEST PUSH1 0x0 DUP2 CALLDATALOAD SWAP1 POP PUSH2 0x3A78 DUP2 PUSH2 0x3A52 JUMP JUMPDEST SWAP3 SWAP2 POP POP JUMP JUMPDEST PUSH1 0x0 PUSH1 0x20 DUP3 DUP5 SUB SLT ISZERO PUSH2 0x3A94 JUMPI PUSH2 0x3A93 PUSH2 0x3A1C JUMP JUMPDEST JUMPDEST PUSH1 0x0 PUSH2 0x3AA2 DUP5 DUP3 DUP6 ADD PUSH2 0x3A69 JUMP JUMPDEST SWAP2 POP POP SWAP3 SWAP2 POP POP JUMP JUMPDEST PUSH1 0x0 DUP2 ISZERO ISZERO SWAP1 POP SWAP2 SWAP1 POP JUMP JUMPDEST PUSH2 0x3AC0 DUP2 PUSH2 0x3AAB JUMP JUMPDEST DUP3 MSTORE POP POP JUMP JUMPDEST PUSH1 0x0 PUSH1 0x20 DUP3 ADD SWAP1 POP PUSH2 0x3ADB PUSH1 0x0 DUP4 ADD DUP5 PUSH2 0x3AB7 JUMP JUMPDEST SWAP3 SWAP2 POP POP JUMP JUMPDEST PUSH1 0x0 DUP2 MLOAD SWAP1 POP SWAP2 SWAP1 POP JUMP JUMPDEST PUSH1 0x0 DUP3 DUP3 MSTORE PUSH1 0x20 DUP3 ADD SWAP1 POP SWAP3 SWAP2 POP POP JUMP JUMPDEST PUSH1 0x0 JUMPDEST DUP4 DUP2 LT ISZERO PUSH2 0x3B1B JUMPI DUP1 DUP3 ADD MLOAD DUP2 DUP5 ADD MSTORE PUSH1 0x20 DUP2 ADD SWAP1 POP PUSH2 0x3B00 JUMP JUMPDEST PUSH1 0x0 DUP5 DUP5 ADD MSTORE POP POP POP POP JUMP JUMPDEST PUSH1 0x0 PUSH1 0x1F NOT PUSH1 0x1F DUP4 ADD AND SWAP1 POP SWAP2 SWAP1 POP JUMP JUMPDEST PUSH1 0x0 PUSH2 0x3B43 DUP3 PUSH2 0x3AE1 JUMP JUMPDEST PUSH2 0x3B4D DUP2 DUP6 PUSH2 0x3AEC JUMP JUMPDEST SWAP4 POP PUSH2 0x3B5D DUP2 DUP6 PUSH1 0x20 DUP7 ADD PUSH2 0x3AFD JUMP JUMPDEST PUSH2 0x3B66 DUP2 PUSH2 0x3B27 JUMP JUMPDEST DUP5 ADD SWAP2 POP POP SWAP3 SWAP2 POP POP JUMP JUMPDEST PUSH1 0x0 PUSH1 0x20 DUP3 ADD SWAP1 POP DUP2 DUP2 SUB PUSH1 0x0 DUP4 ADD MSTORE PUSH2 0x3B8B DUP2 DUP5 PUSH2 0x3B38 JUMP JUMPDEST SWAP1 POP SWAP3 SWAP2 POP POP JUMP JUMPDEST PUSH1 0x0 DUP2 SWAP1 POP SWAP2 SWAP1 POP JUMP JUMPDEST PUSH2 0x3BA6 DUP2 PUSH2 0x3B93 JUMP JUMPDEST DUP2 EQ PUSH2 0x3BB1 JUMPI PUSH1 0x0 DUP1 REVERT JUMPDEST POP JUMP JUMPDEST PUSH1 0x0 DUP2 CALLDATALOAD SWAP1 POP PUSH2 0x3BC3 DUP2 PUSH2 0x3B9D JUMP JUMPDEST SWAP3 SWAP2 POP POP JUMP JUMPDEST PUSH1 0x0 PUSH1 0x20 DUP3 DUP5 SUB SLT ISZERO PUSH2 0x3BDF JUMPI PUSH2 0x3BDE PUSH2 0x3A1C JUMP JUMPDEST JUMPDEST PUSH1 0x0 PUSH2 0x3BED DUP5 DUP3 DUP6 ADD PUSH2 0x3BB4 JUMP JUMPDEST SWAP2 POP POP SWAP3 SWAP2 POP POP JUMP JUMPDEST PUSH1 0x0 PUSH20 0xFFFFFFFFFFFFFFFFFFFFFFFFFFFFFFFFFFFFFFFF DUP3 AND SWAP1 POP SWAP2 SWAP1 POP JUMP JUMPDEST PUSH1 0x0 PUSH2 0x3C21 DUP3 PUSH2 0x3BF6 JUMP JUMPDEST SWAP1 POP SWAP2 SWAP1 POP JUMP JUMPDEST PUSH2 0x3C31 DUP2 PUSH2 0x3C16 JUMP JUMPDEST DUP3 MSTORE POP POP JUMP JUMPDEST PUSH1 0x0 PUSH1 0x20 DUP3 ADD SWAP1 POP PUSH2 0x3C4C PUSH1 0x0 DUP4 ADD DUP5 PUSH2 0x3C28 JUMP JUMPDEST SWAP3 SWAP2 POP POP JUMP JUMPDEST PUSH2 0x3C5B DUP2 PUSH2 0x3C16 JUMP JUMPDEST DUP2 EQ PUSH2 0x3C66 JUMPI PUSH1 0x0 DUP1 REVERT JUMPDEST POP JUMP JUMPDEST PUSH1 0x0 DUP2 CALLDATALOAD SWAP1 POP PUSH2 0x3C78 DUP2 PUSH2 0x3C52 JUMP JUMPDEST SWAP3 SWAP2 POP POP JUMP JUMPDEST PUSH1 0x0 DUP1 PUSH1 0x40 DUP4 DUP6 SUB SLT ISZERO PUSH2 0x3C95 JUMPI PUSH2 0x3C94 PUSH2 0x3A1C JUMP JUMPDEST JUMPDEST PUSH1 0x0 PUSH2 0x3CA3 DUP6 DUP3 DUP7 ADD PUSH2 0x3C69 JUMP JUMPDEST SWAP3 POP POP PUSH1 0x20 PUSH2 0x3CB4 DUP6 DUP3 DUP7 ADD PUSH2 0x3BB4 JUMP JUMPDEST SWAP2 POP POP SWAP3 POP SWAP3 SWAP1 POP JUMP JUMPDEST PUSH2 0x3CC7 DUP2 PUSH2 0x3B93 JUMP JUMPDEST DUP3 MSTORE POP POP JUMP JUMPDEST PUSH1 0x0 PUSH1 0x20 DUP3 ADD SWAP1 POP PUSH2 0x3CE2 PUSH1 0x0 DUP4 ADD DUP5 PUSH2 0x3CBE JUMP JUMPDEST SWAP3 SWAP2 POP POP JUMP JUMPDEST PUSH1 0x0 DUP1 PUSH1 0x0 PUSH1 0x60 DUP5 DUP7 SUB SLT ISZERO PUSH2 0x3D01 JUMPI PUSH2 0x3D00 PUSH2 0x3A1C JUMP JUMPDEST JUMPDEST PUSH1 0x0 PUSH2 0x3D0F DUP7 DUP3 DUP8 ADD PUSH2 0x3C69 JUMP JUMPDEST SWAP4 POP POP PUSH1 0x20 PUSH2 0x3D20 DUP7 DUP3 DUP8 ADD PUSH2 0x3C69 JUMP JUMPDEST SWAP3 POP POP PUSH1 0x40 PUSH2 0x3D31 DUP7 DUP3 DUP8 ADD PUSH2 0x3BB4 JUMP JUMPDEST SWAP2 POP POP SWAP3 POP SWAP3 POP SWAP3 JUMP JUMPDEST PUSH1 0x0 DUP1 REVERT JUMPDEST PUSH32 0x4E487B7100000000000000000000000000000000000000000000000000000000 PUSH1 0x0 MSTORE PUSH1 0x41 PUSH1 0x4 MSTORE PUSH1 0x24 PUSH1 0x0 REVERT JUMPDEST PUSH2 0x3D78 DUP3 PUSH2 0x3B27 JUMP JUMPDEST DUP2 ADD DUP2 DUP2 LT PUSH8 0xFFFFFFFFFFFFFFFF DUP3 GT OR ISZERO PUSH2 0x3D97 JUMPI PUSH2 0x3D96 PUSH2 0x3D40 JUMP JUMPDEST JUMPDEST DUP1 PUSH1 0x40 MSTORE POP POP POP JUMP JUMPDEST PUSH1 0x0 PUSH2 0x3DAA PUSH2 0x3A12 JUMP JUMPDEST SWAP1 POP PUSH2 0x3DB6 DUP3 DUP3 PUSH2 0x3D6F JUMP JUMPDEST SWAP2 SWAP1 POP JUMP JUMPDEST PUSH1 0x0 PUSH8 0xFFFFFFFFFFFFFFFF DUP3 GT ISZERO PUSH2 0x3DD6 JUMPI PUSH2 0x3DD5 PUSH2 0x3D40 JUMP JUMPDEST JUMPDEST PUSH1 0x20 DUP3 MUL SWAP1 POP PUSH1 0x20 DUP2 ADD SWAP1 POP SWAP2 SWAP1 POP JUMP JUMPDEST PUSH1 0x0 DUP1 REVERT JUMPDEST PUSH1 0x0 PUSH2 0x3DFF PUSH2 0x3DFA DUP5 PUSH2 0x3DBB JUMP JUMPDEST PUSH2 0x3DA0 JUMP JUMPDEST SWAP1 POP DUP1 DUP4 DUP3 MSTORE PUSH1 0x20 DUP3 ADD SWAP1 POP PUSH1 0x20 DUP5 MUL DUP4 ADD DUP6 DUP2 GT ISZERO PUSH2 0x3E22 JUMPI PUSH2 0x3E21 PUSH2 0x3DE7 JUMP JUMPDEST JUMPDEST DUP4 JUMPDEST DUP2 DUP2 LT ISZERO PUSH2 0x3E4B JUMPI DUP1 PUSH2 0x3E37 DUP9 DUP3 PUSH2 0x3BB4 JUMP JUMPDEST DUP5 MSTORE PUSH1 0x20 DUP5 ADD SWAP4 POP POP PUSH1 0x20 DUP2 ADD SWAP1 POP PUSH2 0x3E24 JUMP JUMPDEST POP POP POP SWAP4 SWAP3 POP POP POP JUMP JUMPDEST PUSH1 0x0 DUP3 PUSH1 0x1F DUP4 ADD SLT PUSH2 0x3E6A JUMPI PUSH2 0x3E69 PUSH2 0x3D3B JUMP JUMPDEST JUMPDEST DUP2 CALLDATALOAD PUSH2 0x3E7A DUP5 DUP3 PUSH1 0x20 DUP7 ADD PUSH2 0x3DEC JUMP JUMPDEST SWAP2 POP POP SWAP3 SWAP2 POP POP JUMP JUMPDEST PUSH1 0x0 PUSH1 0x20 DUP3 DUP5 SUB SLT ISZERO PUSH2 0x3E99 JUMPI PUSH2 0x3E98 PUSH2 0x3A1C JUMP JUMPDEST JUMPDEST PUSH1 0x0 DUP3 ADD CALLDATALOAD PUSH8 0xFFFFFFFFFFFFFFFF DUP2 GT ISZERO PUSH2 0x3EB7 JUMPI PUSH2 0x3EB6 PUSH2 0x3A21 JUMP JUMPDEST JUMPDEST PUSH2 0x3EC3 DUP5 DUP3 DUP6 ADD PUSH2 0x3E55 JUMP JUMPDEST SWAP2 POP POP SWAP3 SWAP2 POP POP JUMP JUMPDEST PUSH1 0x0 PUSH1 0x20 DUP3 DUP5 SUB SLT ISZERO PUSH2 0x3EE2 JUMPI PUSH2 0x3EE1 PUSH2 0x3A1C JUMP JUMPDEST JUMPDEST PUSH1 0x0 PUSH2 0x3EF0 DUP5 DUP3 DUP6 ADD PUSH2 0x3C69 JUMP JUMPDEST SWAP2 POP POP SWAP3 SWAP2 POP POP JUMP JUMPDEST PUSH2 0x3F02 DUP2 PUSH2 0x3AAB JUMP JUMPDEST DUP2 EQ PUSH2 0x3F0D JUMPI PUSH1 0x0 DUP1 REVERT JUMPDEST POP JUMP JUMPDEST PUSH1 0x0 DUP2 CALLDATALOAD SWAP1 POP PUSH2 0x3F1F DUP2 PUSH2 0x3EF9 JUMP JUMPDEST SWAP3 SWAP2 POP POP JUMP JUMPDEST PUSH1 0x0 DUP1 PUSH1 0x40 DUP4 DUP6 SUB SLT ISZERO PUSH2 0x3F3C JUMPI PUSH2 0x3F3B PUSH2 0x3A1C JUMP JUMPDEST JUMPDEST PUSH1 0x0 PUSH2 0x3F4A DUP6 DUP3 DUP7 ADD PUSH2 0x3C69 JUMP JUMPDEST SWAP3 POP POP PUSH1 0x20 PUSH2 0x3F5B DUP6 DUP3 DUP7 ADD PUSH2 0x3F10 JUMP JUMPDEST SWAP2 POP POP SWAP3 POP SWAP3 SWAP1 POP JUMP JUMPDEST PUSH1 0x0 DUP1 REVERT JUMPDEST PUSH1 0x0 PUSH8 0xFFFFFFFFFFFFFFFF DUP3 GT ISZERO PUSH2 0x3F85 JUMPI PUSH2 0x3F84 PUSH2 0x3D40 JUMP JUMPDEST JUMPDEST PUSH2 0x3F8E DUP3 PUSH2 0x3B27 JUMP JUMPDEST SWAP1 POP PUSH1 0x20 DUP2 ADD SWAP1 POP SWAP2 SWAP1 POP JUMP JUMPDEST DUP3 DUP2 DUP4 CALLDATACOPY PUSH1 0x0 DUP4 DUP4 ADD MSTORE POP POP POP JUMP JUMPDEST PUSH1 0x0 PUSH2 0x3FBD PUSH2 0x3FB8 DUP5 PUSH2 0x3F6A JUMP JUMPDEST PUSH2 0x3DA0 JUMP JUMPDEST SWAP1 POP DUP3 DUP2 MSTORE PUSH1 0x20 DUP2 ADD DUP5 DUP5 DUP5 ADD GT ISZERO PUSH2 0x3FD9 JUMPI PUSH2 0x3FD8 PUSH2 0x3F65 JUMP JUMPDEST JUMPDEST PUSH2 0x3FE4 DUP5 DUP3 DUP6 PUSH2 0x3F9B JUMP JUMPDEST POP SWAP4 SWAP3 POP POP POP JUMP JUMPDEST PUSH1 0x0 DUP3 PUSH1 0x1F DUP4 ADD SLT PUSH2 0x4001 JUMPI PUSH2 0x4000 PUSH2 0x3D3B JUMP JUMPDEST JUMPDEST DUP2 CALLDATALOAD PUSH2 0x4011 DUP5 DUP3 PUSH1 0x20 DUP7 ADD PUSH2 0x3FAA JUMP JUMPDEST SWAP2 POP POP SWAP3 SWAP2 POP POP JUMP JUMPDEST PUSH1 0x0 DUP1 PUSH1 0x0 DUP1 PUSH1 0x80 DUP6 DUP8 SUB SLT ISZERO PUSH2 0x4034 JUMPI PUSH2 0x4033 PUSH2 0x3A1C JUMP JUMPDEST JUMPDEST PUSH1 0x0 PUSH2 0x4042 DUP8 DUP3 DUP9 ADD PUSH2 0x3C69 JUMP JUMPDEST SWAP5 POP POP PUSH1 0x20 PUSH2 0x4053 DUP8 DUP3 DUP9 ADD PUSH2 0x3C69 JUMP JUMPDEST SWAP4 POP POP PUSH1 0x40 PUSH2 0x4064 DUP8 DUP3 DUP9 ADD PUSH2 0x3BB4 JUMP JUMPDEST SWAP3 POP POP PUSH1 0x60 DUP6 ADD CALLDATALOAD PUSH8 0xFFFFFFFFFFFFFFFF DUP2 GT ISZERO PUSH2 0x4085 JUMPI PUSH2 0x4084 PUSH2 0x3A21 JUMP JUMPDEST JUMPDEST PUSH2 0x4091 DUP8 DUP3 DUP9 ADD PUSH2 0x3FEC JUMP JUMPDEST SWAP2 POP POP SWAP3 SWAP6 SWAP2 SWAP5 POP SWAP3 POP JUMP JUMPDEST PUSH1 0x0 DUP1 PUSH1 0x40 DUP4 DUP6 SUB SLT ISZERO PUSH2 0x40B4 JUMPI PUSH2 0x40B3 PUSH2 0x3A1C JUMP JUMPDEST JUMPDEST PUSH1 0x0 PUSH2 0x40C2 DUP6 DUP3 DUP7 ADD PUSH2 0x3C69 JUMP JUMPDEST SWAP3 POP POP PUSH1 0x20 PUSH2 0x40D3 DUP6 DUP3 DUP7 ADD PUSH2 0x3C69 JUMP JUMPDEST SWAP2 POP POP SWAP3 POP SWAP3 SWAP1 POP JUMP JUMPDEST PUSH32 0x4E487B7100000000000000000000000000000000000000000000000000000000 PUSH1 0x0 MSTORE PUSH1 0x22 PUSH1 0x4 MSTORE PUSH1 0x24 PUSH1 0x0 REVERT JUMPDEST PUSH1 0x0 PUSH1 0x2 DUP3 DIV SWAP1 POP PUSH1 0x1 DUP3 AND DUP1 PUSH2 0x4124 JUMPI PUSH1 0x7F DUP3 AND SWAP2 POP JUMPDEST PUSH1 0x20 DUP3 LT DUP2 SUB PUSH2 0x4137 JUMPI PUSH2 0x4136 PUSH2 0x40DD JUMP JUMPDEST JUMPDEST POP SWAP2 SWAP1 POP JUMP JUMPDEST PUSH32 0x636F6D62696E696E67206E6F7420616374697665000000000000000000000000 PUSH1 0x0 DUP3 ADD MSTORE POP JUMP JUMPDEST PUSH1 0x0 PUSH2 0x4173 PUSH1 0x14 DUP4 PUSH2 0x3AEC JUMP JUMPDEST SWAP2 POP PUSH2 0x417E DUP3 PUSH2 0x413D JUMP JUMPDEST PUSH1 0x20 DUP3 ADD SWAP1 POP SWAP2 SWAP1 POP JUMP JUMPDEST PUSH1 0x0 PUSH1 0x20 DUP3 ADD SWAP1 POP DUP2 DUP2 SUB PUSH1 0x0 DUP4 ADD MSTORE PUSH2 0x41A2 DUP2 PUSH2 0x4166 JUMP JUMPDEST SWAP1 POP SWAP2 SWAP1 POP JUMP JUMPDEST PUSH32 0x4E487B7100000000000000000000000000000000000000000000000000000000 PUSH1 0x0 MSTORE PUSH1 0x32 PUSH1 0x4 MSTORE PUSH1 0x24 PUSH1 0x0 REVERT JUMPDEST PUSH32 0x6D757374206F776E20616C6C20746F6B656E7300000000000000000000000000 PUSH1 0x0 DUP3 ADD MSTORE POP JUMP JUMPDEST PUSH1 0x0 PUSH2 0x420E PUSH1 0x13 DUP4 PUSH2 0x3AEC JUMP JUMPDEST SWAP2 POP PUSH2 0x4219 DUP3 PUSH2 0x41D8 JUMP JUMPDEST PUSH1 0x20 DUP3 ADD SWAP1 POP SWAP2 SWAP1 POP JUMP JUMPDEST PUSH1 0x0 PUSH1 0x20 DUP3 ADD SWAP1 POP DUP2 DUP2 SUB PUSH1 0x0 DUP4 ADD MSTORE PUSH2 0x423D DUP2 PUSH2 0x4201 JUMP JUMPDEST SWAP1 POP SWAP2 SWAP1 POP JUMP JUMPDEST PUSH1 0x0 DUP2 SWAP1 POP SWAP3 SWAP2 POP POP JUMP JUMPDEST PUSH1 0x0 PUSH2 0x425A DUP3 PUSH2 0x3AE1 JUMP JUMPDEST PUSH2 0x4264 DUP2 DUP6 PUSH2 0x4244 JUMP JUMPDEST SWAP4 POP PUSH2 0x4274 DUP2 DUP6 PUSH1 0x20 DUP7 ADD PUSH2 0x3AFD JUMP JUMPDEST DUP1 DUP5 ADD SWAP2 POP POP SWAP3 SWAP2 POP POP JUMP JUMPDEST PUSH1 0x0 PUSH2 0x428C DUP3 DUP6 PUSH2 0x424F JUMP JUMPDEST SWAP2 POP PUSH2 0x4298 DUP3 DUP5 PUSH2 0x424F JUMP JUMPDEST SWAP2 POP DUP2 SWAP1 POP SWAP4 SWAP3 POP POP POP JUMP JUMPDEST PUSH32 0x4E487B7100000000000000000000000000000000000000000000000000000000 PUSH1 0x0 MSTORE PUSH1 0x11 PUSH1 0x4 MSTORE PUSH1 0x24 PUSH1 0x0 REVERT JUMPDEST PUSH1 0x0 PUSH2 0x42DE DUP3 PUSH2 0x3B93 JUMP JUMPDEST SWAP2 POP PUSH32 0xFFFFFFFFFFFFFFFFFFFFFFFFFFFFFFFFFFFFFFFFFFFFFFFFFFFFFFFFFFFFFFFF DUP3 SUB PUSH2 0x4310 JUMPI PUSH2 0x430F PUSH2 0x42A4 JUMP JUMPDEST JUMPDEST PUSH1 0x1 DUP3 ADD SWAP1 POP SWAP2 SWAP1 POP JUMP JUMPDEST PUSH32 0x76616C7565206E6F206D6F7265207468616E2034206368617261637465727300 PUSH1 0x0 DUP3 ADD MSTORE POP JUMP JUMPDEST PUSH1 0x0 PUSH2 0x4351 PUSH1 0x1F DUP4 PUSH2 0x3AEC JUMP JUMPDEST SWAP2 POP PUSH2 0x435C DUP3 PUSH2 0x431B JUMP JUMPDEST PUSH1 0x20 DUP3 ADD SWAP1 POP SWAP2 SWAP1 POP JUMP JUMPDEST PUSH1 0x0 PUSH1 0x20 DUP3 ADD SWAP1 POP DUP2 DUP2 SUB PUSH1 0x0 DUP4 ADD MSTORE PUSH2 0x4380 DUP2 PUSH2 0x4344 JUMP JUMPDEST SWAP1 POP SWAP2 SWAP1 POP JUMP JUMPDEST PUSH32 0x63616E277420636F6D62696E652062656361757365206C75636B79206E756D62 PUSH1 0x0 DUP3 ADD MSTORE PUSH32 0x6572206973200000000000000000000000000000000000000000000000000000 PUSH1 0x20 DUP3 ADD MSTORE POP JUMP JUMPDEST PUSH1 0x0 PUSH2 0x43E3 PUSH1 0x26 DUP4 PUSH2 0x4244 JUMP JUMPDEST SWAP2 POP PUSH2 0x43EE DUP3 PUSH2 0x4387 JUMP JUMPDEST PUSH1 0x26 DUP3 ADD SWAP1 POP SWAP2 SWAP1 POP JUMP JUMPDEST PUSH1 0x0 DUP2 SWAP1 POP DUP2 PUSH1 0x0 MSTORE PUSH1 0x20 PUSH1 0x0 KECCAK256 SWAP1 POP SWAP2 SWAP1 POP JUMP JUMPDEST PUSH1 0x0 DUP2 SLOAD PUSH2 0x441B DUP2 PUSH2 0x410C JUMP JUMPDEST PUSH2 0x4425 DUP2 DUP7 PUSH2 0x4244 JUMP JUMPDEST SWAP5 POP PUSH1 0x1 DUP3 AND PUSH1 0x0 DUP2 EQ PUSH2 0x4440 JUMPI PUSH1 0x1 DUP2 EQ PUSH2 0x4455 JUMPI PUSH2 0x4488 JUMP JUMPDEST PUSH1 0xFF NOT DUP4 AND DUP7 MSTORE DUP2 ISZERO ISZERO DUP3 MUL DUP7 ADD SWAP4 POP PUSH2 0x4488 JUMP JUMPDEST PUSH2 0x445E DUP6 PUSH2 0x43F9 JUMP JUMPDEST PUSH1 0x0 JUMPDEST DUP4 DUP2 LT ISZERO PUSH2 0x4480 JUMPI DUP2 SLOAD DUP2 DUP10 ADD MSTORE PUSH1 0x1 DUP3 ADD SWAP2 POP PUSH1 0x20 DUP2 ADD SWAP1 POP PUSH2 0x4461 JUMP JUMPDEST DUP4 DUP9 ADD SWAP6 POP POP POP JUMPDEST POP POP POP SWAP3 SWAP2 POP POP JUMP JUMPDEST PUSH1 0x0 PUSH2 0x449C DUP3 PUSH2 0x43D6 JUMP JUMPDEST SWAP2 POP PUSH2 0x44A8 DUP3 DUP5 PUSH2 0x440E JUMP JUMPDEST SWAP2 POP DUP2 SWAP1 POP SWAP3 SWAP2 POP POP JUMP JUMPDEST PUSH1 0x0 PUSH1 0x20 PUSH1 0x1F DUP4 ADD DIV SWAP1 POP SWAP2 SWAP1 POP JUMP JUMPDEST PUSH1 0x0 DUP3 DUP3 SHL SWAP1 POP SWAP3 SWAP2 POP POP JUMP JUMPDEST PUSH1 0x0 PUSH1 0x8 DUP4 MUL PUSH2 0x4500 PUSH32 0xFFFFFFFFFFFFFFFFFFFFFFFFFFFFFFFFFFFFFFFFFFFFFFFFFFFFFFFFFFFFFFFF DUP3 PUSH2 0x44C3 JUMP JUMPDEST PUSH2 0x450A DUP7 DUP4 PUSH2 0x44C3 JUMP JUMPDEST SWAP6 POP DUP1 NOT DUP5 AND SWAP4 POP DUP1 DUP7 AND DUP5 OR SWAP3 POP POP POP SWAP4 SWAP3 POP POP POP JUMP JUMPDEST PUSH1 0x0 DUP2 SWAP1 POP SWAP2 SWAP1 POP JUMP JUMPDEST PUSH1 0x0 PUSH2 0x4547 PUSH2 0x4542 PUSH2 0x453D DUP5 PUSH2 0x3B93 JUMP JUMPDEST PUSH2 0x4522 JUMP JUMPDEST PUSH2 0x3B93 JUMP JUMPDEST SWAP1 POP SWAP2 SWAP1 POP JUMP JUMPDEST PUSH1 0x0 DUP2 SWAP1 POP SWAP2 SWAP1 POP JUMP JUMPDEST PUSH2 0x4561 DUP4 PUSH2 0x452C JUMP JUMPDEST PUSH2 0x4575 PUSH2 0x456D DUP3 PUSH2 0x454E JUMP JUMPDEST DUP5 DUP5 SLOAD PUSH2 0x44D0 JUMP JUMPDEST DUP3 SSTORE POP POP POP POP JUMP JUMPDEST PUSH1 0x0 SWAP1 JUMP JUMPDEST PUSH2 0x458A PUSH2 0x457D JUMP JUMPDEST PUSH2 0x4595 DUP2 DUP5 DUP5 PUSH2 0x4558 JUMP JUMPDEST POP POP POP JUMP JUMPDEST JUMPDEST DUP2 DUP2 LT ISZERO PUSH2 0x45B9 JUMPI PUSH2 0x45AE PUSH1 0x0 DUP3 PUSH2 0x4582 JUMP JUMPDEST PUSH1 0x1 DUP2 ADD SWAP1 POP PUSH2 0x459B JUMP JUMPDEST POP POP JUMP JUMPDEST PUSH1 0x1F DUP3 GT ISZERO PUSH2 0x45FE JUMPI PUSH2 0x45CF DUP2 PUSH2 0x43F9 JUMP JUMPDEST PUSH2 0x45D8 DUP5 PUSH2 0x44B3 JUMP JUMPDEST DUP2 ADD PUSH1 0x20 DUP6 LT ISZERO PUSH2 0x45E7 JUMPI DUP2 SWAP1 POP JUMPDEST PUSH2 0x45FB PUSH2 0x45F3 DUP6 PUSH2 0x44B3 JUMP JUMPDEST DUP4 ADD DUP3 PUSH2 0x459A JUMP JUMPDEST POP POP JUMPDEST POP POP POP JUMP JUMPDEST PUSH1 0x0 DUP3 DUP3 SHR SWAP1 POP SWAP3 SWAP2 POP POP JUMP JUMPDEST PUSH1 0x0 PUSH2 0x4621 PUSH1 0x0 NOT DUP5 PUSH1 0x8 MUL PUSH2 0x4603 JUMP JUMPDEST NOT DUP1 DUP4 AND SWAP2 POP POP SWAP3 SWAP2 POP POP JUMP JUMPDEST PUSH1 0x0 PUSH2 0x463A DUP4 DUP4 PUSH2 0x4610 JUMP JUMPDEST SWAP2 POP DUP3 PUSH1 0x2 MUL DUP3 OR SWAP1 POP SWAP3 SWAP2 POP POP JUMP JUMPDEST PUSH2 0x4653 DUP3 PUSH2 0x3AE1 JUMP JUMPDEST PUSH8 0xFFFFFFFFFFFFFFFF DUP2 GT ISZERO PUSH2 0x466C JUMPI PUSH2 0x466B PUSH2 0x3D40 JUMP JUMPDEST JUMPDEST PUSH2 0x4676 DUP3 SLOAD PUSH2 0x410C JUMP JUMPDEST PUSH2 0x4681 DUP3 DUP3 DUP6 PUSH2 0x45BD JUMP JUMPDEST PUSH1 0x0 PUSH1 0x20 SWAP1 POP PUSH1 0x1F DUP4 GT PUSH1 0x1 DUP2 EQ PUSH2 0x46B4 JUMPI PUSH1 0x0 DUP5 ISZERO PUSH2 0x46A2 JUMPI DUP3 DUP8 ADD MLOAD SWAP1 POP JUMPDEST PUSH2 0x46AC DUP6 DUP3 PUSH2 0x462E JUMP JUMPDEST DUP7 SSTORE POP PUSH2 0x4714 JUMP JUMPDEST PUSH1 0x1F NOT DUP5 AND PUSH2 0x46C2 DUP7 PUSH2 0x43F9 JUMP JUMPDEST PUSH1 0x0 JUMPDEST DUP3 DUP2 LT ISZERO PUSH2 0x46EA JUMPI DUP5 DUP10 ADD MLOAD DUP3 SSTORE PUSH1 0x1 DUP3 ADD SWAP2 POP PUSH1 0x20 DUP6 ADD SWAP5 POP PUSH1 0x20 DUP2 ADD SWAP1 POP PUSH2 0x46C5 JUMP JUMPDEST DUP7 DUP4 LT ISZERO PUSH2 0x4707 JUMPI DUP5 DUP10 ADD MLOAD PUSH2 0x4703 PUSH1 0x1F DUP10 AND DUP3 PUSH2 0x4610 JUMP JUMPDEST DUP4 SSTORE POP JUMPDEST PUSH1 0x1 PUSH1 0x2 DUP9 MUL ADD DUP9 SSTORE POP POP POP JUMPDEST POP POP POP POP POP POP JUMP JUMPDEST PUSH1 0x0 PUSH2 0x4727 DUP3 PUSH2 0x3B93 JUMP JUMPDEST SWAP2 POP PUSH2 0x4732 DUP4 PUSH2 0x3B93 JUMP JUMPDEST SWAP3 POP DUP3 DUP3 MUL PUSH2 0x4740 DUP2 PUSH2 0x3B93 JUMP JUMPDEST SWAP2 POP DUP3 DUP3 DIV DUP5 EQ DUP4 ISZERO OR PUSH2 0x4757 JUMPI PUSH2 0x4756 PUSH2 0x42A4 JUMP JUMPDEST JUMPDEST POP SWAP3 SWAP2 POP POP JUMP JUMPDEST PUSH32 0x6E6F7420656E6F75676820657468000000000000000000000000000000000000 PUSH1 0x0 DUP3 ADD MSTORE POP JUMP JUMPDEST PUSH1 0x0 PUSH2 0x4794 PUSH1 0xE DUP4 PUSH2 0x3AEC JUMP JUMPDEST SWAP2 POP PUSH2 0x479F DUP3 PUSH2 0x475E JUMP JUMPDEST PUSH1 0x20 DUP3 ADD SWAP1 POP SWAP2 SWAP1 POP JUMP JUMPDEST PUSH1 0x0 PUSH1 0x20 DUP3 ADD SWAP1 POP DUP2 DUP2 SUB PUSH1 0x0 DUP4 ADD MSTORE PUSH2 0x47C3 DUP2 PUSH2 0x4787 JUMP JUMPDEST SWAP1 POP SWAP2 SWAP1 POP JUMP JUMPDEST PUSH32 0x4F776E61626C653A206E6577206F776E657220697320746865207A65726F2061 PUSH1 0x0 DUP3 ADD MSTORE PUSH32 0x6464726573730000000000000000000000000000000000000000000000000000 PUSH1 0x20 DUP3 ADD MSTORE POP JUMP JUMPDEST PUSH1 0x0 PUSH2 0x4826 PUSH1 0x26 DUP4 PUSH2 0x3AEC JUMP JUMPDEST SWAP2 POP PUSH2 0x4831 DUP3 PUSH2 0x47CA JUMP JUMPDEST PUSH1 0x40 DUP3 ADD SWAP1 POP SWAP2 SWAP1 POP JUMP JUMPDEST PUSH1 0x0 PUSH1 0x20 DUP3 ADD SWAP1 POP DUP2 DUP2 SUB PUSH1 0x0 DUP4 ADD MSTORE PUSH2 0x4855 DUP2 PUSH2 0x4819 JUMP JUMPDEST SWAP1 POP SWAP2 SWAP1 POP JUMP JUMPDEST PUSH1 0x0 PUSH2 0x4868 DUP3 DUP5 PUSH2 0x424F JUMP JUMPDEST SWAP2 POP DUP2 SWAP1 POP SWAP3 SWAP2 POP POP JUMP JUMPDEST PUSH1 0x0 DUP2 SWAP1 POP SWAP2 SWAP1 POP JUMP JUMPDEST PUSH2 0x488E PUSH2 0x4889 DUP3 PUSH2 0x3B93 JUMP JUMPDEST PUSH2 0x4873 JUMP JUMPDEST DUP3 MSTORE POP POP JUMP JUMPDEST PUSH1 0x0 PUSH2 0x48A0 DUP3 DUP6 PUSH2 0x487D JUMP JUMPDEST PUSH1 0x20 DUP3 ADD SWAP2 POP PUSH2 0x48B0 DUP3 DUP5 PUSH2 0x487D JUMP JUMPDEST PUSH1 0x20 DUP3 ADD SWAP2 POP DUP2 SWAP1 POP SWAP4 SWAP3 POP POP POP JUMP JUMPDEST PUSH32 0x4E487B7100000000000000000000000000000000000000000000000000000000 PUSH1 0x0 MSTORE PUSH1 0x12 PUSH1 0x4 MSTORE PUSH1 0x24 PUSH1 0x0 REVERT JUMPDEST PUSH1 0x0 PUSH2 0x48FA DUP3 PUSH2 0x3B93 JUMP JUMPDEST SWAP2 POP PUSH2 0x4905 DUP4 PUSH2 0x3B93 JUMP JUMPDEST SWAP3 POP DUP3 PUSH2 0x4915 JUMPI PUSH2 0x4914 PUSH2 0x48C0 JUMP JUMPDEST JUMPDEST DUP3 DUP3 MOD SWAP1 POP SWAP3 SWAP2 POP POP JUMP JUMPDEST PUSH32 0x4F776E61626C653A2063616C6C6572206973206E6F7420746865206F776E6572 PUSH1 0x0 DUP3 ADD MSTORE POP JUMP JUMPDEST PUSH1 0x0 PUSH2 0x4956 PUSH1 0x20 DUP4 PUSH2 0x3AEC JUMP JUMPDEST SWAP2 POP PUSH2 0x4961 DUP3 PUSH2 0x4920 JUMP JUMPDEST PUSH1 0x20 DUP3 ADD SWAP1 POP SWAP2 SWAP1 POP JUMP JUMPDEST PUSH1 0x0 PUSH1 0x20 DUP3 ADD SWAP1 POP DUP2 DUP2 SUB PUSH1 0x0 DUP4 ADD MSTORE PUSH2 0x4985 DUP2 PUSH2 0x4949 JUMP JUMPDEST SWAP1 POP SWAP2 SWAP1 POP JUMP JUMPDEST PUSH32 0x4C656E6774682063616E6E6F742062652067726561746572207468616E203400 PUSH1 0x0 DUP3 ADD MSTORE POP JUMP JUMPDEST PUSH1 0x0 PUSH2 0x49C2 PUSH1 0x1F DUP4 PUSH2 0x3AEC JUMP JUMPDEST SWAP2 POP PUSH2 0x49CD DUP3 PUSH2 0x498C JUMP JUMPDEST PUSH1 0x20 DUP3 ADD SWAP1 POP SWAP2 SWAP1 POP JUMP JUMPDEST PUSH1 0x0 PUSH1 0x20 DUP3 ADD SWAP1 POP DUP2 DUP2 SUB PUSH1 0x0 DUP4 ADD MSTORE PUSH2 0x49F1 DUP2 PUSH2 0x49B5 JUMP JUMPDEST SWAP1 POP SWAP2 SWAP1 POP JUMP JUMPDEST PUSH32 0x4C656E6774682063616E6E6F74206265205A65726F0000000000000000000000 PUSH1 0x0 DUP3 ADD MSTORE POP JUMP JUMPDEST PUSH1 0x0 PUSH2 0x4A2E PUSH1 0x15 DUP4 PUSH2 0x3AEC JUMP JUMPDEST SWAP2 POP PUSH2 0x4A39 DUP3 PUSH2 0x49F8 JUMP JUMPDEST PUSH1 0x20 DUP3 ADD SWAP1 POP SWAP2 SWAP1 POP JUMP JUMPDEST PUSH1 0x0 PUSH1 0x20 DUP3 ADD SWAP1 POP DUP2 DUP2 SUB PUSH1 0x0 DUP4 ADD MSTORE PUSH2 0x4A5D DUP2 PUSH2 0x4A21 JUMP JUMPDEST SWAP1 POP SWAP2 SWAP1 POP JUMP JUMPDEST PUSH1 0x0 PUSH2 0x4A6F DUP3 PUSH2 0x3B93 JUMP JUMPDEST SWAP2 POP PUSH2 0x4A7A DUP4 PUSH2 0x3B93 JUMP JUMPDEST SWAP3 POP DUP3 DUP3 SUB SWAP1 POP DUP2 DUP2 GT ISZERO PUSH2 0x4A92 JUMPI PUSH2 0x4A91 PUSH2 0x42A4 JUMP JUMPDEST JUMPDEST SWAP3 SWAP2 POP POP JUMP JUMPDEST PUSH32 0x6D696E7420697320636C6F736564000000000000000000000000000000000000 PUSH1 0x0 DUP3 ADD MSTORE POP JUMP JUMPDEST PUSH1 0x0 PUSH2 0x4ACE PUSH1 0xE DUP4 PUSH2 0x3AEC JUMP JUMPDEST SWAP2 POP PUSH2 0x4AD9 DUP3 PUSH2 0x4A98 JUMP JUMPDEST PUSH1 0x20 DUP3 ADD SWAP1 POP SWAP2 SWAP1 POP JUMP JUMPDEST PUSH1 0x0 PUSH1 0x20 DUP3 ADD SWAP1 POP DUP2 DUP2 SUB PUSH1 0x0 DUP4 ADD MSTORE PUSH2 0x4AFD DUP2 PUSH2 0x4AC1 JUMP JUMPDEST SWAP1 POP SWAP2 SWAP1 POP JUMP JUMPDEST PUSH1 0x0 PUSH2 0x4B0F DUP3 PUSH2 0x3B93 JUMP JUMPDEST SWAP2 POP PUSH2 0x4B1A DUP4 PUSH2 0x3B93 JUMP JUMPDEST SWAP3 POP DUP3 DUP3 ADD SWAP1 POP DUP1 DUP3 GT ISZERO PUSH2 0x4B32 JUMPI PUSH2 0x4B31 PUSH2 0x42A4 JUMP JUMPDEST JUMPDEST SWAP3 SWAP2 POP POP JUMP JUMPDEST PUSH1 0x0 DUP2 MLOAD SWAP1 POP SWAP2 SWAP1 POP JUMP JUMPDEST PUSH1 0x0 DUP3 DUP3 MSTORE PUSH1 0x20 DUP3 ADD SWAP1 POP SWAP3 SWAP2 POP POP JUMP JUMPDEST PUSH1 0x0 PUSH2 0x4B5F DUP3 PUSH2 0x4B38 JUMP JUMPDEST PUSH2 0x4B69 DUP2 DUP6 PUSH2 0x4B43 JUMP JUMPDEST SWAP4 POP PUSH2 0x4B79 DUP2 DUP6 PUSH1 0x20 DUP7 ADD PUSH2 0x3AFD JUMP JUMPDEST PUSH2 0x4B82 DUP2 PUSH2 0x3B27 JUMP JUMPDEST DUP5 ADD SWAP2 POP POP SWAP3 SWAP2 POP POP JUMP JUMPDEST PUSH1 0x0 PUSH1 0x80 DUP3 ADD SWAP1 POP PUSH2 0x4BA2 PUSH1 0x0 DUP4 ADD DUP8 PUSH2 0x3C28 JUMP JUMPDEST PUSH2 0x4BAF PUSH1 0x20 DUP4 ADD DUP7 PUSH2 0x3C28 JUMP JUMPDEST PUSH2 0x4BBC PUSH1 0x40 DUP4 ADD DUP6 PUSH2 0x3CBE JUMP JUMPDEST DUP2 DUP2 SUB PUSH1 0x60 DUP4 ADD MSTORE PUSH2 0x4BCE DUP2 DUP5 PUSH2 0x4B54 JUMP JUMPDEST SWAP1 POP SWAP6 SWAP5 POP POP POP POP POP JUMP JUMPDEST PUSH1 0x0 DUP2 MLOAD SWAP1 POP PUSH2 0x4BE8 DUP2 PUSH2 0x3A52 JUMP JUMPDEST SWAP3 SWAP2 POP POP JUMP JUMPDEST PUSH1 0x0 PUSH1 0x20 DUP3 DUP5 SUB SLT ISZERO PUSH2 0x4C04 JUMPI PUSH2 0x4C03 PUSH2 0x3A1C JUMP JUMPDEST JUMPDEST PUSH1 0x0 PUSH2 0x4C12 DUP5 DUP3 DUP6 ADD PUSH2 0x4BD9 JUMP JUMPDEST SWAP2 POP POP SWAP3 SWAP2 POP POP JUMP JUMPDEST PUSH32 0x7B226E616D65223A2022434F4D42494E455F4E554D4245522000000000000000 PUSH1 0x0 DUP3 ADD MSTORE POP JUMP JUMPDEST PUSH1 0x0 PUSH2 0x4C51 PUSH1 0x19 DUP4 PUSH2 0x4244 JUMP JUMPDEST SWAP2 POP PUSH2 0x4C5C DUP3 PUSH2 0x4C1B JUMP JUMPDEST PUSH1 0x19 DUP3 ADD SWAP1 POP SWAP2 SWAP1 POP JUMP JUMPDEST PUSH32 0x205B4255524E45445D222C20226465736372697074696F6E223A20224E756D62 PUSH1 0x0 DUP3 ADD MSTORE PUSH32 0x65727320617265206172742C20616E642077652061726520617274697374732E PUSH1 0x20 DUP3 ADD MSTORE PUSH32 0x222C202261747472696275746573223A5B7B2274726169745F74797065223A20 PUSH1 0x40 DUP3 ADD MSTORE PUSH32 0x224275726E6564222C202276616C7565223A2022596573227D5D2C2022696D61 PUSH1 0x60 DUP3 ADD MSTORE PUSH32 0x6765223A2022646174613A696D6167652F7376672B786D6C3B6261736536342C PUSH1 0x80 DUP3 ADD MSTORE POP JUMP JUMPDEST PUSH1 0x0 PUSH2 0x4D35 PUSH1 0xA0 DUP4 PUSH2 0x4244 JUMP JUMPDEST SWAP2 POP PUSH2 0x4D40 DUP3 PUSH2 0x4C67 JUMP JUMPDEST PUSH1 0xA0 DUP3 ADD SWAP1 POP SWAP2 SWAP1 POP JUMP JUMPDEST PUSH32 0x227D000000000000000000000000000000000000000000000000000000000000 PUSH1 0x0 DUP3 ADD MSTORE POP JUMP JUMPDEST PUSH1 0x0 PUSH2 0x4D81 PUSH1 0x2 DUP4 PUSH2 0x4244 JUMP JUMPDEST SWAP2 POP PUSH2 0x4D8C DUP3 PUSH2 0x4D4B JUMP JUMPDEST PUSH1 0x2 DUP3 ADD SWAP1 POP SWAP2 SWAP1 POP JUMP JUMPDEST PUSH1 0x0 PUSH2 0x4DA2 DUP3 PUSH2 0x4C44 JUMP JUMPDEST SWAP2 POP PUSH2 0x4DAE DUP3 DUP6 PUSH2 0x424F JUMP JUMPDEST SWAP2 POP PUSH2 0x4DB9 DUP3 PUSH2 0x4D28 JUMP JUMPDEST SWAP2 POP PUSH2 0x4DC5 DUP3 DUP5 PUSH2 0x424F JUMP JUMPDEST SWAP2 POP PUSH2 0x4DD0 DUP3 PUSH2 0x4D74 JUMP JUMPDEST SWAP2 POP DUP2 SWAP1 POP SWAP4 SWAP3 POP POP POP JUMP JUMPDEST PUSH32 0x222C20226465736372697074696F6E223A20224E756D62657273206172652061 PUSH1 0x0 DUP3 ADD MSTORE PUSH32 0x72742C20616E642077652061726520617274697374732E222C20226174747269 PUSH1 0x20 DUP3 ADD MSTORE PUSH32 0x6275746573223A5B7B2274726169745F74797065223A20224E756D626572222C PUSH1 0x40 DUP3 ADD MSTORE PUSH32 0x20226D61785F76616C7565223A20393939392C202276616C7565223A20000000 PUSH1 0x60 DUP3 ADD MSTORE POP JUMP JUMPDEST PUSH1 0x0 PUSH2 0x4E84 PUSH1 0x7D DUP4 PUSH2 0x4244 JUMP JUMPDEST SWAP2 POP PUSH2 0x4E8F DUP3 PUSH2 0x4DDC JUMP JUMPDEST PUSH1 0x7D DUP3 ADD SWAP1 POP SWAP2 SWAP1 POP JUMP JUMPDEST PUSH32 0x7D2C7B2274726169745F74797065223A20224275726E6564222C202276616C75 PUSH1 0x0 DUP3 ADD MSTORE PUSH32 0x65223A20224E6F227D2C7B2274726169745F74797065223A2022426173652043 PUSH1 0x20 DUP3 ADD MSTORE PUSH32 0x6F6C6F72222C202276616C7565223A2022000000000000000000000000000000 PUSH1 0x40 DUP3 ADD MSTORE POP JUMP JUMPDEST PUSH1 0x0 PUSH2 0x4F1C PUSH1 0x51 DUP4 PUSH2 0x4244 JUMP JUMPDEST SWAP2 POP PUSH2 0x4F27 DUP3 PUSH2 0x4E9A JUMP JUMPDEST PUSH1 0x51 DUP3 ADD SWAP1 POP SWAP2 SWAP1 POP JUMP JUMPDEST PUSH32 0x227D2C7B2274726169745F74797065223A2022436F6C6F72222C202276616C75 PUSH1 0x0 DUP3 ADD MSTORE PUSH32 0x65223A2022524742280000000000000000000000000000000000000000000000 PUSH1 0x20 DUP3 ADD MSTORE POP JUMP JUMPDEST PUSH1 0x0 PUSH2 0x4F8E PUSH1 0x29 DUP4 PUSH2 0x4244 JUMP JUMPDEST SWAP2 POP PUSH2 0x4F99 DUP3 PUSH2 0x4F32 JUMP JUMPDEST PUSH1 0x29 DUP3 ADD SWAP1 POP SWAP2 SWAP1 POP JUMP JUMPDEST PUSH32 0x2C00000000000000000000000000000000000000000000000000000000000000 PUSH1 0x0 DUP3 ADD MSTORE POP JUMP JUMPDEST PUSH1 0x0 PUSH2 0x4FDA PUSH1 0x1 DUP4 PUSH2 0x4244 JUMP JUMPDEST SWAP2 POP PUSH2 0x4FE5 DUP3 PUSH2 0x4FA4 JUMP JUMPDEST PUSH1 0x1 DUP3 ADD SWAP1 POP SWAP2 SWAP1 POP JUMP JUMPDEST PUSH32 0x29227D5D2C2022696D616765223A2022646174613A696D6167652F7376672B78 PUSH1 0x0 DUP3 ADD MSTORE PUSH32 0x6D6C3B6261736536342C00000000000000000000000000000000000000000000 PUSH1 0x20 DUP3 ADD MSTORE POP JUMP JUMPDEST PUSH1 0x0 PUSH2 0x504C PUSH1 0x2A DUP4 PUSH2 0x4244 JUMP JUMPDEST SWAP2 POP PUSH2 0x5057 DUP3 PUSH2 0x4FF0 JUMP JUMPDEST PUSH1 0x2A DUP3 ADD SWAP1 POP SWAP2 SWAP1 POP JUMP JUMPDEST PUSH1 0x0 PUSH2 0x506D DUP3 PUSH2 0x4C44 JUMP JUMPDEST SWAP2 POP PUSH2 0x5079 DUP3 DUP11 PUSH2 0x424F JUMP JUMPDEST SWAP2 POP PUSH2 0x5084 DUP3 PUSH2 0x4E77 JUMP JUMPDEST SWAP2 POP PUSH2 0x5090 DUP3 DUP10 PUSH2 0x424F JUMP JUMPDEST SWAP2 POP PUSH2 0x509B DUP3 PUSH2 0x4F0F JUMP JUMPDEST SWAP2 POP PUSH2 0x50A7 DUP3 DUP9 PUSH2 0x424F JUMP JUMPDEST SWAP2 POP PUSH2 0x50B2 DUP3 PUSH2 0x4F81 JUMP JUMPDEST SWAP2 POP PUSH2 0x50BE DUP3 DUP8 PUSH2 0x424F JUMP JUMPDEST SWAP2 POP PUSH2 0x50C9 DUP3 PUSH2 0x4FCD JUMP JUMPDEST SWAP2 POP PUSH2 0x50D5 DUP3 DUP7 PUSH2 0x424F JUMP JUMPDEST SWAP2 POP PUSH2 0x50E0 DUP3 PUSH2 0x4FCD JUMP JUMPDEST SWAP2 POP PUSH2 0x50EC DUP3 DUP6 PUSH2 0x424F JUMP JUMPDEST SWAP2 POP PUSH2 0x50F7 DUP3 PUSH2 0x503F JUMP JUMPDEST SWAP2 POP PUSH2 0x5103 DUP3 DUP5 PUSH2 0x424F JUMP JUMPDEST SWAP2 POP PUSH2 0x510E DUP3 PUSH2 0x4D74 JUMP JUMPDEST SWAP2 POP DUP2 SWAP1 POP SWAP9 SWAP8 POP POP POP POP POP POP POP POP JUMP JUMPDEST PUSH32 0x646174613A6170706C69636174696F6E2F6A736F6E3B6261736536342C000000 PUSH1 0x0 DUP3 ADD MSTORE POP JUMP JUMPDEST PUSH1 0x0 PUSH2 0x5155 PUSH1 0x1D DUP4 PUSH2 0x4244 JUMP JUMPDEST SWAP2 POP PUSH2 0x5160 DUP3 PUSH2 0x511F JUMP JUMPDEST PUSH1 0x1D DUP3 ADD SWAP1 POP SWAP2 SWAP1 POP JUMP JUMPDEST PUSH1 0x0 PUSH2 0x5176 DUP3 PUSH2 0x5148 JUMP JUMPDEST SWAP2 POP PUSH2 0x5182 DUP3 DUP5 PUSH2 0x424F JUMP JUMPDEST SWAP2 POP DUP2 SWAP1 POP SWAP3 SWAP2 POP POP JUMP JUMPDEST PUSH1 0x0 PUSH2 0x5198 DUP3 PUSH2 0x3B93 JUMP JUMPDEST SWAP2 POP PUSH2 0x51A3 DUP4 PUSH2 0x3B93 JUMP JUMPDEST SWAP3 POP DUP3 PUSH2 0x51B3 JUMPI PUSH2 0x51B2 PUSH2 0x48C0 JUMP JUMPDEST JUMPDEST DUP3 DUP3 DIV SWAP1 POP SWAP3 SWAP2 POP POP JUMP JUMPDEST PUSH1 0x0 PUSH1 0xFF DUP3 AND SWAP1 POP SWAP2 SWAP1 POP JUMP JUMPDEST PUSH1 0x0 PUSH2 0x51D6 DUP3 PUSH2 0x51BE JUMP JUMPDEST SWAP2 POP PUSH2 0x51E1 DUP4 PUSH2 0x51BE JUMP JUMPDEST SWAP3 POP DUP3 DUP3 ADD SWAP1 POP PUSH1 0xFF DUP2 GT ISZERO PUSH2 0x51FA JUMPI PUSH2 0x51F9 PUSH2 0x42A4 JUMP JUMPDEST JUMPDEST SWAP3 SWAP2 POP POP JUMP JUMPDEST PUSH32 0x2A7B66696C6C3A72676228000000000000000000000000000000000000000000 PUSH1 0x0 DUP3 ADD MSTORE POP JUMP JUMPDEST PUSH1 0x0 PUSH2 0x5236 PUSH1 0xB DUP4 PUSH2 0x4244 JUMP JUMPDEST SWAP2 POP PUSH2 0x5241 DUP3 PUSH2 0x5200 JUMP JUMPDEST PUSH1 0xB DUP3 ADD SWAP1 POP SWAP2 SWAP1 POP JUMP JUMPDEST PUSH32 0x297D2362677B66696C6C3A233043304330437D00000000000000000000000000 PUSH1 0x0 DUP3 ADD MSTORE POP JUMP JUMPDEST PUSH1 0x0 PUSH2 0x5282 PUSH1 0x13 DUP4 PUSH2 0x4244 JUMP JUMPDEST SWAP2 POP PUSH2 0x528D DUP3 PUSH2 0x524C JUMP JUMPDEST PUSH1 0x13 DUP3 ADD SWAP1 POP SWAP2 SWAP1 POP JUMP JUMPDEST PUSH1 0x0 PUSH2 0x52A3 DUP3 PUSH2 0x5229 JUMP JUMPDEST SWAP2 POP PUSH2 0x52AF DUP3 DUP7 PUSH2 0x424F JUMP JUMPDEST SWAP2 POP PUSH2 0x52BA DUP3 PUSH2 0x4FCD JUMP JUMPDEST SWAP2 POP PUSH2 0x52C6 DUP3 DUP6 PUSH2 0x424F JUMP JUMPDEST SWAP2 POP PUSH2 0x52D1 DUP3 PUSH2 0x4FCD JUMP JUMPDEST SWAP2 POP PUSH2 0x52DD DUP3 DUP5 PUSH2 0x424F JUMP JUMPDEST SWAP2 POP PUSH2 0x52E8 DUP3 PUSH2 0x5275 JUMP JUMPDEST SWAP2 POP DUP2 SWAP1 POP SWAP5 SWAP4 POP POP POP POP JUMP JUMPDEST PUSH32 0x3C2F7374796C653E3C2F7376673E000000000000000000000000000000000000 PUSH1 0x0 DUP3 ADD MSTORE POP JUMP JUMPDEST PUSH1 0x0 PUSH2 0x532B PUSH1 0xE DUP4 PUSH2 0x4244 JUMP JUMPDEST SWAP2 POP PUSH2 0x5336 DUP3 PUSH2 0x52F5 JUMP JUMPDEST PUSH1 0xE DUP3 ADD SWAP1 POP SWAP2 SWAP1 POP JUMP JUMPDEST PUSH1 0x0 PUSH2 0x534D DUP3 DUP6 PUSH2 0x424F JUMP JUMPDEST SWAP2 POP PUSH2 0x5359 DUP3 DUP5 PUSH2 0x424F JUMP JUMPDEST SWAP2 POP PUSH2 0x5364 DUP3 PUSH2 0x531E JUMP JUMPDEST SWAP2 POP DUP2 SWAP1 POP SWAP4 SWAP3 POP POP POP JUMP JUMPDEST PUSH1 0x0 PUSH2 0x537C DUP3 DUP5 PUSH2 0x487D JUMP JUMPDEST PUSH1 0x20 DUP3 ADD SWAP2 POP DUP2 SWAP1 POP SWAP3 SWAP2 POP POP JUMP JUMPDEST PUSH1 0x0 PUSH32 0xFF00000000000000000000000000000000000000000000000000000000000000 DUP3 AND SWAP1 POP SWAP2 SWAP1 POP JUMP JUMPDEST PUSH1 0x0 DUP2 SWAP1 POP SWAP2 SWAP1 POP JUMP JUMPDEST PUSH2 0x53D2 PUSH2 0x53CD DUP3 PUSH2 0x538B JUMP JUMPDEST PUSH2 0x53B7 JUMP JUMPDEST DUP3 MSTORE POP POP JUMP JUMPDEST PUSH1 0x0 PUSH2 0x53E4 DUP3 DUP5 PUSH2 0x53C1 JUMP JUMPDEST PUSH1 0x1 DUP3 ADD SWAP2 POP DUP2 SWAP1 POP SWAP3 SWAP2 POP POP JUMP JUMPDEST PUSH32 0x2370000000000000000000000000000000000000000000000000000000000000 PUSH1 0x0 DUP3 ADD MSTORE POP JUMP JUMPDEST PUSH1 0x0 PUSH2 0x5429 PUSH1 0x2 DUP4 PUSH2 0x4244 JUMP JUMPDEST SWAP2 POP PUSH2 0x5434 DUP3 PUSH2 0x53F3 JUMP JUMPDEST PUSH1 0x2 DUP3 ADD SWAP1 POP SWAP2 SWAP1 POP JUMP JUMPDEST PUSH32 0x312C000000000000000000000000000000000000000000000000000000000000 PUSH1 0x0 DUP3 ADD MSTORE POP JUMP JUMPDEST PUSH1 0x0 PUSH2 0x5475 PUSH1 0x2 DUP4 PUSH2 0x4244 JUMP JUMPDEST SWAP2 POP PUSH2 0x5480 DUP3 PUSH2 0x543F JUMP JUMPDEST PUSH1 0x2 DUP3 ADD SWAP1 POP SWAP2 SWAP1 POP JUMP JUMPDEST PUSH32 0x322C000000000000000000000000000000000000000000000000000000000000 PUSH1 0x0 DUP3 ADD MSTORE POP JUMP JUMPDEST PUSH1 0x0 PUSH2 0x54C1 PUSH1 0x2 DUP4 PUSH2 0x4244 JUMP JUMPDEST SWAP2 POP PUSH2 0x54CC DUP3 PUSH2 0x548B JUMP JUMPDEST PUSH1 0x2 DUP3 ADD SWAP1 POP SWAP2 SWAP1 POP JUMP JUMPDEST PUSH32 0x332C000000000000000000000000000000000000000000000000000000000000 PUSH1 0x0 DUP3 ADD MSTORE POP JUMP JUMPDEST PUSH1 0x0 PUSH2 0x550D PUSH1 0x2 DUP4 PUSH2 0x4244 JUMP JUMPDEST SWAP2 POP PUSH2 0x5518 DUP3 PUSH2 0x54D7 JUMP JUMPDEST PUSH1 0x2 DUP3 ADD SWAP1 POP SWAP2 SWAP1 POP JUMP JUMPDEST PUSH32 0x352C000000000000000000000000000000000000000000000000000000000000 PUSH1 0x0 DUP3 ADD MSTORE POP JUMP JUMPDEST PUSH1 0x0 PUSH2 0x5559 PUSH1 0x2 DUP4 PUSH2 0x4244 JUMP JUMPDEST SWAP2 POP PUSH2 0x5564 DUP3 PUSH2 0x5523 JUMP JUMPDEST PUSH1 0x2 DUP3 ADD SWAP1 POP SWAP2 SWAP1 POP JUMP JUMPDEST PUSH32 0x362C000000000000000000000000000000000000000000000000000000000000 PUSH1 0x0 DUP3 ADD MSTORE POP JUMP JUMPDEST PUSH1 0x0 PUSH2 0x55A5 PUSH1 0x2 DUP4 PUSH2 0x4244 JUMP JUMPDEST SWAP2 POP PUSH2 0x55B0 DUP3 PUSH2 0x556F JUMP JUMPDEST PUSH1 0x2 DUP3 ADD SWAP1 POP SWAP2 SWAP1 POP JUMP JUMPDEST PUSH32 0x37207B66696C6C2D6F7061636974793A317D0000000000000000000000000000 PUSH1 0x0 DUP3 ADD MSTORE POP JUMP JUMPDEST PUSH1 0x0 PUSH2 0x55F1 PUSH1 0x12 DUP4 PUSH2 0x4244 JUMP JUMPDEST SWAP2 POP PUSH2 0x55FC DUP3 PUSH2 0x55BB JUMP JUMPDEST PUSH1 0x12 DUP3 ADD SWAP1 POP SWAP2 SWAP1 POP JUMP JUMPDEST PUSH1 0x0 PUSH2 0x5612 DUP3 PUSH2 0x541C JUMP JUMPDEST SWAP2 POP PUSH2 0x561E DUP3 DUP10 PUSH2 0x424F JUMP JUMPDEST SWAP2 POP PUSH2 0x5629 DUP3 PUSH2 0x5468 JUMP JUMPDEST SWAP2 POP PUSH2 0x5634 DUP3 PUSH2 0x541C JUMP JUMPDEST SWAP2 POP PUSH2 0x5640 DUP3 DUP9 PUSH2 0x424F JUMP JUMPDEST SWAP2 POP PUSH2 0x564B DUP3 PUSH2 0x54B4 JUMP JUMPDEST SWAP2 POP PUSH2 0x5656 DUP3 PUSH2 0x541C JUMP JUMPDEST SWAP2 POP PUSH2 0x5662 DUP3 DUP8 PUSH2 0x424F JUMP JUMPDEST SWAP2 POP PUSH2 0x566D DUP3 PUSH2 0x5500 JUMP JUMPDEST SWAP2 POP PUSH2 0x5678 DUP3 PUSH2 0x541C JUMP JUMPDEST SWAP2 POP PUSH2 0x5684 DUP3 DUP7 PUSH2 0x424F JUMP JUMPDEST SWAP2 POP PUSH2 0x568F DUP3 PUSH2 0x554C JUMP JUMPDEST SWAP2 POP PUSH2 0x569A DUP3 PUSH2 0x541C JUMP JUMPDEST SWAP2 POP PUSH2 0x56A6 DUP3 DUP6 PUSH2 0x424F JUMP JUMPDEST SWAP2 POP PUSH2 0x56B1 DUP3 PUSH2 0x5598 JUMP JUMPDEST SWAP2 POP PUSH2 0x56BC DUP3 PUSH2 0x541C JUMP JUMPDEST SWAP2 POP PUSH2 0x56C8 DUP3 DUP5 PUSH2 0x424F JUMP JUMPDEST SWAP2 POP PUSH2 0x56D3 DUP3 PUSH2 0x55E4 JUMP JUMPDEST SWAP2 POP DUP2 SWAP1 POP SWAP8 SWAP7 POP POP POP POP POP POP POP JUMP JUMPDEST PUSH32 0x36207B66696C6C2D6F7061636974793A317D0000000000000000000000000000 PUSH1 0x0 DUP3 ADD MSTORE POP JUMP JUMPDEST PUSH1 0x0 PUSH2 0x5719 PUSH1 0x12 DUP4 PUSH2 0x4244 JUMP JUMPDEST SWAP2 POP PUSH2 0x5724 DUP3 PUSH2 0x56E3 JUMP JUMPDEST PUSH1 0x12 DUP3 ADD SWAP1 POP SWAP2 SWAP1 POP JUMP JUMPDEST PUSH1 0x0 PUSH2 0x573A DUP3 PUSH2 0x541C JUMP JUMPDEST SWAP2 POP PUSH2 0x5746 DUP3 DUP6 PUSH2 0x424F JUMP JUMPDEST SWAP2 POP PUSH2 0x5751 DUP3 PUSH2 0x5500 JUMP JUMPDEST SWAP2 POP PUSH2 0x575C DUP3 PUSH2 0x541C JUMP JUMPDEST SWAP2 POP PUSH2 0x5768 DUP3 DUP5 PUSH2 0x424F JUMP JUMPDEST SWAP2 POP PUSH2 0x5773 DUP3 PUSH2 0x570C JUMP JUMPDEST SWAP2 POP DUP2 SWAP1 POP SWAP4 SWAP3 POP POP POP JUMP JUMPDEST PUSH32 0x342C000000000000000000000000000000000000000000000000000000000000 PUSH1 0x0 DUP3 ADD MSTORE POP JUMP JUMPDEST PUSH1 0x0 PUSH2 0x57B5 PUSH1 0x2 DUP4 PUSH2 0x4244 JUMP JUMPDEST SWAP2 POP PUSH2 0x57C0 DUP3 PUSH2 0x577F JUMP JUMPDEST PUSH1 0x2 DUP3 ADD SWAP1 POP SWAP2 SWAP1 POP JUMP JUMPDEST PUSH1 0x0 PUSH2 0x57D6 DUP3 PUSH2 0x541C JUMP JUMPDEST SWAP2 POP PUSH2 0x57E2 DUP3 DUP9 PUSH2 0x424F JUMP JUMPDEST SWAP2 POP PUSH2 0x57ED DUP3 PUSH2 0x5468 JUMP JUMPDEST SWAP2 POP PUSH2 0x57F8 DUP3 PUSH2 0x541C JUMP JUMPDEST SWAP2 POP PUSH2 0x5804 DUP3 DUP8 PUSH2 0x424F JUMP JUMPDEST SWAP2 POP PUSH2 0x580F DUP3 PUSH2 0x5500 JUMP JUMPDEST SWAP2 POP PUSH2 0x581A DUP3 PUSH2 0x541C JUMP JUMPDEST SWAP2 POP PUSH2 0x5826 DUP3 DUP7 PUSH2 0x424F JUMP JUMPDEST SWAP2 POP PUSH2 0x5831 DUP3 PUSH2 0x57A8 JUMP JUMPDEST SWAP2 POP PUSH2 0x583C DUP3 PUSH2 0x541C JUMP JUMPDEST SWAP2 POP PUSH2 0x5848 DUP3 DUP6 PUSH2 0x424F JUMP JUMPDEST SWAP2 POP PUSH2 0x5853 DUP3 PUSH2 0x554C JUMP JUMPDEST SWAP2 POP PUSH2 0x585E DUP3 PUSH2 0x541C JUMP JUMPDEST SWAP2 POP PUSH2 0x586A DUP3 DUP5 PUSH2 0x424F JUMP JUMPDEST SWAP2 POP PUSH2 0x5875 DUP3 PUSH2 0x55E4 JUMP JUMPDEST SWAP2 POP DUP2 SWAP1 POP SWAP7 SWAP6 POP POP POP POP POP POP JUMP JUMPDEST PUSH1 0x0 PUSH2 0x588F DUP3 PUSH2 0x541C JUMP JUMPDEST SWAP2 POP PUSH2 0x589B DUP3 DUP9 PUSH2 0x424F JUMP JUMPDEST SWAP2 POP PUSH2 0x58A6 DUP3 PUSH2 0x5468 JUMP JUMPDEST SWAP2 POP PUSH2 0x58B1 DUP3 PUSH2 0x541C JUMP JUMPDEST SWAP2 POP PUSH2 0x58BD DUP3 DUP8 PUSH2 0x424F JUMP JUMPDEST SWAP2 POP PUSH2 0x58C8 DUP3 PUSH2 0x5500 JUMP JUMPDEST SWAP2 POP PUSH2 0x58D3 DUP3 PUSH2 0x541C JUMP JUMPDEST SWAP2 POP PUSH2 0x58DF DUP3 DUP7 PUSH2 0x424F JUMP JUMPDEST SWAP2 POP PUSH2 0x58EA DUP3 PUSH2 0x57A8 JUMP JUMPDEST SWAP2 POP PUSH2 0x58F5 DUP3 PUSH2 0x541C JUMP JUMPDEST SWAP2 POP PUSH2 0x5901 DUP3 DUP6 PUSH2 0x424F JUMP JUMPDEST SWAP2 POP PUSH2 0x590C DUP3 PUSH2 0x5598 JUMP JUMPDEST SWAP2 POP PUSH2 0x5917 DUP3 PUSH2 0x541C JUMP JUMPDEST SWAP2 POP PUSH2 0x5923 DUP3 DUP5 PUSH2 0x424F JUMP JUMPDEST SWAP2 POP PUSH2 0x592E DUP3 PUSH2 0x55E4 JUMP JUMPDEST SWAP2 POP DUP2 SWAP1 POP SWAP7 SWAP6 POP POP POP POP POP POP JUMP JUMPDEST PUSH1 0x0 PUSH2 0x5948 DUP3 PUSH2 0x541C JUMP JUMPDEST SWAP2 POP PUSH2 0x5954 DUP3 DUP8 PUSH2 0x424F JUMP JUMPDEST SWAP2 POP PUSH2 0x595F DUP3 PUSH2 0x54B4 JUMP JUMPDEST SWAP2 POP PUSH2 0x596A DUP3 PUSH2 0x541C JUMP JUMPDEST SWAP2 POP PUSH2 0x5976 DUP3 DUP7 PUSH2 0x424F JUMP JUMPDEST SWAP2 POP PUSH2 0x5981 DUP3 PUSH2 0x5500 JUMP JUMPDEST SWAP2 POP PUSH2 0x598C DUP3 PUSH2 0x541C JUMP JUMPDEST SWAP2 POP PUSH2 0x5998 DUP3 DUP6 PUSH2 0x424F JUMP JUMPDEST SWAP2 POP PUSH2 0x59A3 DUP3 PUSH2 0x57A8 JUMP JUMPDEST SWAP2 POP PUSH2 0x59AE DUP3 PUSH2 0x541C JUMP JUMPDEST SWAP2 POP PUSH2 0x59BA DUP3 DUP5 PUSH2 0x424F JUMP JUMPDEST SWAP2 POP PUSH2 0x59C5 DUP3 PUSH2 0x570C JUMP JUMPDEST SWAP2 POP DUP2 SWAP1 POP SWAP6 SWAP5 POP POP POP POP POP JUMP JUMPDEST PUSH1 0x0 PUSH2 0x59DE DUP3 PUSH2 0x541C JUMP JUMPDEST SWAP2 POP PUSH2 0x59EA DUP3 DUP9 PUSH2 0x424F JUMP JUMPDEST SWAP2 POP PUSH2 0x59F5 DUP3 PUSH2 0x5468 JUMP JUMPDEST SWAP2 POP PUSH2 0x5A00 DUP3 PUSH2 0x541C JUMP JUMPDEST SWAP2 POP PUSH2 0x5A0C DUP3 DUP8 PUSH2 0x424F JUMP JUMPDEST SWAP2 POP PUSH2 0x5A17 DUP3 PUSH2 0x54B4 JUMP JUMPDEST SWAP2 POP PUSH2 0x5A22 DUP3 PUSH2 0x541C JUMP JUMPDEST SWAP2 POP PUSH2 0x5A2E DUP3 DUP7 PUSH2 0x424F JUMP JUMPDEST SWAP2 POP PUSH2 0x5A39 DUP3 PUSH2 0x57A8 JUMP JUMPDEST SWAP2 POP PUSH2 0x5A44 DUP3 PUSH2 0x541C JUMP JUMPDEST SWAP2 POP PUSH2 0x5A50 DUP3 DUP6 PUSH2 0x424F JUMP JUMPDEST SWAP2 POP PUSH2 0x5A5B DUP3 PUSH2 0x5598 JUMP JUMPDEST SWAP2 POP PUSH2 0x5A66 DUP3 PUSH2 0x541C JUMP JUMPDEST SWAP2 POP PUSH2 0x5A72 DUP3 DUP5 PUSH2 0x424F JUMP JUMPDEST SWAP2 POP PUSH2 0x5A7D DUP3 PUSH2 0x55E4 JUMP JUMPDEST SWAP2 POP DUP2 SWAP1 POP SWAP7 SWAP6 POP POP POP POP POP POP JUMP JUMPDEST PUSH1 0x0 PUSH2 0x5A97 DUP3 PUSH2 0x541C JUMP JUMPDEST SWAP2 POP PUSH2 0x5AA3 DUP3 DUP10 PUSH2 0x424F JUMP JUMPDEST SWAP2 POP PUSH2 0x5AAE DUP3 PUSH2 0x5468 JUMP JUMPDEST SWAP2 POP PUSH2 0x5AB9 DUP3 PUSH2 0x541C JUMP JUMPDEST SWAP2 POP PUSH2 0x5AC5 DUP3 DUP9 PUSH2 0x424F JUMP JUMPDEST SWAP2 POP PUSH2 0x5AD0 DUP3 PUSH2 0x54B4 JUMP JUMPDEST SWAP2 POP PUSH2 0x5ADB DUP3 PUSH2 0x541C JUMP JUMPDEST SWAP2 POP PUSH2 0x5AE7 DUP3 DUP8 PUSH2 0x424F JUMP JUMPDEST SWAP2 POP PUSH2 0x5AF2 DUP3 PUSH2 0x57A8 JUMP JUMPDEST SWAP2 POP PUSH2 0x5AFD DUP3 PUSH2 0x541C JUMP JUMPDEST SWAP2 POP PUSH2 0x5B09 DUP3 DUP7 PUSH2 0x424F JUMP JUMPDEST SWAP2 POP PUSH2 0x5B14 DUP3 PUSH2 0x554C JUMP JUMPDEST SWAP2 POP PUSH2 0x5B1F DUP3 PUSH2 0x541C JUMP JUMPDEST SWAP2 POP PUSH2 0x5B2B DUP3 DUP6 PUSH2 0x424F JUMP JUMPDEST SWAP2 POP PUSH2 0x5B36 DUP3 PUSH2 0x5598 JUMP JUMPDEST SWAP2 POP PUSH2 0x5B41 DUP3 PUSH2 0x541C JUMP JUMPDEST SWAP2 POP PUSH2 0x5B4D DUP3 DUP5 PUSH2 0x424F JUMP JUMPDEST SWAP2 POP PUSH2 0x5B58 DUP3 PUSH2 0x55E4 JUMP JUMPDEST SWAP2 POP DUP2 SWAP1 POP SWAP8 SWAP7 POP POP POP POP POP POP POP JUMP JUMPDEST PUSH1 0x0 PUSH2 0x5B73 DUP3 PUSH2 0x541C JUMP JUMPDEST SWAP2 POP PUSH2 0x5B7F DUP3 DUP7 PUSH2 0x424F JUMP JUMPDEST SWAP2 POP PUSH2 0x5B8A DUP3 PUSH2 0x5468 JUMP JUMPDEST SWAP2 POP PUSH2 0x5B95 DUP3 PUSH2 0x541C JUMP JUMPDEST SWAP2 POP PUSH2 0x5BA1 DUP3 DUP6 PUSH2 0x424F JUMP JUMPDEST SWAP2 POP PUSH2 0x5BAC DUP3 PUSH2 0x5500 JUMP JUMPDEST SWAP2 POP PUSH2 0x5BB7 DUP3 PUSH2 0x541C JUMP JUMPDEST SWAP2 POP PUSH2 0x5BC3 DUP3 DUP5 PUSH2 0x424F JUMP JUMPDEST SWAP2 POP PUSH2 0x5BCE DUP3 PUSH2 0x570C JUMP JUMPDEST SWAP2 POP DUP2 SWAP1 POP SWAP5 SWAP4 POP POP POP POP JUMP JUMPDEST PUSH1 0x0 PUSH2 0x5BE6 DUP3 PUSH2 0x541C JUMP JUMPDEST SWAP2 POP PUSH2 0x5BF2 DUP3 DUP11 PUSH2 0x424F JUMP JUMPDEST SWAP2 POP PUSH2 0x5BFD DUP3 PUSH2 0x5468 JUMP JUMPDEST SWAP2 POP PUSH2 0x5C08 DUP3 PUSH2 0x541C JUMP JUMPDEST SWAP2 POP PUSH2 0x5C14 DUP3 DUP10 PUSH2 0x424F JUMP JUMPDEST SWAP2 POP PUSH2 0x5C1F DUP3 PUSH2 0x54B4 JUMP JUMPDEST SWAP2 POP PUSH2 0x5C2A DUP3 PUSH2 0x541C JUMP JUMPDEST SWAP2 POP PUSH2 0x5C36 DUP3 DUP9 PUSH2 0x424F JUMP JUMPDEST SWAP2 POP PUSH2 0x5C41 DUP3 PUSH2 0x5500 JUMP JUMPDEST SWAP2 POP PUSH2 0x5C4C DUP3 PUSH2 0x541C JUMP JUMPDEST SWAP2 POP PUSH2 0x5C58 DUP3 DUP8 PUSH2 0x424F JUMP JUMPDEST SWAP2 POP PUSH2 0x5C63 DUP3 PUSH2 0x57A8 JUMP JUMPDEST SWAP2 POP PUSH2 0x5C6E DUP3 PUSH2 0x541C JUMP JUMPDEST SWAP2 POP PUSH2 0x5C7A DUP3 DUP7 PUSH2 0x424F JUMP JUMPDEST SWAP2 POP PUSH2 0x5C85 DUP3 PUSH2 0x554C JUMP JUMPDEST SWAP2 POP PUSH2 0x5C90 DUP3 PUSH2 0x541C JUMP JUMPDEST SWAP2 POP PUSH2 0x5C9C DUP3 DUP6 PUSH2 0x424F JUMP JUMPDEST SWAP2 POP PUSH2 0x5CA7 DUP3 PUSH2 0x5598 JUMP JUMPDEST SWAP2 POP PUSH2 0x5CB2 DUP3 PUSH2 0x541C JUMP JUMPDEST SWAP2 POP PUSH2 0x5CBE DUP3 DUP5 PUSH2 0x424F JUMP JUMPDEST SWAP2 POP PUSH2 0x5CC9 DUP3 PUSH2 0x55E4 JUMP JUMPDEST SWAP2 POP DUP2 SWAP1 POP SWAP9 SWAP8 POP POP POP POP POP POP POP POP JUMP JUMPDEST PUSH1 0x0 PUSH2 0x5CE5 DUP3 PUSH2 0x541C JUMP JUMPDEST SWAP2 POP PUSH2 0x5CF1 DUP3 DUP10 PUSH2 0x424F JUMP JUMPDEST SWAP2 POP PUSH2 0x5CFC DUP3 PUSH2 0x5468 JUMP JUMPDEST SWAP2 POP PUSH2 0x5D07 DUP3 PUSH2 0x541C JUMP JUMPDEST SWAP2 POP PUSH2 0x5D13 DUP3 DUP9 PUSH2 0x424F JUMP JUMPDEST SWAP2 POP PUSH2 0x5D1E DUP3 PUSH2 0x54B4 JUMP JUMPDEST SWAP2 POP PUSH2 0x5D29 DUP3 PUSH2 0x541C JUMP JUMPDEST SWAP2 POP PUSH2 0x5D35 DUP3 DUP8 PUSH2 0x424F JUMP JUMPDEST SWAP2 POP PUSH2 0x5D40 DUP3 PUSH2 0x5500 JUMP JUMPDEST SWAP2 POP PUSH2 0x5D4B DUP3 PUSH2 0x541C JUMP JUMPDEST SWAP2 POP PUSH2 0x5D57 DUP3 DUP7 PUSH2 0x424F JUMP JUMPDEST SWAP2 POP PUSH2 0x5D62 DUP3 PUSH2 0x57A8 JUMP JUMPDEST SWAP2 POP PUSH2 0x5D6D DUP3 PUSH2 0x541C JUMP JUMPDEST SWAP2 POP PUSH2 0x5D79 DUP3 DUP6 PUSH2 0x424F JUMP JUMPDEST SWAP2 POP PUSH2 0x5D84 DUP3 PUSH2 0x5598 JUMP JUMPDEST SWAP2 POP PUSH2 0x5D8F DUP3 PUSH2 0x541C JUMP JUMPDEST SWAP2 POP PUSH2 0x5D9B DUP3 DUP5 PUSH2 0x424F JUMP JUMPDEST SWAP2 POP PUSH2 0x5DA6 DUP3 PUSH2 0x55E4 JUMP JUMPDEST SWAP2 POP DUP2 SWAP1 POP SWAP8 SWAP7 POP POP POP POP POP POP POP JUMP JUMPDEST PUSH32 0x4E487B7100000000000000000000000000000000000000000000000000000000 PUSH1 0x0 MSTORE PUSH1 0x1 PUSH1 0x4 MSTORE PUSH1 0x24 PUSH1 0x0 REVERT INVALID COINBASE TIMESTAMP NUMBER PREVRANDAO GASLIMIT CHAINID SELFBALANCE BASEFEE 0x49 0x4A 0x4B 0x4C 0x4D 0x4E 0x4F POP MLOAD MSTORE MSTORE8 SLOAD SSTORE JUMP JUMPI PC MSIZE GAS PUSH2 0x6263 PUSH5 0x6566676869 PUSH11 0x6B6C6D6E6F707172737475 PUSH23 0x7778797A303132333435363738392B2F3C737667207669 PUSH6 0x77426F783D22 ADDRESS KECCAK256 ADDRESS KECCAK256 CALLER ADDRESS ADDRESS KECCAK256 CALLER ADDRESS ADDRESS 0x22 KECCAK256 PUSH7 0x696C6C3D226E6F PUSH15 0x652220786D6C6E733D22687474703A 0x2F 0x2F PUSH24 0x77772E77332E6F72672F323030302F737667223E3C726563 PUSH21 0x2069643D226267222077696474683D223330302220 PUSH9 0x65696768743D223330 ADDRESS 0x22 KECCAK256 PUSH7 0x696C6C3D222330 NUMBER ADDRESS NUMBER ADDRESS NUMBER 0x22 0x2F RETURNDATACOPY EXTCODECOPY PUSH17 0x6174682069643D227030312220643D224D BALANCE ADDRESS ADDRESS KECCAK256 BALANCE BALANCE CODECOPY 0x4C BALANCE ADDRESS CALLER KECCAK256 BALANCE ORIGIN ORIGIN 0x4C BALANCE ADDRESS ADDRESS KECCAK256 BALANCE ORIGIN CALLDATALOAD 0x4C CODESIZE ADDRESS KECCAK256 BALANCE ORIGIN CALLDATALOAD 0x4C CALLDATACOPY CALLDATACOPY KECCAK256 BALANCE ORIGIN ORIGIN 0x4C CODESIZE ADDRESS KECCAK256 BALANCE BALANCE CODECOPY 0x4C BALANCE ADDRESS ADDRESS KECCAK256 BALANCE BALANCE CODECOPY GAS 0x22 KECCAK256 PUSH7 0x696C6C3D227768 PUSH10 0x7465222066696C6C2D6F PUSH17 0x61636974793D22302E3035222F3E3C7061 PUSH21 0x682069643D227030322220643D224D373320313236 0x4C CALLDATACOPY CALLDATASIZE KECCAK256 BALANCE ORIGIN CALLER 0x4C CALLDATACOPY CODECOPY KECCAK256 BALANCE ORIGIN CALLDATASIZE JUMP BALANCE CALLVALUE CALLDATASIZE 0x4C CALLDATACOPY CALLDATASIZE KECCAK256 BALANCE CALLVALUE CODECOPY 0x4C CALLDATACOPY CALLER KECCAK256 BALANCE CALLVALUE CALLDATASIZE JUMP BALANCE ORIGIN CALLDATASIZE GAS 0x22 KECCAK256 PUSH7 0x696C6C3D227768 PUSH10 0x7465222066696C6C2D6F PUSH17 0x61636974793D22302E3035222F3E3C7061 PUSH21 0x682069643D227030332220643D224D313031203132 CALLDATASIZE 0x4C BALANCE ADDRESS CALLVALUE KECCAK256 BALANCE ORIGIN CALLER 0x4C BALANCE ADDRESS CALLDATACOPY KECCAK256 BALANCE ORIGIN CALLDATASIZE JUMP BALANCE CALLVALUE CALLDATASIZE 0x4C BALANCE ADDRESS CALLVALUE KECCAK256 BALANCE CALLVALUE CODECOPY 0x4C BALANCE ADDRESS BALANCE KECCAK256 BALANCE CALLVALUE CALLDATASIZE JUMP BALANCE ORIGIN CALLDATASIZE GAS 0x22 KECCAK256 PUSH7 0x696C6C3D227768 PUSH10 0x7465222066696C6C2D6F PUSH17 0x61636974793D22302E3035222F3E3C7061 PUSH21 0x682069643D227030342220643D224D313030203134 CALLDATACOPY 0x4C BALANCE ADDRESS CALLER KECCAK256 BALANCE CALLDATALOAD ADDRESS 0x4C BALANCE ADDRESS ADDRESS KECCAK256 BALANCE CALLDATALOAD CALLER 0x4C CODESIZE ADDRESS KECCAK256 BALANCE CALLDATALOAD CALLER 0x4C CALLDATACOPY CALLDATACOPY KECCAK256 BALANCE CALLDATALOAD ADDRESS 0x4C CODESIZE ADDRESS KECCAK256 BALANCE CALLVALUE CALLDATACOPY 0x4C BALANCE ADDRESS ADDRESS KECCAK256 BALANCE CALLVALUE CALLDATACOPY GAS 0x22 KECCAK256 PUSH7 0x696C6C3D227768 PUSH10 0x7465222066696C6C2D6F PUSH17 0x61636974793D22302E3035222F3E3C7061 PUSH21 0x682069643D227030352220643D224D373320313534 0x4C CALLDATACOPY CALLDATASIZE KECCAK256 BALANCE CALLDATALOAD BALANCE 0x4C CALLDATACOPY CODECOPY KECCAK256 BALANCE CALLDATALOAD CALLVALUE JUMP BALANCE CALLDATACOPY CALLVALUE 0x4C CALLDATACOPY CALLDATASIZE KECCAK256 BALANCE CALLDATACOPY CALLDATACOPY 0x4C CALLDATACOPY CALLER KECCAK256 BALANCE CALLDATACOPY CALLVALUE JUMP BALANCE CALLDATALOAD CALLVALUE GAS 0x22 KECCAK256 PUSH7 0x696C6C3D227768 PUSH10 0x7465222066696C6C2D6F PUSH17 0x61636974793D22302E3035222F3E3C7061 PUSH21 0x682069643D227030362220643D224D313031203135 CALLVALUE 0x4C BALANCE ADDRESS CALLVALUE KECCAK256 BALANCE CALLDATALOAD BALANCE 0x4C BALANCE ADDRESS CALLDATACOPY KECCAK256 BALANCE CALLDATALOAD CALLVALUE JUMP BALANCE CALLDATACOPY CALLVALUE 0x4C BALANCE ADDRESS CALLVALUE KECCAK256 BALANCE CALLDATACOPY CALLDATACOPY 0x4C BALANCE ADDRESS BALANCE KECCAK256 BALANCE CALLDATACOPY CALLVALUE JUMP BALANCE CALLDATALOAD CALLVALUE GAS 0x22 KECCAK256 PUSH7 0x696C6C3D227768 PUSH10 0x7465222066696C6C2D6F PUSH17 0x61636974793D22302E3035222F3E3C7061 PUSH21 0x682069643D227030372220643D224D313030203137 CALLDATALOAD 0x4C BALANCE ADDRESS CALLER KECCAK256 BALANCE CALLDATACOPY CODESIZE 0x4C BALANCE ADDRESS ADDRESS KECCAK256 BALANCE CODESIZE BALANCE 0x4C CODESIZE ADDRESS KECCAK256 BALANCE CODESIZE BALANCE 0x4C CALLDATACOPY CALLDATACOPY KECCAK256 BALANCE CALLDATACOPY CODESIZE 0x4C CODESIZE ADDRESS KECCAK256 BALANCE CALLDATACOPY CALLDATALOAD 0x4C BALANCE ADDRESS ADDRESS KECCAK256 BALANCE CALLDATACOPY CALLDATALOAD GAS 0x22 KECCAK256 PUSH7 0x696C6C3D227768 PUSH10 0x7465222066696C6C2D6F PUSH17 0x61636974793D22302E3035222F3E3C7061 PUSH21 0x682069643D227031312220643D224D313430203131 CODECOPY 0x4C BALANCE CALLVALUE CALLER KECCAK256 BALANCE ORIGIN ORIGIN 0x4C BALANCE CALLVALUE ADDRESS KECCAK256 BALANCE ORIGIN CALLDATALOAD 0x4C BALANCE ORIGIN ADDRESS KECCAK256 BALANCE ORIGIN CALLDATALOAD 0x4C BALANCE BALANCE CALLDATACOPY KECCAK256 BALANCE ORIGIN ORIGIN 0x4C BALANCE ORIGIN ADDRESS KECCAK256 BALANCE BALANCE CODECOPY 0x4C BALANCE CALLVALUE ADDRESS KECCAK256 BALANCE BALANCE CODECOPY GAS 0x22 KECCAK256 PUSH7 0x696C6C3D227768 PUSH10 0x7465222066696C6C2D6F PUSH17 0x61636974793D22302E3035222F3E3C7061 PUSH21 0x682069643D227031322220643D224D313133203132 CALLDATASIZE 0x4C BALANCE BALANCE CALLDATASIZE KECCAK256 BALANCE ORIGIN CALLER 0x4C BALANCE BALANCE CODECOPY KECCAK256 BALANCE ORIGIN CALLDATASIZE JUMP BALANCE CALLVALUE CALLDATASIZE 0x4C BALANCE BALANCE CALLDATASIZE KECCAK256 BALANCE CALLVALUE CODECOPY 0x4C BALANCE BALANCE CALLER KECCAK256 BALANCE CALLVALUE CALLDATASIZE JUMP BALANCE ORIGIN CALLDATASIZE GAS 0x22 KECCAK256 PUSH7 0x696C6C3D227768 PUSH10 0x7465222066696C6C2D6F PUSH17 0x61636974793D22302E3035222F3E3C7061 PUSH21 0x682069643D227031332220643D224D313431203132 CALLDATASIZE 0x4C BALANCE CALLVALUE CALLVALUE KECCAK256 BALANCE ORIGIN CALLER 0x4C BALANCE CALLVALUE CALLDATACOPY KECCAK256 BALANCE ORIGIN CALLDATASIZE JUMP BALANCE CALLVALUE CALLDATASIZE 0x4C BALANCE CALLVALUE CALLVALUE KECCAK256 BALANCE CALLVALUE CODECOPY 0x4C BALANCE CALLVALUE BALANCE KECCAK256 BALANCE CALLVALUE CALLDATASIZE JUMP BALANCE ORIGIN CALLDATASIZE GAS 0x22 KECCAK256 PUSH7 0x696C6C3D227768 PUSH10 0x7465222066696C6C2D6F PUSH17 0x61636974793D22302E3035222F3E3C7061 PUSH21 0x682069643D227031342220643D224D313430203134 CALLDATACOPY 0x4C BALANCE CALLVALUE CALLER KECCAK256 BALANCE CALLDATALOAD ADDRESS 0x4C BALANCE CALLVALUE ADDRESS KECCAK256 BALANCE CALLDATALOAD CALLER 0x4C BALANCE ORIGIN ADDRESS KECCAK256 BALANCE CALLDATALOAD CALLER 0x4C BALANCE BALANCE CALLDATACOPY KECCAK256 BALANCE CALLDATALOAD ADDRESS 0x4C BALANCE ORIGIN ADDRESS KECCAK256 BALANCE CALLVALUE CALLDATACOPY 0x4C BALANCE CALLVALUE ADDRESS KECCAK256 BALANCE CALLVALUE CALLDATACOPY GAS 0x22 KECCAK256 PUSH7 0x696C6C3D227768 PUSH10 0x7465222066696C6C2D6F PUSH17 0x61636974793D22302E3035222F3E3C7061 PUSH21 0x682069643D227031352220643D224D313133203135 CALLVALUE 0x4C BALANCE BALANCE CALLDATASIZE KECCAK256 BALANCE CALLDATALOAD BALANCE 0x4C BALANCE BALANCE CODECOPY KECCAK256 BALANCE CALLDATALOAD CALLVALUE JUMP BALANCE CALLDATACOPY CALLVALUE 0x4C BALANCE BALANCE CALLDATASIZE KECCAK256 BALANCE CALLDATACOPY CALLDATACOPY 0x4C BALANCE BALANCE CALLER KECCAK256 BALANCE CALLDATACOPY CALLVALUE JUMP BALANCE CALLDATALOAD CALLVALUE GAS 0x22 KECCAK256 PUSH7 0x696C6C3D227768 PUSH10 0x7465222066696C6C2D6F PUSH17 0x61636974793D22302E3035222F3E3C7061 PUSH21 0x682069643D227031362220643D224D313431203135 CALLVALUE 0x4C BALANCE CALLVALUE CALLVALUE KECCAK256 BALANCE CALLDATALOAD BALANCE 0x4C BALANCE CALLVALUE CALLDATACOPY KECCAK256 BALANCE CALLDATALOAD CALLVALUE JUMP BALANCE CALLDATACOPY CALLVALUE 0x4C BALANCE CALLVALUE CALLVALUE KECCAK256 BALANCE CALLDATACOPY CALLDATACOPY 0x4C BALANCE CALLVALUE BALANCE KECCAK256 BALANCE CALLDATACOPY CALLVALUE JUMP BALANCE CALLDATALOAD CALLVALUE GAS 0x22 KECCAK256 PUSH7 0x696C6C3D227768 PUSH10 0x7465222066696C6C2D6F PUSH17 0x61636974793D22302E3035222F3E3C7061 PUSH21 0x682069643D227031372220643D224D313430203137 CALLDATALOAD 0x4C BALANCE CALLVALUE CALLER KECCAK256 BALANCE CALLDATACOPY CODESIZE 0x4C BALANCE CALLVALUE ADDRESS KECCAK256 BALANCE CODESIZE BALANCE 0x4C BALANCE ORIGIN ADDRESS KECCAK256 BALANCE CODESIZE BALANCE 0x4C BALANCE BALANCE CALLDATACOPY KECCAK256 BALANCE CALLDATACOPY CODESIZE 0x4C BALANCE ORIGIN ADDRESS KECCAK256 BALANCE CALLDATACOPY CALLDATALOAD 0x4C BALANCE CALLVALUE ADDRESS KECCAK256 BALANCE CALLDATACOPY CALLDATALOAD GAS 0x22 KECCAK256 PUSH7 0x696C6C3D227768 PUSH10 0x7465222066696C6C2D6F PUSH17 0x61636974793D22302E3035222F3E3C7061 PUSH21 0x682069643D227032312220643D224D313830203131 CODECOPY 0x4C BALANCE CODESIZE CALLER KECCAK256 BALANCE ORIGIN ORIGIN 0x4C BALANCE CODESIZE ADDRESS KECCAK256 BALANCE ORIGIN CALLDATALOAD 0x4C BALANCE CALLDATASIZE ADDRESS KECCAK256 BALANCE ORIGIN CALLDATALOAD 0x4C BALANCE CALLDATALOAD CALLDATACOPY KECCAK256 BALANCE ORIGIN ORIGIN 0x4C BALANCE CALLDATASIZE ADDRESS KECCAK256 BALANCE BALANCE CODECOPY 0x4C BALANCE CODESIZE ADDRESS KECCAK256 BALANCE BALANCE CODECOPY GAS 0x22 KECCAK256 PUSH7 0x696C6C3D227768 PUSH10 0x7465222066696C6C2D6F PUSH17 0x61636974793D22302E3035222F3E3C7061 PUSH21 0x682069643D227032322220643D224D313533203132 CALLDATASIZE 0x4C BALANCE CALLDATALOAD CALLDATASIZE KECCAK256 BALANCE ORIGIN CALLER 0x4C BALANCE CALLDATALOAD CODECOPY KECCAK256 BALANCE ORIGIN CALLDATASIZE JUMP BALANCE CALLVALUE CALLDATASIZE 0x4C BALANCE CALLDATALOAD CALLDATASIZE KECCAK256 BALANCE CALLVALUE CODECOPY 0x4C BALANCE CALLDATALOAD CALLER KECCAK256 BALANCE CALLVALUE CALLDATASIZE JUMP BALANCE ORIGIN CALLDATASIZE GAS 0x22 KECCAK256 PUSH7 0x696C6C3D227768 PUSH10 0x7465222066696C6C2D6F PUSH17 0x61636974793D22302E3035222F3E3C7061 PUSH21 0x682069643D227032332220643D224D313831203132 CALLDATASIZE 0x4C BALANCE CODESIZE CALLVALUE KECCAK256 BALANCE ORIGIN CALLER 0x4C BALANCE CODESIZE CALLDATACOPY KECCAK256 BALANCE ORIGIN CALLDATASIZE JUMP BALANCE CALLVALUE CALLDATASIZE 0x4C BALANCE CODESIZE CALLVALUE KECCAK256 BALANCE CALLVALUE CODECOPY 0x4C BALANCE CODESIZE BALANCE KECCAK256 BALANCE CALLVALUE CALLDATASIZE JUMP BALANCE ORIGIN CALLDATASIZE GAS 0x22 KECCAK256 PUSH7 0x696C6C3D227768 PUSH10 0x7465222066696C6C2D6F PUSH17 0x61636974793D22302E3035222F3E3C7061 PUSH21 0x682069643D227032342220643D224D313830203134 CALLDATACOPY 0x4C BALANCE CODESIZE CALLER KECCAK256 BALANCE CALLDATALOAD ADDRESS 0x4C BALANCE CODESIZE ADDRESS KECCAK256 BALANCE CALLDATALOAD CALLER 0x4C BALANCE CALLDATASIZE ADDRESS KECCAK256 BALANCE CALLDATALOAD CALLER 0x4C BALANCE CALLDATALOAD CALLDATACOPY KECCAK256 BALANCE CALLDATALOAD ADDRESS 0x4C BALANCE CALLDATASIZE ADDRESS KECCAK256 BALANCE CALLVALUE CALLDATACOPY 0x4C BALANCE CODESIZE ADDRESS KECCAK256 BALANCE CALLVALUE CALLDATACOPY GAS 0x22 KECCAK256 PUSH7 0x696C6C3D227768 PUSH10 0x7465222066696C6C2D6F PUSH17 0x61636974793D22302E3035222F3E3C7061 PUSH21 0x682069643D227032352220643D224D313533203135 CALLVALUE 0x4C BALANCE CALLDATALOAD CALLDATASIZE KECCAK256 BALANCE CALLDATALOAD BALANCE 0x4C BALANCE CALLDATALOAD CODECOPY KECCAK256 BALANCE CALLDATALOAD CALLVALUE JUMP BALANCE CALLDATACOPY CALLVALUE 0x4C BALANCE CALLDATALOAD CALLDATASIZE KECCAK256 BALANCE CALLDATACOPY CALLDATACOPY 0x4C BALANCE CALLDATALOAD CALLER KECCAK256 BALANCE CALLDATACOPY CALLVALUE JUMP BALANCE CALLDATALOAD CALLVALUE GAS 0x22 KECCAK256 PUSH7 0x696C6C3D227768 PUSH10 0x7465222066696C6C2D6F PUSH17 0x61636974793D22302E3035222F3E3C7061 PUSH21 0x682069643D227032362220643D224D313831203135 CALLVALUE 0x4C BALANCE CODESIZE CALLVALUE KECCAK256 BALANCE CALLDATALOAD BALANCE 0x4C BALANCE CODESIZE CALLDATACOPY KECCAK256 BALANCE CALLDATALOAD CALLVALUE JUMP BALANCE CALLDATACOPY CALLVALUE 0x4C BALANCE CODESIZE CALLVALUE KECCAK256 BALANCE CALLDATACOPY CALLDATACOPY 0x4C BALANCE CODESIZE BALANCE KECCAK256 BALANCE CALLDATACOPY CALLVALUE JUMP BALANCE CALLDATALOAD CALLVALUE GAS 0x22 KECCAK256 PUSH7 0x696C6C3D227768 PUSH10 0x7465222066696C6C2D6F PUSH17 0x61636974793D22302E3035222F3E3C7061 PUSH21 0x682069643D227032372220643D224D313830203137 CALLDATALOAD 0x4C BALANCE CODESIZE CALLER KECCAK256 BALANCE CALLDATACOPY CODESIZE 0x4C BALANCE CODESIZE ADDRESS KECCAK256 BALANCE CODESIZE BALANCE 0x4C BALANCE CALLDATASIZE ADDRESS KECCAK256 BALANCE CODESIZE BALANCE 0x4C BALANCE CALLDATALOAD CALLDATACOPY KECCAK256 BALANCE CALLDATACOPY CODESIZE 0x4C BALANCE CALLDATASIZE ADDRESS KECCAK256 BALANCE CALLDATACOPY CALLDATALOAD 0x4C BALANCE CODESIZE ADDRESS KECCAK256 BALANCE CALLDATACOPY CALLDATALOAD GAS 0x22 KECCAK256 PUSH7 0x696C6C3D227768 PUSH10 0x7465222066696C6C2D6F PUSH17 0x61636974793D22302E3035222F3E3C7061 PUSH21 0x682069643D227033312220643D224D323230203131 CODECOPY 0x4C ORIGIN ORIGIN CALLER KECCAK256 BALANCE ORIGIN ORIGIN 0x4C ORIGIN ORIGIN ADDRESS KECCAK256 BALANCE ORIGIN CALLDATALOAD 0x4C ORIGIN ADDRESS ADDRESS KECCAK256 BALANCE ORIGIN CALLDATALOAD 0x4C BALANCE CODECOPY CALLDATACOPY KECCAK256 BALANCE ORIGIN ORIGIN 0x4C ORIGIN ADDRESS ADDRESS KECCAK256 BALANCE BALANCE CODECOPY 0x4C ORIGIN ORIGIN ADDRESS KECCAK256 BALANCE BALANCE CODECOPY GAS 0x22 KECCAK256 PUSH7 0x696C6C3D227768 PUSH10 0x7465222066696C6C2D6F PUSH17 0x61636974793D22302E3035222F3E3C7061 PUSH21 0x682069643D227033322220643D224D313933203132 CALLDATASIZE 0x4C BALANCE CODECOPY CALLDATASIZE KECCAK256 BALANCE ORIGIN CALLER 0x4C BALANCE CODECOPY CODECOPY KECCAK256 BALANCE ORIGIN CALLDATASIZE JUMP BALANCE CALLVALUE CALLDATASIZE 0x4C BALANCE CODECOPY CALLDATASIZE KECCAK256 BALANCE CALLVALUE CODECOPY 0x4C BALANCE CODECOPY CALLER KECCAK256 BALANCE CALLVALUE CALLDATASIZE JUMP BALANCE ORIGIN CALLDATASIZE GAS 0x22 KECCAK256 PUSH7 0x696C6C3D227768 PUSH10 0x7465222066696C6C2D6F PUSH17 0x61636974793D22302E3035222F3E3C7061 PUSH21 0x682069643D227033332220643D224D323231203132 CALLDATASIZE 0x4C ORIGIN ORIGIN CALLVALUE KECCAK256 BALANCE ORIGIN CALLER 0x4C ORIGIN ORIGIN CALLDATACOPY KECCAK256 BALANCE ORIGIN CALLDATASIZE JUMP BALANCE CALLVALUE CALLDATASIZE 0x4C ORIGIN ORIGIN CALLVALUE KECCAK256 BALANCE CALLVALUE CODECOPY 0x4C ORIGIN ORIGIN BALANCE KECCAK256 BALANCE CALLVALUE CALLDATASIZE JUMP BALANCE ORIGIN CALLDATASIZE GAS 0x22 KECCAK256 PUSH7 0x696C6C3D227768 PUSH10 0x7465222066696C6C2D6F PUSH17 0x61636974793D22302E3035222F3E3C7061 PUSH21 0x682069643D227033342220643D224D323230203134 CALLDATACOPY 0x4C ORIGIN ORIGIN CALLER KECCAK256 BALANCE CALLDATALOAD ADDRESS 0x4C ORIGIN ORIGIN ADDRESS KECCAK256 BALANCE CALLDATALOAD CALLER 0x4C ORIGIN ADDRESS ADDRESS KECCAK256 BALANCE CALLDATALOAD CALLER 0x4C BALANCE CODECOPY CALLDATACOPY KECCAK256 BALANCE CALLDATALOAD ADDRESS 0x4C ORIGIN ADDRESS ADDRESS KECCAK256 BALANCE CALLVALUE CALLDATACOPY 0x4C ORIGIN ORIGIN ADDRESS KECCAK256 BALANCE CALLVALUE CALLDATACOPY GAS 0x22 KECCAK256 PUSH7 0x696C6C3D227768 PUSH10 0x7465222066696C6C2D6F PUSH17 0x61636974793D22302E3035222F3E3C7061 PUSH21 0x682069643D227033352220643D224D313933203135 CALLVALUE 0x4C BALANCE CODECOPY CALLDATASIZE KECCAK256 BALANCE CALLDATALOAD BALANCE 0x4C BALANCE CODECOPY CODECOPY KECCAK256 BALANCE CALLDATALOAD CALLVALUE JUMP BALANCE CALLDATACOPY CALLVALUE 0x4C BALANCE CODECOPY CALLDATASIZE KECCAK256 BALANCE CALLDATACOPY CALLDATACOPY 0x4C BALANCE CODECOPY CALLER KECCAK256 BALANCE CALLDATACOPY CALLVALUE JUMP BALANCE CALLDATALOAD CALLVALUE GAS 0x22 KECCAK256 PUSH7 0x696C6C3D227768 PUSH10 0x7465222066696C6C2D6F PUSH17 0x61636974793D22302E3035222F3E3C7061 PUSH21 0x682069643D227033362220643D224D323231203135 CALLVALUE 0x4C ORIGIN ORIGIN CALLVALUE KECCAK256 BALANCE CALLDATALOAD BALANCE 0x4C ORIGIN ORIGIN CALLDATACOPY KECCAK256 BALANCE CALLDATALOAD CALLVALUE JUMP BALANCE CALLDATACOPY CALLVALUE 0x4C ORIGIN ORIGIN CALLVALUE KECCAK256 BALANCE CALLDATACOPY CALLDATACOPY 0x4C ORIGIN ORIGIN BALANCE KECCAK256 BALANCE CALLDATACOPY CALLVALUE JUMP BALANCE CALLDATALOAD CALLVALUE GAS 0x22 KECCAK256 PUSH7 0x696C6C3D227768 PUSH10 0x7465222066696C6C2D6F PUSH17 0x61636974793D22302E3035222F3E3C7061 PUSH21 0x682069643D227033372220643D224D323230203137 CALLDATALOAD 0x4C ORIGIN ORIGIN CALLER KECCAK256 BALANCE CALLDATACOPY CODESIZE 0x4C ORIGIN ORIGIN ADDRESS KECCAK256 BALANCE CODESIZE BALANCE 0x4C ORIGIN ADDRESS ADDRESS KECCAK256 BALANCE CODESIZE BALANCE 0x4C BALANCE CODECOPY CALLDATACOPY KECCAK256 BALANCE CALLDATACOPY CODESIZE 0x4C ORIGIN ADDRESS ADDRESS KECCAK256 BALANCE CALLDATACOPY CALLDATALOAD 0x4C ORIGIN ORIGIN ADDRESS KECCAK256 BALANCE CALLDATACOPY CALLDATALOAD GAS 0x22 KECCAK256 PUSH7 0x696C6C3D227768 PUSH10 0x7465222066696C6C2D6F PUSH17 0x61636974793D22302E3035222F3E3C7374 PUSH26 0x6C653EA264697066735822122016F7A40A452356E9B4D44394FC 0xC7 PUSH14 0x55B1BC6C7665C6974E929F6A6883 0xB2 0xDC 0xDE PUSH5 0x736F6C6343 STOP ADDMOD SGT STOP CALLER "
		},
		"gasEstimates": {
			"creation": {
				"codeDepositCost": "5450400",
				"executionCost": "infinite",
				"totalCost": "infinite"
			},
			"external": {
				"approve(address,uint256)": "infinite",
				"balanceOf(address)": "2993",
				"combine(uint256[])": "infinite",
				"finalMintingBlock()": "2541",
				"fixedLuckyNumber()": "infinite",
				"getApproved(uint256)": "7412",
				"getSecondsRemaining()": "infinite",
				"getValue(uint256)": "infinite",
				"isApprovedForAll(address,address)": "infinite",
				"isCombinable()": "2583",
				"luckyNumber()": "infinite",
				"mint(uint256)": "infinite",
				"mintCount()": "2580",
				"name()": "infinite",
				"owner()": "2590",
				"ownerOf(uint256)": "infinite",
				"price()": "2540",
				"randomLuckyNumber()": "infinite",
				"renounceOwnership()": "30444",
				"safeTransferFrom(address,address,uint256)": "infinite",
				"safeTransferFrom(address,address,uint256,bytes)": "infinite",
				"setApprovalForAll(address,bool)": "infinite",
				"supportsInterface(bytes4)": "768",
				"symbol()": "infinite",
				"toggleCombinable()": "28925",
				"tokenURI(uint256)": "infinite",
				"totalSupply()": "4674",
				"transferFrom(address,address,uint256)": "infinite",
				"transferOwnership(address)": "30854",
				"withdraw()": "infinite"
			},
			"internal": {
				"_startTokenId()": "23",
				"handleMint(address,uint256)": "infinite"
			}
		},
		"methodIdentifiers": {
			"approve(address,uint256)": "095ea7b3",
			"balanceOf(address)": "70a08231",
			"combine(uint256[])": "25e514c6",
			"finalMintingBlock()": "21cf7ecf",
			"fixedLuckyNumber()": "35c53541",
			"getApproved(uint256)": "081812fc",
			"getSecondsRemaining()": "9ac9f2a0",
			"getValue(uint256)": "0ff4c916",
			"isApprovedForAll(address,address)": "e985e9c5",
			"isCombinable()": "37c5fa0d",
			"luckyNumber()": "bf205ebc",
			"mint(uint256)": "a0712d68",
			"mintCount()": "9659867e",
			"name()": "06fdde03",
			"owner()": "8da5cb5b",
			"ownerOf(uint256)": "6352211e",
			"price()": "a035b1fe",
			"randomLuckyNumber()": "8ef9ae59",
			"renounceOwnership()": "715018a6",
			"safeTransferFrom(address,address,uint256)": "42842e0e",
			"safeTransferFrom(address,address,uint256,bytes)": "b88d4fde",
			"setApprovalForAll(address,bool)": "a22cb465",
			"supportsInterface(bytes4)": "01ffc9a7",
			"symbol()": "95d89b41",
			"toggleCombinable()": "b8be6e98",
			"tokenURI(uint256)": "c87b56dd",
			"totalSupply()": "18160ddd",
			"transferFrom(address,address,uint256)": "23b872dd",
			"transferOwnership(address)": "f2fde38b",
			"withdraw()": "3ccfd60b"
		}
	},
	"abi": [
		{
			"inputs": [],
			"stateMutability": "nonpayable",
			"type": "constructor"
		},
		{
			"inputs": [],
			"name": "ApprovalCallerNotOwnerNorApproved",
			"type": "error"
		},
		{
			"inputs": [],
			"name": "ApprovalQueryForNonexistentToken",
			"type": "error"
		},
		{
			"inputs": [],
			"name": "BalanceQueryForZeroAddress",
			"type": "error"
		},
		{
			"inputs": [],
			"name": "MintERC2309QuantityExceedsLimit",
			"type": "error"
		},
		{
			"inputs": [],
			"name": "MintToZeroAddress",
			"type": "error"
		},
		{
			"inputs": [],
			"name": "MintZeroQuantity",
			"type": "error"
		},
		{
			"inputs": [],
			"name": "OwnerQueryForNonexistentToken",
			"type": "error"
		},
		{
			"inputs": [],
			"name": "OwnershipNotInitializedForExtraData",
			"type": "error"
		},
		{
			"inputs": [],
			"name": "TransferCallerNotOwnerNorApproved",
			"type": "error"
		},
		{
			"inputs": [],
			"name": "TransferFromIncorrectOwner",
			"type": "error"
		},
		{
			"inputs": [],
			"name": "TransferToNonERC721ReceiverImplementer",
			"type": "error"
		},
		{
			"inputs": [],
			"name": "TransferToZeroAddress",
			"type": "error"
		},
		{
			"inputs": [],
			"name": "URIQueryForNonexistentToken",
			"type": "error"
		},
		{
			"anonymous": false,
			"inputs": [
				{
					"indexed": true,
					"internalType": "address",
					"name": "owner",
					"type": "address"
				},
				{
					"indexed": true,
					"internalType": "address",
					"name": "approved",
					"type": "address"
				},
				{
					"indexed": true,
					"internalType": "uint256",
					"name": "tokenId",
					"type": "uint256"
				}
			],
			"name": "Approval",
			"type": "event"
		},
		{
			"anonymous": false,
			"inputs": [
				{
					"indexed": true,
					"internalType": "address",
					"name": "owner",
					"type": "address"
				},
				{
					"indexed": true,
					"internalType": "address",
					"name": "operator",
					"type": "address"
				},
				{
					"indexed": false,
					"internalType": "bool",
					"name": "approved",
					"type": "bool"
				}
			],
			"name": "ApprovalForAll",
			"type": "event"
		},
		{
			"anonymous": false,
			"inputs": [
				{
					"indexed": true,
					"internalType": "uint256",
					"name": "fromTokenId",
					"type": "uint256"
				},
				{
					"indexed": false,
					"internalType": "uint256",
					"name": "toTokenId",
					"type": "uint256"
				},
				{
					"indexed": true,
					"internalType": "address",
					"name": "from",
					"type": "address"
				},
				{
					"indexed": true,
					"internalType": "address",
					"name": "to",
					"type": "address"
				}
			],
			"name": "ConsecutiveTransfer",
			"type": "event"
		},
		{
			"anonymous": false,
			"inputs": [
				{
					"indexed": false,
					"internalType": "uint256",
					"name": "_finalBlock",
					"type": "uint256"
				}
			],
			"name": "CountdownExtended",
			"type": "event"
		},
		{
			"anonymous": false,
			"inputs": [
				{
					"indexed": false,
					"internalType": "uint256",
					"name": "_tokenId",
					"type": "uint256"
				}
			],
			"name": "MetadataUpdate",
			"type": "event"
		},
		{
			"anonymous": false,
			"inputs": [
				{
					"indexed": true,
					"internalType": "address",
					"name": "previousOwner",
					"type": "address"
				},
				{
					"indexed": true,
					"internalType": "address",
					"name": "newOwner",
					"type": "address"
				}
			],
			"name": "OwnershipTransferred",
			"type": "event"
		},
		{
			"anonymous": false,
			"inputs": [
				{
					"indexed": true,
					"internalType": "address",
					"name": "from",
					"type": "address"
				},
				{
					"indexed": true,
					"internalType": "address",
					"name": "to",
					"type": "address"
				},
				{
					"indexed": true,
					"internalType": "uint256",
					"name": "tokenId",
					"type": "uint256"
				}
			],
			"name": "Transfer",
			"type": "event"
		},
		{
			"inputs": [
				{
					"internalType": "address",
					"name": "to",
					"type": "address"
				},
				{
					"internalType": "uint256",
					"name": "tokenId",
					"type": "uint256"
				}
			],
			"name": "approve",
			"outputs": [],
			"stateMutability": "payable",
			"type": "function"
		},
		{
			"inputs": [
				{
					"internalType": "address",
					"name": "owner",
					"type": "address"
				}
			],
			"name": "balanceOf",
			"outputs": [
				{
					"internalType": "uint256",
					"name": "",
					"type": "uint256"
				}
			],
			"stateMutability": "view",
			"type": "function"
		},
		{
			"inputs": [
				{
					"internalType": "uint256[]",
					"name": "tokens",
					"type": "uint256[]"
				}
			],
			"name": "combine",
			"outputs": [],
			"stateMutability": "nonpayable",
			"type": "function"
		},
		{
			"inputs": [],
			"name": "finalMintingBlock",
			"outputs": [
				{
					"internalType": "uint256",
					"name": "",
					"type": "uint256"
				}
			],
			"stateMutability": "view",
			"type": "function"
		},
		{
			"inputs": [],
			"name": "fixedLuckyNumber",
			"outputs": [],
			"stateMutability": "nonpayable",
			"type": "function"
		},
		{
			"inputs": [
				{
					"internalType": "uint256",
					"name": "tokenId",
					"type": "uint256"
				}
			],
			"name": "getApproved",
			"outputs": [
				{
					"internalType": "address",
					"name": "",
					"type": "address"
				}
			],
			"stateMutability": "view",
			"type": "function"
		},
		{
			"inputs": [],
			"name": "getSecondsRemaining",
			"outputs": [
				{
					"internalType": "uint256",
					"name": "",
					"type": "uint256"
				}
			],
			"stateMutability": "view",
			"type": "function"
		},
		{
			"inputs": [
				{
					"internalType": "uint256",
					"name": "tokenId",
					"type": "uint256"
				}
			],
			"name": "getValue",
			"outputs": [
				{
					"internalType": "string",
					"name": "",
					"type": "string"
				}
			],
			"stateMutability": "view",
			"type": "function"
		},
		{
			"inputs": [
				{
					"internalType": "address",
					"name": "owner",
					"type": "address"
				},
				{
					"internalType": "address",
					"name": "operator",
					"type": "address"
				}
			],
			"name": "isApprovedForAll",
			"outputs": [
				{
					"internalType": "bool",
					"name": "",
					"type": "bool"
				}
			],
			"stateMutability": "view",
			"type": "function"
		},
		{
			"inputs": [],
			"name": "isCombinable",
			"outputs": [
				{
					"internalType": "bool",
					"name": "",
					"type": "bool"
				}
			],
			"stateMutability": "view",
			"type": "function"
		},
		{
			"inputs": [],
			"name": "luckyNumber",
			"outputs": [
				{
					"internalType": "string",
					"name": "",
					"type": "string"
				}
			],
			"stateMutability": "view",
			"type": "function"
		},
		{
			"inputs": [
				{
					"internalType": "uint256",
					"name": "quantity",
					"type": "uint256"
				}
			],
			"name": "mint",
			"outputs": [],
			"stateMutability": "payable",
			"type": "function"
		},
		{
			"inputs": [],
			"name": "mintCount",
			"outputs": [
				{
					"internalType": "uint256",
					"name": "",
					"type": "uint256"
				}
			],
			"stateMutability": "view",
			"type": "function"
		},
		{
			"inputs": [],
			"name": "name",
			"outputs": [
				{
					"internalType": "string",
					"name": "",
					"type": "string"
				}
			],
			"stateMutability": "view",
			"type": "function"
		},
		{
			"inputs": [],
			"name": "owner",
			"outputs": [
				{
					"internalType": "address",
					"name": "",
					"type": "address"
				}
			],
			"stateMutability": "view",
			"type": "function"
		},
		{
			"inputs": [
				{
					"internalType": "uint256",
					"name": "tokenId",
					"type": "uint256"
				}
			],
			"name": "ownerOf",
			"outputs": [
				{
					"internalType": "address",
					"name": "",
					"type": "address"
				}
			],
			"stateMutability": "view",
			"type": "function"
		},
		{
			"inputs": [],
			"name": "price",
			"outputs": [
				{
					"internalType": "uint256",
					"name": "",
					"type": "uint256"
				}
			],
			"stateMutability": "view",
			"type": "function"
		},
		{
			"inputs": [],
			"name": "randomLuckyNumber",
			"outputs": [],
			"stateMutability": "nonpayable",
			"type": "function"
		},
		{
			"inputs": [],
			"name": "renounceOwnership",
			"outputs": [],
			"stateMutability": "nonpayable",
			"type": "function"
		},
		{
			"inputs": [
				{
					"internalType": "address",
					"name": "from",
					"type": "address"
				},
				{
					"internalType": "address",
					"name": "to",
					"type": "address"
				},
				{
					"internalType": "uint256",
					"name": "tokenId",
					"type": "uint256"
				}
			],
			"name": "safeTransferFrom",
			"outputs": [],
			"stateMutability": "payable",
			"type": "function"
		},
		{
			"inputs": [
				{
					"internalType": "address",
					"name": "from",
					"type": "address"
				},
				{
					"internalType": "address",
					"name": "to",
					"type": "address"
				},
				{
					"internalType": "uint256",
					"name": "tokenId",
					"type": "uint256"
				},
				{
					"internalType": "bytes",
					"name": "_data",
					"type": "bytes"
				}
			],
			"name": "safeTransferFrom",
			"outputs": [],
			"stateMutability": "payable",
			"type": "function"
		},
		{
			"inputs": [
				{
					"internalType": "address",
					"name": "operator",
					"type": "address"
				},
				{
					"internalType": "bool",
					"name": "approved",
					"type": "bool"
				}
			],
			"name": "setApprovalForAll",
			"outputs": [],
			"stateMutability": "nonpayable",
			"type": "function"
		},
		{
			"inputs": [
				{
					"internalType": "bytes4",
					"name": "interfaceId",
					"type": "bytes4"
				}
			],
			"name": "supportsInterface",
			"outputs": [
				{
					"internalType": "bool",
					"name": "",
					"type": "bool"
				}
			],
			"stateMutability": "view",
			"type": "function"
		},
		{
			"inputs": [],
			"name": "symbol",
			"outputs": [
				{
					"internalType": "string",
					"name": "",
					"type": "string"
				}
			],
			"stateMutability": "view",
			"type": "function"
		},
		{
			"inputs": [],
			"name": "toggleCombinable",
			"outputs": [],
			"stateMutability": "nonpayable",
			"type": "function"
		},
		{
			"inputs": [
				{
					"internalType": "uint256",
					"name": "tokenId",
					"type": "uint256"
				}
			],
			"name": "tokenURI",
			"outputs": [
				{
					"internalType": "string",
					"name": "",
					"type": "string"
				}
			],
			"stateMutability": "view",
			"type": "function"
		},
		{
			"inputs": [],
			"name": "totalSupply",
			"outputs": [
				{
					"internalType": "uint256",
					"name": "",
					"type": "uint256"
				}
			],
			"stateMutability": "view",
			"type": "function"
		},
		{
			"inputs": [
				{
					"internalType": "address",
					"name": "from",
					"type": "address"
				},
				{
					"internalType": "address",
					"name": "to",
					"type": "address"
				},
				{
					"internalType": "uint256",
					"name": "tokenId",
					"type": "uint256"
				}
			],
			"name": "transferFrom",
			"outputs": [],
			"stateMutability": "payable",
			"type": "function"
		},
		{
			"inputs": [
				{
					"internalType": "address",
					"name": "newOwner",
					"type": "address"
				}
			],
			"name": "transferOwnership",
			"outputs": [],
			"stateMutability": "nonpayable",
			"type": "function"
		},
		{
			"inputs": [],
			"name": "withdraw",
			"outputs": [],
			"stateMutability": "nonpayable",
			"type": "function"
		}
	]
}