{
	"data": {
		"bytecode": {
			"linkReferences": {},
			"object": "608060405260006009556000600a60006101000a81548160ff0219169083151502179055503480156200003157600080fd5b506040518060400160405280601381526020017f434f4d42494e452d4e554d4245522d54455354000000000000000000000000008152506040518060400160405280600481526020017f43424e54000000000000000000000000000000000000000000000000000000008152508160029081620000af919062000451565b508060039081620000c1919062000451565b50620000d26200010060201b60201c565b6000819055505050620000fa620000ee6200010960201b60201c565b6200011160201b60201c565b62000538565b60006001905090565b600033905090565b6000600860009054906101000a900473ffffffffffffffffffffffffffffffffffffffff16905081600860006101000a81548173ffffffffffffffffffffffffffffffffffffffff021916908373ffffffffffffffffffffffffffffffffffffffff1602179055508173ffffffffffffffffffffffffffffffffffffffff168173ffffffffffffffffffffffffffffffffffffffff167f8be0079c531659141344cd1fd0a4f28419497f9722a3daafe3b4186f6b6457e060405160405180910390a35050565b600081519050919050565b7f4e487b7100000000000000000000000000000000000000000000000000000000600052604160045260246000fd5b7f4e487b7100000000000000000000000000000000000000000000000000000000600052602260045260246000fd5b600060028204905060018216806200025957607f821691505b6020821081036200026f576200026e62000211565b5b50919050565b60008190508160005260206000209050919050565b60006020601f8301049050919050565b600082821b905092915050565b600060088302620002d97fffffffffffffffffffffffffffffffffffffffffffffffffffffffffffffffff826200029a565b620002e586836200029a565b95508019841693508086168417925050509392505050565b6000819050919050565b6000819050919050565b6000620003326200032c6200032684620002fd565b62000307565b620002fd565b9050919050565b6000819050919050565b6200034e8362000311565b620003666200035d8262000339565b848454620002a7565b825550505050565b600090565b6200037d6200036e565b6200038a81848462000343565b505050565b5b81811015620003b257620003a660008262000373565b60018101905062000390565b5050565b601f8211156200040157620003cb8162000275565b620003d6846200028a565b81016020851015620003e6578190505b620003fe620003f5856200028a565b8301826200038f565b50505b505050565b600082821c905092915050565b6000620004266000198460080262000406565b1980831691505092915050565b600062000441838362000413565b9150826002028217905092915050565b6200045c82620001d7565b67ffffffffffffffff811115620004785762000477620001e2565b5b62000484825462000240565b62000491828285620003b6565b600060209050601f831160018114620004c95760008415620004b4578287015190505b620004c0858262000433565b86555062000530565b601f198416620004d98662000275565b60005b828110156200050357848901518255600182019150602085019450602081019050620004dc565b868310156200052357848901516200051f601f89168262000413565b8355505b6001600288020188555050505b505050505050565b61675580620005486000396000f3fe6080604052600436106101815760003560e01c8063715018a6116100d1578063a22cb4651161008a578063bf205ebc11610064578063bf205ebc146104f3578063c87b56dd1461051e578063e985e9c51461055b578063f2fde38b1461059857610181565b8063a22cb46514610497578063b88d4fde146104c0578063b8be6e98146104dc57610181565b8063715018a6146103cc5780638da5cb5b146103e35780638ef9ae591461040e57806395d89b4114610425578063a035b1fe14610450578063a0712d681461047b57610181565b806323b872dd1161013e5780633ccfd60b116101185780633ccfd60b1461031f57806342842e0e146103365780636352211e1461035257806370a082311461038f57610181565b806323b872dd146102af57806325e514c6146102cb57806337c5fa0d146102f457610181565b806301ffc9a71461018657806306fdde03146101c3578063081812fc146101ee578063095ea7b31461022b5780630ff4c9161461024757806318160ddd14610284575b600080fd5b34801561019257600080fd5b506101ad60048036038101906101a891906137cb565b6105c1565b6040516101ba9190613813565b60405180910390f35b3480156101cf57600080fd5b506101d8610653565b6040516101e591906138be565b60405180910390f35b3480156101fa57600080fd5b5061021560048036038101906102109190613916565b6106e5565b6040516102229190613984565b60405180910390f35b610245600480360381019061024091906139cb565b610764565b005b34801561025357600080fd5b5061026e60048036038101906102699190613916565b6108a8565b60405161027b91906138be565b60405180910390f35b34801561029057600080fd5b50610299610a3a565b6040516102a69190613a1a565b60405180910390f35b6102c960048036038101906102c49190613a35565b610a51565b005b3480156102d757600080fd5b506102f260048036038101906102ed9190613bd0565b610d73565b005b34801561030057600080fd5b506103096112a2565b6040516103169190613813565b60405180910390f35b34801561032b57600080fd5b506103346112b5565b005b610350600480360381019061034b9190613a35565b6112fd565b005b34801561035e57600080fd5b5061037960048036038101906103749190613916565b61131d565b6040516103869190613984565b60405180910390f35b34801561039b57600080fd5b506103b660048036038101906103b19190613c19565b61132f565b6040516103c39190613a1a565b60405180910390f35b3480156103d857600080fd5b506103e16113e7565b005b3480156103ef57600080fd5b506103f86113fb565b6040516104059190613984565b60405180910390f35b34801561041a57600080fd5b50610423611425565b005b34801561043157600080fd5b5061043a611449565b60405161044791906138be565b60405180910390f35b34801561045c57600080fd5b506104656114db565b6040516104729190613a1a565b60405180910390f35b61049560048036038101906104909190613916565b6114e1565b005b3480156104a357600080fd5b506104be60048036038101906104b99190613c72565b61153e565b005b6104da60048036038101906104d59190613d67565b611649565b005b3480156104e857600080fd5b506104f16116bc565b005b3480156104ff57600080fd5b506105086116f0565b60405161051591906138be565b60405180910390f35b34801561052a57600080fd5b5061054560048036038101906105409190613916565b61177e565b60405161055291906138be565b60405180910390f35b34801561056757600080fd5b50610582600480360381019061057d9190613dea565b611944565b60405161058f9190613813565b60405180910390f35b3480156105a457600080fd5b506105bf60048036038101906105ba9190613c19565b6119d8565b005b60006301ffc9a760e01b827bffffffffffffffffffffffffffffffffffffffffffffffffffffffff1916148061061c57506380ac58cd60e01b827bffffffffffffffffffffffffffffffffffffffffffffffffffffffff1916145b8061064c5750635b5e139f60e01b827bffffffffffffffffffffffffffffffffffffffffffffffffffffffff1916145b9050919050565b60606002805461066290613e59565b80601f016020809104026020016040519081016040528092919081815260200182805461068e90613e59565b80156106db5780601f106106b0576101008083540402835291602001916106db565b820191906000526020600020905b8154815290600101906020018083116106be57829003601f168201915b5050505050905090565b60006106f082611a5b565b610726576040517fcf4700e400000000000000000000000000000000000000000000000000000000815260040160405180910390fd5b6006600083815260200190815260200160002060000160009054906101000a900473ffffffffffffffffffffffffffffffffffffffff169050919050565b600061076f8261131d565b90508073ffffffffffffffffffffffffffffffffffffffff16610790611aba565b73ffffffffffffffffffffffffffffffffffffffff16146107f3576107bc816107b7611aba565b611944565b6107f2576040517fcfb3b94200000000000000000000000000000000000000000000000000000000815260040160405180910390fd5b5b826006600084815260200190815260200160002060000160006101000a81548173ffffffffffffffffffffffffffffffffffffffff021916908373ffffffffffffffffffffffffffffffffffffffff160217905550818373ffffffffffffffffffffffffffffffffffffffff168273ffffffffffffffffffffffffffffffffffffffff167f8c5be1e5ebec7d5bd14f71427d1e84f3dd0314c0f7b2291e5b200ac8c7c3b92560405160405180910390a4505050565b60606108b382611a5b565b6108ce57604051806020016040528060008152509050610a35565b610982600c600084815260200190815260200160002080546108ef90613e59565b80601f016020809104026020016040519081016040528092919081815260200182805461091b90613e59565b80156109685780601f1061093d57610100808354040283529160200191610968565b820191906000526020600020905b81548152906001019060200180831161094b57829003601f168201915b505050505060405180602001604052806000815250611ac2565b610a2957600c600083815260200190815260200160002080546109a490613e59565b80601f01602080910402602001604051908101604052809291908181526020018280546109d090613e59565b8015610a1d5780601f106109f257610100808354040283529160200191610a1d565b820191906000526020600020905b815481529060010190602001808311610a0057829003601f168201915b50505050509050610a35565b610a3282611b1b565b90505b919050565b6000610a44611b2f565b6001546000540303905090565b6000610a5c82611b38565b90508373ffffffffffffffffffffffffffffffffffffffff168173ffffffffffffffffffffffffffffffffffffffff1614610ac3576040517fa114810000000000000000000000000000000000000000000000000000000000815260040160405180910390fd5b600080610acf84611c04565b91509150610ae58187610ae0611aba565b611c2b565b610b3157610afa86610af5611aba565b611944565b610b30576040517f59c896be00000000000000000000000000000000000000000000000000000000815260040160405180910390fd5b5b600073ffffffffffffffffffffffffffffffffffffffff168573ffffffffffffffffffffffffffffffffffffffff1603610b97576040517fea553b3400000000000000000000000000000000000000000000000000000000815260040160405180910390fd5b610ba48686866001611c6f565b8015610baf57600082555b600560008773ffffffffffffffffffffffffffffffffffffffff1673ffffffffffffffffffffffffffffffffffffffff168152602001908152602001600020600081546001900391905081905550600560008673ffffffffffffffffffffffffffffffffffffffff1673ffffffffffffffffffffffffffffffffffffffff1681526020019081526020016000206000815460010191905081905550610c7d85610c59888887611c75565b7c020000000000000000000000000000000000000000000000000000000017611c9d565b600460008681526020019081526020016000208190555060007c0200000000000000000000000000000000000000000000000000000000841603610d035760006001850190506000600460008381526020019081526020016000205403610d01576000548114610d00578360046000838152602001908152602001600020819055505b5b505b838573ffffffffffffffffffffffffffffffffffffffff168773ffffffffffffffffffffffffffffffffffffffff167fddf252ad1be2c89b69c2b068fc378daa952ba7f163c4a11628f55a4df523b3ef60405160405180910390a4610d6b8686866001611cc8565b505050505050565b600a60009054906101000a900460ff16610dc2576040517f08c379a0000000000000000000000000000000000000000000000000000000008152600401610db990613ed6565b60405180910390fd5b606060005b8251811015610eb9573373ffffffffffffffffffffffffffffffffffffffff16610e0a848381518110610dfd57610dfc613ef6565b5b602002602001015161131d565b73ffffffffffffffffffffffffffffffffffffffff1614610e60576040517f08c379a0000000000000000000000000000000000000000000000000000000008152600401610e5790613f71565b60405180910390fd5b81610e84848381518110610e7757610e76613ef6565b5b60200260200101516108a8565b604051602001610e95929190613fcd565b60405160208183030381529060405291508080610eb190614020565b915050610dc7565b50600481511115610eff576040517f08c379a0000000000000000000000000000000000000000000000000000000008152600401610ef6906140b4565b60405180910390fd5b610fa2600b8054610f0f90613e59565b80601f0160208091040260200160405190810160405280929190818152602001828054610f3b90613e59565b8015610f885780601f10610f5d57610100808354040283529160200191610f88565b820191906000526020600020905b815481529060010190602001808311610f6b57829003601f168201915b505050505060405180602001604052806000815250611ac2565b15801561103f575061103e600b8054610fba90613e59565b80601f0160208091040260200160405190810160405280929190818152602001828054610fe690613e59565b80156110335780601f1061100857610100808354040283529160200191611033565b820191906000526020600020905b81548152906001019060200180831161101657829003601f168201915b505050505082611ac2565b5b156110a157600b60405160200161105691906141de565b6040516020818303038152906040526040517f08c379a000000000000000000000000000000000000000000000000000000000815260040161109891906138be565b60405180910390fd5b6000600190505b82518110156111b5576110d48382815181106110c7576110c6613ef6565b5b6020026020010151611cce565b60405180602001604052806000815250600c60008584815181106110fb576110fa613ef6565b5b60200260200101518152602001908152602001600020908161111d9190614397565b506000600d600085848151811061113757611136613ef6565b5b60200260200101518152602001908152602001600020819055507ff8e1a15aba9398e019f0b49df1a4fde98ee17ae345cb5f6b5e2c27f5033e8ce783828151811061118557611184613ef6565b5b602002602001015160405161119a9190613a1a565b60405180910390a180806111ad90614020565b9150506110a8565b5080600c6000846000815181106111cf576111ce613ef6565b5b6020026020010151815260200190815260200160002090816111f19190614397565b5061121a8260008151811061120957611208613ef6565b5b602002602001015160016004611cdc565b600d60008460008151811061123257611231613ef6565b5b60200260200101518152602001908152602001600020819055507ff8e1a15aba9398e019f0b49df1a4fde98ee17ae345cb5f6b5e2c27f5033e8ce78260008151811061128157611280613ef6565b5b60200260200101516040516112969190613a1a565b60405180910390a15050565b600a60009054906101000a900460ff1681565b6112bd611d50565b3373ffffffffffffffffffffffffffffffffffffffff166108fc479081150290604051600060405180830381858888f193505050506112fb57600080fd5b565b61131883838360405180602001604052806000815250611649565b505050565b600061132882611b38565b9050919050565b60008073ffffffffffffffffffffffffffffffffffffffff168273ffffffffffffffffffffffffffffffffffffffff1603611396576040517f8f4eb60400000000000000000000000000000000000000000000000000000000815260040160405180910390fd5b67ffffffffffffffff600560008473ffffffffffffffffffffffffffffffffffffffff1673ffffffffffffffffffffffffffffffffffffffff16815260200190815260200160002054169050919050565b6113ef611d50565b6113f96000611dce565b565b6000600860009054906101000a900473ffffffffffffffffffffffffffffffffffffffff16905090565b61142d611d50565b611438426004611e94565b600b90816114469190614397565b50565b60606003805461145890613e59565b80601f016020809104026020016040519081016040528092919081815260200182805461148490613e59565b80156114d15780601f106114a6576101008083540402835291602001916114d1565b820191906000526020600020905b8154815290600101906020018083116114b457829003601f168201915b5050505050905090565b60095481565b600954816114ef9190614469565b341015611531576040517f08c379a0000000000000000000000000000000000000000000000000000000008152600401611528906144f7565b60405180910390fd5b61153b3382612094565b50565b806007600061154b611aba565b73ffffffffffffffffffffffffffffffffffffffff1673ffffffffffffffffffffffffffffffffffffffff16815260200190815260200160002060008473ffffffffffffffffffffffffffffffffffffffff1673ffffffffffffffffffffffffffffffffffffffff16815260200190815260200160002060006101000a81548160ff0219169083151502179055508173ffffffffffffffffffffffffffffffffffffffff166115f8611aba565b73ffffffffffffffffffffffffffffffffffffffff167f17307eab39ab6107e8899845ad3d59bd9653f200f220920489ca2b5937696c318360405161163d9190613813565b60405180910390a35050565b611654848484610a51565b60008373ffffffffffffffffffffffffffffffffffffffff163b146116b65761167f848484846120a2565b6116b5576040517fd1a57ed600000000000000000000000000000000000000000000000000000000815260040160405180910390fd5b5b50505050565b6116c4611d50565b600a60009054906101000a900460ff1615600a60006101000a81548160ff021916908315150217905550565b600b80546116fd90613e59565b80601f016020809104026020016040519081016040528092919081815260200182805461172990613e59565b80156117765780601f1061174b57610100808354040283529160200191611776565b820191906000526020600020905b81548152906001019060200180831161175957829003601f168201915b505050505081565b60606000606061178d84611a5b565b6117ac576040518060200160405280600081525090506001915061191c565b611860600c600086815260200190815260200160002080546117cd90613e59565b80601f01602080910402602001604051908101604052809291908181526020018280546117f990613e59565b80156118465780601f1061181b57610100808354040283529160200191611846565b820191906000526020600020905b81548152906001019060200180831161182957829003601f168201915b505050505060405180602001604052806000815250611ac2565b61190b57600c6000858152602001908152602001600020805461188290613e59565b80601f01602080910402602001604051908101604052809291908181526020018280546118ae90613e59565b80156118fb5780601f106118d0576101008083540402835291602001916118fb565b820191906000526020600020905b8154815290600101906020018083116118de57829003601f168201915b505050505090506000915061191b565b61191484611b1b565b9050600091505b5b61193b8482600d600088815260200190815260200160002054856121f2565b92505050919050565b6000600760008473ffffffffffffffffffffffffffffffffffffffff1673ffffffffffffffffffffffffffffffffffffffff16815260200190815260200160002060008373ffffffffffffffffffffffffffffffffffffffff1673ffffffffffffffffffffffffffffffffffffffff16815260200190815260200160002060009054906101000a900460ff16905092915050565b6119e0611d50565b600073ffffffffffffffffffffffffffffffffffffffff168173ffffffffffffffffffffffffffffffffffffffff1603611a4f576040517f08c379a0000000000000000000000000000000000000000000000000000000008152600401611a4690614589565b60405180910390fd5b611a5881611dce565b50565b600081611a66611b2f565b11158015611a75575060005482105b8015611ab3575060007c0100000000000000000000000000000000000000000000000000000000600460008581526020019081526020016000205416145b9050919050565b600033905090565b600081604051602001611ad591906145a9565b6040516020818303038152906040528051906020012083604051602001611afc91906145a9565b6040516020818303038152906040528051906020012014905092915050565b6060611b28826001611e94565b9050919050565b60006001905090565b60008082905080611b47611b2f565b11611bcd57600054811015611bcc5760006004600083815260200190815260200160002054905060007c0100000000000000000000000000000000000000000000000000000000821603611bca575b60008103611bc0576004600083600190039350838152602001908152602001600020549050611b96565b8092505050611bff565b505b5b6040517fdf2d9b4200000000000000000000000000000000000000000000000000000000815260040160405180910390fd5b919050565b60008060006006600085815260200190815260200160002090508092508254915050915091565b600073ffffffffffffffffffffffffffffffffffffffff8316925073ffffffffffffffffffffffffffffffffffffffff821691508382148383141790509392505050565b50505050565b60008060e883901c905060e8611c8c868684612330565b62ffffff16901b9150509392505050565b600073ffffffffffffffffffffffffffffffffffffffff83169250814260a01b178317905092915050565b50505050565b611cd9816000612339565b50565b6000808383611ceb91906145c0565b90506001816107e787611cfe91906145f4565b604051602001611d0e9190614649565b6040516020818303038152906040528051906020012060001c611d319190614693565b84611d3c91906145c0565b611d4691906145c0565b9150509392505050565b611d5861258b565b73ffffffffffffffffffffffffffffffffffffffff16611d766113fb565b73ffffffffffffffffffffffffffffffffffffffff1614611dcc576040517f08c379a0000000000000000000000000000000000000000000000000000000008152600401611dc390614710565b60405180910390fd5b565b6000600860009054906101000a900473ffffffffffffffffffffffffffffffffffffffff16905081600860006101000a81548173ffffffffffffffffffffffffffffffffffffffff021916908373ffffffffffffffffffffffffffffffffffffffff1602179055508173ffffffffffffffffffffffffffffffffffffffff168173ffffffffffffffffffffffffffffffffffffffff167f8be0079c531659141344cd1fd0a4f28419497f9722a3daafe3b4186f6b6457e060405160405180910390a35050565b60606004821115611eda576040517f08c379a0000000000000000000000000000000000000000000000000000000008152600401611ed19061477c565b60405180910390fd5b6001821015611f1e576040517f08c379a0000000000000000000000000000000000000000000000000000000008152600401611f15906147e8565b60405180910390fd5b60008267ffffffffffffffff811115611f3a57611f39613a8d565b5b6040519080825280601f01601f191660200182016040528015611f6c5781602001600182028036833780820191505090505b5090506000600a67ffffffffffffffff811115611f8c57611f8b613a8d565b5b6040519080825280601f01601f191660200182016040528015611fbe5781602001600182028036833780820191505090505b5090506040518060400160405280600a81526020017f3031323334353637383900000000000000000000000000000000000000000000815250905060005b8481101561208857600061201287600a84612593565b905082818151811061202757612026613ef6565b5b602001015160f81c60f81b84838151811061204557612044613ef6565b5b60200101907effffffffffffffffffffffffffffffffffffffffffffffffffffffffffffff1916908160001a90535050808061208090614020565b915050611ffc565b50819250505092915050565b61209e82826125d5565b5050565b60008373ffffffffffffffffffffffffffffffffffffffff1663150b7a026120c8611aba565b8786866040518563ffffffff1660e01b81526004016120ea949392919061485d565b6020604051808303816000875af192505050801561212657506040513d601f19601f8201168201806040525081019061212391906148be565b60015b61219f573d8060008114612156576040519150601f19603f3d011682016040523d82523d6000602084013e61215b565b606091505b506000815103612197576040517fd1a57ed600000000000000000000000000000000000000000000000000000000815260040160405180910390fd5b805181602001fd5b63150b7a0260e01b7bffffffffffffffffffffffffffffffffffffffffffffffffffffffff1916817bffffffffffffffffffffffffffffffffffffffffffffffffffffffff191614915050949350505050565b606060006122008685612790565b90506060831561224c5761221387612877565b61222561222088856129ff565b612d2c565b604051602001612236929190614a67565b60405160208183030381529060405290506122fc565b61225587612877565b8661225f87612e8f565b6122808560006003811061227657612275613ef6565b5b6020020151612877565b6122a18660016003811061229757612296613ef6565b5b6020020151612877565b6122c2876002600381106122b8576122b7613ef6565b5b6020020151612877565b6122d46122cf8d8a6129ff565b612d2c565b6040516020016122ea9796959493929190614d32565b60405160208183030381529060405290505b61230581612d2c565b6040516020016123159190614e3b565b60405160208183030381529060405292505050949350505050565b60009392505050565b600061234483611b38565b9050600081905060008061235786611c04565b9150915084156123c057612373818461236e611aba565b611c2b565b6123bf5761238883612383611aba565b611944565b6123be576040517f59c896be00000000000000000000000000000000000000000000000000000000815260040160405180910390fd5b5b5b6123ce836000886001611c6f565b80156123d957600082555b600160806001901b03600560008573ffffffffffffffffffffffffffffffffffffffff1673ffffffffffffffffffffffffffffffffffffffff168152602001908152602001600020600082825401925050819055506124818361243e85600088611c75565b7c02000000000000000000000000000000000000000000000000000000007c01000000000000000000000000000000000000000000000000000000001717611c9d565b600460008881526020019081526020016000208190555060007c02000000000000000000000000000000000000000000000000000000008516036125075760006001870190506000600460008381526020019081526020016000205403612505576000548114612504578460046000838152602001908152602001600020819055505b5b505b85600073ffffffffffffffffffffffffffffffffffffffff168473ffffffffffffffffffffffffffffffffffffffff167fddf252ad1be2c89b69c2b068fc378daa952ba7f163c4a11628f55a4df523b3ef60405160405180910390a4612571836000886001611cc8565b600160008154809291906001019190505550505050505050565b600033905090565b60008284836040516020016125a9929190614e5d565b6040516020818303038152906040528051906020012060001c6125cc9190614693565b90509392505050565b60008054905060008203612615576040517fb562e8dd00000000000000000000000000000000000000000000000000000000815260040160405180910390fd5b6126226000848385611c6f565b600160406001901b178202600560008573ffffffffffffffffffffffffffffffffffffffff1673ffffffffffffffffffffffffffffffffffffffff168152602001908152602001600020600082825401925050819055506126998361268a6000866000611c75565b61269385612faa565b17611c9d565b6004600083815260200190815260200160002081905550600080838301905073ffffffffffffffffffffffffffffffffffffffff85169150828260007fddf252ad1be2c89b69c2b068fc378daa952ba7f163c4a11628f55a4df523b3ef600080a4600183015b81811461273a57808360007fddf252ad1be2c89b69c2b068fc378daa952ba7f163c4a11628f55a4df523b3ef600080a46001810190506126ff565b5060008203612775576040517f2e07630000000000000000000000000000000000000000000000000000000000815260040160405180910390fd5b80600081905550505061278b6000848385611cc8565b505050565b612798613715565b60008211156128325760005b600381101561282c576001816127ba91906145f4565b83036127e35760ff8282600381106127d5576127d4613ef6565b5b602002018181525050612819565b6127fc81856127f291906145f4565b6000610100611cdc565b82826003811061280f5761280e613ef6565b5b6020020181815250505b808061282490614020565b9150506127a4565b50612871565b60005b600381101561286f5760ff82826003811061285357612852613ef6565b5b602002018181525050808061286790614020565b915050612835565b505b92915050565b6060600082036128be576040518060400160405280600181526020017f300000000000000000000000000000000000000000000000000000000000000081525090506129fa565b600082905060005b600082146128f05780806128d990614020565b915050600a826128e99190614e89565b91506128c6565b60008167ffffffffffffffff81111561290c5761290b613a8d565b5b6040519080825280601f01601f19166020018201604052801561293e5781602001600182028036833780820191505090505b50905060008290505b600086146129f25760018161295c91906145c0565b90506000600a808861296e9190614e89565b6129789190614469565b8761298391906145c0565b603061298f9190614ec7565b905060008160f81b9050808484815181106129ad576129ac613ef6565b5b60200101907effffffffffffffffffffffffffffffffffffffffffffffffffffffffffffff1916908160001a905350600a886129e99190614e89565b97505050612947565b819450505050505b919050565b606060405180610c400160405280610c198152602001615b07610c19913990506000612a4283600060038110612a3857612a37613ef6565b5b6020020151612877565b612a6384600160038110612a5957612a58613ef6565b5b6020020151612877565b612a8485600260038110612a7a57612a79613ef6565b5b6020020151612877565b604051602001612a9693929190614f94565b6040516020818303038152906040529050612ac08460405180602001604052806000815250611ac2565b612d01576000845190506000612ad586612fba565b905060018203612b165782612aef6003836060015161312d565b604051602001612b00929190613fcd565b6040516020818303038152906040529250612cfe565b60028203612b875782612b2e6002836040015161312d565b604051602001612b3f929190613fcd565b604051602081830303815290604052925082612b606003836060015161312d565b604051602001612b71929190613fcd565b6040516020818303038152906040529250612cfd565b60038203612c2a5782612b9f6001836020015161312d565b604051602001612bb0929190613fcd565b604051602081830303815290604052925082612bd16002836040015161312d565b604051602001612be2929190613fcd565b604051602081830303815290604052925082612c036003836060015161312d565b604051602001612c14929190613fcd565b6040516020818303038152906040529250612cfc565b60048203612cfb5782612c426000836000015161312d565b604051602001612c53929190613fcd565b604051602081830303815290604052925082612c746001836020015161312d565b604051602001612c85929190613fcd565b604051602081830303815290604052925082612ca66002836040015161312d565b604051602001612cb7929190613fcd565b604051602081830303815290604052925082612cd86003836060015161312d565b604051602001612ce9929190613fcd565b60405160208183030381529060405292505b5b5b5b50505b8181604051602001612d1492919061503d565b60405160208183030381529060405291505092915050565b60606000825103612d4e57604051806020016040528060008152509050612e8a565b6000604051806060016040528060408152602001615ac76040913990506000600360028551612d7d91906145f4565b612d879190614e89565b6004612d939190614469565b67ffffffffffffffff811115612dac57612dab613a8d565b5b6040519080825280601f01601f191660200182016040528015612dde5781602001600182028036833780820191505090505b509050600182016020820185865187015b80821015612e4a576003820191508151603f8160121c168501518453600184019350603f81600c1c168501518453600184019350603f8160061c168501518453600184019350603f8116850151845360018401935050612def565b5050600386510660018114612e665760028114612e7957612e81565b603d6001830353603d6002830353612e81565b603d60018303535b50505080925050505b919050565b6060600060405180608001604052806040518060400160405280600581526020017f576869746500000000000000000000000000000000000000000000000000000081525081526020016040518060400160405280600381526020017f526564000000000000000000000000000000000000000000000000000000000081525081526020016040518060400160405280600581526020017f477265656e00000000000000000000000000000000000000000000000000000081525081526020016040518060400160405280600481526020017f426c7565000000000000000000000000000000000000000000000000000000008152508152509050808360048110612f9d57612f9c613ef6565b5b6020020151915050919050565b60006001821460e11b9050919050565b612fc2613737565b6000612fcd83613602565b905060005b8151811015613126576000810361302957818181518110612ff657612ff5613ef6565b5b602001015160f81c60f81b60405160200161301191906150b9565b60405160208183030381529060405283606001819052505b600181036130775781818151811061304457613043613ef6565b5b602001015160f81c60f81b60405160200161305f91906150b9565b60405160208183030381529060405283604001819052505b600281036130c55781818151811061309257613091613ef6565b5b602001015160f81c60f81b6040516020016130ad91906150b9565b60405160208183030381529060405283602001819052505b60038103613113578181815181106130e0576130df613ef6565b5b602001015160f81c60f81b6040516020016130fb91906150b9565b60405160208183030381529060405283600001819052505b808061311e90614020565b915050612fd2565b5050919050565b6060600061313a84612877565b905061317b836040518060400160405280600181526020017f3000000000000000000000000000000000000000000000000000000000000000815250611ac2565b156131b25780818283848560405160200161319b969594939291906152e8565b6040516020818303038152906040529150506135fc565b6131f1836040518060400160405280600181526020017f3100000000000000000000000000000000000000000000000000000000000000815250611ac2565b15613220578081604051602001613209929190615410565b6040516020818303038152906040529150506135fc565b61325f836040518060400160405280600181526020017f3200000000000000000000000000000000000000000000000000000000000000815250611ac2565b1561329457808182838460405160200161327d9594939291906154ac565b6040516020818303038152906040529150506135fc565b6132d3836040518060400160405280600181526020017f3300000000000000000000000000000000000000000000000000000000000000815250611ac2565b156133085780818283846040516020016132f1959493929190615565565b6040516020818303038152906040529150506135fc565b613347836040518060400160405280600181526020017f3400000000000000000000000000000000000000000000000000000000000000815250611ac2565b1561337a5780818283604051602001613363949392919061561e565b6040516020818303038152906040529150506135fc565b6133b9836040518060400160405280600181526020017f3500000000000000000000000000000000000000000000000000000000000000815250611ac2565b156133ee5780818283846040516020016133d79594939291906156b4565b6040516020818303038152906040529150506135fc565b61342d836040518060400160405280600181526020017f3600000000000000000000000000000000000000000000000000000000000000815250611ac2565b156134645780818283848560405160200161344d9695949392919061576d565b6040516020818303038152906040529150506135fc565b6134a3836040518060400160405280600181526020017f3700000000000000000000000000000000000000000000000000000000000000815250611ac2565b156134d4578081826040516020016134bd93929190615849565b6040516020818303038152906040529150506135fc565b613513836040518060400160405280600181526020017f3800000000000000000000000000000000000000000000000000000000000000815250611ac2565b1561354c578081828384858660405160200161353597969594939291906158bc565b6040516020818303038152906040529150506135fc565b61358b836040518060400160405280600181526020017f3900000000000000000000000000000000000000000000000000000000000000815250611ac2565b156135c2578081828384856040516020016135ab969594939291906159bb565b6040516020818303038152906040529150506135fc565b6040518060400160405280600581526020017f6572726f720000000000000000000000000000000000000000000000000000008152509150505b92915050565b60606000829050600081511161361b5761361a615a97565b5b6000815167ffffffffffffffff81111561363857613637613a8d565b5b6040519080825280601f01601f19166020018201604052801561366a5781602001600182028036833780820191505090505b509050600081905060005b83518110156137095783818151811061369157613690613ef6565b5b602001015160f81c60f81b8260018387516136ac91906145c0565b6136b691906145c0565b815181106136c7576136c6613ef6565b5b60200101907effffffffffffffffffffffffffffffffffffffffffffffffffffffffffffff1916908160001a905350808061370190614020565b915050613675565b50809350505050919050565b6040518060600160405280600390602082028036833780820191505090505090565b6040518060800160405280606081526020016060815260200160608152602001606081525090565b6000604051905090565b600080fd5b600080fd5b60007fffffffff0000000000000000000000000000000000000000000000000000000082169050919050565b6137a881613773565b81146137b357600080fd5b50565b6000813590506137c58161379f565b92915050565b6000602082840312156137e1576137e0613769565b5b60006137ef848285016137b6565b91505092915050565b60008115159050919050565b61380d816137f8565b82525050565b60006020820190506138286000830184613804565b92915050565b600081519050919050565b600082825260208201905092915050565b60005b8381101561386857808201518184015260208101905061384d565b60008484015250505050565b6000601f19601f8301169050919050565b60006138908261382e565b61389a8185613839565b93506138aa81856020860161384a565b6138b381613874565b840191505092915050565b600060208201905081810360008301526138d88184613885565b905092915050565b6000819050919050565b6138f3816138e0565b81146138fe57600080fd5b50565b600081359050613910816138ea565b92915050565b60006020828403121561392c5761392b613769565b5b600061393a84828501613901565b91505092915050565b600073ffffffffffffffffffffffffffffffffffffffff82169050919050565b600061396e82613943565b9050919050565b61397e81613963565b82525050565b60006020820190506139996000830184613975565b92915050565b6139a881613963565b81146139b357600080fd5b50565b6000813590506139c58161399f565b92915050565b600080604083850312156139e2576139e1613769565b5b60006139f0858286016139b6565b9250506020613a0185828601613901565b9150509250929050565b613a14816138e0565b82525050565b6000602082019050613a2f6000830184613a0b565b92915050565b600080600060608486031215613a4e57613a4d613769565b5b6000613a5c868287016139b6565b9350506020613a6d868287016139b6565b9250506040613a7e86828701613901565b9150509250925092565b600080fd5b7f4e487b7100000000000000000000000000000000000000000000000000000000600052604160045260246000fd5b613ac582613874565b810181811067ffffffffffffffff82111715613ae457613ae3613a8d565b5b80604052505050565b6000613af761375f565b9050613b038282613abc565b919050565b600067ffffffffffffffff821115613b2357613b22613a8d565b5b602082029050602081019050919050565b600080fd5b6000613b4c613b4784613b08565b613aed565b90508083825260208201905060208402830185811115613b6f57613b6e613b34565b5b835b81811015613b985780613b848882613901565b845260208401935050602081019050613b71565b5050509392505050565b600082601f830112613bb757613bb6613a88565b5b8135613bc7848260208601613b39565b91505092915050565b600060208284031215613be657613be5613769565b5b600082013567ffffffffffffffff811115613c0457613c0361376e565b5b613c1084828501613ba2565b91505092915050565b600060208284031215613c2f57613c2e613769565b5b6000613c3d848285016139b6565b91505092915050565b613c4f816137f8565b8114613c5a57600080fd5b50565b600081359050613c6c81613c46565b92915050565b60008060408385031215613c8957613c88613769565b5b6000613c97858286016139b6565b9250506020613ca885828601613c5d565b9150509250929050565b600080fd5b600067ffffffffffffffff821115613cd257613cd1613a8d565b5b613cdb82613874565b9050602081019050919050565b82818337600083830152505050565b6000613d0a613d0584613cb7565b613aed565b905082815260208101848484011115613d2657613d25613cb2565b5b613d31848285613ce8565b509392505050565b600082601f830112613d4e57613d4d613a88565b5b8135613d5e848260208601613cf7565b91505092915050565b60008060008060808587031215613d8157613d80613769565b5b6000613d8f878288016139b6565b9450506020613da0878288016139b6565b9350506040613db187828801613901565b925050606085013567ffffffffffffffff811115613dd257613dd161376e565b5b613dde87828801613d39565b91505092959194509250565b60008060408385031215613e0157613e00613769565b5b6000613e0f858286016139b6565b9250506020613e20858286016139b6565b9150509250929050565b7f4e487b7100000000000000000000000000000000000000000000000000000000600052602260045260246000fd5b60006002820490506001821680613e7157607f821691505b602082108103613e8457613e83613e2a565b5b50919050565b7f636f6d62696e696e67206e6f7420616374697665000000000000000000000000600082015250565b6000613ec0601483613839565b9150613ecb82613e8a565b602082019050919050565b60006020820190508181036000830152613eef81613eb3565b9050919050565b7f4e487b7100000000000000000000000000000000000000000000000000000000600052603260045260246000fd5b7f6d757374206f776e20616c6c20746f6b656e7300000000000000000000000000600082015250565b6000613f5b601383613839565b9150613f6682613f25565b602082019050919050565b60006020820190508181036000830152613f8a81613f4e565b9050919050565b600081905092915050565b6000613fa78261382e565b613fb18185613f91565b9350613fc181856020860161384a565b80840191505092915050565b6000613fd98285613f9c565b9150613fe58284613f9c565b91508190509392505050565b7f4e487b7100000000000000000000000000000000000000000000000000000000600052601160045260246000fd5b600061402b826138e0565b91507fffffffffffffffffffffffffffffffffffffffffffffffffffffffffffffffff820361405d5761405c613ff1565b5b600182019050919050565b7f76616c7565206e6f206d6f7265207468616e2034206368617261637465727300600082015250565b600061409e601f83613839565b91506140a982614068565b602082019050919050565b600060208201905081810360008301526140cd81614091565b9050919050565b7f63616e277420636f6d62696e652062656361757365206c75636b79206e756d6260008201527f6572206973200000000000000000000000000000000000000000000000000000602082015250565b6000614130602683613f91565b915061413b826140d4565b602682019050919050565b60008190508160005260206000209050919050565b6000815461416881613e59565b6141728186613f91565b9450600182166000811461418d57600181146141a2576141d5565b60ff19831686528115158202860193506141d5565b6141ab85614146565b60005b838110156141cd578154818901526001820191506020810190506141ae565b838801955050505b50505092915050565b60006141e982614123565b91506141f5828461415b565b915081905092915050565b60006020601f8301049050919050565b600082821b905092915050565b60006008830261424d7fffffffffffffffffffffffffffffffffffffffffffffffffffffffffffffffff82614210565b6142578683614210565b95508019841693508086168417925050509392505050565b6000819050919050565b600061429461428f61428a846138e0565b61426f565b6138e0565b9050919050565b6000819050919050565b6142ae83614279565b6142c26142ba8261429b565b84845461421d565b825550505050565b600090565b6142d76142ca565b6142e28184846142a5565b505050565b5b81811015614306576142fb6000826142cf565b6001810190506142e8565b5050565b601f82111561434b5761431c81614146565b61432584614200565b81016020851015614334578190505b61434861434085614200565b8301826142e7565b50505b505050565b600082821c905092915050565b600061436e60001984600802614350565b1980831691505092915050565b6000614387838361435d565b9150826002028217905092915050565b6143a08261382e565b67ffffffffffffffff8111156143b9576143b8613a8d565b5b6143c38254613e59565b6143ce82828561430a565b600060209050601f83116001811461440157600084156143ef578287015190505b6143f9858261437b565b865550614461565b601f19841661440f86614146565b60005b8281101561443757848901518255600182019150602085019450602081019050614412565b868310156144545784890151614450601f89168261435d565b8355505b6001600288020188555050505b505050505050565b6000614474826138e0565b915061447f836138e0565b925082820261448d816138e0565b915082820484148315176144a4576144a3613ff1565b5b5092915050565b7f6e6f7420656e6f75676820657468000000000000000000000000000000000000600082015250565b60006144e1600e83613839565b91506144ec826144ab565b602082019050919050565b60006020820190508181036000830152614510816144d4565b9050919050565b7f4f776e61626c653a206e6577206f776e657220697320746865207a65726f206160008201527f6464726573730000000000000000000000000000000000000000000000000000602082015250565b6000614573602683613839565b915061457e82614517565b604082019050919050565b600060208201905081810360008301526145a281614566565b9050919050565b60006145b58284613f9c565b915081905092915050565b60006145cb826138e0565b91506145d6836138e0565b92508282039050818111156145ee576145ed613ff1565b5b92915050565b60006145ff826138e0565b915061460a836138e0565b925082820190508082111561462257614621613ff1565b5b92915050565b6000819050919050565b61464361463e826138e0565b614628565b82525050565b60006146558284614632565b60208201915081905092915050565b7f4e487b7100000000000000000000000000000000000000000000000000000000600052601260045260246000fd5b600061469e826138e0565b91506146a9836138e0565b9250826146b9576146b8614664565b5b828206905092915050565b7f4f776e61626c653a2063616c6c6572206973206e6f7420746865206f776e6572600082015250565b60006146fa602083613839565b9150614705826146c4565b602082019050919050565b60006020820190508181036000830152614729816146ed565b9050919050565b7f4c656e6774682063616e6e6f742062652067726561746572207468616e203400600082015250565b6000614766601f83613839565b915061477182614730565b602082019050919050565b6000602082019050818103600083015261479581614759565b9050919050565b7f4c656e6774682063616e6e6f74206265205a65726f0000000000000000000000600082015250565b60006147d2601583613839565b91506147dd8261479c565b602082019050919050565b60006020820190508181036000830152614801816147c5565b9050919050565b600081519050919050565b600082825260208201905092915050565b600061482f82614808565b6148398185614813565b935061484981856020860161384a565b61485281613874565b840191505092915050565b60006080820190506148726000830187613975565b61487f6020830186613975565b61488c6040830185613a0b565b818103606083015261489e8184614824565b905095945050505050565b6000815190506148b88161379f565b92915050565b6000602082840312156148d4576148d3613769565b5b60006148e2848285016148a9565b91505092915050565b7f7b226e616d65223a2022434f4d42494e455f4e554d4245522000000000000000600082015250565b6000614921601983613f91565b915061492c826148eb565b601982019050919050565b7f205b4255524e45445d222c20226465736372697074696f6e223a20224e756d6260008201527f65727320617265206172742c20616e642077652061726520617274697374732e60208201527f222c202261747472696275746573223a5b7b2274726169745f74797065223a2060408201527f224275726e6564222c202276616c7565223a2022596573227d5d2c2022696d6160608201527f6765223a2022646174613a696d6167652f7376672b786d6c3b6261736536342c608082015250565b6000614a0560a083613f91565b9150614a1082614937565b60a082019050919050565b7f227d000000000000000000000000000000000000000000000000000000000000600082015250565b6000614a51600283613f91565b9150614a5c82614a1b565b600282019050919050565b6000614a7282614914565b9150614a7e8285613f9c565b9150614a89826149f8565b9150614a958284613f9c565b9150614aa082614a44565b91508190509392505050565b7f222c20226465736372697074696f6e223a20224e756d6265727320617265206160008201527f72742c20616e642077652061726520617274697374732e222c2022617474726960208201527f6275746573223a5b7b2274726169745f74797065223a20224e756d626572222c60408201527f20226d61785f76616c7565223a20393939392c202276616c7565223a20000000606082015250565b6000614b54607d83613f91565b9150614b5f82614aac565b607d82019050919050565b7f7d2c7b2274726169745f74797065223a20224275726e6564222c202276616c7560008201527f65223a20224e6f227d2c7b2274726169745f74797065223a202242617365204360208201527f6f6c6f72222c202276616c7565223a2022000000000000000000000000000000604082015250565b6000614bec605183613f91565b9150614bf782614b6a565b605182019050919050565b7f227d2c7b2274726169745f74797065223a2022436f6c6f72222c202276616c7560008201527f65223a2022524742280000000000000000000000000000000000000000000000602082015250565b6000614c5e602983613f91565b9150614c6982614c02565b602982019050919050565b7f2c00000000000000000000000000000000000000000000000000000000000000600082015250565b6000614caa600183613f91565b9150614cb582614c74565b600182019050919050565b7f29227d5d2c2022696d616765223a2022646174613a696d6167652f7376672b7860008201527f6d6c3b6261736536342c00000000000000000000000000000000000000000000602082015250565b6000614d1c602a83613f91565b9150614d2782614cc0565b602a82019050919050565b6000614d3d82614914565b9150614d49828a613f9c565b9150614d5482614b47565b9150614d608289613f9c565b9150614d6b82614bdf565b9150614d778288613f9c565b9150614d8282614c51565b9150614d8e8287613f9c565b9150614d9982614c9d565b9150614da58286613f9c565b9150614db082614c9d565b9150614dbc8285613f9c565b9150614dc782614d0f565b9150614dd38284613f9c565b9150614dde82614a44565b915081905098975050505050505050565b7f646174613a6170706c69636174696f6e2f6a736f6e3b6261736536342c000000600082015250565b6000614e25601d83613f91565b9150614e3082614def565b601d82019050919050565b6000614e4682614e18565b9150614e528284613f9c565b915081905092915050565b6000614e698285614632565b602082019150614e798284614632565b6020820191508190509392505050565b6000614e94826138e0565b9150614e9f836138e0565b925082614eaf57614eae614664565b5b828204905092915050565b600060ff82169050919050565b6000614ed282614eba565b9150614edd83614eba565b9250828201905060ff811115614ef657614ef5613ff1565b5b92915050565b7f2a7b66696c6c3a72676228000000000000000000000000000000000000000000600082015250565b6000614f32600b83613f91565b9150614f3d82614efc565b600b82019050919050565b7f297d2362677b66696c6c3a233043304330437d00000000000000000000000000600082015250565b6000614f7e601383613f91565b9150614f8982614f48565b601382019050919050565b6000614f9f82614f25565b9150614fab8286613f9c565b9150614fb682614c9d565b9150614fc28285613f9c565b9150614fcd82614c9d565b9150614fd98284613f9c565b9150614fe482614f71565b9150819050949350505050565b7f3c2f7374796c653e3c2f7376673e000000000000000000000000000000000000600082015250565b6000615027600e83613f91565b915061503282614ff1565b600e82019050919050565b60006150498285613f9c565b91506150558284613f9c565b91506150608261501a565b91508190509392505050565b60007fff0000000000000000000000000000000000000000000000000000000000000082169050919050565b6000819050919050565b6150b36150ae8261506c565b615098565b82525050565b60006150c582846150a2565b60018201915081905092915050565b7f2370000000000000000000000000000000000000000000000000000000000000600082015250565b600061510a600283613f91565b9150615115826150d4565b600282019050919050565b7f312c000000000000000000000000000000000000000000000000000000000000600082015250565b6000615156600283613f91565b915061516182615120565b600282019050919050565b7f322c000000000000000000000000000000000000000000000000000000000000600082015250565b60006151a2600283613f91565b91506151ad8261516c565b600282019050919050565b7f332c000000000000000000000000000000000000000000000000000000000000600082015250565b60006151ee600283613f91565b91506151f9826151b8565b600282019050919050565b7f352c000000000000000000000000000000000000000000000000000000000000600082015250565b600061523a600283613f91565b915061524582615204565b600282019050919050565b7f362c000000000000000000000000000000000000000000000000000000000000600082015250565b6000615286600283613f91565b915061529182615250565b600282019050919050565b7f37207b66696c6c2d6f7061636974793a317d0000000000000000000000000000600082015250565b60006152d2601283613f91565b91506152dd8261529c565b601282019050919050565b60006152f3826150fd565b91506152ff8289613f9c565b915061530a82615149565b9150615315826150fd565b91506153218288613f9c565b915061532c82615195565b9150615337826150fd565b91506153438287613f9c565b915061534e826151e1565b9150615359826150fd565b91506153658286613f9c565b91506153708261522d565b915061537b826150fd565b91506153878285613f9c565b915061539282615279565b915061539d826150fd565b91506153a98284613f9c565b91506153b4826152c5565b9150819050979650505050505050565b7f36207b66696c6c2d6f7061636974793a317d0000000000000000000000000000600082015250565b60006153fa601283613f91565b9150615405826153c4565b601282019050919050565b600061541b826150fd565b91506154278285613f9c565b9150615432826151e1565b915061543d826150fd565b91506154498284613f9c565b9150615454826153ed565b91508190509392505050565b7f342c000000000000000000000000000000000000000000000000000000000000600082015250565b6000615496600283613f91565b91506154a182615460565b600282019050919050565b60006154b7826150fd565b91506154c38288613f9c565b91506154ce82615149565b91506154d9826150fd565b91506154e58287613f9c565b91506154f0826151e1565b91506154fb826150fd565b91506155078286613f9c565b915061551282615489565b915061551d826150fd565b91506155298285613f9c565b91506155348261522d565b915061553f826150fd565b915061554b8284613f9c565b9150615556826152c5565b91508190509695505050505050565b6000615570826150fd565b915061557c8288613f9c565b915061558782615149565b9150615592826150fd565b915061559e8287613f9c565b91506155a9826151e1565b91506155b4826150fd565b91506155c08286613f9c565b91506155cb82615489565b91506155d6826150fd565b91506155e28285613f9c565b91506155ed82615279565b91506155f8826150fd565b91506156048284613f9c565b915061560f826152c5565b91508190509695505050505050565b6000615629826150fd565b91506156358287613f9c565b915061564082615195565b915061564b826150fd565b91506156578286613f9c565b9150615662826151e1565b915061566d826150fd565b91506156798285613f9c565b915061568482615489565b915061568f826150fd565b915061569b8284613f9c565b91506156a6826153ed565b915081905095945050505050565b60006156bf826150fd565b91506156cb8288613f9c565b91506156d682615149565b91506156e1826150fd565b91506156ed8287613f9c565b91506156f882615195565b9150615703826150fd565b915061570f8286613f9c565b915061571a82615489565b9150615725826150fd565b91506157318285613f9c565b915061573c82615279565b9150615747826150fd565b91506157538284613f9c565b915061575e826152c5565b91508190509695505050505050565b6000615778826150fd565b91506157848289613f9c565b915061578f82615149565b915061579a826150fd565b91506157a68288613f9c565b91506157b182615195565b91506157bc826150fd565b91506157c88287613f9c565b91506157d382615489565b91506157de826150fd565b91506157ea8286613f9c565b91506157f58261522d565b9150615800826150fd565b915061580c8285613f9c565b915061581782615279565b9150615822826150fd565b915061582e8284613f9c565b9150615839826152c5565b9150819050979650505050505050565b6000615854826150fd565b91506158608286613f9c565b915061586b82615149565b9150615876826150fd565b91506158828285613f9c565b915061588d826151e1565b9150615898826150fd565b91506158a48284613f9c565b91506158af826153ed565b9150819050949350505050565b60006158c7826150fd565b91506158d3828a613f9c565b91506158de82615149565b91506158e9826150fd565b91506158f58289613f9c565b915061590082615195565b915061590b826150fd565b91506159178288613f9c565b9150615922826151e1565b915061592d826150fd565b91506159398287613f9c565b915061594482615489565b915061594f826150fd565b915061595b8286613f9c565b91506159668261522d565b9150615971826150fd565b915061597d8285613f9c565b915061598882615279565b9150615993826150fd565b915061599f8284613f9c565b91506159aa826152c5565b915081905098975050505050505050565b60006159c6826150fd565b91506159d28289613f9c565b91506159dd82615149565b91506159e8826150fd565b91506159f48288613f9c565b91506159ff82615195565b9150615a0a826150fd565b9150615a168287613f9c565b9150615a21826151e1565b9150615a2c826150fd565b9150615a388286613f9c565b9150615a4382615489565b9150615a4e826150fd565b9150615a5a8285613f9c565b9150615a6582615279565b9150615a70826150fd565b9150615a7c8284613f9c565b9150615a87826152c5565b9150819050979650505050505050565b7f4e487b7100000000000000000000000000000000000000000000000000000000600052600160045260246000fdfe4142434445464748494a4b4c4d4e4f505152535455565758595a6162636465666768696a6b6c6d6e6f707172737475767778797a303132333435363738392b2f3c7376672076696577426f783d223020302033303020333030222066696c6c3d226e6f6e652220786d6c6e733d22687474703a2f2f7777772e77332e6f72672f323030302f737667223e3c726563742069643d226267222077696474683d2233303022206865696768743d22333030222066696c6c3d2223304330433043222f3e3c706174682069643d227030312220643d224d313030203131394c313033203132324c313030203132354c3830203132354c3737203132324c3830203131394c313030203131395a222066696c6c3d227768697465222066696c6c2d6f7061636974793d22302e3035222f3e3c706174682069643d227030322220643d224d3733203132364c3736203132334c373920313236563134364c3736203134394c373320313436563132365a222066696c6c3d227768697465222066696c6c2d6f7061636974793d22302e3035222f3e3c706174682069643d227030332220643d224d313031203132364c313034203132334c31303720313236563134364c313034203134394c31303120313436563132365a222066696c6c3d227768697465222066696c6c2d6f7061636974793d22302e3035222f3e3c706174682069643d227030342220643d224d313030203134374c313033203135304c313030203135334c3830203135334c3737203135304c3830203134374c313030203134375a222066696c6c3d227768697465222066696c6c2d6f7061636974793d22302e3035222f3e3c706174682069643d227030352220643d224d3733203135344c3736203135314c373920313534563137344c3736203137374c373320313734563135345a222066696c6c3d227768697465222066696c6c2d6f7061636974793d22302e3035222f3e3c706174682069643d227030362220643d224d313031203135344c313034203135314c31303720313534563137344c313034203137374c31303120313734563135345a222066696c6c3d227768697465222066696c6c2d6f7061636974793d22302e3035222f3e3c706174682069643d227030372220643d224d313030203137354c313033203137384c313030203138314c3830203138314c3737203137384c3830203137354c313030203137355a222066696c6c3d227768697465222066696c6c2d6f7061636974793d22302e3035222f3e3c706174682069643d227031312220643d224d313430203131394c313433203132324c313430203132354c313230203132354c313137203132324c313230203131394c313430203131395a222066696c6c3d227768697465222066696c6c2d6f7061636974793d22302e3035222f3e3c706174682069643d227031322220643d224d313133203132364c313136203132334c31313920313236563134364c313136203134394c31313320313436563132365a222066696c6c3d227768697465222066696c6c2d6f7061636974793d22302e3035222f3e3c706174682069643d227031332220643d224d313431203132364c313434203132334c31343720313236563134364c313434203134394c31343120313436563132365a222066696c6c3d227768697465222066696c6c2d6f7061636974793d22302e3035222f3e3c706174682069643d227031342220643d224d313430203134374c313433203135304c313430203135334c313230203135334c313137203135304c313230203134374c313430203134375a222066696c6c3d227768697465222066696c6c2d6f7061636974793d22302e3035222f3e3c706174682069643d227031352220643d224d313133203135344c313136203135314c31313920313534563137344c313136203137374c31313320313734563135345a222066696c6c3d227768697465222066696c6c2d6f7061636974793d22302e3035222f3e3c706174682069643d227031362220643d224d313431203135344c313434203135314c31343720313534563137344c313434203137374c31343120313734563135345a222066696c6c3d227768697465222066696c6c2d6f7061636974793d22302e3035222f3e3c706174682069643d227031372220643d224d313430203137354c313433203137384c313430203138314c313230203138314c313137203137384c313230203137354c313430203137355a222066696c6c3d227768697465222066696c6c2d6f7061636974793d22302e3035222f3e3c706174682069643d227032312220643d224d313830203131394c313833203132324c313830203132354c313630203132354c313537203132324c313630203131394c313830203131395a222066696c6c3d227768697465222066696c6c2d6f7061636974793d22302e3035222f3e3c706174682069643d227032322220643d224d313533203132364c313536203132334c31353920313236563134364c313536203134394c31353320313436563132365a222066696c6c3d227768697465222066696c6c2d6f7061636974793d22302e3035222f3e3c706174682069643d227032332220643d224d313831203132364c313834203132334c31383720313236563134364c313834203134394c31383120313436563132365a222066696c6c3d227768697465222066696c6c2d6f7061636974793d22302e3035222f3e3c706174682069643d227032342220643d224d313830203134374c313833203135304c313830203135334c313630203135334c313537203135304c313630203134374c313830203134375a222066696c6c3d227768697465222066696c6c2d6f7061636974793d22302e3035222f3e3c706174682069643d227032352220643d224d313533203135344c313536203135314c31353920313534563137344c313536203137374c31353320313734563135345a222066696c6c3d227768697465222066696c6c2d6f7061636974793d22302e3035222f3e3c706174682069643d227032362220643d224d313831203135344c313834203135314c31383720313534563137344c313834203137374c31383120313734563135345a222066696c6c3d227768697465222066696c6c2d6f7061636974793d22302e3035222f3e3c706174682069643d227032372220643d224d313830203137354c313833203137384c313830203138314c313630203138314c313537203137384c313630203137354c313830203137355a222066696c6c3d227768697465222066696c6c2d6f7061636974793d22302e3035222f3e3c706174682069643d227033312220643d224d323230203131394c323233203132324c323230203132354c323030203132354c313937203132324c323030203131394c323230203131395a222066696c6c3d227768697465222066696c6c2d6f7061636974793d22302e3035222f3e3c706174682069643d227033322220643d224d313933203132364c313936203132334c31393920313236563134364c313936203134394c31393320313436563132365a222066696c6c3d227768697465222066696c6c2d6f7061636974793d22302e3035222f3e3c706174682069643d227033332220643d224d323231203132364c323234203132334c32323720313236563134364c323234203134394c32323120313436563132365a222066696c6c3d227768697465222066696c6c2d6f7061636974793d22302e3035222f3e3c706174682069643d227033342220643d224d323230203134374c323233203135304c323230203135334c323030203135334c313937203135304c323030203134374c323230203134375a222066696c6c3d227768697465222066696c6c2d6f7061636974793d22302e3035222f3e3c706174682069643d227033352220643d224d313933203135344c313936203135314c31393920313534563137344c313936203137374c31393320313734563135345a222066696c6c3d227768697465222066696c6c2d6f7061636974793d22302e3035222f3e3c706174682069643d227033362220643d224d323231203135344c323234203135314c32323720313534563137344c323234203137374c32323120313734563135345a222066696c6c3d227768697465222066696c6c2d6f7061636974793d22302e3035222f3e3c706174682069643d227033372220643d224d323230203137354c323233203137384c323230203138314c323030203138314c313937203137384c323030203137354c323230203137355a222066696c6c3d227768697465222066696c6c2d6f7061636974793d22302e3035222f3e3c7374796c653ea2646970667358221220b346f60c7fd479bf6990628c8de1491737323e91f7313334f9aa9016f6a9386164736f6c63430008120033",
			"opcodes": "PUSH1 0x80 PUSH1 0x40 MSTORE PUSH1 0x0 PUSH1 0x9 SSTORE PUSH1 0x0 PUSH1 0xA PUSH1 0x0 PUSH2 0x100 EXP DUP2 SLOAD DUP2 PUSH1 0xFF MUL NOT AND SWAP1 DUP4 ISZERO ISZERO MUL OR SWAP1 SSTORE POP CALLVALUE DUP1 ISZERO PUSH3 0x31 JUMPI PUSH1 0x0 DUP1 REVERT JUMPDEST POP PUSH1 0x40 MLOAD DUP1 PUSH1 0x40 ADD PUSH1 0x40 MSTORE DUP1 PUSH1 0x13 DUP2 MSTORE PUSH1 0x20 ADD PUSH32 0x434F4D42494E452D4E554D4245522D5445535400000000000000000000000000 DUP2 MSTORE POP PUSH1 0x40 MLOAD DUP1 PUSH1 0x40 ADD PUSH1 0x40 MSTORE DUP1 PUSH1 0x4 DUP2 MSTORE PUSH1 0x20 ADD PUSH32 0x43424E5400000000000000000000000000000000000000000000000000000000 DUP2 MSTORE POP DUP2 PUSH1 0x2 SWAP1 DUP2 PUSH3 0xAF SWAP2 SWAP1 PUSH3 0x451 JUMP JUMPDEST POP DUP1 PUSH1 0x3 SWAP1 DUP2 PUSH3 0xC1 SWAP2 SWAP1 PUSH3 0x451 JUMP JUMPDEST POP PUSH3 0xD2 PUSH3 0x100 PUSH1 0x20 SHL PUSH1 0x20 SHR JUMP JUMPDEST PUSH1 0x0 DUP2 SWAP1 SSTORE POP POP POP PUSH3 0xFA PUSH3 0xEE PUSH3 0x109 PUSH1 0x20 SHL PUSH1 0x20 SHR JUMP JUMPDEST PUSH3 0x111 PUSH1 0x20 SHL PUSH1 0x20 SHR JUMP JUMPDEST PUSH3 0x538 JUMP JUMPDEST PUSH1 0x0 PUSH1 0x1 SWAP1 POP SWAP1 JUMP JUMPDEST PUSH1 0x0 CALLER SWAP1 POP SWAP1 JUMP JUMPDEST PUSH1 0x0 PUSH1 0x8 PUSH1 0x0 SWAP1 SLOAD SWAP1 PUSH2 0x100 EXP SWAP1 DIV PUSH20 0xFFFFFFFFFFFFFFFFFFFFFFFFFFFFFFFFFFFFFFFF AND SWAP1 POP DUP2 PUSH1 0x8 PUSH1 0x0 PUSH2 0x100 EXP DUP2 SLOAD DUP2 PUSH20 0xFFFFFFFFFFFFFFFFFFFFFFFFFFFFFFFFFFFFFFFF MUL NOT AND SWAP1 DUP4 PUSH20 0xFFFFFFFFFFFFFFFFFFFFFFFFFFFFFFFFFFFFFFFF AND MUL OR SWAP1 SSTORE POP DUP2 PUSH20 0xFFFFFFFFFFFFFFFFFFFFFFFFFFFFFFFFFFFFFFFF AND DUP2 PUSH20 0xFFFFFFFFFFFFFFFFFFFFFFFFFFFFFFFFFFFFFFFF AND PUSH32 0x8BE0079C531659141344CD1FD0A4F28419497F9722A3DAAFE3B4186F6B6457E0 PUSH1 0x40 MLOAD PUSH1 0x40 MLOAD DUP1 SWAP2 SUB SWAP1 LOG3 POP POP JUMP JUMPDEST PUSH1 0x0 DUP2 MLOAD SWAP1 POP SWAP2 SWAP1 POP JUMP JUMPDEST PUSH32 0x4E487B7100000000000000000000000000000000000000000000000000000000 PUSH1 0x0 MSTORE PUSH1 0x41 PUSH1 0x4 MSTORE PUSH1 0x24 PUSH1 0x0 REVERT JUMPDEST PUSH32 0x4E487B7100000000000000000000000000000000000000000000000000000000 PUSH1 0x0 MSTORE PUSH1 0x22 PUSH1 0x4 MSTORE PUSH1 0x24 PUSH1 0x0 REVERT JUMPDEST PUSH1 0x0 PUSH1 0x2 DUP3 DIV SWAP1 POP PUSH1 0x1 DUP3 AND DUP1 PUSH3 0x259 JUMPI PUSH1 0x7F DUP3 AND SWAP2 POP JUMPDEST PUSH1 0x20 DUP3 LT DUP2 SUB PUSH3 0x26F JUMPI PUSH3 0x26E PUSH3 0x211 JUMP JUMPDEST JUMPDEST POP SWAP2 SWAP1 POP JUMP JUMPDEST PUSH1 0x0 DUP2 SWAP1 POP DUP2 PUSH1 0x0 MSTORE PUSH1 0x20 PUSH1 0x0 KECCAK256 SWAP1 POP SWAP2 SWAP1 POP JUMP JUMPDEST PUSH1 0x0 PUSH1 0x20 PUSH1 0x1F DUP4 ADD DIV SWAP1 POP SWAP2 SWAP1 POP JUMP JUMPDEST PUSH1 0x0 DUP3 DUP3 SHL SWAP1 POP SWAP3 SWAP2 POP POP JUMP JUMPDEST PUSH1 0x0 PUSH1 0x8 DUP4 MUL PUSH3 0x2D9 PUSH32 0xFFFFFFFFFFFFFFFFFFFFFFFFFFFFFFFFFFFFFFFFFFFFFFFFFFFFFFFFFFFFFFFF DUP3 PUSH3 0x29A JUMP JUMPDEST PUSH3 0x2E5 DUP7 DUP4 PUSH3 0x29A JUMP JUMPDEST SWAP6 POP DUP1 NOT DUP5 AND SWAP4 POP DUP1 DUP7 AND DUP5 OR SWAP3 POP POP POP SWAP4 SWAP3 POP POP POP JUMP JUMPDEST PUSH1 0x0 DUP2 SWAP1 POP SWAP2 SWAP1 POP JUMP JUMPDEST PUSH1 0x0 DUP2 SWAP1 POP SWAP2 SWAP1 POP JUMP JUMPDEST PUSH1 0x0 PUSH3 0x332 PUSH3 0x32C PUSH3 0x326 DUP5 PUSH3 0x2FD JUMP JUMPDEST PUSH3 0x307 JUMP JUMPDEST PUSH3 0x2FD JUMP JUMPDEST SWAP1 POP SWAP2 SWAP1 POP JUMP JUMPDEST PUSH1 0x0 DUP2 SWAP1 POP SWAP2 SWAP1 POP JUMP JUMPDEST PUSH3 0x34E DUP4 PUSH3 0x311 JUMP JUMPDEST PUSH3 0x366 PUSH3 0x35D DUP3 PUSH3 0x339 JUMP JUMPDEST DUP5 DUP5 SLOAD PUSH3 0x2A7 JUMP JUMPDEST DUP3 SSTORE POP POP POP POP JUMP JUMPDEST PUSH1 0x0 SWAP1 JUMP JUMPDEST PUSH3 0x37D PUSH3 0x36E JUMP JUMPDEST PUSH3 0x38A DUP2 DUP5 DUP5 PUSH3 0x343 JUMP JUMPDEST POP POP POP JUMP JUMPDEST JUMPDEST DUP2 DUP2 LT ISZERO PUSH3 0x3B2 JUMPI PUSH3 0x3A6 PUSH1 0x0 DUP3 PUSH3 0x373 JUMP JUMPDEST PUSH1 0x1 DUP2 ADD SWAP1 POP PUSH3 0x390 JUMP JUMPDEST POP POP JUMP JUMPDEST PUSH1 0x1F DUP3 GT ISZERO PUSH3 0x401 JUMPI PUSH3 0x3CB DUP2 PUSH3 0x275 JUMP JUMPDEST PUSH3 0x3D6 DUP5 PUSH3 0x28A JUMP JUMPDEST DUP2 ADD PUSH1 0x20 DUP6 LT ISZERO PUSH3 0x3E6 JUMPI DUP2 SWAP1 POP JUMPDEST PUSH3 0x3FE PUSH3 0x3F5 DUP6 PUSH3 0x28A JUMP JUMPDEST DUP4 ADD DUP3 PUSH3 0x38F JUMP JUMPDEST POP POP JUMPDEST POP POP POP JUMP JUMPDEST PUSH1 0x0 DUP3 DUP3 SHR SWAP1 POP SWAP3 SWAP2 POP POP JUMP JUMPDEST PUSH1 0x0 PUSH3 0x426 PUSH1 0x0 NOT DUP5 PUSH1 0x8 MUL PUSH3 0x406 JUMP JUMPDEST NOT DUP1 DUP4 AND SWAP2 POP POP SWAP3 SWAP2 POP POP JUMP JUMPDEST PUSH1 0x0 PUSH3 0x441 DUP4 DUP4 PUSH3 0x413 JUMP JUMPDEST SWAP2 POP DUP3 PUSH1 0x2 MUL DUP3 OR SWAP1 POP SWAP3 SWAP2 POP POP JUMP JUMPDEST PUSH3 0x45C DUP3 PUSH3 0x1D7 JUMP JUMPDEST PUSH8 0xFFFFFFFFFFFFFFFF DUP2 GT ISZERO PUSH3 0x478 JUMPI PUSH3 0x477 PUSH3 0x1E2 JUMP JUMPDEST JUMPDEST PUSH3 0x484 DUP3 SLOAD PUSH3 0x240 JUMP JUMPDEST PUSH3 0x491 DUP3 DUP3 DUP6 PUSH3 0x3B6 JUMP JUMPDEST PUSH1 0x0 PUSH1 0x20 SWAP1 POP PUSH1 0x1F DUP4 GT PUSH1 0x1 DUP2 EQ PUSH3 0x4C9 JUMPI PUSH1 0x0 DUP5 ISZERO PUSH3 0x4B4 JUMPI DUP3 DUP8 ADD MLOAD SWAP1 POP JUMPDEST PUSH3 0x4C0 DUP6 DUP3 PUSH3 0x433 JUMP JUMPDEST DUP7 SSTORE POP PUSH3 0x530 JUMP JUMPDEST PUSH1 0x1F NOT DUP5 AND PUSH3 0x4D9 DUP7 PUSH3 0x275 JUMP JUMPDEST PUSH1 0x0 JUMPDEST DUP3 DUP2 LT ISZERO PUSH3 0x503 JUMPI DUP5 DUP10 ADD MLOAD DUP3 SSTORE PUSH1 0x1 DUP3 ADD SWAP2 POP PUSH1 0x20 DUP6 ADD SWAP5 POP PUSH1 0x20 DUP2 ADD SWAP1 POP PUSH3 0x4DC JUMP JUMPDEST DUP7 DUP4 LT ISZERO PUSH3 0x523 JUMPI DUP5 DUP10 ADD MLOAD PUSH3 0x51F PUSH1 0x1F DUP10 AND DUP3 PUSH3 0x413 JUMP JUMPDEST DUP4 SSTORE POP JUMPDEST PUSH1 0x1 PUSH1 0x2 DUP9 MUL ADD DUP9 SSTORE POP POP POP JUMPDEST POP POP POP POP POP POP JUMP JUMPDEST PUSH2 0x6755 DUP1 PUSH3 0x548 PUSH1 0x0 CODECOPY PUSH1 0x0 RETURN INVALID PUSH1 0x80 PUSH1 0x40 MSTORE PUSH1 0x4 CALLDATASIZE LT PUSH2 0x181 JUMPI PUSH1 0x0 CALLDATALOAD PUSH1 0xE0 SHR DUP1 PUSH4 0x715018A6 GT PUSH2 0xD1 JUMPI DUP1 PUSH4 0xA22CB465 GT PUSH2 0x8A JUMPI DUP1 PUSH4 0xBF205EBC GT PUSH2 0x64 JUMPI DUP1 PUSH4 0xBF205EBC EQ PUSH2 0x4F3 JUMPI DUP1 PUSH4 0xC87B56DD EQ PUSH2 0x51E JUMPI DUP1 PUSH4 0xE985E9C5 EQ PUSH2 0x55B JUMPI DUP1 PUSH4 0xF2FDE38B EQ PUSH2 0x598 JUMPI PUSH2 0x181 JUMP JUMPDEST DUP1 PUSH4 0xA22CB465 EQ PUSH2 0x497 JUMPI DUP1 PUSH4 0xB88D4FDE EQ PUSH2 0x4C0 JUMPI DUP1 PUSH4 0xB8BE6E98 EQ PUSH2 0x4DC JUMPI PUSH2 0x181 JUMP JUMPDEST DUP1 PUSH4 0x715018A6 EQ PUSH2 0x3CC JUMPI DUP1 PUSH4 0x8DA5CB5B EQ PUSH2 0x3E3 JUMPI DUP1 PUSH4 0x8EF9AE59 EQ PUSH2 0x40E JUMPI DUP1 PUSH4 0x95D89B41 EQ PUSH2 0x425 JUMPI DUP1 PUSH4 0xA035B1FE EQ PUSH2 0x450 JUMPI DUP1 PUSH4 0xA0712D68 EQ PUSH2 0x47B JUMPI PUSH2 0x181 JUMP JUMPDEST DUP1 PUSH4 0x23B872DD GT PUSH2 0x13E JUMPI DUP1 PUSH4 0x3CCFD60B GT PUSH2 0x118 JUMPI DUP1 PUSH4 0x3CCFD60B EQ PUSH2 0x31F JUMPI DUP1 PUSH4 0x42842E0E EQ PUSH2 0x336 JUMPI DUP1 PUSH4 0x6352211E EQ PUSH2 0x352 JUMPI DUP1 PUSH4 0x70A08231 EQ PUSH2 0x38F JUMPI PUSH2 0x181 JUMP JUMPDEST DUP1 PUSH4 0x23B872DD EQ PUSH2 0x2AF JUMPI DUP1 PUSH4 0x25E514C6 EQ PUSH2 0x2CB JUMPI DUP1 PUSH4 0x37C5FA0D EQ PUSH2 0x2F4 JUMPI PUSH2 0x181 JUMP JUMPDEST DUP1 PUSH4 0x1FFC9A7 EQ PUSH2 0x186 JUMPI DUP1 PUSH4 0x6FDDE03 EQ PUSH2 0x1C3 JUMPI DUP1 PUSH4 0x81812FC EQ PUSH2 0x1EE JUMPI DUP1 PUSH4 0x95EA7B3 EQ PUSH2 0x22B JUMPI DUP1 PUSH4 0xFF4C916 EQ PUSH2 0x247 JUMPI DUP1 PUSH4 0x18160DDD EQ PUSH2 0x284 JUMPI JUMPDEST PUSH1 0x0 DUP1 REVERT JUMPDEST CALLVALUE DUP1 ISZERO PUSH2 0x192 JUMPI PUSH1 0x0 DUP1 REVERT JUMPDEST POP PUSH2 0x1AD PUSH1 0x4 DUP1 CALLDATASIZE SUB DUP2 ADD SWAP1 PUSH2 0x1A8 SWAP2 SWAP1 PUSH2 0x37CB JUMP JUMPDEST PUSH2 0x5C1 JUMP JUMPDEST PUSH1 0x40 MLOAD PUSH2 0x1BA SWAP2 SWAP1 PUSH2 0x3813 JUMP JUMPDEST PUSH1 0x40 MLOAD DUP1 SWAP2 SUB SWAP1 RETURN JUMPDEST CALLVALUE DUP1 ISZERO PUSH2 0x1CF JUMPI PUSH1 0x0 DUP1 REVERT JUMPDEST POP PUSH2 0x1D8 PUSH2 0x653 JUMP JUMPDEST PUSH1 0x40 MLOAD PUSH2 0x1E5 SWAP2 SWAP1 PUSH2 0x38BE JUMP JUMPDEST PUSH1 0x40 MLOAD DUP1 SWAP2 SUB SWAP1 RETURN JUMPDEST CALLVALUE DUP1 ISZERO PUSH2 0x1FA JUMPI PUSH1 0x0 DUP1 REVERT JUMPDEST POP PUSH2 0x215 PUSH1 0x4 DUP1 CALLDATASIZE SUB DUP2 ADD SWAP1 PUSH2 0x210 SWAP2 SWAP1 PUSH2 0x3916 JUMP JUMPDEST PUSH2 0x6E5 JUMP JUMPDEST PUSH1 0x40 MLOAD PUSH2 0x222 SWAP2 SWAP1 PUSH2 0x3984 JUMP JUMPDEST PUSH1 0x40 MLOAD DUP1 SWAP2 SUB SWAP1 RETURN JUMPDEST PUSH2 0x245 PUSH1 0x4 DUP1 CALLDATASIZE SUB DUP2 ADD SWAP1 PUSH2 0x240 SWAP2 SWAP1 PUSH2 0x39CB JUMP JUMPDEST PUSH2 0x764 JUMP JUMPDEST STOP JUMPDEST CALLVALUE DUP1 ISZERO PUSH2 0x253 JUMPI PUSH1 0x0 DUP1 REVERT JUMPDEST POP PUSH2 0x26E PUSH1 0x4 DUP1 CALLDATASIZE SUB DUP2 ADD SWAP1 PUSH2 0x269 SWAP2 SWAP1 PUSH2 0x3916 JUMP JUMPDEST PUSH2 0x8A8 JUMP JUMPDEST PUSH1 0x40 MLOAD PUSH2 0x27B SWAP2 SWAP1 PUSH2 0x38BE JUMP JUMPDEST PUSH1 0x40 MLOAD DUP1 SWAP2 SUB SWAP1 RETURN JUMPDEST CALLVALUE DUP1 ISZERO PUSH2 0x290 JUMPI PUSH1 0x0 DUP1 REVERT JUMPDEST POP PUSH2 0x299 PUSH2 0xA3A JUMP JUMPDEST PUSH1 0x40 MLOAD PUSH2 0x2A6 SWAP2 SWAP1 PUSH2 0x3A1A JUMP JUMPDEST PUSH1 0x40 MLOAD DUP1 SWAP2 SUB SWAP1 RETURN JUMPDEST PUSH2 0x2C9 PUSH1 0x4 DUP1 CALLDATASIZE SUB DUP2 ADD SWAP1 PUSH2 0x2C4 SWAP2 SWAP1 PUSH2 0x3A35 JUMP JUMPDEST PUSH2 0xA51 JUMP JUMPDEST STOP JUMPDEST CALLVALUE DUP1 ISZERO PUSH2 0x2D7 JUMPI PUSH1 0x0 DUP1 REVERT JUMPDEST POP PUSH2 0x2F2 PUSH1 0x4 DUP1 CALLDATASIZE SUB DUP2 ADD SWAP1 PUSH2 0x2ED SWAP2 SWAP1 PUSH2 0x3BD0 JUMP JUMPDEST PUSH2 0xD73 JUMP JUMPDEST STOP JUMPDEST CALLVALUE DUP1 ISZERO PUSH2 0x300 JUMPI PUSH1 0x0 DUP1 REVERT JUMPDEST POP PUSH2 0x309 PUSH2 0x12A2 JUMP JUMPDEST PUSH1 0x40 MLOAD PUSH2 0x316 SWAP2 SWAP1 PUSH2 0x3813 JUMP JUMPDEST PUSH1 0x40 MLOAD DUP1 SWAP2 SUB SWAP1 RETURN JUMPDEST CALLVALUE DUP1 ISZERO PUSH2 0x32B JUMPI PUSH1 0x0 DUP1 REVERT JUMPDEST POP PUSH2 0x334 PUSH2 0x12B5 JUMP JUMPDEST STOP JUMPDEST PUSH2 0x350 PUSH1 0x4 DUP1 CALLDATASIZE SUB DUP2 ADD SWAP1 PUSH2 0x34B SWAP2 SWAP1 PUSH2 0x3A35 JUMP JUMPDEST PUSH2 0x12FD JUMP JUMPDEST STOP JUMPDEST CALLVALUE DUP1 ISZERO PUSH2 0x35E JUMPI PUSH1 0x0 DUP1 REVERT JUMPDEST POP PUSH2 0x379 PUSH1 0x4 DUP1 CALLDATASIZE SUB DUP2 ADD SWAP1 PUSH2 0x374 SWAP2 SWAP1 PUSH2 0x3916 JUMP JUMPDEST PUSH2 0x131D JUMP JUMPDEST PUSH1 0x40 MLOAD PUSH2 0x386 SWAP2 SWAP1 PUSH2 0x3984 JUMP JUMPDEST PUSH1 0x40 MLOAD DUP1 SWAP2 SUB SWAP1 RETURN JUMPDEST CALLVALUE DUP1 ISZERO PUSH2 0x39B JUMPI PUSH1 0x0 DUP1 REVERT JUMPDEST POP PUSH2 0x3B6 PUSH1 0x4 DUP1 CALLDATASIZE SUB DUP2 ADD SWAP1 PUSH2 0x3B1 SWAP2 SWAP1 PUSH2 0x3C19 JUMP JUMPDEST PUSH2 0x132F JUMP JUMPDEST PUSH1 0x40 MLOAD PUSH2 0x3C3 SWAP2 SWAP1 PUSH2 0x3A1A JUMP JUMPDEST PUSH1 0x40 MLOAD DUP1 SWAP2 SUB SWAP1 RETURN JUMPDEST CALLVALUE DUP1 ISZERO PUSH2 0x3D8 JUMPI PUSH1 0x0 DUP1 REVERT JUMPDEST POP PUSH2 0x3E1 PUSH2 0x13E7 JUMP JUMPDEST STOP JUMPDEST CALLVALUE DUP1 ISZERO PUSH2 0x3EF JUMPI PUSH1 0x0 DUP1 REVERT JUMPDEST POP PUSH2 0x3F8 PUSH2 0x13FB JUMP JUMPDEST PUSH1 0x40 MLOAD PUSH2 0x405 SWAP2 SWAP1 PUSH2 0x3984 JUMP JUMPDEST PUSH1 0x40 MLOAD DUP1 SWAP2 SUB SWAP1 RETURN JUMPDEST CALLVALUE DUP1 ISZERO PUSH2 0x41A JUMPI PUSH1 0x0 DUP1 REVERT JUMPDEST POP PUSH2 0x423 PUSH2 0x1425 JUMP JUMPDEST STOP JUMPDEST CALLVALUE DUP1 ISZERO PUSH2 0x431 JUMPI PUSH1 0x0 DUP1 REVERT JUMPDEST POP PUSH2 0x43A PUSH2 0x1449 JUMP JUMPDEST PUSH1 0x40 MLOAD PUSH2 0x447 SWAP2 SWAP1 PUSH2 0x38BE JUMP JUMPDEST PUSH1 0x40 MLOAD DUP1 SWAP2 SUB SWAP1 RETURN JUMPDEST CALLVALUE DUP1 ISZERO PUSH2 0x45C JUMPI PUSH1 0x0 DUP1 REVERT JUMPDEST POP PUSH2 0x465 PUSH2 0x14DB JUMP JUMPDEST PUSH1 0x40 MLOAD PUSH2 0x472 SWAP2 SWAP1 PUSH2 0x3A1A JUMP JUMPDEST PUSH1 0x40 MLOAD DUP1 SWAP2 SUB SWAP1 RETURN JUMPDEST PUSH2 0x495 PUSH1 0x4 DUP1 CALLDATASIZE SUB DUP2 ADD SWAP1 PUSH2 0x490 SWAP2 SWAP1 PUSH2 0x3916 JUMP JUMPDEST PUSH2 0x14E1 JUMP JUMPDEST STOP JUMPDEST CALLVALUE DUP1 ISZERO PUSH2 0x4A3 JUMPI PUSH1 0x0 DUP1 REVERT JUMPDEST POP PUSH2 0x4BE PUSH1 0x4 DUP1 CALLDATASIZE SUB DUP2 ADD SWAP1 PUSH2 0x4B9 SWAP2 SWAP1 PUSH2 0x3C72 JUMP JUMPDEST PUSH2 0x153E JUMP JUMPDEST STOP JUMPDEST PUSH2 0x4DA PUSH1 0x4 DUP1 CALLDATASIZE SUB DUP2 ADD SWAP1 PUSH2 0x4D5 SWAP2 SWAP1 PUSH2 0x3D67 JUMP JUMPDEST PUSH2 0x1649 JUMP JUMPDEST STOP JUMPDEST CALLVALUE DUP1 ISZERO PUSH2 0x4E8 JUMPI PUSH1 0x0 DUP1 REVERT JUMPDEST POP PUSH2 0x4F1 PUSH2 0x16BC JUMP JUMPDEST STOP JUMPDEST CALLVALUE DUP1 ISZERO PUSH2 0x4FF JUMPI PUSH1 0x0 DUP1 REVERT JUMPDEST POP PUSH2 0x508 PUSH2 0x16F0 JUMP JUMPDEST PUSH1 0x40 MLOAD PUSH2 0x515 SWAP2 SWAP1 PUSH2 0x38BE JUMP JUMPDEST PUSH1 0x40 MLOAD DUP1 SWAP2 SUB SWAP1 RETURN JUMPDEST CALLVALUE DUP1 ISZERO PUSH2 0x52A JUMPI PUSH1 0x0 DUP1 REVERT JUMPDEST POP PUSH2 0x545 PUSH1 0x4 DUP1 CALLDATASIZE SUB DUP2 ADD SWAP1 PUSH2 0x540 SWAP2 SWAP1 PUSH2 0x3916 JUMP JUMPDEST PUSH2 0x177E JUMP JUMPDEST PUSH1 0x40 MLOAD PUSH2 0x552 SWAP2 SWAP1 PUSH2 0x38BE JUMP JUMPDEST PUSH1 0x40 MLOAD DUP1 SWAP2 SUB SWAP1 RETURN JUMPDEST CALLVALUE DUP1 ISZERO PUSH2 0x567 JUMPI PUSH1 0x0 DUP1 REVERT JUMPDEST POP PUSH2 0x582 PUSH1 0x4 DUP1 CALLDATASIZE SUB DUP2 ADD SWAP1 PUSH2 0x57D SWAP2 SWAP1 PUSH2 0x3DEA JUMP JUMPDEST PUSH2 0x1944 JUMP JUMPDEST PUSH1 0x40 MLOAD PUSH2 0x58F SWAP2 SWAP1 PUSH2 0x3813 JUMP JUMPDEST PUSH1 0x40 MLOAD DUP1 SWAP2 SUB SWAP1 RETURN JUMPDEST CALLVALUE DUP1 ISZERO PUSH2 0x5A4 JUMPI PUSH1 0x0 DUP1 REVERT JUMPDEST POP PUSH2 0x5BF PUSH1 0x4 DUP1 CALLDATASIZE SUB DUP2 ADD SWAP1 PUSH2 0x5BA SWAP2 SWAP1 PUSH2 0x3C19 JUMP JUMPDEST PUSH2 0x19D8 JUMP JUMPDEST STOP JUMPDEST PUSH1 0x0 PUSH4 0x1FFC9A7 PUSH1 0xE0 SHL DUP3 PUSH28 0xFFFFFFFFFFFFFFFFFFFFFFFFFFFFFFFFFFFFFFFFFFFFFFFFFFFFFFFF NOT AND EQ DUP1 PUSH2 0x61C JUMPI POP PUSH4 0x80AC58CD PUSH1 0xE0 SHL DUP3 PUSH28 0xFFFFFFFFFFFFFFFFFFFFFFFFFFFFFFFFFFFFFFFFFFFFFFFFFFFFFFFF NOT AND EQ JUMPDEST DUP1 PUSH2 0x64C JUMPI POP PUSH4 0x5B5E139F PUSH1 0xE0 SHL DUP3 PUSH28 0xFFFFFFFFFFFFFFFFFFFFFFFFFFFFFFFFFFFFFFFFFFFFFFFFFFFFFFFF NOT AND EQ JUMPDEST SWAP1 POP SWAP2 SWAP1 POP JUMP JUMPDEST PUSH1 0x60 PUSH1 0x2 DUP1 SLOAD PUSH2 0x662 SWAP1 PUSH2 0x3E59 JUMP JUMPDEST DUP1 PUSH1 0x1F ADD PUSH1 0x20 DUP1 SWAP2 DIV MUL PUSH1 0x20 ADD PUSH1 0x40 MLOAD SWAP1 DUP2 ADD PUSH1 0x40 MSTORE DUP1 SWAP3 SWAP2 SWAP1 DUP2 DUP2 MSTORE PUSH1 0x20 ADD DUP3 DUP1 SLOAD PUSH2 0x68E SWAP1 PUSH2 0x3E59 JUMP JUMPDEST DUP1 ISZERO PUSH2 0x6DB JUMPI DUP1 PUSH1 0x1F LT PUSH2 0x6B0 JUMPI PUSH2 0x100 DUP1 DUP4 SLOAD DIV MUL DUP4 MSTORE SWAP2 PUSH1 0x20 ADD SWAP2 PUSH2 0x6DB JUMP JUMPDEST DUP3 ADD SWAP2 SWAP1 PUSH1 0x0 MSTORE PUSH1 0x20 PUSH1 0x0 KECCAK256 SWAP1 JUMPDEST DUP2 SLOAD DUP2 MSTORE SWAP1 PUSH1 0x1 ADD SWAP1 PUSH1 0x20 ADD DUP1 DUP4 GT PUSH2 0x6BE JUMPI DUP3 SWAP1 SUB PUSH1 0x1F AND DUP3 ADD SWAP2 JUMPDEST POP POP POP POP POP SWAP1 POP SWAP1 JUMP JUMPDEST PUSH1 0x0 PUSH2 0x6F0 DUP3 PUSH2 0x1A5B JUMP JUMPDEST PUSH2 0x726 JUMPI PUSH1 0x40 MLOAD PUSH32 0xCF4700E400000000000000000000000000000000000000000000000000000000 DUP2 MSTORE PUSH1 0x4 ADD PUSH1 0x40 MLOAD DUP1 SWAP2 SUB SWAP1 REVERT JUMPDEST PUSH1 0x6 PUSH1 0x0 DUP4 DUP2 MSTORE PUSH1 0x20 ADD SWAP1 DUP2 MSTORE PUSH1 0x20 ADD PUSH1 0x0 KECCAK256 PUSH1 0x0 ADD PUSH1 0x0 SWAP1 SLOAD SWAP1 PUSH2 0x100 EXP SWAP1 DIV PUSH20 0xFFFFFFFFFFFFFFFFFFFFFFFFFFFFFFFFFFFFFFFF AND SWAP1 POP SWAP2 SWAP1 POP JUMP JUMPDEST PUSH1 0x0 PUSH2 0x76F DUP3 PUSH2 0x131D JUMP JUMPDEST SWAP1 POP DUP1 PUSH20 0xFFFFFFFFFFFFFFFFFFFFFFFFFFFFFFFFFFFFFFFF AND PUSH2 0x790 PUSH2 0x1ABA JUMP JUMPDEST PUSH20 0xFFFFFFFFFFFFFFFFFFFFFFFFFFFFFFFFFFFFFFFF AND EQ PUSH2 0x7F3 JUMPI PUSH2 0x7BC DUP2 PUSH2 0x7B7 PUSH2 0x1ABA JUMP JUMPDEST PUSH2 0x1944 JUMP JUMPDEST PUSH2 0x7F2 JUMPI PUSH1 0x40 MLOAD PUSH32 0xCFB3B94200000000000000000000000000000000000000000000000000000000 DUP2 MSTORE PUSH1 0x4 ADD PUSH1 0x40 MLOAD DUP1 SWAP2 SUB SWAP1 REVERT JUMPDEST JUMPDEST DUP3 PUSH1 0x6 PUSH1 0x0 DUP5 DUP2 MSTORE PUSH1 0x20 ADD SWAP1 DUP2 MSTORE PUSH1 0x20 ADD PUSH1 0x0 KECCAK256 PUSH1 0x0 ADD PUSH1 0x0 PUSH2 0x100 EXP DUP2 SLOAD DUP2 PUSH20 0xFFFFFFFFFFFFFFFFFFFFFFFFFFFFFFFFFFFFFFFF MUL NOT AND SWAP1 DUP4 PUSH20 0xFFFFFFFFFFFFFFFFFFFFFFFFFFFFFFFFFFFFFFFF AND MUL OR SWAP1 SSTORE POP DUP2 DUP4 PUSH20 0xFFFFFFFFFFFFFFFFFFFFFFFFFFFFFFFFFFFFFFFF AND DUP3 PUSH20 0xFFFFFFFFFFFFFFFFFFFFFFFFFFFFFFFFFFFFFFFF AND PUSH32 0x8C5BE1E5EBEC7D5BD14F71427D1E84F3DD0314C0F7B2291E5B200AC8C7C3B925 PUSH1 0x40 MLOAD PUSH1 0x40 MLOAD DUP1 SWAP2 SUB SWAP1 LOG4 POP POP POP JUMP JUMPDEST PUSH1 0x60 PUSH2 0x8B3 DUP3 PUSH2 0x1A5B JUMP JUMPDEST PUSH2 0x8CE JUMPI PUSH1 0x40 MLOAD DUP1 PUSH1 0x20 ADD PUSH1 0x40 MSTORE DUP1 PUSH1 0x0 DUP2 MSTORE POP SWAP1 POP PUSH2 0xA35 JUMP JUMPDEST PUSH2 0x982 PUSH1 0xC PUSH1 0x0 DUP5 DUP2 MSTORE PUSH1 0x20 ADD SWAP1 DUP2 MSTORE PUSH1 0x20 ADD PUSH1 0x0 KECCAK256 DUP1 SLOAD PUSH2 0x8EF SWAP1 PUSH2 0x3E59 JUMP JUMPDEST DUP1 PUSH1 0x1F ADD PUSH1 0x20 DUP1 SWAP2 DIV MUL PUSH1 0x20 ADD PUSH1 0x40 MLOAD SWAP1 DUP2 ADD PUSH1 0x40 MSTORE DUP1 SWAP3 SWAP2 SWAP1 DUP2 DUP2 MSTORE PUSH1 0x20 ADD DUP3 DUP1 SLOAD PUSH2 0x91B SWAP1 PUSH2 0x3E59 JUMP JUMPDEST DUP1 ISZERO PUSH2 0x968 JUMPI DUP1 PUSH1 0x1F LT PUSH2 0x93D JUMPI PUSH2 0x100 DUP1 DUP4 SLOAD DIV MUL DUP4 MSTORE SWAP2 PUSH1 0x20 ADD SWAP2 PUSH2 0x968 JUMP JUMPDEST DUP3 ADD SWAP2 SWAP1 PUSH1 0x0 MSTORE PUSH1 0x20 PUSH1 0x0 KECCAK256 SWAP1 JUMPDEST DUP2 SLOAD DUP2 MSTORE SWAP1 PUSH1 0x1 ADD SWAP1 PUSH1 0x20 ADD DUP1 DUP4 GT PUSH2 0x94B JUMPI DUP3 SWAP1 SUB PUSH1 0x1F AND DUP3 ADD SWAP2 JUMPDEST POP POP POP POP POP PUSH1 0x40 MLOAD DUP1 PUSH1 0x20 ADD PUSH1 0x40 MSTORE DUP1 PUSH1 0x0 DUP2 MSTORE POP PUSH2 0x1AC2 JUMP JUMPDEST PUSH2 0xA29 JUMPI PUSH1 0xC PUSH1 0x0 DUP4 DUP2 MSTORE PUSH1 0x20 ADD SWAP1 DUP2 MSTORE PUSH1 0x20 ADD PUSH1 0x0 KECCAK256 DUP1 SLOAD PUSH2 0x9A4 SWAP1 PUSH2 0x3E59 JUMP JUMPDEST DUP1 PUSH1 0x1F ADD PUSH1 0x20 DUP1 SWAP2 DIV MUL PUSH1 0x20 ADD PUSH1 0x40 MLOAD SWAP1 DUP2 ADD PUSH1 0x40 MSTORE DUP1 SWAP3 SWAP2 SWAP1 DUP2 DUP2 MSTORE PUSH1 0x20 ADD DUP3 DUP1 SLOAD PUSH2 0x9D0 SWAP1 PUSH2 0x3E59 JUMP JUMPDEST DUP1 ISZERO PUSH2 0xA1D JUMPI DUP1 PUSH1 0x1F LT PUSH2 0x9F2 JUMPI PUSH2 0x100 DUP1 DUP4 SLOAD DIV MUL DUP4 MSTORE SWAP2 PUSH1 0x20 ADD SWAP2 PUSH2 0xA1D JUMP JUMPDEST DUP3 ADD SWAP2 SWAP1 PUSH1 0x0 MSTORE PUSH1 0x20 PUSH1 0x0 KECCAK256 SWAP1 JUMPDEST DUP2 SLOAD DUP2 MSTORE SWAP1 PUSH1 0x1 ADD SWAP1 PUSH1 0x20 ADD DUP1 DUP4 GT PUSH2 0xA00 JUMPI DUP3 SWAP1 SUB PUSH1 0x1F AND DUP3 ADD SWAP2 JUMPDEST POP POP POP POP POP SWAP1 POP PUSH2 0xA35 JUMP JUMPDEST PUSH2 0xA32 DUP3 PUSH2 0x1B1B JUMP JUMPDEST SWAP1 POP JUMPDEST SWAP2 SWAP1 POP JUMP JUMPDEST PUSH1 0x0 PUSH2 0xA44 PUSH2 0x1B2F JUMP JUMPDEST PUSH1 0x1 SLOAD PUSH1 0x0 SLOAD SUB SUB SWAP1 POP SWAP1 JUMP JUMPDEST PUSH1 0x0 PUSH2 0xA5C DUP3 PUSH2 0x1B38 JUMP JUMPDEST SWAP1 POP DUP4 PUSH20 0xFFFFFFFFFFFFFFFFFFFFFFFFFFFFFFFFFFFFFFFF AND DUP2 PUSH20 0xFFFFFFFFFFFFFFFFFFFFFFFFFFFFFFFFFFFFFFFF AND EQ PUSH2 0xAC3 JUMPI PUSH1 0x40 MLOAD PUSH32 0xA114810000000000000000000000000000000000000000000000000000000000 DUP2 MSTORE PUSH1 0x4 ADD PUSH1 0x40 MLOAD DUP1 SWAP2 SUB SWAP1 REVERT JUMPDEST PUSH1 0x0 DUP1 PUSH2 0xACF DUP5 PUSH2 0x1C04 JUMP JUMPDEST SWAP2 POP SWAP2 POP PUSH2 0xAE5 DUP2 DUP8 PUSH2 0xAE0 PUSH2 0x1ABA JUMP JUMPDEST PUSH2 0x1C2B JUMP JUMPDEST PUSH2 0xB31 JUMPI PUSH2 0xAFA DUP7 PUSH2 0xAF5 PUSH2 0x1ABA JUMP JUMPDEST PUSH2 0x1944 JUMP JUMPDEST PUSH2 0xB30 JUMPI PUSH1 0x40 MLOAD PUSH32 0x59C896BE00000000000000000000000000000000000000000000000000000000 DUP2 MSTORE PUSH1 0x4 ADD PUSH1 0x40 MLOAD DUP1 SWAP2 SUB SWAP1 REVERT JUMPDEST JUMPDEST PUSH1 0x0 PUSH20 0xFFFFFFFFFFFFFFFFFFFFFFFFFFFFFFFFFFFFFFFF AND DUP6 PUSH20 0xFFFFFFFFFFFFFFFFFFFFFFFFFFFFFFFFFFFFFFFF AND SUB PUSH2 0xB97 JUMPI PUSH1 0x40 MLOAD PUSH32 0xEA553B3400000000000000000000000000000000000000000000000000000000 DUP2 MSTORE PUSH1 0x4 ADD PUSH1 0x40 MLOAD DUP1 SWAP2 SUB SWAP1 REVERT JUMPDEST PUSH2 0xBA4 DUP7 DUP7 DUP7 PUSH1 0x1 PUSH2 0x1C6F JUMP JUMPDEST DUP1 ISZERO PUSH2 0xBAF JUMPI PUSH1 0x0 DUP3 SSTORE JUMPDEST PUSH1 0x5 PUSH1 0x0 DUP8 PUSH20 0xFFFFFFFFFFFFFFFFFFFFFFFFFFFFFFFFFFFFFFFF AND PUSH20 0xFFFFFFFFFFFFFFFFFFFFFFFFFFFFFFFFFFFFFFFF AND DUP2 MSTORE PUSH1 0x20 ADD SWAP1 DUP2 MSTORE PUSH1 0x20 ADD PUSH1 0x0 KECCAK256 PUSH1 0x0 DUP2 SLOAD PUSH1 0x1 SWAP1 SUB SWAP2 SWAP1 POP DUP2 SWAP1 SSTORE POP PUSH1 0x5 PUSH1 0x0 DUP7 PUSH20 0xFFFFFFFFFFFFFFFFFFFFFFFFFFFFFFFFFFFFFFFF AND PUSH20 0xFFFFFFFFFFFFFFFFFFFFFFFFFFFFFFFFFFFFFFFF AND DUP2 MSTORE PUSH1 0x20 ADD SWAP1 DUP2 MSTORE PUSH1 0x20 ADD PUSH1 0x0 KECCAK256 PUSH1 0x0 DUP2 SLOAD PUSH1 0x1 ADD SWAP2 SWAP1 POP DUP2 SWAP1 SSTORE POP PUSH2 0xC7D DUP6 PUSH2 0xC59 DUP9 DUP9 DUP8 PUSH2 0x1C75 JUMP JUMPDEST PUSH29 0x200000000000000000000000000000000000000000000000000000000 OR PUSH2 0x1C9D JUMP JUMPDEST PUSH1 0x4 PUSH1 0x0 DUP7 DUP2 MSTORE PUSH1 0x20 ADD SWAP1 DUP2 MSTORE PUSH1 0x20 ADD PUSH1 0x0 KECCAK256 DUP2 SWAP1 SSTORE POP PUSH1 0x0 PUSH29 0x200000000000000000000000000000000000000000000000000000000 DUP5 AND SUB PUSH2 0xD03 JUMPI PUSH1 0x0 PUSH1 0x1 DUP6 ADD SWAP1 POP PUSH1 0x0 PUSH1 0x4 PUSH1 0x0 DUP4 DUP2 MSTORE PUSH1 0x20 ADD SWAP1 DUP2 MSTORE PUSH1 0x20 ADD PUSH1 0x0 KECCAK256 SLOAD SUB PUSH2 0xD01 JUMPI PUSH1 0x0 SLOAD DUP2 EQ PUSH2 0xD00 JUMPI DUP4 PUSH1 0x4 PUSH1 0x0 DUP4 DUP2 MSTORE PUSH1 0x20 ADD SWAP1 DUP2 MSTORE PUSH1 0x20 ADD PUSH1 0x0 KECCAK256 DUP2 SWAP1 SSTORE POP JUMPDEST JUMPDEST POP JUMPDEST DUP4 DUP6 PUSH20 0xFFFFFFFFFFFFFFFFFFFFFFFFFFFFFFFFFFFFFFFF AND DUP8 PUSH20 0xFFFFFFFFFFFFFFFFFFFFFFFFFFFFFFFFFFFFFFFF AND PUSH32 0xDDF252AD1BE2C89B69C2B068FC378DAA952BA7F163C4A11628F55A4DF523B3EF PUSH1 0x40 MLOAD PUSH1 0x40 MLOAD DUP1 SWAP2 SUB SWAP1 LOG4 PUSH2 0xD6B DUP7 DUP7 DUP7 PUSH1 0x1 PUSH2 0x1CC8 JUMP JUMPDEST POP POP POP POP POP POP JUMP JUMPDEST PUSH1 0xA PUSH1 0x0 SWAP1 SLOAD SWAP1 PUSH2 0x100 EXP SWAP1 DIV PUSH1 0xFF AND PUSH2 0xDC2 JUMPI PUSH1 0x40 MLOAD PUSH32 0x8C379A000000000000000000000000000000000000000000000000000000000 DUP2 MSTORE PUSH1 0x4 ADD PUSH2 0xDB9 SWAP1 PUSH2 0x3ED6 JUMP JUMPDEST PUSH1 0x40 MLOAD DUP1 SWAP2 SUB SWAP1 REVERT JUMPDEST PUSH1 0x60 PUSH1 0x0 JUMPDEST DUP3 MLOAD DUP2 LT ISZERO PUSH2 0xEB9 JUMPI CALLER PUSH20 0xFFFFFFFFFFFFFFFFFFFFFFFFFFFFFFFFFFFFFFFF AND PUSH2 0xE0A DUP5 DUP4 DUP2 MLOAD DUP2 LT PUSH2 0xDFD JUMPI PUSH2 0xDFC PUSH2 0x3EF6 JUMP JUMPDEST JUMPDEST PUSH1 0x20 MUL PUSH1 0x20 ADD ADD MLOAD PUSH2 0x131D JUMP JUMPDEST PUSH20 0xFFFFFFFFFFFFFFFFFFFFFFFFFFFFFFFFFFFFFFFF AND EQ PUSH2 0xE60 JUMPI PUSH1 0x40 MLOAD PUSH32 0x8C379A000000000000000000000000000000000000000000000000000000000 DUP2 MSTORE PUSH1 0x4 ADD PUSH2 0xE57 SWAP1 PUSH2 0x3F71 JUMP JUMPDEST PUSH1 0x40 MLOAD DUP1 SWAP2 SUB SWAP1 REVERT JUMPDEST DUP2 PUSH2 0xE84 DUP5 DUP4 DUP2 MLOAD DUP2 LT PUSH2 0xE77 JUMPI PUSH2 0xE76 PUSH2 0x3EF6 JUMP JUMPDEST JUMPDEST PUSH1 0x20 MUL PUSH1 0x20 ADD ADD MLOAD PUSH2 0x8A8 JUMP JUMPDEST PUSH1 0x40 MLOAD PUSH1 0x20 ADD PUSH2 0xE95 SWAP3 SWAP2 SWAP1 PUSH2 0x3FCD JUMP JUMPDEST PUSH1 0x40 MLOAD PUSH1 0x20 DUP2 DUP4 SUB SUB DUP2 MSTORE SWAP1 PUSH1 0x40 MSTORE SWAP2 POP DUP1 DUP1 PUSH2 0xEB1 SWAP1 PUSH2 0x4020 JUMP JUMPDEST SWAP2 POP POP PUSH2 0xDC7 JUMP JUMPDEST POP PUSH1 0x4 DUP2 MLOAD GT ISZERO PUSH2 0xEFF JUMPI PUSH1 0x40 MLOAD PUSH32 0x8C379A000000000000000000000000000000000000000000000000000000000 DUP2 MSTORE PUSH1 0x4 ADD PUSH2 0xEF6 SWAP1 PUSH2 0x40B4 JUMP JUMPDEST PUSH1 0x40 MLOAD DUP1 SWAP2 SUB SWAP1 REVERT JUMPDEST PUSH2 0xFA2 PUSH1 0xB DUP1 SLOAD PUSH2 0xF0F SWAP1 PUSH2 0x3E59 JUMP JUMPDEST DUP1 PUSH1 0x1F ADD PUSH1 0x20 DUP1 SWAP2 DIV MUL PUSH1 0x20 ADD PUSH1 0x40 MLOAD SWAP1 DUP2 ADD PUSH1 0x40 MSTORE DUP1 SWAP3 SWAP2 SWAP1 DUP2 DUP2 MSTORE PUSH1 0x20 ADD DUP3 DUP1 SLOAD PUSH2 0xF3B SWAP1 PUSH2 0x3E59 JUMP JUMPDEST DUP1 ISZERO PUSH2 0xF88 JUMPI DUP1 PUSH1 0x1F LT PUSH2 0xF5D JUMPI PUSH2 0x100 DUP1 DUP4 SLOAD DIV MUL DUP4 MSTORE SWAP2 PUSH1 0x20 ADD SWAP2 PUSH2 0xF88 JUMP JUMPDEST DUP3 ADD SWAP2 SWAP1 PUSH1 0x0 MSTORE PUSH1 0x20 PUSH1 0x0 KECCAK256 SWAP1 JUMPDEST DUP2 SLOAD DUP2 MSTORE SWAP1 PUSH1 0x1 ADD SWAP1 PUSH1 0x20 ADD DUP1 DUP4 GT PUSH2 0xF6B JUMPI DUP3 SWAP1 SUB PUSH1 0x1F AND DUP3 ADD SWAP2 JUMPDEST POP POP POP POP POP PUSH1 0x40 MLOAD DUP1 PUSH1 0x20 ADD PUSH1 0x40 MSTORE DUP1 PUSH1 0x0 DUP2 MSTORE POP PUSH2 0x1AC2 JUMP JUMPDEST ISZERO DUP1 ISZERO PUSH2 0x103F JUMPI POP PUSH2 0x103E PUSH1 0xB DUP1 SLOAD PUSH2 0xFBA SWAP1 PUSH2 0x3E59 JUMP JUMPDEST DUP1 PUSH1 0x1F ADD PUSH1 0x20 DUP1 SWAP2 DIV MUL PUSH1 0x20 ADD PUSH1 0x40 MLOAD SWAP1 DUP2 ADD PUSH1 0x40 MSTORE DUP1 SWAP3 SWAP2 SWAP1 DUP2 DUP2 MSTORE PUSH1 0x20 ADD DUP3 DUP1 SLOAD PUSH2 0xFE6 SWAP1 PUSH2 0x3E59 JUMP JUMPDEST DUP1 ISZERO PUSH2 0x1033 JUMPI DUP1 PUSH1 0x1F LT PUSH2 0x1008 JUMPI PUSH2 0x100 DUP1 DUP4 SLOAD DIV MUL DUP4 MSTORE SWAP2 PUSH1 0x20 ADD SWAP2 PUSH2 0x1033 JUMP JUMPDEST DUP3 ADD SWAP2 SWAP1 PUSH1 0x0 MSTORE PUSH1 0x20 PUSH1 0x0 KECCAK256 SWAP1 JUMPDEST DUP2 SLOAD DUP2 MSTORE SWAP1 PUSH1 0x1 ADD SWAP1 PUSH1 0x20 ADD DUP1 DUP4 GT PUSH2 0x1016 JUMPI DUP3 SWAP1 SUB PUSH1 0x1F AND DUP3 ADD SWAP2 JUMPDEST POP POP POP POP POP DUP3 PUSH2 0x1AC2 JUMP JUMPDEST JUMPDEST ISZERO PUSH2 0x10A1 JUMPI PUSH1 0xB PUSH1 0x40 MLOAD PUSH1 0x20 ADD PUSH2 0x1056 SWAP2 SWAP1 PUSH2 0x41DE JUMP JUMPDEST PUSH1 0x40 MLOAD PUSH1 0x20 DUP2 DUP4 SUB SUB DUP2 MSTORE SWAP1 PUSH1 0x40 MSTORE PUSH1 0x40 MLOAD PUSH32 0x8C379A000000000000000000000000000000000000000000000000000000000 DUP2 MSTORE PUSH1 0x4 ADD PUSH2 0x1098 SWAP2 SWAP1 PUSH2 0x38BE JUMP JUMPDEST PUSH1 0x40 MLOAD DUP1 SWAP2 SUB SWAP1 REVERT JUMPDEST PUSH1 0x0 PUSH1 0x1 SWAP1 POP JUMPDEST DUP3 MLOAD DUP2 LT ISZERO PUSH2 0x11B5 JUMPI PUSH2 0x10D4 DUP4 DUP3 DUP2 MLOAD DUP2 LT PUSH2 0x10C7 JUMPI PUSH2 0x10C6 PUSH2 0x3EF6 JUMP JUMPDEST JUMPDEST PUSH1 0x20 MUL PUSH1 0x20 ADD ADD MLOAD PUSH2 0x1CCE JUMP JUMPDEST PUSH1 0x40 MLOAD DUP1 PUSH1 0x20 ADD PUSH1 0x40 MSTORE DUP1 PUSH1 0x0 DUP2 MSTORE POP PUSH1 0xC PUSH1 0x0 DUP6 DUP5 DUP2 MLOAD DUP2 LT PUSH2 0x10FB JUMPI PUSH2 0x10FA PUSH2 0x3EF6 JUMP JUMPDEST JUMPDEST PUSH1 0x20 MUL PUSH1 0x20 ADD ADD MLOAD DUP2 MSTORE PUSH1 0x20 ADD SWAP1 DUP2 MSTORE PUSH1 0x20 ADD PUSH1 0x0 KECCAK256 SWAP1 DUP2 PUSH2 0x111D SWAP2 SWAP1 PUSH2 0x4397 JUMP JUMPDEST POP PUSH1 0x0 PUSH1 0xD PUSH1 0x0 DUP6 DUP5 DUP2 MLOAD DUP2 LT PUSH2 0x1137 JUMPI PUSH2 0x1136 PUSH2 0x3EF6 JUMP JUMPDEST JUMPDEST PUSH1 0x20 MUL PUSH1 0x20 ADD ADD MLOAD DUP2 MSTORE PUSH1 0x20 ADD SWAP1 DUP2 MSTORE PUSH1 0x20 ADD PUSH1 0x0 KECCAK256 DUP2 SWAP1 SSTORE POP PUSH32 0xF8E1A15ABA9398E019F0B49DF1A4FDE98EE17AE345CB5F6B5E2C27F5033E8CE7 DUP4 DUP3 DUP2 MLOAD DUP2 LT PUSH2 0x1185 JUMPI PUSH2 0x1184 PUSH2 0x3EF6 JUMP JUMPDEST JUMPDEST PUSH1 0x20 MUL PUSH1 0x20 ADD ADD MLOAD PUSH1 0x40 MLOAD PUSH2 0x119A SWAP2 SWAP1 PUSH2 0x3A1A JUMP JUMPDEST PUSH1 0x40 MLOAD DUP1 SWAP2 SUB SWAP1 LOG1 DUP1 DUP1 PUSH2 0x11AD SWAP1 PUSH2 0x4020 JUMP JUMPDEST SWAP2 POP POP PUSH2 0x10A8 JUMP JUMPDEST POP DUP1 PUSH1 0xC PUSH1 0x0 DUP5 PUSH1 0x0 DUP2 MLOAD DUP2 LT PUSH2 0x11CF JUMPI PUSH2 0x11CE PUSH2 0x3EF6 JUMP JUMPDEST JUMPDEST PUSH1 0x20 MUL PUSH1 0x20 ADD ADD MLOAD DUP2 MSTORE PUSH1 0x20 ADD SWAP1 DUP2 MSTORE PUSH1 0x20 ADD PUSH1 0x0 KECCAK256 SWAP1 DUP2 PUSH2 0x11F1 SWAP2 SWAP1 PUSH2 0x4397 JUMP JUMPDEST POP PUSH2 0x121A DUP3 PUSH1 0x0 DUP2 MLOAD DUP2 LT PUSH2 0x1209 JUMPI PUSH2 0x1208 PUSH2 0x3EF6 JUMP JUMPDEST JUMPDEST PUSH1 0x20 MUL PUSH1 0x20 ADD ADD MLOAD PUSH1 0x1 PUSH1 0x4 PUSH2 0x1CDC JUMP JUMPDEST PUSH1 0xD PUSH1 0x0 DUP5 PUSH1 0x0 DUP2 MLOAD DUP2 LT PUSH2 0x1232 JUMPI PUSH2 0x1231 PUSH2 0x3EF6 JUMP JUMPDEST JUMPDEST PUSH1 0x20 MUL PUSH1 0x20 ADD ADD MLOAD DUP2 MSTORE PUSH1 0x20 ADD SWAP1 DUP2 MSTORE PUSH1 0x20 ADD PUSH1 0x0 KECCAK256 DUP2 SWAP1 SSTORE POP PUSH32 0xF8E1A15ABA9398E019F0B49DF1A4FDE98EE17AE345CB5F6B5E2C27F5033E8CE7 DUP3 PUSH1 0x0 DUP2 MLOAD DUP2 LT PUSH2 0x1281 JUMPI PUSH2 0x1280 PUSH2 0x3EF6 JUMP JUMPDEST JUMPDEST PUSH1 0x20 MUL PUSH1 0x20 ADD ADD MLOAD PUSH1 0x40 MLOAD PUSH2 0x1296 SWAP2 SWAP1 PUSH2 0x3A1A JUMP JUMPDEST PUSH1 0x40 MLOAD DUP1 SWAP2 SUB SWAP1 LOG1 POP POP JUMP JUMPDEST PUSH1 0xA PUSH1 0x0 SWAP1 SLOAD SWAP1 PUSH2 0x100 EXP SWAP1 DIV PUSH1 0xFF AND DUP2 JUMP JUMPDEST PUSH2 0x12BD PUSH2 0x1D50 JUMP JUMPDEST CALLER PUSH20 0xFFFFFFFFFFFFFFFFFFFFFFFFFFFFFFFFFFFFFFFF AND PUSH2 0x8FC SELFBALANCE SWAP1 DUP2 ISZERO MUL SWAP1 PUSH1 0x40 MLOAD PUSH1 0x0 PUSH1 0x40 MLOAD DUP1 DUP4 SUB DUP2 DUP6 DUP9 DUP9 CALL SWAP4 POP POP POP POP PUSH2 0x12FB JUMPI PUSH1 0x0 DUP1 REVERT JUMPDEST JUMP JUMPDEST PUSH2 0x1318 DUP4 DUP4 DUP4 PUSH1 0x40 MLOAD DUP1 PUSH1 0x20 ADD PUSH1 0x40 MSTORE DUP1 PUSH1 0x0 DUP2 MSTORE POP PUSH2 0x1649 JUMP JUMPDEST POP POP POP JUMP JUMPDEST PUSH1 0x0 PUSH2 0x1328 DUP3 PUSH2 0x1B38 JUMP JUMPDEST SWAP1 POP SWAP2 SWAP1 POP JUMP JUMPDEST PUSH1 0x0 DUP1 PUSH20 0xFFFFFFFFFFFFFFFFFFFFFFFFFFFFFFFFFFFFFFFF AND DUP3 PUSH20 0xFFFFFFFFFFFFFFFFFFFFFFFFFFFFFFFFFFFFFFFF AND SUB PUSH2 0x1396 JUMPI PUSH1 0x40 MLOAD PUSH32 0x8F4EB60400000000000000000000000000000000000000000000000000000000 DUP2 MSTORE PUSH1 0x4 ADD PUSH1 0x40 MLOAD DUP1 SWAP2 SUB SWAP1 REVERT JUMPDEST PUSH8 0xFFFFFFFFFFFFFFFF PUSH1 0x5 PUSH1 0x0 DUP5 PUSH20 0xFFFFFFFFFFFFFFFFFFFFFFFFFFFFFFFFFFFFFFFF AND PUSH20 0xFFFFFFFFFFFFFFFFFFFFFFFFFFFFFFFFFFFFFFFF AND DUP2 MSTORE PUSH1 0x20 ADD SWAP1 DUP2 MSTORE PUSH1 0x20 ADD PUSH1 0x0 KECCAK256 SLOAD AND SWAP1 POP SWAP2 SWAP1 POP JUMP JUMPDEST PUSH2 0x13EF PUSH2 0x1D50 JUMP JUMPDEST PUSH2 0x13F9 PUSH1 0x0 PUSH2 0x1DCE JUMP JUMPDEST JUMP JUMPDEST PUSH1 0x0 PUSH1 0x8 PUSH1 0x0 SWAP1 SLOAD SWAP1 PUSH2 0x100 EXP SWAP1 DIV PUSH20 0xFFFFFFFFFFFFFFFFFFFFFFFFFFFFFFFFFFFFFFFF AND SWAP1 POP SWAP1 JUMP JUMPDEST PUSH2 0x142D PUSH2 0x1D50 JUMP JUMPDEST PUSH2 0x1438 TIMESTAMP PUSH1 0x4 PUSH2 0x1E94 JUMP JUMPDEST PUSH1 0xB SWAP1 DUP2 PUSH2 0x1446 SWAP2 SWAP1 PUSH2 0x4397 JUMP JUMPDEST POP JUMP JUMPDEST PUSH1 0x60 PUSH1 0x3 DUP1 SLOAD PUSH2 0x1458 SWAP1 PUSH2 0x3E59 JUMP JUMPDEST DUP1 PUSH1 0x1F ADD PUSH1 0x20 DUP1 SWAP2 DIV MUL PUSH1 0x20 ADD PUSH1 0x40 MLOAD SWAP1 DUP2 ADD PUSH1 0x40 MSTORE DUP1 SWAP3 SWAP2 SWAP1 DUP2 DUP2 MSTORE PUSH1 0x20 ADD DUP3 DUP1 SLOAD PUSH2 0x1484 SWAP1 PUSH2 0x3E59 JUMP JUMPDEST DUP1 ISZERO PUSH2 0x14D1 JUMPI DUP1 PUSH1 0x1F LT PUSH2 0x14A6 JUMPI PUSH2 0x100 DUP1 DUP4 SLOAD DIV MUL DUP4 MSTORE SWAP2 PUSH1 0x20 ADD SWAP2 PUSH2 0x14D1 JUMP JUMPDEST DUP3 ADD SWAP2 SWAP1 PUSH1 0x0 MSTORE PUSH1 0x20 PUSH1 0x0 KECCAK256 SWAP1 JUMPDEST DUP2 SLOAD DUP2 MSTORE SWAP1 PUSH1 0x1 ADD SWAP1 PUSH1 0x20 ADD DUP1 DUP4 GT PUSH2 0x14B4 JUMPI DUP3 SWAP1 SUB PUSH1 0x1F AND DUP3 ADD SWAP2 JUMPDEST POP POP POP POP POP SWAP1 POP SWAP1 JUMP JUMPDEST PUSH1 0x9 SLOAD DUP2 JUMP JUMPDEST PUSH1 0x9 SLOAD DUP2 PUSH2 0x14EF SWAP2 SWAP1 PUSH2 0x4469 JUMP JUMPDEST CALLVALUE LT ISZERO PUSH2 0x1531 JUMPI PUSH1 0x40 MLOAD PUSH32 0x8C379A000000000000000000000000000000000000000000000000000000000 DUP2 MSTORE PUSH1 0x4 ADD PUSH2 0x1528 SWAP1 PUSH2 0x44F7 JUMP JUMPDEST PUSH1 0x40 MLOAD DUP1 SWAP2 SUB SWAP1 REVERT JUMPDEST PUSH2 0x153B CALLER DUP3 PUSH2 0x2094 JUMP JUMPDEST POP JUMP JUMPDEST DUP1 PUSH1 0x7 PUSH1 0x0 PUSH2 0x154B PUSH2 0x1ABA JUMP JUMPDEST PUSH20 0xFFFFFFFFFFFFFFFFFFFFFFFFFFFFFFFFFFFFFFFF AND PUSH20 0xFFFFFFFFFFFFFFFFFFFFFFFFFFFFFFFFFFFFFFFF AND DUP2 MSTORE PUSH1 0x20 ADD SWAP1 DUP2 MSTORE PUSH1 0x20 ADD PUSH1 0x0 KECCAK256 PUSH1 0x0 DUP5 PUSH20 0xFFFFFFFFFFFFFFFFFFFFFFFFFFFFFFFFFFFFFFFF AND PUSH20 0xFFFFFFFFFFFFFFFFFFFFFFFFFFFFFFFFFFFFFFFF AND DUP2 MSTORE PUSH1 0x20 ADD SWAP1 DUP2 MSTORE PUSH1 0x20 ADD PUSH1 0x0 KECCAK256 PUSH1 0x0 PUSH2 0x100 EXP DUP2 SLOAD DUP2 PUSH1 0xFF MUL NOT AND SWAP1 DUP4 ISZERO ISZERO MUL OR SWAP1 SSTORE POP DUP2 PUSH20 0xFFFFFFFFFFFFFFFFFFFFFFFFFFFFFFFFFFFFFFFF AND PUSH2 0x15F8 PUSH2 0x1ABA JUMP JUMPDEST PUSH20 0xFFFFFFFFFFFFFFFFFFFFFFFFFFFFFFFFFFFFFFFF AND PUSH32 0x17307EAB39AB6107E8899845AD3D59BD9653F200F220920489CA2B5937696C31 DUP4 PUSH1 0x40 MLOAD PUSH2 0x163D SWAP2 SWAP1 PUSH2 0x3813 JUMP JUMPDEST PUSH1 0x40 MLOAD DUP1 SWAP2 SUB SWAP1 LOG3 POP POP JUMP JUMPDEST PUSH2 0x1654 DUP5 DUP5 DUP5 PUSH2 0xA51 JUMP JUMPDEST PUSH1 0x0 DUP4 PUSH20 0xFFFFFFFFFFFFFFFFFFFFFFFFFFFFFFFFFFFFFFFF AND EXTCODESIZE EQ PUSH2 0x16B6 JUMPI PUSH2 0x167F DUP5 DUP5 DUP5 DUP5 PUSH2 0x20A2 JUMP JUMPDEST PUSH2 0x16B5 JUMPI PUSH1 0x40 MLOAD PUSH32 0xD1A57ED600000000000000000000000000000000000000000000000000000000 DUP2 MSTORE PUSH1 0x4 ADD PUSH1 0x40 MLOAD DUP1 SWAP2 SUB SWAP1 REVERT JUMPDEST JUMPDEST POP POP POP POP JUMP JUMPDEST PUSH2 0x16C4 PUSH2 0x1D50 JUMP JUMPDEST PUSH1 0xA PUSH1 0x0 SWAP1 SLOAD SWAP1 PUSH2 0x100 EXP SWAP1 DIV PUSH1 0xFF AND ISZERO PUSH1 0xA PUSH1 0x0 PUSH2 0x100 EXP DUP2 SLOAD DUP2 PUSH1 0xFF MUL NOT AND SWAP1 DUP4 ISZERO ISZERO MUL OR SWAP1 SSTORE POP JUMP JUMPDEST PUSH1 0xB DUP1 SLOAD PUSH2 0x16FD SWAP1 PUSH2 0x3E59 JUMP JUMPDEST DUP1 PUSH1 0x1F ADD PUSH1 0x20 DUP1 SWAP2 DIV MUL PUSH1 0x20 ADD PUSH1 0x40 MLOAD SWAP1 DUP2 ADD PUSH1 0x40 MSTORE DUP1 SWAP3 SWAP2 SWAP1 DUP2 DUP2 MSTORE PUSH1 0x20 ADD DUP3 DUP1 SLOAD PUSH2 0x1729 SWAP1 PUSH2 0x3E59 JUMP JUMPDEST DUP1 ISZERO PUSH2 0x1776 JUMPI DUP1 PUSH1 0x1F LT PUSH2 0x174B JUMPI PUSH2 0x100 DUP1 DUP4 SLOAD DIV MUL DUP4 MSTORE SWAP2 PUSH1 0x20 ADD SWAP2 PUSH2 0x1776 JUMP JUMPDEST DUP3 ADD SWAP2 SWAP1 PUSH1 0x0 MSTORE PUSH1 0x20 PUSH1 0x0 KECCAK256 SWAP1 JUMPDEST DUP2 SLOAD DUP2 MSTORE SWAP1 PUSH1 0x1 ADD SWAP1 PUSH1 0x20 ADD DUP1 DUP4 GT PUSH2 0x1759 JUMPI DUP3 SWAP1 SUB PUSH1 0x1F AND DUP3 ADD SWAP2 JUMPDEST POP POP POP POP POP DUP2 JUMP JUMPDEST PUSH1 0x60 PUSH1 0x0 PUSH1 0x60 PUSH2 0x178D DUP5 PUSH2 0x1A5B JUMP JUMPDEST PUSH2 0x17AC JUMPI PUSH1 0x40 MLOAD DUP1 PUSH1 0x20 ADD PUSH1 0x40 MSTORE DUP1 PUSH1 0x0 DUP2 MSTORE POP SWAP1 POP PUSH1 0x1 SWAP2 POP PUSH2 0x191C JUMP JUMPDEST PUSH2 0x1860 PUSH1 0xC PUSH1 0x0 DUP7 DUP2 MSTORE PUSH1 0x20 ADD SWAP1 DUP2 MSTORE PUSH1 0x20 ADD PUSH1 0x0 KECCAK256 DUP1 SLOAD PUSH2 0x17CD SWAP1 PUSH2 0x3E59 JUMP JUMPDEST DUP1 PUSH1 0x1F ADD PUSH1 0x20 DUP1 SWAP2 DIV MUL PUSH1 0x20 ADD PUSH1 0x40 MLOAD SWAP1 DUP2 ADD PUSH1 0x40 MSTORE DUP1 SWAP3 SWAP2 SWAP1 DUP2 DUP2 MSTORE PUSH1 0x20 ADD DUP3 DUP1 SLOAD PUSH2 0x17F9 SWAP1 PUSH2 0x3E59 JUMP JUMPDEST DUP1 ISZERO PUSH2 0x1846 JUMPI DUP1 PUSH1 0x1F LT PUSH2 0x181B JUMPI PUSH2 0x100 DUP1 DUP4 SLOAD DIV MUL DUP4 MSTORE SWAP2 PUSH1 0x20 ADD SWAP2 PUSH2 0x1846 JUMP JUMPDEST DUP3 ADD SWAP2 SWAP1 PUSH1 0x0 MSTORE PUSH1 0x20 PUSH1 0x0 KECCAK256 SWAP1 JUMPDEST DUP2 SLOAD DUP2 MSTORE SWAP1 PUSH1 0x1 ADD SWAP1 PUSH1 0x20 ADD DUP1 DUP4 GT PUSH2 0x1829 JUMPI DUP3 SWAP1 SUB PUSH1 0x1F AND DUP3 ADD SWAP2 JUMPDEST POP POP POP POP POP PUSH1 0x40 MLOAD DUP1 PUSH1 0x20 ADD PUSH1 0x40 MSTORE DUP1 PUSH1 0x0 DUP2 MSTORE POP PUSH2 0x1AC2 JUMP JUMPDEST PUSH2 0x190B JUMPI PUSH1 0xC PUSH1 0x0 DUP6 DUP2 MSTORE PUSH1 0x20 ADD SWAP1 DUP2 MSTORE PUSH1 0x20 ADD PUSH1 0x0 KECCAK256 DUP1 SLOAD PUSH2 0x1882 SWAP1 PUSH2 0x3E59 JUMP JUMPDEST DUP1 PUSH1 0x1F ADD PUSH1 0x20 DUP1 SWAP2 DIV MUL PUSH1 0x20 ADD PUSH1 0x40 MLOAD SWAP1 DUP2 ADD PUSH1 0x40 MSTORE DUP1 SWAP3 SWAP2 SWAP1 DUP2 DUP2 MSTORE PUSH1 0x20 ADD DUP3 DUP1 SLOAD PUSH2 0x18AE SWAP1 PUSH2 0x3E59 JUMP JUMPDEST DUP1 ISZERO PUSH2 0x18FB JUMPI DUP1 PUSH1 0x1F LT PUSH2 0x18D0 JUMPI PUSH2 0x100 DUP1 DUP4 SLOAD DIV MUL DUP4 MSTORE SWAP2 PUSH1 0x20 ADD SWAP2 PUSH2 0x18FB JUMP JUMPDEST DUP3 ADD SWAP2 SWAP1 PUSH1 0x0 MSTORE PUSH1 0x20 PUSH1 0x0 KECCAK256 SWAP1 JUMPDEST DUP2 SLOAD DUP2 MSTORE SWAP1 PUSH1 0x1 ADD SWAP1 PUSH1 0x20 ADD DUP1 DUP4 GT PUSH2 0x18DE JUMPI DUP3 SWAP1 SUB PUSH1 0x1F AND DUP3 ADD SWAP2 JUMPDEST POP POP POP POP POP SWAP1 POP PUSH1 0x0 SWAP2 POP PUSH2 0x191B JUMP JUMPDEST PUSH2 0x1914 DUP5 PUSH2 0x1B1B JUMP JUMPDEST SWAP1 POP PUSH1 0x0 SWAP2 POP JUMPDEST JUMPDEST PUSH2 0x193B DUP5 DUP3 PUSH1 0xD PUSH1 0x0 DUP9 DUP2 MSTORE PUSH1 0x20 ADD SWAP1 DUP2 MSTORE PUSH1 0x20 ADD PUSH1 0x0 KECCAK256 SLOAD DUP6 PUSH2 0x21F2 JUMP JUMPDEST SWAP3 POP POP POP SWAP2 SWAP1 POP JUMP JUMPDEST PUSH1 0x0 PUSH1 0x7 PUSH1 0x0 DUP5 PUSH20 0xFFFFFFFFFFFFFFFFFFFFFFFFFFFFFFFFFFFFFFFF AND PUSH20 0xFFFFFFFFFFFFFFFFFFFFFFFFFFFFFFFFFFFFFFFF AND DUP2 MSTORE PUSH1 0x20 ADD SWAP1 DUP2 MSTORE PUSH1 0x20 ADD PUSH1 0x0 KECCAK256 PUSH1 0x0 DUP4 PUSH20 0xFFFFFFFFFFFFFFFFFFFFFFFFFFFFFFFFFFFFFFFF AND PUSH20 0xFFFFFFFFFFFFFFFFFFFFFFFFFFFFFFFFFFFFFFFF AND DUP2 MSTORE PUSH1 0x20 ADD SWAP1 DUP2 MSTORE PUSH1 0x20 ADD PUSH1 0x0 KECCAK256 PUSH1 0x0 SWAP1 SLOAD SWAP1 PUSH2 0x100 EXP SWAP1 DIV PUSH1 0xFF AND SWAP1 POP SWAP3 SWAP2 POP POP JUMP JUMPDEST PUSH2 0x19E0 PUSH2 0x1D50 JUMP JUMPDEST PUSH1 0x0 PUSH20 0xFFFFFFFFFFFFFFFFFFFFFFFFFFFFFFFFFFFFFFFF AND DUP2 PUSH20 0xFFFFFFFFFFFFFFFFFFFFFFFFFFFFFFFFFFFFFFFF AND SUB PUSH2 0x1A4F JUMPI PUSH1 0x40 MLOAD PUSH32 0x8C379A000000000000000000000000000000000000000000000000000000000 DUP2 MSTORE PUSH1 0x4 ADD PUSH2 0x1A46 SWAP1 PUSH2 0x4589 JUMP JUMPDEST PUSH1 0x40 MLOAD DUP1 SWAP2 SUB SWAP1 REVERT JUMPDEST PUSH2 0x1A58 DUP2 PUSH2 0x1DCE JUMP JUMPDEST POP JUMP JUMPDEST PUSH1 0x0 DUP2 PUSH2 0x1A66 PUSH2 0x1B2F JUMP JUMPDEST GT ISZERO DUP1 ISZERO PUSH2 0x1A75 JUMPI POP PUSH1 0x0 SLOAD DUP3 LT JUMPDEST DUP1 ISZERO PUSH2 0x1AB3 JUMPI POP PUSH1 0x0 PUSH29 0x100000000000000000000000000000000000000000000000000000000 PUSH1 0x4 PUSH1 0x0 DUP6 DUP2 MSTORE PUSH1 0x20 ADD SWAP1 DUP2 MSTORE PUSH1 0x20 ADD PUSH1 0x0 KECCAK256 SLOAD AND EQ JUMPDEST SWAP1 POP SWAP2 SWAP1 POP JUMP JUMPDEST PUSH1 0x0 CALLER SWAP1 POP SWAP1 JUMP JUMPDEST PUSH1 0x0 DUP2 PUSH1 0x40 MLOAD PUSH1 0x20 ADD PUSH2 0x1AD5 SWAP2 SWAP1 PUSH2 0x45A9 JUMP JUMPDEST PUSH1 0x40 MLOAD PUSH1 0x20 DUP2 DUP4 SUB SUB DUP2 MSTORE SWAP1 PUSH1 0x40 MSTORE DUP1 MLOAD SWAP1 PUSH1 0x20 ADD KECCAK256 DUP4 PUSH1 0x40 MLOAD PUSH1 0x20 ADD PUSH2 0x1AFC SWAP2 SWAP1 PUSH2 0x45A9 JUMP JUMPDEST PUSH1 0x40 MLOAD PUSH1 0x20 DUP2 DUP4 SUB SUB DUP2 MSTORE SWAP1 PUSH1 0x40 MSTORE DUP1 MLOAD SWAP1 PUSH1 0x20 ADD KECCAK256 EQ SWAP1 POP SWAP3 SWAP2 POP POP JUMP JUMPDEST PUSH1 0x60 PUSH2 0x1B28 DUP3 PUSH1 0x1 PUSH2 0x1E94 JUMP JUMPDEST SWAP1 POP SWAP2 SWAP1 POP JUMP JUMPDEST PUSH1 0x0 PUSH1 0x1 SWAP1 POP SWAP1 JUMP JUMPDEST PUSH1 0x0 DUP1 DUP3 SWAP1 POP DUP1 PUSH2 0x1B47 PUSH2 0x1B2F JUMP JUMPDEST GT PUSH2 0x1BCD JUMPI PUSH1 0x0 SLOAD DUP2 LT ISZERO PUSH2 0x1BCC JUMPI PUSH1 0x0 PUSH1 0x4 PUSH1 0x0 DUP4 DUP2 MSTORE PUSH1 0x20 ADD SWAP1 DUP2 MSTORE PUSH1 0x20 ADD PUSH1 0x0 KECCAK256 SLOAD SWAP1 POP PUSH1 0x0 PUSH29 0x100000000000000000000000000000000000000000000000000000000 DUP3 AND SUB PUSH2 0x1BCA JUMPI JUMPDEST PUSH1 0x0 DUP2 SUB PUSH2 0x1BC0 JUMPI PUSH1 0x4 PUSH1 0x0 DUP4 PUSH1 0x1 SWAP1 SUB SWAP4 POP DUP4 DUP2 MSTORE PUSH1 0x20 ADD SWAP1 DUP2 MSTORE PUSH1 0x20 ADD PUSH1 0x0 KECCAK256 SLOAD SWAP1 POP PUSH2 0x1B96 JUMP JUMPDEST DUP1 SWAP3 POP POP POP PUSH2 0x1BFF JUMP JUMPDEST POP JUMPDEST JUMPDEST PUSH1 0x40 MLOAD PUSH32 0xDF2D9B4200000000000000000000000000000000000000000000000000000000 DUP2 MSTORE PUSH1 0x4 ADD PUSH1 0x40 MLOAD DUP1 SWAP2 SUB SWAP1 REVERT JUMPDEST SWAP2 SWAP1 POP JUMP JUMPDEST PUSH1 0x0 DUP1 PUSH1 0x0 PUSH1 0x6 PUSH1 0x0 DUP6 DUP2 MSTORE PUSH1 0x20 ADD SWAP1 DUP2 MSTORE PUSH1 0x20 ADD PUSH1 0x0 KECCAK256 SWAP1 POP DUP1 SWAP3 POP DUP3 SLOAD SWAP2 POP POP SWAP2 POP SWAP2 JUMP JUMPDEST PUSH1 0x0 PUSH20 0xFFFFFFFFFFFFFFFFFFFFFFFFFFFFFFFFFFFFFFFF DUP4 AND SWAP3 POP PUSH20 0xFFFFFFFFFFFFFFFFFFFFFFFFFFFFFFFFFFFFFFFF DUP3 AND SWAP2 POP DUP4 DUP3 EQ DUP4 DUP4 EQ OR SWAP1 POP SWAP4 SWAP3 POP POP POP JUMP JUMPDEST POP POP POP POP JUMP JUMPDEST PUSH1 0x0 DUP1 PUSH1 0xE8 DUP4 SWAP1 SHR SWAP1 POP PUSH1 0xE8 PUSH2 0x1C8C DUP7 DUP7 DUP5 PUSH2 0x2330 JUMP JUMPDEST PUSH3 0xFFFFFF AND SWAP1 SHL SWAP2 POP POP SWAP4 SWAP3 POP POP POP JUMP JUMPDEST PUSH1 0x0 PUSH20 0xFFFFFFFFFFFFFFFFFFFFFFFFFFFFFFFFFFFFFFFF DUP4 AND SWAP3 POP DUP2 TIMESTAMP PUSH1 0xA0 SHL OR DUP4 OR SWAP1 POP SWAP3 SWAP2 POP POP JUMP JUMPDEST POP POP POP POP JUMP JUMPDEST PUSH2 0x1CD9 DUP2 PUSH1 0x0 PUSH2 0x2339 JUMP JUMPDEST POP JUMP JUMPDEST PUSH1 0x0 DUP1 DUP4 DUP4 PUSH2 0x1CEB SWAP2 SWAP1 PUSH2 0x45C0 JUMP JUMPDEST SWAP1 POP PUSH1 0x1 DUP2 PUSH2 0x7E7 DUP8 PUSH2 0x1CFE SWAP2 SWAP1 PUSH2 0x45F4 JUMP JUMPDEST PUSH1 0x40 MLOAD PUSH1 0x20 ADD PUSH2 0x1D0E SWAP2 SWAP1 PUSH2 0x4649 JUMP JUMPDEST PUSH1 0x40 MLOAD PUSH1 0x20 DUP2 DUP4 SUB SUB DUP2 MSTORE SWAP1 PUSH1 0x40 MSTORE DUP1 MLOAD SWAP1 PUSH1 0x20 ADD KECCAK256 PUSH1 0x0 SHR PUSH2 0x1D31 SWAP2 SWAP1 PUSH2 0x4693 JUMP JUMPDEST DUP5 PUSH2 0x1D3C SWAP2 SWAP1 PUSH2 0x45C0 JUMP JUMPDEST PUSH2 0x1D46 SWAP2 SWAP1 PUSH2 0x45C0 JUMP JUMPDEST SWAP2 POP POP SWAP4 SWAP3 POP POP POP JUMP JUMPDEST PUSH2 0x1D58 PUSH2 0x258B JUMP JUMPDEST PUSH20 0xFFFFFFFFFFFFFFFFFFFFFFFFFFFFFFFFFFFFFFFF AND PUSH2 0x1D76 PUSH2 0x13FB JUMP JUMPDEST PUSH20 0xFFFFFFFFFFFFFFFFFFFFFFFFFFFFFFFFFFFFFFFF AND EQ PUSH2 0x1DCC JUMPI PUSH1 0x40 MLOAD PUSH32 0x8C379A000000000000000000000000000000000000000000000000000000000 DUP2 MSTORE PUSH1 0x4 ADD PUSH2 0x1DC3 SWAP1 PUSH2 0x4710 JUMP JUMPDEST PUSH1 0x40 MLOAD DUP1 SWAP2 SUB SWAP1 REVERT JUMPDEST JUMP JUMPDEST PUSH1 0x0 PUSH1 0x8 PUSH1 0x0 SWAP1 SLOAD SWAP1 PUSH2 0x100 EXP SWAP1 DIV PUSH20 0xFFFFFFFFFFFFFFFFFFFFFFFFFFFFFFFFFFFFFFFF AND SWAP1 POP DUP2 PUSH1 0x8 PUSH1 0x0 PUSH2 0x100 EXP DUP2 SLOAD DUP2 PUSH20 0xFFFFFFFFFFFFFFFFFFFFFFFFFFFFFFFFFFFFFFFF MUL NOT AND SWAP1 DUP4 PUSH20 0xFFFFFFFFFFFFFFFFFFFFFFFFFFFFFFFFFFFFFFFF AND MUL OR SWAP1 SSTORE POP DUP2 PUSH20 0xFFFFFFFFFFFFFFFFFFFFFFFFFFFFFFFFFFFFFFFF AND DUP2 PUSH20 0xFFFFFFFFFFFFFFFFFFFFFFFFFFFFFFFFFFFFFFFF AND PUSH32 0x8BE0079C531659141344CD1FD0A4F28419497F9722A3DAAFE3B4186F6B6457E0 PUSH1 0x40 MLOAD PUSH1 0x40 MLOAD DUP1 SWAP2 SUB SWAP1 LOG3 POP POP JUMP JUMPDEST PUSH1 0x60 PUSH1 0x4 DUP3 GT ISZERO PUSH2 0x1EDA JUMPI PUSH1 0x40 MLOAD PUSH32 0x8C379A000000000000000000000000000000000000000000000000000000000 DUP2 MSTORE PUSH1 0x4 ADD PUSH2 0x1ED1 SWAP1 PUSH2 0x477C JUMP JUMPDEST PUSH1 0x40 MLOAD DUP1 SWAP2 SUB SWAP1 REVERT JUMPDEST PUSH1 0x1 DUP3 LT ISZERO PUSH2 0x1F1E JUMPI PUSH1 0x40 MLOAD PUSH32 0x8C379A000000000000000000000000000000000000000000000000000000000 DUP2 MSTORE PUSH1 0x4 ADD PUSH2 0x1F15 SWAP1 PUSH2 0x47E8 JUMP JUMPDEST PUSH1 0x40 MLOAD DUP1 SWAP2 SUB SWAP1 REVERT JUMPDEST PUSH1 0x0 DUP3 PUSH8 0xFFFFFFFFFFFFFFFF DUP2 GT ISZERO PUSH2 0x1F3A JUMPI PUSH2 0x1F39 PUSH2 0x3A8D JUMP JUMPDEST JUMPDEST PUSH1 0x40 MLOAD SWAP1 DUP1 DUP3 MSTORE DUP1 PUSH1 0x1F ADD PUSH1 0x1F NOT AND PUSH1 0x20 ADD DUP3 ADD PUSH1 0x40 MSTORE DUP1 ISZERO PUSH2 0x1F6C JUMPI DUP2 PUSH1 0x20 ADD PUSH1 0x1 DUP3 MUL DUP1 CALLDATASIZE DUP4 CALLDATACOPY DUP1 DUP3 ADD SWAP2 POP POP SWAP1 POP JUMPDEST POP SWAP1 POP PUSH1 0x0 PUSH1 0xA PUSH8 0xFFFFFFFFFFFFFFFF DUP2 GT ISZERO PUSH2 0x1F8C JUMPI PUSH2 0x1F8B PUSH2 0x3A8D JUMP JUMPDEST JUMPDEST PUSH1 0x40 MLOAD SWAP1 DUP1 DUP3 MSTORE DUP1 PUSH1 0x1F ADD PUSH1 0x1F NOT AND PUSH1 0x20 ADD DUP3 ADD PUSH1 0x40 MSTORE DUP1 ISZERO PUSH2 0x1FBE JUMPI DUP2 PUSH1 0x20 ADD PUSH1 0x1 DUP3 MUL DUP1 CALLDATASIZE DUP4 CALLDATACOPY DUP1 DUP3 ADD SWAP2 POP POP SWAP1 POP JUMPDEST POP SWAP1 POP PUSH1 0x40 MLOAD DUP1 PUSH1 0x40 ADD PUSH1 0x40 MSTORE DUP1 PUSH1 0xA DUP2 MSTORE PUSH1 0x20 ADD PUSH32 0x3031323334353637383900000000000000000000000000000000000000000000 DUP2 MSTORE POP SWAP1 POP PUSH1 0x0 JUMPDEST DUP5 DUP2 LT ISZERO PUSH2 0x2088 JUMPI PUSH1 0x0 PUSH2 0x2012 DUP8 PUSH1 0xA DUP5 PUSH2 0x2593 JUMP JUMPDEST SWAP1 POP DUP3 DUP2 DUP2 MLOAD DUP2 LT PUSH2 0x2027 JUMPI PUSH2 0x2026 PUSH2 0x3EF6 JUMP JUMPDEST JUMPDEST PUSH1 0x20 ADD ADD MLOAD PUSH1 0xF8 SHR PUSH1 0xF8 SHL DUP5 DUP4 DUP2 MLOAD DUP2 LT PUSH2 0x2045 JUMPI PUSH2 0x2044 PUSH2 0x3EF6 JUMP JUMPDEST JUMPDEST PUSH1 0x20 ADD ADD SWAP1 PUSH31 0xFFFFFFFFFFFFFFFFFFFFFFFFFFFFFFFFFFFFFFFFFFFFFFFFFFFFFFFFFFFFFF NOT AND SWAP1 DUP2 PUSH1 0x0 BYTE SWAP1 MSTORE8 POP POP DUP1 DUP1 PUSH2 0x2080 SWAP1 PUSH2 0x4020 JUMP JUMPDEST SWAP2 POP POP PUSH2 0x1FFC JUMP JUMPDEST POP DUP2 SWAP3 POP POP POP SWAP3 SWAP2 POP POP JUMP JUMPDEST PUSH2 0x209E DUP3 DUP3 PUSH2 0x25D5 JUMP JUMPDEST POP POP JUMP JUMPDEST PUSH1 0x0 DUP4 PUSH20 0xFFFFFFFFFFFFFFFFFFFFFFFFFFFFFFFFFFFFFFFF AND PUSH4 0x150B7A02 PUSH2 0x20C8 PUSH2 0x1ABA JUMP JUMPDEST DUP8 DUP7 DUP7 PUSH1 0x40 MLOAD DUP6 PUSH4 0xFFFFFFFF AND PUSH1 0xE0 SHL DUP2 MSTORE PUSH1 0x4 ADD PUSH2 0x20EA SWAP5 SWAP4 SWAP3 SWAP2 SWAP1 PUSH2 0x485D JUMP JUMPDEST PUSH1 0x20 PUSH1 0x40 MLOAD DUP1 DUP4 SUB DUP2 PUSH1 0x0 DUP8 GAS CALL SWAP3 POP POP POP DUP1 ISZERO PUSH2 0x2126 JUMPI POP PUSH1 0x40 MLOAD RETURNDATASIZE PUSH1 0x1F NOT PUSH1 0x1F DUP3 ADD AND DUP3 ADD DUP1 PUSH1 0x40 MSTORE POP DUP2 ADD SWAP1 PUSH2 0x2123 SWAP2 SWAP1 PUSH2 0x48BE JUMP JUMPDEST PUSH1 0x1 JUMPDEST PUSH2 0x219F JUMPI RETURNDATASIZE DUP1 PUSH1 0x0 DUP2 EQ PUSH2 0x2156 JUMPI PUSH1 0x40 MLOAD SWAP2 POP PUSH1 0x1F NOT PUSH1 0x3F RETURNDATASIZE ADD AND DUP3 ADD PUSH1 0x40 MSTORE RETURNDATASIZE DUP3 MSTORE RETURNDATASIZE PUSH1 0x0 PUSH1 0x20 DUP5 ADD RETURNDATACOPY PUSH2 0x215B JUMP JUMPDEST PUSH1 0x60 SWAP2 POP JUMPDEST POP PUSH1 0x0 DUP2 MLOAD SUB PUSH2 0x2197 JUMPI PUSH1 0x40 MLOAD PUSH32 0xD1A57ED600000000000000000000000000000000000000000000000000000000 DUP2 MSTORE PUSH1 0x4 ADD PUSH1 0x40 MLOAD DUP1 SWAP2 SUB SWAP1 REVERT JUMPDEST DUP1 MLOAD DUP2 PUSH1 0x20 ADD REVERT JUMPDEST PUSH4 0x150B7A02 PUSH1 0xE0 SHL PUSH28 0xFFFFFFFFFFFFFFFFFFFFFFFFFFFFFFFFFFFFFFFFFFFFFFFFFFFFFFFF NOT AND DUP2 PUSH28 0xFFFFFFFFFFFFFFFFFFFFFFFFFFFFFFFFFFFFFFFFFFFFFFFFFFFFFFFF NOT AND EQ SWAP2 POP POP SWAP5 SWAP4 POP POP POP POP JUMP JUMPDEST PUSH1 0x60 PUSH1 0x0 PUSH2 0x2200 DUP7 DUP6 PUSH2 0x2790 JUMP JUMPDEST SWAP1 POP PUSH1 0x60 DUP4 ISZERO PUSH2 0x224C JUMPI PUSH2 0x2213 DUP8 PUSH2 0x2877 JUMP JUMPDEST PUSH2 0x2225 PUSH2 0x2220 DUP9 DUP6 PUSH2 0x29FF JUMP JUMPDEST PUSH2 0x2D2C JUMP JUMPDEST PUSH1 0x40 MLOAD PUSH1 0x20 ADD PUSH2 0x2236 SWAP3 SWAP2 SWAP1 PUSH2 0x4A67 JUMP JUMPDEST PUSH1 0x40 MLOAD PUSH1 0x20 DUP2 DUP4 SUB SUB DUP2 MSTORE SWAP1 PUSH1 0x40 MSTORE SWAP1 POP PUSH2 0x22FC JUMP JUMPDEST PUSH2 0x2255 DUP8 PUSH2 0x2877 JUMP JUMPDEST DUP7 PUSH2 0x225F DUP8 PUSH2 0x2E8F JUMP JUMPDEST PUSH2 0x2280 DUP6 PUSH1 0x0 PUSH1 0x3 DUP2 LT PUSH2 0x2276 JUMPI PUSH2 0x2275 PUSH2 0x3EF6 JUMP JUMPDEST JUMPDEST PUSH1 0x20 MUL ADD MLOAD PUSH2 0x2877 JUMP JUMPDEST PUSH2 0x22A1 DUP7 PUSH1 0x1 PUSH1 0x3 DUP2 LT PUSH2 0x2297 JUMPI PUSH2 0x2296 PUSH2 0x3EF6 JUMP JUMPDEST JUMPDEST PUSH1 0x20 MUL ADD MLOAD PUSH2 0x2877 JUMP JUMPDEST PUSH2 0x22C2 DUP8 PUSH1 0x2 PUSH1 0x3 DUP2 LT PUSH2 0x22B8 JUMPI PUSH2 0x22B7 PUSH2 0x3EF6 JUMP JUMPDEST JUMPDEST PUSH1 0x20 MUL ADD MLOAD PUSH2 0x2877 JUMP JUMPDEST PUSH2 0x22D4 PUSH2 0x22CF DUP14 DUP11 PUSH2 0x29FF JUMP JUMPDEST PUSH2 0x2D2C JUMP JUMPDEST PUSH1 0x40 MLOAD PUSH1 0x20 ADD PUSH2 0x22EA SWAP8 SWAP7 SWAP6 SWAP5 SWAP4 SWAP3 SWAP2 SWAP1 PUSH2 0x4D32 JUMP JUMPDEST PUSH1 0x40 MLOAD PUSH1 0x20 DUP2 DUP4 SUB SUB DUP2 MSTORE SWAP1 PUSH1 0x40 MSTORE SWAP1 POP JUMPDEST PUSH2 0x2305 DUP2 PUSH2 0x2D2C JUMP JUMPDEST PUSH1 0x40 MLOAD PUSH1 0x20 ADD PUSH2 0x2315 SWAP2 SWAP1 PUSH2 0x4E3B JUMP JUMPDEST PUSH1 0x40 MLOAD PUSH1 0x20 DUP2 DUP4 SUB SUB DUP2 MSTORE SWAP1 PUSH1 0x40 MSTORE SWAP3 POP POP POP SWAP5 SWAP4 POP POP POP POP JUMP JUMPDEST PUSH1 0x0 SWAP4 SWAP3 POP POP POP JUMP JUMPDEST PUSH1 0x0 PUSH2 0x2344 DUP4 PUSH2 0x1B38 JUMP JUMPDEST SWAP1 POP PUSH1 0x0 DUP2 SWAP1 POP PUSH1 0x0 DUP1 PUSH2 0x2357 DUP7 PUSH2 0x1C04 JUMP JUMPDEST SWAP2 POP SWAP2 POP DUP5 ISZERO PUSH2 0x23C0 JUMPI PUSH2 0x2373 DUP2 DUP5 PUSH2 0x236E PUSH2 0x1ABA JUMP JUMPDEST PUSH2 0x1C2B JUMP JUMPDEST PUSH2 0x23BF JUMPI PUSH2 0x2388 DUP4 PUSH2 0x2383 PUSH2 0x1ABA JUMP JUMPDEST PUSH2 0x1944 JUMP JUMPDEST PUSH2 0x23BE JUMPI PUSH1 0x40 MLOAD PUSH32 0x59C896BE00000000000000000000000000000000000000000000000000000000 DUP2 MSTORE PUSH1 0x4 ADD PUSH1 0x40 MLOAD DUP1 SWAP2 SUB SWAP1 REVERT JUMPDEST JUMPDEST JUMPDEST PUSH2 0x23CE DUP4 PUSH1 0x0 DUP9 PUSH1 0x1 PUSH2 0x1C6F JUMP JUMPDEST DUP1 ISZERO PUSH2 0x23D9 JUMPI PUSH1 0x0 DUP3 SSTORE JUMPDEST PUSH1 0x1 PUSH1 0x80 PUSH1 0x1 SWAP1 SHL SUB PUSH1 0x5 PUSH1 0x0 DUP6 PUSH20 0xFFFFFFFFFFFFFFFFFFFFFFFFFFFFFFFFFFFFFFFF AND PUSH20 0xFFFFFFFFFFFFFFFFFFFFFFFFFFFFFFFFFFFFFFFF AND DUP2 MSTORE PUSH1 0x20 ADD SWAP1 DUP2 MSTORE PUSH1 0x20 ADD PUSH1 0x0 KECCAK256 PUSH1 0x0 DUP3 DUP3 SLOAD ADD SWAP3 POP POP DUP2 SWAP1 SSTORE POP PUSH2 0x2481 DUP4 PUSH2 0x243E DUP6 PUSH1 0x0 DUP9 PUSH2 0x1C75 JUMP JUMPDEST PUSH29 0x200000000000000000000000000000000000000000000000000000000 PUSH29 0x100000000000000000000000000000000000000000000000000000000 OR OR PUSH2 0x1C9D JUMP JUMPDEST PUSH1 0x4 PUSH1 0x0 DUP9 DUP2 MSTORE PUSH1 0x20 ADD SWAP1 DUP2 MSTORE PUSH1 0x20 ADD PUSH1 0x0 KECCAK256 DUP2 SWAP1 SSTORE POP PUSH1 0x0 PUSH29 0x200000000000000000000000000000000000000000000000000000000 DUP6 AND SUB PUSH2 0x2507 JUMPI PUSH1 0x0 PUSH1 0x1 DUP8 ADD SWAP1 POP PUSH1 0x0 PUSH1 0x4 PUSH1 0x0 DUP4 DUP2 MSTORE PUSH1 0x20 ADD SWAP1 DUP2 MSTORE PUSH1 0x20 ADD PUSH1 0x0 KECCAK256 SLOAD SUB PUSH2 0x2505 JUMPI PUSH1 0x0 SLOAD DUP2 EQ PUSH2 0x2504 JUMPI DUP5 PUSH1 0x4 PUSH1 0x0 DUP4 DUP2 MSTORE PUSH1 0x20 ADD SWAP1 DUP2 MSTORE PUSH1 0x20 ADD PUSH1 0x0 KECCAK256 DUP2 SWAP1 SSTORE POP JUMPDEST JUMPDEST POP JUMPDEST DUP6 PUSH1 0x0 PUSH20 0xFFFFFFFFFFFFFFFFFFFFFFFFFFFFFFFFFFFFFFFF AND DUP5 PUSH20 0xFFFFFFFFFFFFFFFFFFFFFFFFFFFFFFFFFFFFFFFF AND PUSH32 0xDDF252AD1BE2C89B69C2B068FC378DAA952BA7F163C4A11628F55A4DF523B3EF PUSH1 0x40 MLOAD PUSH1 0x40 MLOAD DUP1 SWAP2 SUB SWAP1 LOG4 PUSH2 0x2571 DUP4 PUSH1 0x0 DUP9 PUSH1 0x1 PUSH2 0x1CC8 JUMP JUMPDEST PUSH1 0x1 PUSH1 0x0 DUP2 SLOAD DUP1 SWAP3 SWAP2 SWAP1 PUSH1 0x1 ADD SWAP2 SWAP1 POP SSTORE POP POP POP POP POP POP POP JUMP JUMPDEST PUSH1 0x0 CALLER SWAP1 POP SWAP1 JUMP JUMPDEST PUSH1 0x0 DUP3 DUP5 DUP4 PUSH1 0x40 MLOAD PUSH1 0x20 ADD PUSH2 0x25A9 SWAP3 SWAP2 SWAP1 PUSH2 0x4E5D JUMP JUMPDEST PUSH1 0x40 MLOAD PUSH1 0x20 DUP2 DUP4 SUB SUB DUP2 MSTORE SWAP1 PUSH1 0x40 MSTORE DUP1 MLOAD SWAP1 PUSH1 0x20 ADD KECCAK256 PUSH1 0x0 SHR PUSH2 0x25CC SWAP2 SWAP1 PUSH2 0x4693 JUMP JUMPDEST SWAP1 POP SWAP4 SWAP3 POP POP POP JUMP JUMPDEST PUSH1 0x0 DUP1 SLOAD SWAP1 POP PUSH1 0x0 DUP3 SUB PUSH2 0x2615 JUMPI PUSH1 0x40 MLOAD PUSH32 0xB562E8DD00000000000000000000000000000000000000000000000000000000 DUP2 MSTORE PUSH1 0x4 ADD PUSH1 0x40 MLOAD DUP1 SWAP2 SUB SWAP1 REVERT JUMPDEST PUSH2 0x2622 PUSH1 0x0 DUP5 DUP4 DUP6 PUSH2 0x1C6F JUMP JUMPDEST PUSH1 0x1 PUSH1 0x40 PUSH1 0x1 SWAP1 SHL OR DUP3 MUL PUSH1 0x5 PUSH1 0x0 DUP6 PUSH20 0xFFFFFFFFFFFFFFFFFFFFFFFFFFFFFFFFFFFFFFFF AND PUSH20 0xFFFFFFFFFFFFFFFFFFFFFFFFFFFFFFFFFFFFFFFF AND DUP2 MSTORE PUSH1 0x20 ADD SWAP1 DUP2 MSTORE PUSH1 0x20 ADD PUSH1 0x0 KECCAK256 PUSH1 0x0 DUP3 DUP3 SLOAD ADD SWAP3 POP POP DUP2 SWAP1 SSTORE POP PUSH2 0x2699 DUP4 PUSH2 0x268A PUSH1 0x0 DUP7 PUSH1 0x0 PUSH2 0x1C75 JUMP JUMPDEST PUSH2 0x2693 DUP6 PUSH2 0x2FAA JUMP JUMPDEST OR PUSH2 0x1C9D JUMP JUMPDEST PUSH1 0x4 PUSH1 0x0 DUP4 DUP2 MSTORE PUSH1 0x20 ADD SWAP1 DUP2 MSTORE PUSH1 0x20 ADD PUSH1 0x0 KECCAK256 DUP2 SWAP1 SSTORE POP PUSH1 0x0 DUP1 DUP4 DUP4 ADD SWAP1 POP PUSH20 0xFFFFFFFFFFFFFFFFFFFFFFFFFFFFFFFFFFFFFFFF DUP6 AND SWAP2 POP DUP3 DUP3 PUSH1 0x0 PUSH32 0xDDF252AD1BE2C89B69C2B068FC378DAA952BA7F163C4A11628F55A4DF523B3EF PUSH1 0x0 DUP1 LOG4 PUSH1 0x1 DUP4 ADD JUMPDEST DUP2 DUP2 EQ PUSH2 0x273A JUMPI DUP1 DUP4 PUSH1 0x0 PUSH32 0xDDF252AD1BE2C89B69C2B068FC378DAA952BA7F163C4A11628F55A4DF523B3EF PUSH1 0x0 DUP1 LOG4 PUSH1 0x1 DUP2 ADD SWAP1 POP PUSH2 0x26FF JUMP JUMPDEST POP PUSH1 0x0 DUP3 SUB PUSH2 0x2775 JUMPI PUSH1 0x40 MLOAD PUSH32 0x2E07630000000000000000000000000000000000000000000000000000000000 DUP2 MSTORE PUSH1 0x4 ADD PUSH1 0x40 MLOAD DUP1 SWAP2 SUB SWAP1 REVERT JUMPDEST DUP1 PUSH1 0x0 DUP2 SWAP1 SSTORE POP POP POP PUSH2 0x278B PUSH1 0x0 DUP5 DUP4 DUP6 PUSH2 0x1CC8 JUMP JUMPDEST POP POP POP JUMP JUMPDEST PUSH2 0x2798 PUSH2 0x3715 JUMP JUMPDEST PUSH1 0x0 DUP3 GT ISZERO PUSH2 0x2832 JUMPI PUSH1 0x0 JUMPDEST PUSH1 0x3 DUP2 LT ISZERO PUSH2 0x282C JUMPI PUSH1 0x1 DUP2 PUSH2 0x27BA SWAP2 SWAP1 PUSH2 0x45F4 JUMP JUMPDEST DUP4 SUB PUSH2 0x27E3 JUMPI PUSH1 0xFF DUP3 DUP3 PUSH1 0x3 DUP2 LT PUSH2 0x27D5 JUMPI PUSH2 0x27D4 PUSH2 0x3EF6 JUMP JUMPDEST JUMPDEST PUSH1 0x20 MUL ADD DUP2 DUP2 MSTORE POP POP PUSH2 0x2819 JUMP JUMPDEST PUSH2 0x27FC DUP2 DUP6 PUSH2 0x27F2 SWAP2 SWAP1 PUSH2 0x45F4 JUMP JUMPDEST PUSH1 0x0 PUSH2 0x100 PUSH2 0x1CDC JUMP JUMPDEST DUP3 DUP3 PUSH1 0x3 DUP2 LT PUSH2 0x280F JUMPI PUSH2 0x280E PUSH2 0x3EF6 JUMP JUMPDEST JUMPDEST PUSH1 0x20 MUL ADD DUP2 DUP2 MSTORE POP POP JUMPDEST DUP1 DUP1 PUSH2 0x2824 SWAP1 PUSH2 0x4020 JUMP JUMPDEST SWAP2 POP POP PUSH2 0x27A4 JUMP JUMPDEST POP PUSH2 0x2871 JUMP JUMPDEST PUSH1 0x0 JUMPDEST PUSH1 0x3 DUP2 LT ISZERO PUSH2 0x286F JUMPI PUSH1 0xFF DUP3 DUP3 PUSH1 0x3 DUP2 LT PUSH2 0x2853 JUMPI PUSH2 0x2852 PUSH2 0x3EF6 JUMP JUMPDEST JUMPDEST PUSH1 0x20 MUL ADD DUP2 DUP2 MSTORE POP POP DUP1 DUP1 PUSH2 0x2867 SWAP1 PUSH2 0x4020 JUMP JUMPDEST SWAP2 POP POP PUSH2 0x2835 JUMP JUMPDEST POP JUMPDEST SWAP3 SWAP2 POP POP JUMP JUMPDEST PUSH1 0x60 PUSH1 0x0 DUP3 SUB PUSH2 0x28BE JUMPI PUSH1 0x40 MLOAD DUP1 PUSH1 0x40 ADD PUSH1 0x40 MSTORE DUP1 PUSH1 0x1 DUP2 MSTORE PUSH1 0x20 ADD PUSH32 0x3000000000000000000000000000000000000000000000000000000000000000 DUP2 MSTORE POP SWAP1 POP PUSH2 0x29FA JUMP JUMPDEST PUSH1 0x0 DUP3 SWAP1 POP PUSH1 0x0 JUMPDEST PUSH1 0x0 DUP3 EQ PUSH2 0x28F0 JUMPI DUP1 DUP1 PUSH2 0x28D9 SWAP1 PUSH2 0x4020 JUMP JUMPDEST SWAP2 POP POP PUSH1 0xA DUP3 PUSH2 0x28E9 SWAP2 SWAP1 PUSH2 0x4E89 JUMP JUMPDEST SWAP2 POP PUSH2 0x28C6 JUMP JUMPDEST PUSH1 0x0 DUP2 PUSH8 0xFFFFFFFFFFFFFFFF DUP2 GT ISZERO PUSH2 0x290C JUMPI PUSH2 0x290B PUSH2 0x3A8D JUMP JUMPDEST JUMPDEST PUSH1 0x40 MLOAD SWAP1 DUP1 DUP3 MSTORE DUP1 PUSH1 0x1F ADD PUSH1 0x1F NOT AND PUSH1 0x20 ADD DUP3 ADD PUSH1 0x40 MSTORE DUP1 ISZERO PUSH2 0x293E JUMPI DUP2 PUSH1 0x20 ADD PUSH1 0x1 DUP3 MUL DUP1 CALLDATASIZE DUP4 CALLDATACOPY DUP1 DUP3 ADD SWAP2 POP POP SWAP1 POP JUMPDEST POP SWAP1 POP PUSH1 0x0 DUP3 SWAP1 POP JUMPDEST PUSH1 0x0 DUP7 EQ PUSH2 0x29F2 JUMPI PUSH1 0x1 DUP2 PUSH2 0x295C SWAP2 SWAP1 PUSH2 0x45C0 JUMP JUMPDEST SWAP1 POP PUSH1 0x0 PUSH1 0xA DUP1 DUP9 PUSH2 0x296E SWAP2 SWAP1 PUSH2 0x4E89 JUMP JUMPDEST PUSH2 0x2978 SWAP2 SWAP1 PUSH2 0x4469 JUMP JUMPDEST DUP8 PUSH2 0x2983 SWAP2 SWAP1 PUSH2 0x45C0 JUMP JUMPDEST PUSH1 0x30 PUSH2 0x298F SWAP2 SWAP1 PUSH2 0x4EC7 JUMP JUMPDEST SWAP1 POP PUSH1 0x0 DUP2 PUSH1 0xF8 SHL SWAP1 POP DUP1 DUP5 DUP5 DUP2 MLOAD DUP2 LT PUSH2 0x29AD JUMPI PUSH2 0x29AC PUSH2 0x3EF6 JUMP JUMPDEST JUMPDEST PUSH1 0x20 ADD ADD SWAP1 PUSH31 0xFFFFFFFFFFFFFFFFFFFFFFFFFFFFFFFFFFFFFFFFFFFFFFFFFFFFFFFFFFFFFF NOT AND SWAP1 DUP2 PUSH1 0x0 BYTE SWAP1 MSTORE8 POP PUSH1 0xA DUP9 PUSH2 0x29E9 SWAP2 SWAP1 PUSH2 0x4E89 JUMP JUMPDEST SWAP8 POP POP POP PUSH2 0x2947 JUMP JUMPDEST DUP2 SWAP5 POP POP POP POP POP JUMPDEST SWAP2 SWAP1 POP JUMP JUMPDEST PUSH1 0x60 PUSH1 0x40 MLOAD DUP1 PUSH2 0xC40 ADD PUSH1 0x40 MSTORE DUP1 PUSH2 0xC19 DUP2 MSTORE PUSH1 0x20 ADD PUSH2 0x5B07 PUSH2 0xC19 SWAP2 CODECOPY SWAP1 POP PUSH1 0x0 PUSH2 0x2A42 DUP4 PUSH1 0x0 PUSH1 0x3 DUP2 LT PUSH2 0x2A38 JUMPI PUSH2 0x2A37 PUSH2 0x3EF6 JUMP JUMPDEST JUMPDEST PUSH1 0x20 MUL ADD MLOAD PUSH2 0x2877 JUMP JUMPDEST PUSH2 0x2A63 DUP5 PUSH1 0x1 PUSH1 0x3 DUP2 LT PUSH2 0x2A59 JUMPI PUSH2 0x2A58 PUSH2 0x3EF6 JUMP JUMPDEST JUMPDEST PUSH1 0x20 MUL ADD MLOAD PUSH2 0x2877 JUMP JUMPDEST PUSH2 0x2A84 DUP6 PUSH1 0x2 PUSH1 0x3 DUP2 LT PUSH2 0x2A7A JUMPI PUSH2 0x2A79 PUSH2 0x3EF6 JUMP JUMPDEST JUMPDEST PUSH1 0x20 MUL ADD MLOAD PUSH2 0x2877 JUMP JUMPDEST PUSH1 0x40 MLOAD PUSH1 0x20 ADD PUSH2 0x2A96 SWAP4 SWAP3 SWAP2 SWAP1 PUSH2 0x4F94 JUMP JUMPDEST PUSH1 0x40 MLOAD PUSH1 0x20 DUP2 DUP4 SUB SUB DUP2 MSTORE SWAP1 PUSH1 0x40 MSTORE SWAP1 POP PUSH2 0x2AC0 DUP5 PUSH1 0x40 MLOAD DUP1 PUSH1 0x20 ADD PUSH1 0x40 MSTORE DUP1 PUSH1 0x0 DUP2 MSTORE POP PUSH2 0x1AC2 JUMP JUMPDEST PUSH2 0x2D01 JUMPI PUSH1 0x0 DUP5 MLOAD SWAP1 POP PUSH1 0x0 PUSH2 0x2AD5 DUP7 PUSH2 0x2FBA JUMP JUMPDEST SWAP1 POP PUSH1 0x1 DUP3 SUB PUSH2 0x2B16 JUMPI DUP3 PUSH2 0x2AEF PUSH1 0x3 DUP4 PUSH1 0x60 ADD MLOAD PUSH2 0x312D JUMP JUMPDEST PUSH1 0x40 MLOAD PUSH1 0x20 ADD PUSH2 0x2B00 SWAP3 SWAP2 SWAP1 PUSH2 0x3FCD JUMP JUMPDEST PUSH1 0x40 MLOAD PUSH1 0x20 DUP2 DUP4 SUB SUB DUP2 MSTORE SWAP1 PUSH1 0x40 MSTORE SWAP3 POP PUSH2 0x2CFE JUMP JUMPDEST PUSH1 0x2 DUP3 SUB PUSH2 0x2B87 JUMPI DUP3 PUSH2 0x2B2E PUSH1 0x2 DUP4 PUSH1 0x40 ADD MLOAD PUSH2 0x312D JUMP JUMPDEST PUSH1 0x40 MLOAD PUSH1 0x20 ADD PUSH2 0x2B3F SWAP3 SWAP2 SWAP1 PUSH2 0x3FCD JUMP JUMPDEST PUSH1 0x40 MLOAD PUSH1 0x20 DUP2 DUP4 SUB SUB DUP2 MSTORE SWAP1 PUSH1 0x40 MSTORE SWAP3 POP DUP3 PUSH2 0x2B60 PUSH1 0x3 DUP4 PUSH1 0x60 ADD MLOAD PUSH2 0x312D JUMP JUMPDEST PUSH1 0x40 MLOAD PUSH1 0x20 ADD PUSH2 0x2B71 SWAP3 SWAP2 SWAP1 PUSH2 0x3FCD JUMP JUMPDEST PUSH1 0x40 MLOAD PUSH1 0x20 DUP2 DUP4 SUB SUB DUP2 MSTORE SWAP1 PUSH1 0x40 MSTORE SWAP3 POP PUSH2 0x2CFD JUMP JUMPDEST PUSH1 0x3 DUP3 SUB PUSH2 0x2C2A JUMPI DUP3 PUSH2 0x2B9F PUSH1 0x1 DUP4 PUSH1 0x20 ADD MLOAD PUSH2 0x312D JUMP JUMPDEST PUSH1 0x40 MLOAD PUSH1 0x20 ADD PUSH2 0x2BB0 SWAP3 SWAP2 SWAP1 PUSH2 0x3FCD JUMP JUMPDEST PUSH1 0x40 MLOAD PUSH1 0x20 DUP2 DUP4 SUB SUB DUP2 MSTORE SWAP1 PUSH1 0x40 MSTORE SWAP3 POP DUP3 PUSH2 0x2BD1 PUSH1 0x2 DUP4 PUSH1 0x40 ADD MLOAD PUSH2 0x312D JUMP JUMPDEST PUSH1 0x40 MLOAD PUSH1 0x20 ADD PUSH2 0x2BE2 SWAP3 SWAP2 SWAP1 PUSH2 0x3FCD JUMP JUMPDEST PUSH1 0x40 MLOAD PUSH1 0x20 DUP2 DUP4 SUB SUB DUP2 MSTORE SWAP1 PUSH1 0x40 MSTORE SWAP3 POP DUP3 PUSH2 0x2C03 PUSH1 0x3 DUP4 PUSH1 0x60 ADD MLOAD PUSH2 0x312D JUMP JUMPDEST PUSH1 0x40 MLOAD PUSH1 0x20 ADD PUSH2 0x2C14 SWAP3 SWAP2 SWAP1 PUSH2 0x3FCD JUMP JUMPDEST PUSH1 0x40 MLOAD PUSH1 0x20 DUP2 DUP4 SUB SUB DUP2 MSTORE SWAP1 PUSH1 0x40 MSTORE SWAP3 POP PUSH2 0x2CFC JUMP JUMPDEST PUSH1 0x4 DUP3 SUB PUSH2 0x2CFB JUMPI DUP3 PUSH2 0x2C42 PUSH1 0x0 DUP4 PUSH1 0x0 ADD MLOAD PUSH2 0x312D JUMP JUMPDEST PUSH1 0x40 MLOAD PUSH1 0x20 ADD PUSH2 0x2C53 SWAP3 SWAP2 SWAP1 PUSH2 0x3FCD JUMP JUMPDEST PUSH1 0x40 MLOAD PUSH1 0x20 DUP2 DUP4 SUB SUB DUP2 MSTORE SWAP1 PUSH1 0x40 MSTORE SWAP3 POP DUP3 PUSH2 0x2C74 PUSH1 0x1 DUP4 PUSH1 0x20 ADD MLOAD PUSH2 0x312D JUMP JUMPDEST PUSH1 0x40 MLOAD PUSH1 0x20 ADD PUSH2 0x2C85 SWAP3 SWAP2 SWAP1 PUSH2 0x3FCD JUMP JUMPDEST PUSH1 0x40 MLOAD PUSH1 0x20 DUP2 DUP4 SUB SUB DUP2 MSTORE SWAP1 PUSH1 0x40 MSTORE SWAP3 POP DUP3 PUSH2 0x2CA6 PUSH1 0x2 DUP4 PUSH1 0x40 ADD MLOAD PUSH2 0x312D JUMP JUMPDEST PUSH1 0x40 MLOAD PUSH1 0x20 ADD PUSH2 0x2CB7 SWAP3 SWAP2 SWAP1 PUSH2 0x3FCD JUMP JUMPDEST PUSH1 0x40 MLOAD PUSH1 0x20 DUP2 DUP4 SUB SUB DUP2 MSTORE SWAP1 PUSH1 0x40 MSTORE SWAP3 POP DUP3 PUSH2 0x2CD8 PUSH1 0x3 DUP4 PUSH1 0x60 ADD MLOAD PUSH2 0x312D JUMP JUMPDEST PUSH1 0x40 MLOAD PUSH1 0x20 ADD PUSH2 0x2CE9 SWAP3 SWAP2 SWAP1 PUSH2 0x3FCD JUMP JUMPDEST PUSH1 0x40 MLOAD PUSH1 0x20 DUP2 DUP4 SUB SUB DUP2 MSTORE SWAP1 PUSH1 0x40 MSTORE SWAP3 POP JUMPDEST JUMPDEST JUMPDEST JUMPDEST POP POP JUMPDEST DUP2 DUP2 PUSH1 0x40 MLOAD PUSH1 0x20 ADD PUSH2 0x2D14 SWAP3 SWAP2 SWAP1 PUSH2 0x503D JUMP JUMPDEST PUSH1 0x40 MLOAD PUSH1 0x20 DUP2 DUP4 SUB SUB DUP2 MSTORE SWAP1 PUSH1 0x40 MSTORE SWAP2 POP POP SWAP3 SWAP2 POP POP JUMP JUMPDEST PUSH1 0x60 PUSH1 0x0 DUP3 MLOAD SUB PUSH2 0x2D4E JUMPI PUSH1 0x40 MLOAD DUP1 PUSH1 0x20 ADD PUSH1 0x40 MSTORE DUP1 PUSH1 0x0 DUP2 MSTORE POP SWAP1 POP PUSH2 0x2E8A JUMP JUMPDEST PUSH1 0x0 PUSH1 0x40 MLOAD DUP1 PUSH1 0x60 ADD PUSH1 0x40 MSTORE DUP1 PUSH1 0x40 DUP2 MSTORE PUSH1 0x20 ADD PUSH2 0x5AC7 PUSH1 0x40 SWAP2 CODECOPY SWAP1 POP PUSH1 0x0 PUSH1 0x3 PUSH1 0x2 DUP6 MLOAD PUSH2 0x2D7D SWAP2 SWAP1 PUSH2 0x45F4 JUMP JUMPDEST PUSH2 0x2D87 SWAP2 SWAP1 PUSH2 0x4E89 JUMP JUMPDEST PUSH1 0x4 PUSH2 0x2D93 SWAP2 SWAP1 PUSH2 0x4469 JUMP JUMPDEST PUSH8 0xFFFFFFFFFFFFFFFF DUP2 GT ISZERO PUSH2 0x2DAC JUMPI PUSH2 0x2DAB PUSH2 0x3A8D JUMP JUMPDEST JUMPDEST PUSH1 0x40 MLOAD SWAP1 DUP1 DUP3 MSTORE DUP1 PUSH1 0x1F ADD PUSH1 0x1F NOT AND PUSH1 0x20 ADD DUP3 ADD PUSH1 0x40 MSTORE DUP1 ISZERO PUSH2 0x2DDE JUMPI DUP2 PUSH1 0x20 ADD PUSH1 0x1 DUP3 MUL DUP1 CALLDATASIZE DUP4 CALLDATACOPY DUP1 DUP3 ADD SWAP2 POP POP SWAP1 POP JUMPDEST POP SWAP1 POP PUSH1 0x1 DUP3 ADD PUSH1 0x20 DUP3 ADD DUP6 DUP7 MLOAD DUP8 ADD JUMPDEST DUP1 DUP3 LT ISZERO PUSH2 0x2E4A JUMPI PUSH1 0x3 DUP3 ADD SWAP2 POP DUP2 MLOAD PUSH1 0x3F DUP2 PUSH1 0x12 SHR AND DUP6 ADD MLOAD DUP5 MSTORE8 PUSH1 0x1 DUP5 ADD SWAP4 POP PUSH1 0x3F DUP2 PUSH1 0xC SHR AND DUP6 ADD MLOAD DUP5 MSTORE8 PUSH1 0x1 DUP5 ADD SWAP4 POP PUSH1 0x3F DUP2 PUSH1 0x6 SHR AND DUP6 ADD MLOAD DUP5 MSTORE8 PUSH1 0x1 DUP5 ADD SWAP4 POP PUSH1 0x3F DUP2 AND DUP6 ADD MLOAD DUP5 MSTORE8 PUSH1 0x1 DUP5 ADD SWAP4 POP POP PUSH2 0x2DEF JUMP JUMPDEST POP POP PUSH1 0x3 DUP7 MLOAD MOD PUSH1 0x1 DUP2 EQ PUSH2 0x2E66 JUMPI PUSH1 0x2 DUP2 EQ PUSH2 0x2E79 JUMPI PUSH2 0x2E81 JUMP JUMPDEST PUSH1 0x3D PUSH1 0x1 DUP4 SUB MSTORE8 PUSH1 0x3D PUSH1 0x2 DUP4 SUB MSTORE8 PUSH2 0x2E81 JUMP JUMPDEST PUSH1 0x3D PUSH1 0x1 DUP4 SUB MSTORE8 JUMPDEST POP POP POP DUP1 SWAP3 POP POP POP JUMPDEST SWAP2 SWAP1 POP JUMP JUMPDEST PUSH1 0x60 PUSH1 0x0 PUSH1 0x40 MLOAD DUP1 PUSH1 0x80 ADD PUSH1 0x40 MSTORE DUP1 PUSH1 0x40 MLOAD DUP1 PUSH1 0x40 ADD PUSH1 0x40 MSTORE DUP1 PUSH1 0x5 DUP2 MSTORE PUSH1 0x20 ADD PUSH32 0x5768697465000000000000000000000000000000000000000000000000000000 DUP2 MSTORE POP DUP2 MSTORE PUSH1 0x20 ADD PUSH1 0x40 MLOAD DUP1 PUSH1 0x40 ADD PUSH1 0x40 MSTORE DUP1 PUSH1 0x3 DUP2 MSTORE PUSH1 0x20 ADD PUSH32 0x5265640000000000000000000000000000000000000000000000000000000000 DUP2 MSTORE POP DUP2 MSTORE PUSH1 0x20 ADD PUSH1 0x40 MLOAD DUP1 PUSH1 0x40 ADD PUSH1 0x40 MSTORE DUP1 PUSH1 0x5 DUP2 MSTORE PUSH1 0x20 ADD PUSH32 0x477265656E000000000000000000000000000000000000000000000000000000 DUP2 MSTORE POP DUP2 MSTORE PUSH1 0x20 ADD PUSH1 0x40 MLOAD DUP1 PUSH1 0x40 ADD PUSH1 0x40 MSTORE DUP1 PUSH1 0x4 DUP2 MSTORE PUSH1 0x20 ADD PUSH32 0x426C756500000000000000000000000000000000000000000000000000000000 DUP2 MSTORE POP DUP2 MSTORE POP SWAP1 POP DUP1 DUP4 PUSH1 0x4 DUP2 LT PUSH2 0x2F9D JUMPI PUSH2 0x2F9C PUSH2 0x3EF6 JUMP JUMPDEST JUMPDEST PUSH1 0x20 MUL ADD MLOAD SWAP2 POP POP SWAP2 SWAP1 POP JUMP JUMPDEST PUSH1 0x0 PUSH1 0x1 DUP3 EQ PUSH1 0xE1 SHL SWAP1 POP SWAP2 SWAP1 POP JUMP JUMPDEST PUSH2 0x2FC2 PUSH2 0x3737 JUMP JUMPDEST PUSH1 0x0 PUSH2 0x2FCD DUP4 PUSH2 0x3602 JUMP JUMPDEST SWAP1 POP PUSH1 0x0 JUMPDEST DUP2 MLOAD DUP2 LT ISZERO PUSH2 0x3126 JUMPI PUSH1 0x0 DUP2 SUB PUSH2 0x3029 JUMPI DUP2 DUP2 DUP2 MLOAD DUP2 LT PUSH2 0x2FF6 JUMPI PUSH2 0x2FF5 PUSH2 0x3EF6 JUMP JUMPDEST JUMPDEST PUSH1 0x20 ADD ADD MLOAD PUSH1 0xF8 SHR PUSH1 0xF8 SHL PUSH1 0x40 MLOAD PUSH1 0x20 ADD PUSH2 0x3011 SWAP2 SWAP1 PUSH2 0x50B9 JUMP JUMPDEST PUSH1 0x40 MLOAD PUSH1 0x20 DUP2 DUP4 SUB SUB DUP2 MSTORE SWAP1 PUSH1 0x40 MSTORE DUP4 PUSH1 0x60 ADD DUP2 SWAP1 MSTORE POP JUMPDEST PUSH1 0x1 DUP2 SUB PUSH2 0x3077 JUMPI DUP2 DUP2 DUP2 MLOAD DUP2 LT PUSH2 0x3044 JUMPI PUSH2 0x3043 PUSH2 0x3EF6 JUMP JUMPDEST JUMPDEST PUSH1 0x20 ADD ADD MLOAD PUSH1 0xF8 SHR PUSH1 0xF8 SHL PUSH1 0x40 MLOAD PUSH1 0x20 ADD PUSH2 0x305F SWAP2 SWAP1 PUSH2 0x50B9 JUMP JUMPDEST PUSH1 0x40 MLOAD PUSH1 0x20 DUP2 DUP4 SUB SUB DUP2 MSTORE SWAP1 PUSH1 0x40 MSTORE DUP4 PUSH1 0x40 ADD DUP2 SWAP1 MSTORE POP JUMPDEST PUSH1 0x2 DUP2 SUB PUSH2 0x30C5 JUMPI DUP2 DUP2 DUP2 MLOAD DUP2 LT PUSH2 0x3092 JUMPI PUSH2 0x3091 PUSH2 0x3EF6 JUMP JUMPDEST JUMPDEST PUSH1 0x20 ADD ADD MLOAD PUSH1 0xF8 SHR PUSH1 0xF8 SHL PUSH1 0x40 MLOAD PUSH1 0x20 ADD PUSH2 0x30AD SWAP2 SWAP1 PUSH2 0x50B9 JUMP JUMPDEST PUSH1 0x40 MLOAD PUSH1 0x20 DUP2 DUP4 SUB SUB DUP2 MSTORE SWAP1 PUSH1 0x40 MSTORE DUP4 PUSH1 0x20 ADD DUP2 SWAP1 MSTORE POP JUMPDEST PUSH1 0x3 DUP2 SUB PUSH2 0x3113 JUMPI DUP2 DUP2 DUP2 MLOAD DUP2 LT PUSH2 0x30E0 JUMPI PUSH2 0x30DF PUSH2 0x3EF6 JUMP JUMPDEST JUMPDEST PUSH1 0x20 ADD ADD MLOAD PUSH1 0xF8 SHR PUSH1 0xF8 SHL PUSH1 0x40 MLOAD PUSH1 0x20 ADD PUSH2 0x30FB SWAP2 SWAP1 PUSH2 0x50B9 JUMP JUMPDEST PUSH1 0x40 MLOAD PUSH1 0x20 DUP2 DUP4 SUB SUB DUP2 MSTORE SWAP1 PUSH1 0x40 MSTORE DUP4 PUSH1 0x0 ADD DUP2 SWAP1 MSTORE POP JUMPDEST DUP1 DUP1 PUSH2 0x311E SWAP1 PUSH2 0x4020 JUMP JUMPDEST SWAP2 POP POP PUSH2 0x2FD2 JUMP JUMPDEST POP POP SWAP2 SWAP1 POP JUMP JUMPDEST PUSH1 0x60 PUSH1 0x0 PUSH2 0x313A DUP5 PUSH2 0x2877 JUMP JUMPDEST SWAP1 POP PUSH2 0x317B DUP4 PUSH1 0x40 MLOAD DUP1 PUSH1 0x40 ADD PUSH1 0x40 MSTORE DUP1 PUSH1 0x1 DUP2 MSTORE PUSH1 0x20 ADD PUSH32 0x3000000000000000000000000000000000000000000000000000000000000000 DUP2 MSTORE POP PUSH2 0x1AC2 JUMP JUMPDEST ISZERO PUSH2 0x31B2 JUMPI DUP1 DUP2 DUP3 DUP4 DUP5 DUP6 PUSH1 0x40 MLOAD PUSH1 0x20 ADD PUSH2 0x319B SWAP7 SWAP6 SWAP5 SWAP4 SWAP3 SWAP2 SWAP1 PUSH2 0x52E8 JUMP JUMPDEST PUSH1 0x40 MLOAD PUSH1 0x20 DUP2 DUP4 SUB SUB DUP2 MSTORE SWAP1 PUSH1 0x40 MSTORE SWAP2 POP POP PUSH2 0x35FC JUMP JUMPDEST PUSH2 0x31F1 DUP4 PUSH1 0x40 MLOAD DUP1 PUSH1 0x40 ADD PUSH1 0x40 MSTORE DUP1 PUSH1 0x1 DUP2 MSTORE PUSH1 0x20 ADD PUSH32 0x3100000000000000000000000000000000000000000000000000000000000000 DUP2 MSTORE POP PUSH2 0x1AC2 JUMP JUMPDEST ISZERO PUSH2 0x3220 JUMPI DUP1 DUP2 PUSH1 0x40 MLOAD PUSH1 0x20 ADD PUSH2 0x3209 SWAP3 SWAP2 SWAP1 PUSH2 0x5410 JUMP JUMPDEST PUSH1 0x40 MLOAD PUSH1 0x20 DUP2 DUP4 SUB SUB DUP2 MSTORE SWAP1 PUSH1 0x40 MSTORE SWAP2 POP POP PUSH2 0x35FC JUMP JUMPDEST PUSH2 0x325F DUP4 PUSH1 0x40 MLOAD DUP1 PUSH1 0x40 ADD PUSH1 0x40 MSTORE DUP1 PUSH1 0x1 DUP2 MSTORE PUSH1 0x20 ADD PUSH32 0x3200000000000000000000000000000000000000000000000000000000000000 DUP2 MSTORE POP PUSH2 0x1AC2 JUMP JUMPDEST ISZERO PUSH2 0x3294 JUMPI DUP1 DUP2 DUP3 DUP4 DUP5 PUSH1 0x40 MLOAD PUSH1 0x20 ADD PUSH2 0x327D SWAP6 SWAP5 SWAP4 SWAP3 SWAP2 SWAP1 PUSH2 0x54AC JUMP JUMPDEST PUSH1 0x40 MLOAD PUSH1 0x20 DUP2 DUP4 SUB SUB DUP2 MSTORE SWAP1 PUSH1 0x40 MSTORE SWAP2 POP POP PUSH2 0x35FC JUMP JUMPDEST PUSH2 0x32D3 DUP4 PUSH1 0x40 MLOAD DUP1 PUSH1 0x40 ADD PUSH1 0x40 MSTORE DUP1 PUSH1 0x1 DUP2 MSTORE PUSH1 0x20 ADD PUSH32 0x3300000000000000000000000000000000000000000000000000000000000000 DUP2 MSTORE POP PUSH2 0x1AC2 JUMP JUMPDEST ISZERO PUSH2 0x3308 JUMPI DUP1 DUP2 DUP3 DUP4 DUP5 PUSH1 0x40 MLOAD PUSH1 0x20 ADD PUSH2 0x32F1 SWAP6 SWAP5 SWAP4 SWAP3 SWAP2 SWAP1 PUSH2 0x5565 JUMP JUMPDEST PUSH1 0x40 MLOAD PUSH1 0x20 DUP2 DUP4 SUB SUB DUP2 MSTORE SWAP1 PUSH1 0x40 MSTORE SWAP2 POP POP PUSH2 0x35FC JUMP JUMPDEST PUSH2 0x3347 DUP4 PUSH1 0x40 MLOAD DUP1 PUSH1 0x40 ADD PUSH1 0x40 MSTORE DUP1 PUSH1 0x1 DUP2 MSTORE PUSH1 0x20 ADD PUSH32 0x3400000000000000000000000000000000000000000000000000000000000000 DUP2 MSTORE POP PUSH2 0x1AC2 JUMP JUMPDEST ISZERO PUSH2 0x337A JUMPI DUP1 DUP2 DUP3 DUP4 PUSH1 0x40 MLOAD PUSH1 0x20 ADD PUSH2 0x3363 SWAP5 SWAP4 SWAP3 SWAP2 SWAP1 PUSH2 0x561E JUMP JUMPDEST PUSH1 0x40 MLOAD PUSH1 0x20 DUP2 DUP4 SUB SUB DUP2 MSTORE SWAP1 PUSH1 0x40 MSTORE SWAP2 POP POP PUSH2 0x35FC JUMP JUMPDEST PUSH2 0x33B9 DUP4 PUSH1 0x40 MLOAD DUP1 PUSH1 0x40 ADD PUSH1 0x40 MSTORE DUP1 PUSH1 0x1 DUP2 MSTORE PUSH1 0x20 ADD PUSH32 0x3500000000000000000000000000000000000000000000000000000000000000 DUP2 MSTORE POP PUSH2 0x1AC2 JUMP JUMPDEST ISZERO PUSH2 0x33EE JUMPI DUP1 DUP2 DUP3 DUP4 DUP5 PUSH1 0x40 MLOAD PUSH1 0x20 ADD PUSH2 0x33D7 SWAP6 SWAP5 SWAP4 SWAP3 SWAP2 SWAP1 PUSH2 0x56B4 JUMP JUMPDEST PUSH1 0x40 MLOAD PUSH1 0x20 DUP2 DUP4 SUB SUB DUP2 MSTORE SWAP1 PUSH1 0x40 MSTORE SWAP2 POP POP PUSH2 0x35FC JUMP JUMPDEST PUSH2 0x342D DUP4 PUSH1 0x40 MLOAD DUP1 PUSH1 0x40 ADD PUSH1 0x40 MSTORE DUP1 PUSH1 0x1 DUP2 MSTORE PUSH1 0x20 ADD PUSH32 0x3600000000000000000000000000000000000000000000000000000000000000 DUP2 MSTORE POP PUSH2 0x1AC2 JUMP JUMPDEST ISZERO PUSH2 0x3464 JUMPI DUP1 DUP2 DUP3 DUP4 DUP5 DUP6 PUSH1 0x40 MLOAD PUSH1 0x20 ADD PUSH2 0x344D SWAP7 SWAP6 SWAP5 SWAP4 SWAP3 SWAP2 SWAP1 PUSH2 0x576D JUMP JUMPDEST PUSH1 0x40 MLOAD PUSH1 0x20 DUP2 DUP4 SUB SUB DUP2 MSTORE SWAP1 PUSH1 0x40 MSTORE SWAP2 POP POP PUSH2 0x35FC JUMP JUMPDEST PUSH2 0x34A3 DUP4 PUSH1 0x40 MLOAD DUP1 PUSH1 0x40 ADD PUSH1 0x40 MSTORE DUP1 PUSH1 0x1 DUP2 MSTORE PUSH1 0x20 ADD PUSH32 0x3700000000000000000000000000000000000000000000000000000000000000 DUP2 MSTORE POP PUSH2 0x1AC2 JUMP JUMPDEST ISZERO PUSH2 0x34D4 JUMPI DUP1 DUP2 DUP3 PUSH1 0x40 MLOAD PUSH1 0x20 ADD PUSH2 0x34BD SWAP4 SWAP3 SWAP2 SWAP1 PUSH2 0x5849 JUMP JUMPDEST PUSH1 0x40 MLOAD PUSH1 0x20 DUP2 DUP4 SUB SUB DUP2 MSTORE SWAP1 PUSH1 0x40 MSTORE SWAP2 POP POP PUSH2 0x35FC JUMP JUMPDEST PUSH2 0x3513 DUP4 PUSH1 0x40 MLOAD DUP1 PUSH1 0x40 ADD PUSH1 0x40 MSTORE DUP1 PUSH1 0x1 DUP2 MSTORE PUSH1 0x20 ADD PUSH32 0x3800000000000000000000000000000000000000000000000000000000000000 DUP2 MSTORE POP PUSH2 0x1AC2 JUMP JUMPDEST ISZERO PUSH2 0x354C JUMPI DUP1 DUP2 DUP3 DUP4 DUP5 DUP6 DUP7 PUSH1 0x40 MLOAD PUSH1 0x20 ADD PUSH2 0x3535 SWAP8 SWAP7 SWAP6 SWAP5 SWAP4 SWAP3 SWAP2 SWAP1 PUSH2 0x58BC JUMP JUMPDEST PUSH1 0x40 MLOAD PUSH1 0x20 DUP2 DUP4 SUB SUB DUP2 MSTORE SWAP1 PUSH1 0x40 MSTORE SWAP2 POP POP PUSH2 0x35FC JUMP JUMPDEST PUSH2 0x358B DUP4 PUSH1 0x40 MLOAD DUP1 PUSH1 0x40 ADD PUSH1 0x40 MSTORE DUP1 PUSH1 0x1 DUP2 MSTORE PUSH1 0x20 ADD PUSH32 0x3900000000000000000000000000000000000000000000000000000000000000 DUP2 MSTORE POP PUSH2 0x1AC2 JUMP JUMPDEST ISZERO PUSH2 0x35C2 JUMPI DUP1 DUP2 DUP3 DUP4 DUP5 DUP6 PUSH1 0x40 MLOAD PUSH1 0x20 ADD PUSH2 0x35AB SWAP7 SWAP6 SWAP5 SWAP4 SWAP3 SWAP2 SWAP1 PUSH2 0x59BB JUMP JUMPDEST PUSH1 0x40 MLOAD PUSH1 0x20 DUP2 DUP4 SUB SUB DUP2 MSTORE SWAP1 PUSH1 0x40 MSTORE SWAP2 POP POP PUSH2 0x35FC JUMP JUMPDEST PUSH1 0x40 MLOAD DUP1 PUSH1 0x40 ADD PUSH1 0x40 MSTORE DUP1 PUSH1 0x5 DUP2 MSTORE PUSH1 0x20 ADD PUSH32 0x6572726F72000000000000000000000000000000000000000000000000000000 DUP2 MSTORE POP SWAP2 POP POP JUMPDEST SWAP3 SWAP2 POP POP JUMP JUMPDEST PUSH1 0x60 PUSH1 0x0 DUP3 SWAP1 POP PUSH1 0x0 DUP2 MLOAD GT PUSH2 0x361B JUMPI PUSH2 0x361A PUSH2 0x5A97 JUMP JUMPDEST JUMPDEST PUSH1 0x0 DUP2 MLOAD PUSH8 0xFFFFFFFFFFFFFFFF DUP2 GT ISZERO PUSH2 0x3638 JUMPI PUSH2 0x3637 PUSH2 0x3A8D JUMP JUMPDEST JUMPDEST PUSH1 0x40 MLOAD SWAP1 DUP1 DUP3 MSTORE DUP1 PUSH1 0x1F ADD PUSH1 0x1F NOT AND PUSH1 0x20 ADD DUP3 ADD PUSH1 0x40 MSTORE DUP1 ISZERO PUSH2 0x366A JUMPI DUP2 PUSH1 0x20 ADD PUSH1 0x1 DUP3 MUL DUP1 CALLDATASIZE DUP4 CALLDATACOPY DUP1 DUP3 ADD SWAP2 POP POP SWAP1 POP JUMPDEST POP SWAP1 POP PUSH1 0x0 DUP2 SWAP1 POP PUSH1 0x0 JUMPDEST DUP4 MLOAD DUP2 LT ISZERO PUSH2 0x3709 JUMPI DUP4 DUP2 DUP2 MLOAD DUP2 LT PUSH2 0x3691 JUMPI PUSH2 0x3690 PUSH2 0x3EF6 JUMP JUMPDEST JUMPDEST PUSH1 0x20 ADD ADD MLOAD PUSH1 0xF8 SHR PUSH1 0xF8 SHL DUP3 PUSH1 0x1 DUP4 DUP8 MLOAD PUSH2 0x36AC SWAP2 SWAP1 PUSH2 0x45C0 JUMP JUMPDEST PUSH2 0x36B6 SWAP2 SWAP1 PUSH2 0x45C0 JUMP JUMPDEST DUP2 MLOAD DUP2 LT PUSH2 0x36C7 JUMPI PUSH2 0x36C6 PUSH2 0x3EF6 JUMP JUMPDEST JUMPDEST PUSH1 0x20 ADD ADD SWAP1 PUSH31 0xFFFFFFFFFFFFFFFFFFFFFFFFFFFFFFFFFFFFFFFFFFFFFFFFFFFFFFFFFFFFFF NOT AND SWAP1 DUP2 PUSH1 0x0 BYTE SWAP1 MSTORE8 POP DUP1 DUP1 PUSH2 0x3701 SWAP1 PUSH2 0x4020 JUMP JUMPDEST SWAP2 POP POP PUSH2 0x3675 JUMP JUMPDEST POP DUP1 SWAP4 POP POP POP POP SWAP2 SWAP1 POP JUMP JUMPDEST PUSH1 0x40 MLOAD DUP1 PUSH1 0x60 ADD PUSH1 0x40 MSTORE DUP1 PUSH1 0x3 SWAP1 PUSH1 0x20 DUP3 MUL DUP1 CALLDATASIZE DUP4 CALLDATACOPY DUP1 DUP3 ADD SWAP2 POP POP SWAP1 POP POP SWAP1 JUMP JUMPDEST PUSH1 0x40 MLOAD DUP1 PUSH1 0x80 ADD PUSH1 0x40 MSTORE DUP1 PUSH1 0x60 DUP2 MSTORE PUSH1 0x20 ADD PUSH1 0x60 DUP2 MSTORE PUSH1 0x20 ADD PUSH1 0x60 DUP2 MSTORE PUSH1 0x20 ADD PUSH1 0x60 DUP2 MSTORE POP SWAP1 JUMP JUMPDEST PUSH1 0x0 PUSH1 0x40 MLOAD SWAP1 POP SWAP1 JUMP JUMPDEST PUSH1 0x0 DUP1 REVERT JUMPDEST PUSH1 0x0 DUP1 REVERT JUMPDEST PUSH1 0x0 PUSH32 0xFFFFFFFF00000000000000000000000000000000000000000000000000000000 DUP3 AND SWAP1 POP SWAP2 SWAP1 POP JUMP JUMPDEST PUSH2 0x37A8 DUP2 PUSH2 0x3773 JUMP JUMPDEST DUP2 EQ PUSH2 0x37B3 JUMPI PUSH1 0x0 DUP1 REVERT JUMPDEST POP JUMP JUMPDEST PUSH1 0x0 DUP2 CALLDATALOAD SWAP1 POP PUSH2 0x37C5 DUP2 PUSH2 0x379F JUMP JUMPDEST SWAP3 SWAP2 POP POP JUMP JUMPDEST PUSH1 0x0 PUSH1 0x20 DUP3 DUP5 SUB SLT ISZERO PUSH2 0x37E1 JUMPI PUSH2 0x37E0 PUSH2 0x3769 JUMP JUMPDEST JUMPDEST PUSH1 0x0 PUSH2 0x37EF DUP5 DUP3 DUP6 ADD PUSH2 0x37B6 JUMP JUMPDEST SWAP2 POP POP SWAP3 SWAP2 POP POP JUMP JUMPDEST PUSH1 0x0 DUP2 ISZERO ISZERO SWAP1 POP SWAP2 SWAP1 POP JUMP JUMPDEST PUSH2 0x380D DUP2 PUSH2 0x37F8 JUMP JUMPDEST DUP3 MSTORE POP POP JUMP JUMPDEST PUSH1 0x0 PUSH1 0x20 DUP3 ADD SWAP1 POP PUSH2 0x3828 PUSH1 0x0 DUP4 ADD DUP5 PUSH2 0x3804 JUMP JUMPDEST SWAP3 SWAP2 POP POP JUMP JUMPDEST PUSH1 0x0 DUP2 MLOAD SWAP1 POP SWAP2 SWAP1 POP JUMP JUMPDEST PUSH1 0x0 DUP3 DUP3 MSTORE PUSH1 0x20 DUP3 ADD SWAP1 POP SWAP3 SWAP2 POP POP JUMP JUMPDEST PUSH1 0x0 JUMPDEST DUP4 DUP2 LT ISZERO PUSH2 0x3868 JUMPI DUP1 DUP3 ADD MLOAD DUP2 DUP5 ADD MSTORE PUSH1 0x20 DUP2 ADD SWAP1 POP PUSH2 0x384D JUMP JUMPDEST PUSH1 0x0 DUP5 DUP5 ADD MSTORE POP POP POP POP JUMP JUMPDEST PUSH1 0x0 PUSH1 0x1F NOT PUSH1 0x1F DUP4 ADD AND SWAP1 POP SWAP2 SWAP1 POP JUMP JUMPDEST PUSH1 0x0 PUSH2 0x3890 DUP3 PUSH2 0x382E JUMP JUMPDEST PUSH2 0x389A DUP2 DUP6 PUSH2 0x3839 JUMP JUMPDEST SWAP4 POP PUSH2 0x38AA DUP2 DUP6 PUSH1 0x20 DUP7 ADD PUSH2 0x384A JUMP JUMPDEST PUSH2 0x38B3 DUP2 PUSH2 0x3874 JUMP JUMPDEST DUP5 ADD SWAP2 POP POP SWAP3 SWAP2 POP POP JUMP JUMPDEST PUSH1 0x0 PUSH1 0x20 DUP3 ADD SWAP1 POP DUP2 DUP2 SUB PUSH1 0x0 DUP4 ADD MSTORE PUSH2 0x38D8 DUP2 DUP5 PUSH2 0x3885 JUMP JUMPDEST SWAP1 POP SWAP3 SWAP2 POP POP JUMP JUMPDEST PUSH1 0x0 DUP2 SWAP1 POP SWAP2 SWAP1 POP JUMP JUMPDEST PUSH2 0x38F3 DUP2 PUSH2 0x38E0 JUMP JUMPDEST DUP2 EQ PUSH2 0x38FE JUMPI PUSH1 0x0 DUP1 REVERT JUMPDEST POP JUMP JUMPDEST PUSH1 0x0 DUP2 CALLDATALOAD SWAP1 POP PUSH2 0x3910 DUP2 PUSH2 0x38EA JUMP JUMPDEST SWAP3 SWAP2 POP POP JUMP JUMPDEST PUSH1 0x0 PUSH1 0x20 DUP3 DUP5 SUB SLT ISZERO PUSH2 0x392C JUMPI PUSH2 0x392B PUSH2 0x3769 JUMP JUMPDEST JUMPDEST PUSH1 0x0 PUSH2 0x393A DUP5 DUP3 DUP6 ADD PUSH2 0x3901 JUMP JUMPDEST SWAP2 POP POP SWAP3 SWAP2 POP POP JUMP JUMPDEST PUSH1 0x0 PUSH20 0xFFFFFFFFFFFFFFFFFFFFFFFFFFFFFFFFFFFFFFFF DUP3 AND SWAP1 POP SWAP2 SWAP1 POP JUMP JUMPDEST PUSH1 0x0 PUSH2 0x396E DUP3 PUSH2 0x3943 JUMP JUMPDEST SWAP1 POP SWAP2 SWAP1 POP JUMP JUMPDEST PUSH2 0x397E DUP2 PUSH2 0x3963 JUMP JUMPDEST DUP3 MSTORE POP POP JUMP JUMPDEST PUSH1 0x0 PUSH1 0x20 DUP3 ADD SWAP1 POP PUSH2 0x3999 PUSH1 0x0 DUP4 ADD DUP5 PUSH2 0x3975 JUMP JUMPDEST SWAP3 SWAP2 POP POP JUMP JUMPDEST PUSH2 0x39A8 DUP2 PUSH2 0x3963 JUMP JUMPDEST DUP2 EQ PUSH2 0x39B3 JUMPI PUSH1 0x0 DUP1 REVERT JUMPDEST POP JUMP JUMPDEST PUSH1 0x0 DUP2 CALLDATALOAD SWAP1 POP PUSH2 0x39C5 DUP2 PUSH2 0x399F JUMP JUMPDEST SWAP3 SWAP2 POP POP JUMP JUMPDEST PUSH1 0x0 DUP1 PUSH1 0x40 DUP4 DUP6 SUB SLT ISZERO PUSH2 0x39E2 JUMPI PUSH2 0x39E1 PUSH2 0x3769 JUMP JUMPDEST JUMPDEST PUSH1 0x0 PUSH2 0x39F0 DUP6 DUP3 DUP7 ADD PUSH2 0x39B6 JUMP JUMPDEST SWAP3 POP POP PUSH1 0x20 PUSH2 0x3A01 DUP6 DUP3 DUP7 ADD PUSH2 0x3901 JUMP JUMPDEST SWAP2 POP POP SWAP3 POP SWAP3 SWAP1 POP JUMP JUMPDEST PUSH2 0x3A14 DUP2 PUSH2 0x38E0 JUMP JUMPDEST DUP3 MSTORE POP POP JUMP JUMPDEST PUSH1 0x0 PUSH1 0x20 DUP3 ADD SWAP1 POP PUSH2 0x3A2F PUSH1 0x0 DUP4 ADD DUP5 PUSH2 0x3A0B JUMP JUMPDEST SWAP3 SWAP2 POP POP JUMP JUMPDEST PUSH1 0x0 DUP1 PUSH1 0x0 PUSH1 0x60 DUP5 DUP7 SUB SLT ISZERO PUSH2 0x3A4E JUMPI PUSH2 0x3A4D PUSH2 0x3769 JUMP JUMPDEST JUMPDEST PUSH1 0x0 PUSH2 0x3A5C DUP7 DUP3 DUP8 ADD PUSH2 0x39B6 JUMP JUMPDEST SWAP4 POP POP PUSH1 0x20 PUSH2 0x3A6D DUP7 DUP3 DUP8 ADD PUSH2 0x39B6 JUMP JUMPDEST SWAP3 POP POP PUSH1 0x40 PUSH2 0x3A7E DUP7 DUP3 DUP8 ADD PUSH2 0x3901 JUMP JUMPDEST SWAP2 POP POP SWAP3 POP SWAP3 POP SWAP3 JUMP JUMPDEST PUSH1 0x0 DUP1 REVERT JUMPDEST PUSH32 0x4E487B7100000000000000000000000000000000000000000000000000000000 PUSH1 0x0 MSTORE PUSH1 0x41 PUSH1 0x4 MSTORE PUSH1 0x24 PUSH1 0x0 REVERT JUMPDEST PUSH2 0x3AC5 DUP3 PUSH2 0x3874 JUMP JUMPDEST DUP2 ADD DUP2 DUP2 LT PUSH8 0xFFFFFFFFFFFFFFFF DUP3 GT OR ISZERO PUSH2 0x3AE4 JUMPI PUSH2 0x3AE3 PUSH2 0x3A8D JUMP JUMPDEST JUMPDEST DUP1 PUSH1 0x40 MSTORE POP POP POP JUMP JUMPDEST PUSH1 0x0 PUSH2 0x3AF7 PUSH2 0x375F JUMP JUMPDEST SWAP1 POP PUSH2 0x3B03 DUP3 DUP3 PUSH2 0x3ABC JUMP JUMPDEST SWAP2 SWAP1 POP JUMP JUMPDEST PUSH1 0x0 PUSH8 0xFFFFFFFFFFFFFFFF DUP3 GT ISZERO PUSH2 0x3B23 JUMPI PUSH2 0x3B22 PUSH2 0x3A8D JUMP JUMPDEST JUMPDEST PUSH1 0x20 DUP3 MUL SWAP1 POP PUSH1 0x20 DUP2 ADD SWAP1 POP SWAP2 SWAP1 POP JUMP JUMPDEST PUSH1 0x0 DUP1 REVERT JUMPDEST PUSH1 0x0 PUSH2 0x3B4C PUSH2 0x3B47 DUP5 PUSH2 0x3B08 JUMP JUMPDEST PUSH2 0x3AED JUMP JUMPDEST SWAP1 POP DUP1 DUP4 DUP3 MSTORE PUSH1 0x20 DUP3 ADD SWAP1 POP PUSH1 0x20 DUP5 MUL DUP4 ADD DUP6 DUP2 GT ISZERO PUSH2 0x3B6F JUMPI PUSH2 0x3B6E PUSH2 0x3B34 JUMP JUMPDEST JUMPDEST DUP4 JUMPDEST DUP2 DUP2 LT ISZERO PUSH2 0x3B98 JUMPI DUP1 PUSH2 0x3B84 DUP9 DUP3 PUSH2 0x3901 JUMP JUMPDEST DUP5 MSTORE PUSH1 0x20 DUP5 ADD SWAP4 POP POP PUSH1 0x20 DUP2 ADD SWAP1 POP PUSH2 0x3B71 JUMP JUMPDEST POP POP POP SWAP4 SWAP3 POP POP POP JUMP JUMPDEST PUSH1 0x0 DUP3 PUSH1 0x1F DUP4 ADD SLT PUSH2 0x3BB7 JUMPI PUSH2 0x3BB6 PUSH2 0x3A88 JUMP JUMPDEST JUMPDEST DUP2 CALLDATALOAD PUSH2 0x3BC7 DUP5 DUP3 PUSH1 0x20 DUP7 ADD PUSH2 0x3B39 JUMP JUMPDEST SWAP2 POP POP SWAP3 SWAP2 POP POP JUMP JUMPDEST PUSH1 0x0 PUSH1 0x20 DUP3 DUP5 SUB SLT ISZERO PUSH2 0x3BE6 JUMPI PUSH2 0x3BE5 PUSH2 0x3769 JUMP JUMPDEST JUMPDEST PUSH1 0x0 DUP3 ADD CALLDATALOAD PUSH8 0xFFFFFFFFFFFFFFFF DUP2 GT ISZERO PUSH2 0x3C04 JUMPI PUSH2 0x3C03 PUSH2 0x376E JUMP JUMPDEST JUMPDEST PUSH2 0x3C10 DUP5 DUP3 DUP6 ADD PUSH2 0x3BA2 JUMP JUMPDEST SWAP2 POP POP SWAP3 SWAP2 POP POP JUMP JUMPDEST PUSH1 0x0 PUSH1 0x20 DUP3 DUP5 SUB SLT ISZERO PUSH2 0x3C2F JUMPI PUSH2 0x3C2E PUSH2 0x3769 JUMP JUMPDEST JUMPDEST PUSH1 0x0 PUSH2 0x3C3D DUP5 DUP3 DUP6 ADD PUSH2 0x39B6 JUMP JUMPDEST SWAP2 POP POP SWAP3 SWAP2 POP POP JUMP JUMPDEST PUSH2 0x3C4F DUP2 PUSH2 0x37F8 JUMP JUMPDEST DUP2 EQ PUSH2 0x3C5A JUMPI PUSH1 0x0 DUP1 REVERT JUMPDEST POP JUMP JUMPDEST PUSH1 0x0 DUP2 CALLDATALOAD SWAP1 POP PUSH2 0x3C6C DUP2 PUSH2 0x3C46 JUMP JUMPDEST SWAP3 SWAP2 POP POP JUMP JUMPDEST PUSH1 0x0 DUP1 PUSH1 0x40 DUP4 DUP6 SUB SLT ISZERO PUSH2 0x3C89 JUMPI PUSH2 0x3C88 PUSH2 0x3769 JUMP JUMPDEST JUMPDEST PUSH1 0x0 PUSH2 0x3C97 DUP6 DUP3 DUP7 ADD PUSH2 0x39B6 JUMP JUMPDEST SWAP3 POP POP PUSH1 0x20 PUSH2 0x3CA8 DUP6 DUP3 DUP7 ADD PUSH2 0x3C5D JUMP JUMPDEST SWAP2 POP POP SWAP3 POP SWAP3 SWAP1 POP JUMP JUMPDEST PUSH1 0x0 DUP1 REVERT JUMPDEST PUSH1 0x0 PUSH8 0xFFFFFFFFFFFFFFFF DUP3 GT ISZERO PUSH2 0x3CD2 JUMPI PUSH2 0x3CD1 PUSH2 0x3A8D JUMP JUMPDEST JUMPDEST PUSH2 0x3CDB DUP3 PUSH2 0x3874 JUMP JUMPDEST SWAP1 POP PUSH1 0x20 DUP2 ADD SWAP1 POP SWAP2 SWAP1 POP JUMP JUMPDEST DUP3 DUP2 DUP4 CALLDATACOPY PUSH1 0x0 DUP4 DUP4 ADD MSTORE POP POP POP JUMP JUMPDEST PUSH1 0x0 PUSH2 0x3D0A PUSH2 0x3D05 DUP5 PUSH2 0x3CB7 JUMP JUMPDEST PUSH2 0x3AED JUMP JUMPDEST SWAP1 POP DUP3 DUP2 MSTORE PUSH1 0x20 DUP2 ADD DUP5 DUP5 DUP5 ADD GT ISZERO PUSH2 0x3D26 JUMPI PUSH2 0x3D25 PUSH2 0x3CB2 JUMP JUMPDEST JUMPDEST PUSH2 0x3D31 DUP5 DUP3 DUP6 PUSH2 0x3CE8 JUMP JUMPDEST POP SWAP4 SWAP3 POP POP POP JUMP JUMPDEST PUSH1 0x0 DUP3 PUSH1 0x1F DUP4 ADD SLT PUSH2 0x3D4E JUMPI PUSH2 0x3D4D PUSH2 0x3A88 JUMP JUMPDEST JUMPDEST DUP2 CALLDATALOAD PUSH2 0x3D5E DUP5 DUP3 PUSH1 0x20 DUP7 ADD PUSH2 0x3CF7 JUMP JUMPDEST SWAP2 POP POP SWAP3 SWAP2 POP POP JUMP JUMPDEST PUSH1 0x0 DUP1 PUSH1 0x0 DUP1 PUSH1 0x80 DUP6 DUP8 SUB SLT ISZERO PUSH2 0x3D81 JUMPI PUSH2 0x3D80 PUSH2 0x3769 JUMP JUMPDEST JUMPDEST PUSH1 0x0 PUSH2 0x3D8F DUP8 DUP3 DUP9 ADD PUSH2 0x39B6 JUMP JUMPDEST SWAP5 POP POP PUSH1 0x20 PUSH2 0x3DA0 DUP8 DUP3 DUP9 ADD PUSH2 0x39B6 JUMP JUMPDEST SWAP4 POP POP PUSH1 0x40 PUSH2 0x3DB1 DUP8 DUP3 DUP9 ADD PUSH2 0x3901 JUMP JUMPDEST SWAP3 POP POP PUSH1 0x60 DUP6 ADD CALLDATALOAD PUSH8 0xFFFFFFFFFFFFFFFF DUP2 GT ISZERO PUSH2 0x3DD2 JUMPI PUSH2 0x3DD1 PUSH2 0x376E JUMP JUMPDEST JUMPDEST PUSH2 0x3DDE DUP8 DUP3 DUP9 ADD PUSH2 0x3D39 JUMP JUMPDEST SWAP2 POP POP SWAP3 SWAP6 SWAP2 SWAP5 POP SWAP3 POP JUMP JUMPDEST PUSH1 0x0 DUP1 PUSH1 0x40 DUP4 DUP6 SUB SLT ISZERO PUSH2 0x3E01 JUMPI PUSH2 0x3E00 PUSH2 0x3769 JUMP JUMPDEST JUMPDEST PUSH1 0x0 PUSH2 0x3E0F DUP6 DUP3 DUP7 ADD PUSH2 0x39B6 JUMP JUMPDEST SWAP3 POP POP PUSH1 0x20 PUSH2 0x3E20 DUP6 DUP3 DUP7 ADD PUSH2 0x39B6 JUMP JUMPDEST SWAP2 POP POP SWAP3 POP SWAP3 SWAP1 POP JUMP JUMPDEST PUSH32 0x4E487B7100000000000000000000000000000000000000000000000000000000 PUSH1 0x0 MSTORE PUSH1 0x22 PUSH1 0x4 MSTORE PUSH1 0x24 PUSH1 0x0 REVERT JUMPDEST PUSH1 0x0 PUSH1 0x2 DUP3 DIV SWAP1 POP PUSH1 0x1 DUP3 AND DUP1 PUSH2 0x3E71 JUMPI PUSH1 0x7F DUP3 AND SWAP2 POP JUMPDEST PUSH1 0x20 DUP3 LT DUP2 SUB PUSH2 0x3E84 JUMPI PUSH2 0x3E83 PUSH2 0x3E2A JUMP JUMPDEST JUMPDEST POP SWAP2 SWAP1 POP JUMP JUMPDEST PUSH32 0x636F6D62696E696E67206E6F7420616374697665000000000000000000000000 PUSH1 0x0 DUP3 ADD MSTORE POP JUMP JUMPDEST PUSH1 0x0 PUSH2 0x3EC0 PUSH1 0x14 DUP4 PUSH2 0x3839 JUMP JUMPDEST SWAP2 POP PUSH2 0x3ECB DUP3 PUSH2 0x3E8A JUMP JUMPDEST PUSH1 0x20 DUP3 ADD SWAP1 POP SWAP2 SWAP1 POP JUMP JUMPDEST PUSH1 0x0 PUSH1 0x20 DUP3 ADD SWAP1 POP DUP2 DUP2 SUB PUSH1 0x0 DUP4 ADD MSTORE PUSH2 0x3EEF DUP2 PUSH2 0x3EB3 JUMP JUMPDEST SWAP1 POP SWAP2 SWAP1 POP JUMP JUMPDEST PUSH32 0x4E487B7100000000000000000000000000000000000000000000000000000000 PUSH1 0x0 MSTORE PUSH1 0x32 PUSH1 0x4 MSTORE PUSH1 0x24 PUSH1 0x0 REVERT JUMPDEST PUSH32 0x6D757374206F776E20616C6C20746F6B656E7300000000000000000000000000 PUSH1 0x0 DUP3 ADD MSTORE POP JUMP JUMPDEST PUSH1 0x0 PUSH2 0x3F5B PUSH1 0x13 DUP4 PUSH2 0x3839 JUMP JUMPDEST SWAP2 POP PUSH2 0x3F66 DUP3 PUSH2 0x3F25 JUMP JUMPDEST PUSH1 0x20 DUP3 ADD SWAP1 POP SWAP2 SWAP1 POP JUMP JUMPDEST PUSH1 0x0 PUSH1 0x20 DUP3 ADD SWAP1 POP DUP2 DUP2 SUB PUSH1 0x0 DUP4 ADD MSTORE PUSH2 0x3F8A DUP2 PUSH2 0x3F4E JUMP JUMPDEST SWAP1 POP SWAP2 SWAP1 POP JUMP JUMPDEST PUSH1 0x0 DUP2 SWAP1 POP SWAP3 SWAP2 POP POP JUMP JUMPDEST PUSH1 0x0 PUSH2 0x3FA7 DUP3 PUSH2 0x382E JUMP JUMPDEST PUSH2 0x3FB1 DUP2 DUP6 PUSH2 0x3F91 JUMP JUMPDEST SWAP4 POP PUSH2 0x3FC1 DUP2 DUP6 PUSH1 0x20 DUP7 ADD PUSH2 0x384A JUMP JUMPDEST DUP1 DUP5 ADD SWAP2 POP POP SWAP3 SWAP2 POP POP JUMP JUMPDEST PUSH1 0x0 PUSH2 0x3FD9 DUP3 DUP6 PUSH2 0x3F9C JUMP JUMPDEST SWAP2 POP PUSH2 0x3FE5 DUP3 DUP5 PUSH2 0x3F9C JUMP JUMPDEST SWAP2 POP DUP2 SWAP1 POP SWAP4 SWAP3 POP POP POP JUMP JUMPDEST PUSH32 0x4E487B7100000000000000000000000000000000000000000000000000000000 PUSH1 0x0 MSTORE PUSH1 0x11 PUSH1 0x4 MSTORE PUSH1 0x24 PUSH1 0x0 REVERT JUMPDEST PUSH1 0x0 PUSH2 0x402B DUP3 PUSH2 0x38E0 JUMP JUMPDEST SWAP2 POP PUSH32 0xFFFFFFFFFFFFFFFFFFFFFFFFFFFFFFFFFFFFFFFFFFFFFFFFFFFFFFFFFFFFFFFF DUP3 SUB PUSH2 0x405D JUMPI PUSH2 0x405C PUSH2 0x3FF1 JUMP JUMPDEST JUMPDEST PUSH1 0x1 DUP3 ADD SWAP1 POP SWAP2 SWAP1 POP JUMP JUMPDEST PUSH32 0x76616C7565206E6F206D6F7265207468616E2034206368617261637465727300 PUSH1 0x0 DUP3 ADD MSTORE POP JUMP JUMPDEST PUSH1 0x0 PUSH2 0x409E PUSH1 0x1F DUP4 PUSH2 0x3839 JUMP JUMPDEST SWAP2 POP PUSH2 0x40A9 DUP3 PUSH2 0x4068 JUMP JUMPDEST PUSH1 0x20 DUP3 ADD SWAP1 POP SWAP2 SWAP1 POP JUMP JUMPDEST PUSH1 0x0 PUSH1 0x20 DUP3 ADD SWAP1 POP DUP2 DUP2 SUB PUSH1 0x0 DUP4 ADD MSTORE PUSH2 0x40CD DUP2 PUSH2 0x4091 JUMP JUMPDEST SWAP1 POP SWAP2 SWAP1 POP JUMP JUMPDEST PUSH32 0x63616E277420636F6D62696E652062656361757365206C75636B79206E756D62 PUSH1 0x0 DUP3 ADD MSTORE PUSH32 0x6572206973200000000000000000000000000000000000000000000000000000 PUSH1 0x20 DUP3 ADD MSTORE POP JUMP JUMPDEST PUSH1 0x0 PUSH2 0x4130 PUSH1 0x26 DUP4 PUSH2 0x3F91 JUMP JUMPDEST SWAP2 POP PUSH2 0x413B DUP3 PUSH2 0x40D4 JUMP JUMPDEST PUSH1 0x26 DUP3 ADD SWAP1 POP SWAP2 SWAP1 POP JUMP JUMPDEST PUSH1 0x0 DUP2 SWAP1 POP DUP2 PUSH1 0x0 MSTORE PUSH1 0x20 PUSH1 0x0 KECCAK256 SWAP1 POP SWAP2 SWAP1 POP JUMP JUMPDEST PUSH1 0x0 DUP2 SLOAD PUSH2 0x4168 DUP2 PUSH2 0x3E59 JUMP JUMPDEST PUSH2 0x4172 DUP2 DUP7 PUSH2 0x3F91 JUMP JUMPDEST SWAP5 POP PUSH1 0x1 DUP3 AND PUSH1 0x0 DUP2 EQ PUSH2 0x418D JUMPI PUSH1 0x1 DUP2 EQ PUSH2 0x41A2 JUMPI PUSH2 0x41D5 JUMP JUMPDEST PUSH1 0xFF NOT DUP4 AND DUP7 MSTORE DUP2 ISZERO ISZERO DUP3 MUL DUP7 ADD SWAP4 POP PUSH2 0x41D5 JUMP JUMPDEST PUSH2 0x41AB DUP6 PUSH2 0x4146 JUMP JUMPDEST PUSH1 0x0 JUMPDEST DUP4 DUP2 LT ISZERO PUSH2 0x41CD JUMPI DUP2 SLOAD DUP2 DUP10 ADD MSTORE PUSH1 0x1 DUP3 ADD SWAP2 POP PUSH1 0x20 DUP2 ADD SWAP1 POP PUSH2 0x41AE JUMP JUMPDEST DUP4 DUP9 ADD SWAP6 POP POP POP JUMPDEST POP POP POP SWAP3 SWAP2 POP POP JUMP JUMPDEST PUSH1 0x0 PUSH2 0x41E9 DUP3 PUSH2 0x4123 JUMP JUMPDEST SWAP2 POP PUSH2 0x41F5 DUP3 DUP5 PUSH2 0x415B JUMP JUMPDEST SWAP2 POP DUP2 SWAP1 POP SWAP3 SWAP2 POP POP JUMP JUMPDEST PUSH1 0x0 PUSH1 0x20 PUSH1 0x1F DUP4 ADD DIV SWAP1 POP SWAP2 SWAP1 POP JUMP JUMPDEST PUSH1 0x0 DUP3 DUP3 SHL SWAP1 POP SWAP3 SWAP2 POP POP JUMP JUMPDEST PUSH1 0x0 PUSH1 0x8 DUP4 MUL PUSH2 0x424D PUSH32 0xFFFFFFFFFFFFFFFFFFFFFFFFFFFFFFFFFFFFFFFFFFFFFFFFFFFFFFFFFFFFFFFF DUP3 PUSH2 0x4210 JUMP JUMPDEST PUSH2 0x4257 DUP7 DUP4 PUSH2 0x4210 JUMP JUMPDEST SWAP6 POP DUP1 NOT DUP5 AND SWAP4 POP DUP1 DUP7 AND DUP5 OR SWAP3 POP POP POP SWAP4 SWAP3 POP POP POP JUMP JUMPDEST PUSH1 0x0 DUP2 SWAP1 POP SWAP2 SWAP1 POP JUMP JUMPDEST PUSH1 0x0 PUSH2 0x4294 PUSH2 0x428F PUSH2 0x428A DUP5 PUSH2 0x38E0 JUMP JUMPDEST PUSH2 0x426F JUMP JUMPDEST PUSH2 0x38E0 JUMP JUMPDEST SWAP1 POP SWAP2 SWAP1 POP JUMP JUMPDEST PUSH1 0x0 DUP2 SWAP1 POP SWAP2 SWAP1 POP JUMP JUMPDEST PUSH2 0x42AE DUP4 PUSH2 0x4279 JUMP JUMPDEST PUSH2 0x42C2 PUSH2 0x42BA DUP3 PUSH2 0x429B JUMP JUMPDEST DUP5 DUP5 SLOAD PUSH2 0x421D JUMP JUMPDEST DUP3 SSTORE POP POP POP POP JUMP JUMPDEST PUSH1 0x0 SWAP1 JUMP JUMPDEST PUSH2 0x42D7 PUSH2 0x42CA JUMP JUMPDEST PUSH2 0x42E2 DUP2 DUP5 DUP5 PUSH2 0x42A5 JUMP JUMPDEST POP POP POP JUMP JUMPDEST JUMPDEST DUP2 DUP2 LT ISZERO PUSH2 0x4306 JUMPI PUSH2 0x42FB PUSH1 0x0 DUP3 PUSH2 0x42CF JUMP JUMPDEST PUSH1 0x1 DUP2 ADD SWAP1 POP PUSH2 0x42E8 JUMP JUMPDEST POP POP JUMP JUMPDEST PUSH1 0x1F DUP3 GT ISZERO PUSH2 0x434B JUMPI PUSH2 0x431C DUP2 PUSH2 0x4146 JUMP JUMPDEST PUSH2 0x4325 DUP5 PUSH2 0x4200 JUMP JUMPDEST DUP2 ADD PUSH1 0x20 DUP6 LT ISZERO PUSH2 0x4334 JUMPI DUP2 SWAP1 POP JUMPDEST PUSH2 0x4348 PUSH2 0x4340 DUP6 PUSH2 0x4200 JUMP JUMPDEST DUP4 ADD DUP3 PUSH2 0x42E7 JUMP JUMPDEST POP POP JUMPDEST POP POP POP JUMP JUMPDEST PUSH1 0x0 DUP3 DUP3 SHR SWAP1 POP SWAP3 SWAP2 POP POP JUMP JUMPDEST PUSH1 0x0 PUSH2 0x436E PUSH1 0x0 NOT DUP5 PUSH1 0x8 MUL PUSH2 0x4350 JUMP JUMPDEST NOT DUP1 DUP4 AND SWAP2 POP POP SWAP3 SWAP2 POP POP JUMP JUMPDEST PUSH1 0x0 PUSH2 0x4387 DUP4 DUP4 PUSH2 0x435D JUMP JUMPDEST SWAP2 POP DUP3 PUSH1 0x2 MUL DUP3 OR SWAP1 POP SWAP3 SWAP2 POP POP JUMP JUMPDEST PUSH2 0x43A0 DUP3 PUSH2 0x382E JUMP JUMPDEST PUSH8 0xFFFFFFFFFFFFFFFF DUP2 GT ISZERO PUSH2 0x43B9 JUMPI PUSH2 0x43B8 PUSH2 0x3A8D JUMP JUMPDEST JUMPDEST PUSH2 0x43C3 DUP3 SLOAD PUSH2 0x3E59 JUMP JUMPDEST PUSH2 0x43CE DUP3 DUP3 DUP6 PUSH2 0x430A JUMP JUMPDEST PUSH1 0x0 PUSH1 0x20 SWAP1 POP PUSH1 0x1F DUP4 GT PUSH1 0x1 DUP2 EQ PUSH2 0x4401 JUMPI PUSH1 0x0 DUP5 ISZERO PUSH2 0x43EF JUMPI DUP3 DUP8 ADD MLOAD SWAP1 POP JUMPDEST PUSH2 0x43F9 DUP6 DUP3 PUSH2 0x437B JUMP JUMPDEST DUP7 SSTORE POP PUSH2 0x4461 JUMP JUMPDEST PUSH1 0x1F NOT DUP5 AND PUSH2 0x440F DUP7 PUSH2 0x4146 JUMP JUMPDEST PUSH1 0x0 JUMPDEST DUP3 DUP2 LT ISZERO PUSH2 0x4437 JUMPI DUP5 DUP10 ADD MLOAD DUP3 SSTORE PUSH1 0x1 DUP3 ADD SWAP2 POP PUSH1 0x20 DUP6 ADD SWAP5 POP PUSH1 0x20 DUP2 ADD SWAP1 POP PUSH2 0x4412 JUMP JUMPDEST DUP7 DUP4 LT ISZERO PUSH2 0x4454 JUMPI DUP5 DUP10 ADD MLOAD PUSH2 0x4450 PUSH1 0x1F DUP10 AND DUP3 PUSH2 0x435D JUMP JUMPDEST DUP4 SSTORE POP JUMPDEST PUSH1 0x1 PUSH1 0x2 DUP9 MUL ADD DUP9 SSTORE POP POP POP JUMPDEST POP POP POP POP POP POP JUMP JUMPDEST PUSH1 0x0 PUSH2 0x4474 DUP3 PUSH2 0x38E0 JUMP JUMPDEST SWAP2 POP PUSH2 0x447F DUP4 PUSH2 0x38E0 JUMP JUMPDEST SWAP3 POP DUP3 DUP3 MUL PUSH2 0x448D DUP2 PUSH2 0x38E0 JUMP JUMPDEST SWAP2 POP DUP3 DUP3 DIV DUP5 EQ DUP4 ISZERO OR PUSH2 0x44A4 JUMPI PUSH2 0x44A3 PUSH2 0x3FF1 JUMP JUMPDEST JUMPDEST POP SWAP3 SWAP2 POP POP JUMP JUMPDEST PUSH32 0x6E6F7420656E6F75676820657468000000000000000000000000000000000000 PUSH1 0x0 DUP3 ADD MSTORE POP JUMP JUMPDEST PUSH1 0x0 PUSH2 0x44E1 PUSH1 0xE DUP4 PUSH2 0x3839 JUMP JUMPDEST SWAP2 POP PUSH2 0x44EC DUP3 PUSH2 0x44AB JUMP JUMPDEST PUSH1 0x20 DUP3 ADD SWAP1 POP SWAP2 SWAP1 POP JUMP JUMPDEST PUSH1 0x0 PUSH1 0x20 DUP3 ADD SWAP1 POP DUP2 DUP2 SUB PUSH1 0x0 DUP4 ADD MSTORE PUSH2 0x4510 DUP2 PUSH2 0x44D4 JUMP JUMPDEST SWAP1 POP SWAP2 SWAP1 POP JUMP JUMPDEST PUSH32 0x4F776E61626C653A206E6577206F776E657220697320746865207A65726F2061 PUSH1 0x0 DUP3 ADD MSTORE PUSH32 0x6464726573730000000000000000000000000000000000000000000000000000 PUSH1 0x20 DUP3 ADD MSTORE POP JUMP JUMPDEST PUSH1 0x0 PUSH2 0x4573 PUSH1 0x26 DUP4 PUSH2 0x3839 JUMP JUMPDEST SWAP2 POP PUSH2 0x457E DUP3 PUSH2 0x4517 JUMP JUMPDEST PUSH1 0x40 DUP3 ADD SWAP1 POP SWAP2 SWAP1 POP JUMP JUMPDEST PUSH1 0x0 PUSH1 0x20 DUP3 ADD SWAP1 POP DUP2 DUP2 SUB PUSH1 0x0 DUP4 ADD MSTORE PUSH2 0x45A2 DUP2 PUSH2 0x4566 JUMP JUMPDEST SWAP1 POP SWAP2 SWAP1 POP JUMP JUMPDEST PUSH1 0x0 PUSH2 0x45B5 DUP3 DUP5 PUSH2 0x3F9C JUMP JUMPDEST SWAP2 POP DUP2 SWAP1 POP SWAP3 SWAP2 POP POP JUMP JUMPDEST PUSH1 0x0 PUSH2 0x45CB DUP3 PUSH2 0x38E0 JUMP JUMPDEST SWAP2 POP PUSH2 0x45D6 DUP4 PUSH2 0x38E0 JUMP JUMPDEST SWAP3 POP DUP3 DUP3 SUB SWAP1 POP DUP2 DUP2 GT ISZERO PUSH2 0x45EE JUMPI PUSH2 0x45ED PUSH2 0x3FF1 JUMP JUMPDEST JUMPDEST SWAP3 SWAP2 POP POP JUMP JUMPDEST PUSH1 0x0 PUSH2 0x45FF DUP3 PUSH2 0x38E0 JUMP JUMPDEST SWAP2 POP PUSH2 0x460A DUP4 PUSH2 0x38E0 JUMP JUMPDEST SWAP3 POP DUP3 DUP3 ADD SWAP1 POP DUP1 DUP3 GT ISZERO PUSH2 0x4622 JUMPI PUSH2 0x4621 PUSH2 0x3FF1 JUMP JUMPDEST JUMPDEST SWAP3 SWAP2 POP POP JUMP JUMPDEST PUSH1 0x0 DUP2 SWAP1 POP SWAP2 SWAP1 POP JUMP JUMPDEST PUSH2 0x4643 PUSH2 0x463E DUP3 PUSH2 0x38E0 JUMP JUMPDEST PUSH2 0x4628 JUMP JUMPDEST DUP3 MSTORE POP POP JUMP JUMPDEST PUSH1 0x0 PUSH2 0x4655 DUP3 DUP5 PUSH2 0x4632 JUMP JUMPDEST PUSH1 0x20 DUP3 ADD SWAP2 POP DUP2 SWAP1 POP SWAP3 SWAP2 POP POP JUMP JUMPDEST PUSH32 0x4E487B7100000000000000000000000000000000000000000000000000000000 PUSH1 0x0 MSTORE PUSH1 0x12 PUSH1 0x4 MSTORE PUSH1 0x24 PUSH1 0x0 REVERT JUMPDEST PUSH1 0x0 PUSH2 0x469E DUP3 PUSH2 0x38E0 JUMP JUMPDEST SWAP2 POP PUSH2 0x46A9 DUP4 PUSH2 0x38E0 JUMP JUMPDEST SWAP3 POP DUP3 PUSH2 0x46B9 JUMPI PUSH2 0x46B8 PUSH2 0x4664 JUMP JUMPDEST JUMPDEST DUP3 DUP3 MOD SWAP1 POP SWAP3 SWAP2 POP POP JUMP JUMPDEST PUSH32 0x4F776E61626C653A2063616C6C6572206973206E6F7420746865206F776E6572 PUSH1 0x0 DUP3 ADD MSTORE POP JUMP JUMPDEST PUSH1 0x0 PUSH2 0x46FA PUSH1 0x20 DUP4 PUSH2 0x3839 JUMP JUMPDEST SWAP2 POP PUSH2 0x4705 DUP3 PUSH2 0x46C4 JUMP JUMPDEST PUSH1 0x20 DUP3 ADD SWAP1 POP SWAP2 SWAP1 POP JUMP JUMPDEST PUSH1 0x0 PUSH1 0x20 DUP3 ADD SWAP1 POP DUP2 DUP2 SUB PUSH1 0x0 DUP4 ADD MSTORE PUSH2 0x4729 DUP2 PUSH2 0x46ED JUMP JUMPDEST SWAP1 POP SWAP2 SWAP1 POP JUMP JUMPDEST PUSH32 0x4C656E6774682063616E6E6F742062652067726561746572207468616E203400 PUSH1 0x0 DUP3 ADD MSTORE POP JUMP JUMPDEST PUSH1 0x0 PUSH2 0x4766 PUSH1 0x1F DUP4 PUSH2 0x3839 JUMP JUMPDEST SWAP2 POP PUSH2 0x4771 DUP3 PUSH2 0x4730 JUMP JUMPDEST PUSH1 0x20 DUP3 ADD SWAP1 POP SWAP2 SWAP1 POP JUMP JUMPDEST PUSH1 0x0 PUSH1 0x20 DUP3 ADD SWAP1 POP DUP2 DUP2 SUB PUSH1 0x0 DUP4 ADD MSTORE PUSH2 0x4795 DUP2 PUSH2 0x4759 JUMP JUMPDEST SWAP1 POP SWAP2 SWAP1 POP JUMP JUMPDEST PUSH32 0x4C656E6774682063616E6E6F74206265205A65726F0000000000000000000000 PUSH1 0x0 DUP3 ADD MSTORE POP JUMP JUMPDEST PUSH1 0x0 PUSH2 0x47D2 PUSH1 0x15 DUP4 PUSH2 0x3839 JUMP JUMPDEST SWAP2 POP PUSH2 0x47DD DUP3 PUSH2 0x479C JUMP JUMPDEST PUSH1 0x20 DUP3 ADD SWAP1 POP SWAP2 SWAP1 POP JUMP JUMPDEST PUSH1 0x0 PUSH1 0x20 DUP3 ADD SWAP1 POP DUP2 DUP2 SUB PUSH1 0x0 DUP4 ADD MSTORE PUSH2 0x4801 DUP2 PUSH2 0x47C5 JUMP JUMPDEST SWAP1 POP SWAP2 SWAP1 POP JUMP JUMPDEST PUSH1 0x0 DUP2 MLOAD SWAP1 POP SWAP2 SWAP1 POP JUMP JUMPDEST PUSH1 0x0 DUP3 DUP3 MSTORE PUSH1 0x20 DUP3 ADD SWAP1 POP SWAP3 SWAP2 POP POP JUMP JUMPDEST PUSH1 0x0 PUSH2 0x482F DUP3 PUSH2 0x4808 JUMP JUMPDEST PUSH2 0x4839 DUP2 DUP6 PUSH2 0x4813 JUMP JUMPDEST SWAP4 POP PUSH2 0x4849 DUP2 DUP6 PUSH1 0x20 DUP7 ADD PUSH2 0x384A JUMP JUMPDEST PUSH2 0x4852 DUP2 PUSH2 0x3874 JUMP JUMPDEST DUP5 ADD SWAP2 POP POP SWAP3 SWAP2 POP POP JUMP JUMPDEST PUSH1 0x0 PUSH1 0x80 DUP3 ADD SWAP1 POP PUSH2 0x4872 PUSH1 0x0 DUP4 ADD DUP8 PUSH2 0x3975 JUMP JUMPDEST PUSH2 0x487F PUSH1 0x20 DUP4 ADD DUP7 PUSH2 0x3975 JUMP JUMPDEST PUSH2 0x488C PUSH1 0x40 DUP4 ADD DUP6 PUSH2 0x3A0B JUMP JUMPDEST DUP2 DUP2 SUB PUSH1 0x60 DUP4 ADD MSTORE PUSH2 0x489E DUP2 DUP5 PUSH2 0x4824 JUMP JUMPDEST SWAP1 POP SWAP6 SWAP5 POP POP POP POP POP JUMP JUMPDEST PUSH1 0x0 DUP2 MLOAD SWAP1 POP PUSH2 0x48B8 DUP2 PUSH2 0x379F JUMP JUMPDEST SWAP3 SWAP2 POP POP JUMP JUMPDEST PUSH1 0x0 PUSH1 0x20 DUP3 DUP5 SUB SLT ISZERO PUSH2 0x48D4 JUMPI PUSH2 0x48D3 PUSH2 0x3769 JUMP JUMPDEST JUMPDEST PUSH1 0x0 PUSH2 0x48E2 DUP5 DUP3 DUP6 ADD PUSH2 0x48A9 JUMP JUMPDEST SWAP2 POP POP SWAP3 SWAP2 POP POP JUMP JUMPDEST PUSH32 0x7B226E616D65223A2022434F4D42494E455F4E554D4245522000000000000000 PUSH1 0x0 DUP3 ADD MSTORE POP JUMP JUMPDEST PUSH1 0x0 PUSH2 0x4921 PUSH1 0x19 DUP4 PUSH2 0x3F91 JUMP JUMPDEST SWAP2 POP PUSH2 0x492C DUP3 PUSH2 0x48EB JUMP JUMPDEST PUSH1 0x19 DUP3 ADD SWAP1 POP SWAP2 SWAP1 POP JUMP JUMPDEST PUSH32 0x205B4255524E45445D222C20226465736372697074696F6E223A20224E756D62 PUSH1 0x0 DUP3 ADD MSTORE PUSH32 0x65727320617265206172742C20616E642077652061726520617274697374732E PUSH1 0x20 DUP3 ADD MSTORE PUSH32 0x222C202261747472696275746573223A5B7B2274726169745F74797065223A20 PUSH1 0x40 DUP3 ADD MSTORE PUSH32 0x224275726E6564222C202276616C7565223A2022596573227D5D2C2022696D61 PUSH1 0x60 DUP3 ADD MSTORE PUSH32 0x6765223A2022646174613A696D6167652F7376672B786D6C3B6261736536342C PUSH1 0x80 DUP3 ADD MSTORE POP JUMP JUMPDEST PUSH1 0x0 PUSH2 0x4A05 PUSH1 0xA0 DUP4 PUSH2 0x3F91 JUMP JUMPDEST SWAP2 POP PUSH2 0x4A10 DUP3 PUSH2 0x4937 JUMP JUMPDEST PUSH1 0xA0 DUP3 ADD SWAP1 POP SWAP2 SWAP1 POP JUMP JUMPDEST PUSH32 0x227D000000000000000000000000000000000000000000000000000000000000 PUSH1 0x0 DUP3 ADD MSTORE POP JUMP JUMPDEST PUSH1 0x0 PUSH2 0x4A51 PUSH1 0x2 DUP4 PUSH2 0x3F91 JUMP JUMPDEST SWAP2 POP PUSH2 0x4A5C DUP3 PUSH2 0x4A1B JUMP JUMPDEST PUSH1 0x2 DUP3 ADD SWAP1 POP SWAP2 SWAP1 POP JUMP JUMPDEST PUSH1 0x0 PUSH2 0x4A72 DUP3 PUSH2 0x4914 JUMP JUMPDEST SWAP2 POP PUSH2 0x4A7E DUP3 DUP6 PUSH2 0x3F9C JUMP JUMPDEST SWAP2 POP PUSH2 0x4A89 DUP3 PUSH2 0x49F8 JUMP JUMPDEST SWAP2 POP PUSH2 0x4A95 DUP3 DUP5 PUSH2 0x3F9C JUMP JUMPDEST SWAP2 POP PUSH2 0x4AA0 DUP3 PUSH2 0x4A44 JUMP JUMPDEST SWAP2 POP DUP2 SWAP1 POP SWAP4 SWAP3 POP POP POP JUMP JUMPDEST PUSH32 0x222C20226465736372697074696F6E223A20224E756D62657273206172652061 PUSH1 0x0 DUP3 ADD MSTORE PUSH32 0x72742C20616E642077652061726520617274697374732E222C20226174747269 PUSH1 0x20 DUP3 ADD MSTORE PUSH32 0x6275746573223A5B7B2274726169745F74797065223A20224E756D626572222C PUSH1 0x40 DUP3 ADD MSTORE PUSH32 0x20226D61785F76616C7565223A20393939392C202276616C7565223A20000000 PUSH1 0x60 DUP3 ADD MSTORE POP JUMP JUMPDEST PUSH1 0x0 PUSH2 0x4B54 PUSH1 0x7D DUP4 PUSH2 0x3F91 JUMP JUMPDEST SWAP2 POP PUSH2 0x4B5F DUP3 PUSH2 0x4AAC JUMP JUMPDEST PUSH1 0x7D DUP3 ADD SWAP1 POP SWAP2 SWAP1 POP JUMP JUMPDEST PUSH32 0x7D2C7B2274726169745F74797065223A20224275726E6564222C202276616C75 PUSH1 0x0 DUP3 ADD MSTORE PUSH32 0x65223A20224E6F227D2C7B2274726169745F74797065223A2022426173652043 PUSH1 0x20 DUP3 ADD MSTORE PUSH32 0x6F6C6F72222C202276616C7565223A2022000000000000000000000000000000 PUSH1 0x40 DUP3 ADD MSTORE POP JUMP JUMPDEST PUSH1 0x0 PUSH2 0x4BEC PUSH1 0x51 DUP4 PUSH2 0x3F91 JUMP JUMPDEST SWAP2 POP PUSH2 0x4BF7 DUP3 PUSH2 0x4B6A JUMP JUMPDEST PUSH1 0x51 DUP3 ADD SWAP1 POP SWAP2 SWAP1 POP JUMP JUMPDEST PUSH32 0x227D2C7B2274726169745F74797065223A2022436F6C6F72222C202276616C75 PUSH1 0x0 DUP3 ADD MSTORE PUSH32 0x65223A2022524742280000000000000000000000000000000000000000000000 PUSH1 0x20 DUP3 ADD MSTORE POP JUMP JUMPDEST PUSH1 0x0 PUSH2 0x4C5E PUSH1 0x29 DUP4 PUSH2 0x3F91 JUMP JUMPDEST SWAP2 POP PUSH2 0x4C69 DUP3 PUSH2 0x4C02 JUMP JUMPDEST PUSH1 0x29 DUP3 ADD SWAP1 POP SWAP2 SWAP1 POP JUMP JUMPDEST PUSH32 0x2C00000000000000000000000000000000000000000000000000000000000000 PUSH1 0x0 DUP3 ADD MSTORE POP JUMP JUMPDEST PUSH1 0x0 PUSH2 0x4CAA PUSH1 0x1 DUP4 PUSH2 0x3F91 JUMP JUMPDEST SWAP2 POP PUSH2 0x4CB5 DUP3 PUSH2 0x4C74 JUMP JUMPDEST PUSH1 0x1 DUP3 ADD SWAP1 POP SWAP2 SWAP1 POP JUMP JUMPDEST PUSH32 0x29227D5D2C2022696D616765223A2022646174613A696D6167652F7376672B78 PUSH1 0x0 DUP3 ADD MSTORE PUSH32 0x6D6C3B6261736536342C00000000000000000000000000000000000000000000 PUSH1 0x20 DUP3 ADD MSTORE POP JUMP JUMPDEST PUSH1 0x0 PUSH2 0x4D1C PUSH1 0x2A DUP4 PUSH2 0x3F91 JUMP JUMPDEST SWAP2 POP PUSH2 0x4D27 DUP3 PUSH2 0x4CC0 JUMP JUMPDEST PUSH1 0x2A DUP3 ADD SWAP1 POP SWAP2 SWAP1 POP JUMP JUMPDEST PUSH1 0x0 PUSH2 0x4D3D DUP3 PUSH2 0x4914 JUMP JUMPDEST SWAP2 POP PUSH2 0x4D49 DUP3 DUP11 PUSH2 0x3F9C JUMP JUMPDEST SWAP2 POP PUSH2 0x4D54 DUP3 PUSH2 0x4B47 JUMP JUMPDEST SWAP2 POP PUSH2 0x4D60 DUP3 DUP10 PUSH2 0x3F9C JUMP JUMPDEST SWAP2 POP PUSH2 0x4D6B DUP3 PUSH2 0x4BDF JUMP JUMPDEST SWAP2 POP PUSH2 0x4D77 DUP3 DUP9 PUSH2 0x3F9C JUMP JUMPDEST SWAP2 POP PUSH2 0x4D82 DUP3 PUSH2 0x4C51 JUMP JUMPDEST SWAP2 POP PUSH2 0x4D8E DUP3 DUP8 PUSH2 0x3F9C JUMP JUMPDEST SWAP2 POP PUSH2 0x4D99 DUP3 PUSH2 0x4C9D JUMP JUMPDEST SWAP2 POP PUSH2 0x4DA5 DUP3 DUP7 PUSH2 0x3F9C JUMP JUMPDEST SWAP2 POP PUSH2 0x4DB0 DUP3 PUSH2 0x4C9D JUMP JUMPDEST SWAP2 POP PUSH2 0x4DBC DUP3 DUP6 PUSH2 0x3F9C JUMP JUMPDEST SWAP2 POP PUSH2 0x4DC7 DUP3 PUSH2 0x4D0F JUMP JUMPDEST SWAP2 POP PUSH2 0x4DD3 DUP3 DUP5 PUSH2 0x3F9C JUMP JUMPDEST SWAP2 POP PUSH2 0x4DDE DUP3 PUSH2 0x4A44 JUMP JUMPDEST SWAP2 POP DUP2 SWAP1 POP SWAP9 SWAP8 POP POP POP POP POP POP POP POP JUMP JUMPDEST PUSH32 0x646174613A6170706C69636174696F6E2F6A736F6E3B6261736536342C000000 PUSH1 0x0 DUP3 ADD MSTORE POP JUMP JUMPDEST PUSH1 0x0 PUSH2 0x4E25 PUSH1 0x1D DUP4 PUSH2 0x3F91 JUMP JUMPDEST SWAP2 POP PUSH2 0x4E30 DUP3 PUSH2 0x4DEF JUMP JUMPDEST PUSH1 0x1D DUP3 ADD SWAP1 POP SWAP2 SWAP1 POP JUMP JUMPDEST PUSH1 0x0 PUSH2 0x4E46 DUP3 PUSH2 0x4E18 JUMP JUMPDEST SWAP2 POP PUSH2 0x4E52 DUP3 DUP5 PUSH2 0x3F9C JUMP JUMPDEST SWAP2 POP DUP2 SWAP1 POP SWAP3 SWAP2 POP POP JUMP JUMPDEST PUSH1 0x0 PUSH2 0x4E69 DUP3 DUP6 PUSH2 0x4632 JUMP JUMPDEST PUSH1 0x20 DUP3 ADD SWAP2 POP PUSH2 0x4E79 DUP3 DUP5 PUSH2 0x4632 JUMP JUMPDEST PUSH1 0x20 DUP3 ADD SWAP2 POP DUP2 SWAP1 POP SWAP4 SWAP3 POP POP POP JUMP JUMPDEST PUSH1 0x0 PUSH2 0x4E94 DUP3 PUSH2 0x38E0 JUMP JUMPDEST SWAP2 POP PUSH2 0x4E9F DUP4 PUSH2 0x38E0 JUMP JUMPDEST SWAP3 POP DUP3 PUSH2 0x4EAF JUMPI PUSH2 0x4EAE PUSH2 0x4664 JUMP JUMPDEST JUMPDEST DUP3 DUP3 DIV SWAP1 POP SWAP3 SWAP2 POP POP JUMP JUMPDEST PUSH1 0x0 PUSH1 0xFF DUP3 AND SWAP1 POP SWAP2 SWAP1 POP JUMP JUMPDEST PUSH1 0x0 PUSH2 0x4ED2 DUP3 PUSH2 0x4EBA JUMP JUMPDEST SWAP2 POP PUSH2 0x4EDD DUP4 PUSH2 0x4EBA JUMP JUMPDEST SWAP3 POP DUP3 DUP3 ADD SWAP1 POP PUSH1 0xFF DUP2 GT ISZERO PUSH2 0x4EF6 JUMPI PUSH2 0x4EF5 PUSH2 0x3FF1 JUMP JUMPDEST JUMPDEST SWAP3 SWAP2 POP POP JUMP JUMPDEST PUSH32 0x2A7B66696C6C3A72676228000000000000000000000000000000000000000000 PUSH1 0x0 DUP3 ADD MSTORE POP JUMP JUMPDEST PUSH1 0x0 PUSH2 0x4F32 PUSH1 0xB DUP4 PUSH2 0x3F91 JUMP JUMPDEST SWAP2 POP PUSH2 0x4F3D DUP3 PUSH2 0x4EFC JUMP JUMPDEST PUSH1 0xB DUP3 ADD SWAP1 POP SWAP2 SWAP1 POP JUMP JUMPDEST PUSH32 0x297D2362677B66696C6C3A233043304330437D00000000000000000000000000 PUSH1 0x0 DUP3 ADD MSTORE POP JUMP JUMPDEST PUSH1 0x0 PUSH2 0x4F7E PUSH1 0x13 DUP4 PUSH2 0x3F91 JUMP JUMPDEST SWAP2 POP PUSH2 0x4F89 DUP3 PUSH2 0x4F48 JUMP JUMPDEST PUSH1 0x13 DUP3 ADD SWAP1 POP SWAP2 SWAP1 POP JUMP JUMPDEST PUSH1 0x0 PUSH2 0x4F9F DUP3 PUSH2 0x4F25 JUMP JUMPDEST SWAP2 POP PUSH2 0x4FAB DUP3 DUP7 PUSH2 0x3F9C JUMP JUMPDEST SWAP2 POP PUSH2 0x4FB6 DUP3 PUSH2 0x4C9D JUMP JUMPDEST SWAP2 POP PUSH2 0x4FC2 DUP3 DUP6 PUSH2 0x3F9C JUMP JUMPDEST SWAP2 POP PUSH2 0x4FCD DUP3 PUSH2 0x4C9D JUMP JUMPDEST SWAP2 POP PUSH2 0x4FD9 DUP3 DUP5 PUSH2 0x3F9C JUMP JUMPDEST SWAP2 POP PUSH2 0x4FE4 DUP3 PUSH2 0x4F71 JUMP JUMPDEST SWAP2 POP DUP2 SWAP1 POP SWAP5 SWAP4 POP POP POP POP JUMP JUMPDEST PUSH32 0x3C2F7374796C653E3C2F7376673E000000000000000000000000000000000000 PUSH1 0x0 DUP3 ADD MSTORE POP JUMP JUMPDEST PUSH1 0x0 PUSH2 0x5027 PUSH1 0xE DUP4 PUSH2 0x3F91 JUMP JUMPDEST SWAP2 POP PUSH2 0x5032 DUP3 PUSH2 0x4FF1 JUMP JUMPDEST PUSH1 0xE DUP3 ADD SWAP1 POP SWAP2 SWAP1 POP JUMP JUMPDEST PUSH1 0x0 PUSH2 0x5049 DUP3 DUP6 PUSH2 0x3F9C JUMP JUMPDEST SWAP2 POP PUSH2 0x5055 DUP3 DUP5 PUSH2 0x3F9C JUMP JUMPDEST SWAP2 POP PUSH2 0x5060 DUP3 PUSH2 0x501A JUMP JUMPDEST SWAP2 POP DUP2 SWAP1 POP SWAP4 SWAP3 POP POP POP JUMP JUMPDEST PUSH1 0x0 PUSH32 0xFF00000000000000000000000000000000000000000000000000000000000000 DUP3 AND SWAP1 POP SWAP2 SWAP1 POP JUMP JUMPDEST PUSH1 0x0 DUP2 SWAP1 POP SWAP2 SWAP1 POP JUMP JUMPDEST PUSH2 0x50B3 PUSH2 0x50AE DUP3 PUSH2 0x506C JUMP JUMPDEST PUSH2 0x5098 JUMP JUMPDEST DUP3 MSTORE POP POP JUMP JUMPDEST PUSH1 0x0 PUSH2 0x50C5 DUP3 DUP5 PUSH2 0x50A2 JUMP JUMPDEST PUSH1 0x1 DUP3 ADD SWAP2 POP DUP2 SWAP1 POP SWAP3 SWAP2 POP POP JUMP JUMPDEST PUSH32 0x2370000000000000000000000000000000000000000000000000000000000000 PUSH1 0x0 DUP3 ADD MSTORE POP JUMP JUMPDEST PUSH1 0x0 PUSH2 0x510A PUSH1 0x2 DUP4 PUSH2 0x3F91 JUMP JUMPDEST SWAP2 POP PUSH2 0x5115 DUP3 PUSH2 0x50D4 JUMP JUMPDEST PUSH1 0x2 DUP3 ADD SWAP1 POP SWAP2 SWAP1 POP JUMP JUMPDEST PUSH32 0x312C000000000000000000000000000000000000000000000000000000000000 PUSH1 0x0 DUP3 ADD MSTORE POP JUMP JUMPDEST PUSH1 0x0 PUSH2 0x5156 PUSH1 0x2 DUP4 PUSH2 0x3F91 JUMP JUMPDEST SWAP2 POP PUSH2 0x5161 DUP3 PUSH2 0x5120 JUMP JUMPDEST PUSH1 0x2 DUP3 ADD SWAP1 POP SWAP2 SWAP1 POP JUMP JUMPDEST PUSH32 0x322C000000000000000000000000000000000000000000000000000000000000 PUSH1 0x0 DUP3 ADD MSTORE POP JUMP JUMPDEST PUSH1 0x0 PUSH2 0x51A2 PUSH1 0x2 DUP4 PUSH2 0x3F91 JUMP JUMPDEST SWAP2 POP PUSH2 0x51AD DUP3 PUSH2 0x516C JUMP JUMPDEST PUSH1 0x2 DUP3 ADD SWAP1 POP SWAP2 SWAP1 POP JUMP JUMPDEST PUSH32 0x332C000000000000000000000000000000000000000000000000000000000000 PUSH1 0x0 DUP3 ADD MSTORE POP JUMP JUMPDEST PUSH1 0x0 PUSH2 0x51EE PUSH1 0x2 DUP4 PUSH2 0x3F91 JUMP JUMPDEST SWAP2 POP PUSH2 0x51F9 DUP3 PUSH2 0x51B8 JUMP JUMPDEST PUSH1 0x2 DUP3 ADD SWAP1 POP SWAP2 SWAP1 POP JUMP JUMPDEST PUSH32 0x352C000000000000000000000000000000000000000000000000000000000000 PUSH1 0x0 DUP3 ADD MSTORE POP JUMP JUMPDEST PUSH1 0x0 PUSH2 0x523A PUSH1 0x2 DUP4 PUSH2 0x3F91 JUMP JUMPDEST SWAP2 POP PUSH2 0x5245 DUP3 PUSH2 0x5204 JUMP JUMPDEST PUSH1 0x2 DUP3 ADD SWAP1 POP SWAP2 SWAP1 POP JUMP JUMPDEST PUSH32 0x362C000000000000000000000000000000000000000000000000000000000000 PUSH1 0x0 DUP3 ADD MSTORE POP JUMP JUMPDEST PUSH1 0x0 PUSH2 0x5286 PUSH1 0x2 DUP4 PUSH2 0x3F91 JUMP JUMPDEST SWAP2 POP PUSH2 0x5291 DUP3 PUSH2 0x5250 JUMP JUMPDEST PUSH1 0x2 DUP3 ADD SWAP1 POP SWAP2 SWAP1 POP JUMP JUMPDEST PUSH32 0x37207B66696C6C2D6F7061636974793A317D0000000000000000000000000000 PUSH1 0x0 DUP3 ADD MSTORE POP JUMP JUMPDEST PUSH1 0x0 PUSH2 0x52D2 PUSH1 0x12 DUP4 PUSH2 0x3F91 JUMP JUMPDEST SWAP2 POP PUSH2 0x52DD DUP3 PUSH2 0x529C JUMP JUMPDEST PUSH1 0x12 DUP3 ADD SWAP1 POP SWAP2 SWAP1 POP JUMP JUMPDEST PUSH1 0x0 PUSH2 0x52F3 DUP3 PUSH2 0x50FD JUMP JUMPDEST SWAP2 POP PUSH2 0x52FF DUP3 DUP10 PUSH2 0x3F9C JUMP JUMPDEST SWAP2 POP PUSH2 0x530A DUP3 PUSH2 0x5149 JUMP JUMPDEST SWAP2 POP PUSH2 0x5315 DUP3 PUSH2 0x50FD JUMP JUMPDEST SWAP2 POP PUSH2 0x5321 DUP3 DUP9 PUSH2 0x3F9C JUMP JUMPDEST SWAP2 POP PUSH2 0x532C DUP3 PUSH2 0x5195 JUMP JUMPDEST SWAP2 POP PUSH2 0x5337 DUP3 PUSH2 0x50FD JUMP JUMPDEST SWAP2 POP PUSH2 0x5343 DUP3 DUP8 PUSH2 0x3F9C JUMP JUMPDEST SWAP2 POP PUSH2 0x534E DUP3 PUSH2 0x51E1 JUMP JUMPDEST SWAP2 POP PUSH2 0x5359 DUP3 PUSH2 0x50FD JUMP JUMPDEST SWAP2 POP PUSH2 0x5365 DUP3 DUP7 PUSH2 0x3F9C JUMP JUMPDEST SWAP2 POP PUSH2 0x5370 DUP3 PUSH2 0x522D JUMP JUMPDEST SWAP2 POP PUSH2 0x537B DUP3 PUSH2 0x50FD JUMP JUMPDEST SWAP2 POP PUSH2 0x5387 DUP3 DUP6 PUSH2 0x3F9C JUMP JUMPDEST SWAP2 POP PUSH2 0x5392 DUP3 PUSH2 0x5279 JUMP JUMPDEST SWAP2 POP PUSH2 0x539D DUP3 PUSH2 0x50FD JUMP JUMPDEST SWAP2 POP PUSH2 0x53A9 DUP3 DUP5 PUSH2 0x3F9C JUMP JUMPDEST SWAP2 POP PUSH2 0x53B4 DUP3 PUSH2 0x52C5 JUMP JUMPDEST SWAP2 POP DUP2 SWAP1 POP SWAP8 SWAP7 POP POP POP POP POP POP POP JUMP JUMPDEST PUSH32 0x36207B66696C6C2D6F7061636974793A317D0000000000000000000000000000 PUSH1 0x0 DUP3 ADD MSTORE POP JUMP JUMPDEST PUSH1 0x0 PUSH2 0x53FA PUSH1 0x12 DUP4 PUSH2 0x3F91 JUMP JUMPDEST SWAP2 POP PUSH2 0x5405 DUP3 PUSH2 0x53C4 JUMP JUMPDEST PUSH1 0x12 DUP3 ADD SWAP1 POP SWAP2 SWAP1 POP JUMP JUMPDEST PUSH1 0x0 PUSH2 0x541B DUP3 PUSH2 0x50FD JUMP JUMPDEST SWAP2 POP PUSH2 0x5427 DUP3 DUP6 PUSH2 0x3F9C JUMP JUMPDEST SWAP2 POP PUSH2 0x5432 DUP3 PUSH2 0x51E1 JUMP JUMPDEST SWAP2 POP PUSH2 0x543D DUP3 PUSH2 0x50FD JUMP JUMPDEST SWAP2 POP PUSH2 0x5449 DUP3 DUP5 PUSH2 0x3F9C JUMP JUMPDEST SWAP2 POP PUSH2 0x5454 DUP3 PUSH2 0x53ED JUMP JUMPDEST SWAP2 POP DUP2 SWAP1 POP SWAP4 SWAP3 POP POP POP JUMP JUMPDEST PUSH32 0x342C000000000000000000000000000000000000000000000000000000000000 PUSH1 0x0 DUP3 ADD MSTORE POP JUMP JUMPDEST PUSH1 0x0 PUSH2 0x5496 PUSH1 0x2 DUP4 PUSH2 0x3F91 JUMP JUMPDEST SWAP2 POP PUSH2 0x54A1 DUP3 PUSH2 0x5460 JUMP JUMPDEST PUSH1 0x2 DUP3 ADD SWAP1 POP SWAP2 SWAP1 POP JUMP JUMPDEST PUSH1 0x0 PUSH2 0x54B7 DUP3 PUSH2 0x50FD JUMP JUMPDEST SWAP2 POP PUSH2 0x54C3 DUP3 DUP9 PUSH2 0x3F9C JUMP JUMPDEST SWAP2 POP PUSH2 0x54CE DUP3 PUSH2 0x5149 JUMP JUMPDEST SWAP2 POP PUSH2 0x54D9 DUP3 PUSH2 0x50FD JUMP JUMPDEST SWAP2 POP PUSH2 0x54E5 DUP3 DUP8 PUSH2 0x3F9C JUMP JUMPDEST SWAP2 POP PUSH2 0x54F0 DUP3 PUSH2 0x51E1 JUMP JUMPDEST SWAP2 POP PUSH2 0x54FB DUP3 PUSH2 0x50FD JUMP JUMPDEST SWAP2 POP PUSH2 0x5507 DUP3 DUP7 PUSH2 0x3F9C JUMP JUMPDEST SWAP2 POP PUSH2 0x5512 DUP3 PUSH2 0x5489 JUMP JUMPDEST SWAP2 POP PUSH2 0x551D DUP3 PUSH2 0x50FD JUMP JUMPDEST SWAP2 POP PUSH2 0x5529 DUP3 DUP6 PUSH2 0x3F9C JUMP JUMPDEST SWAP2 POP PUSH2 0x5534 DUP3 PUSH2 0x522D JUMP JUMPDEST SWAP2 POP PUSH2 0x553F DUP3 PUSH2 0x50FD JUMP JUMPDEST SWAP2 POP PUSH2 0x554B DUP3 DUP5 PUSH2 0x3F9C JUMP JUMPDEST SWAP2 POP PUSH2 0x5556 DUP3 PUSH2 0x52C5 JUMP JUMPDEST SWAP2 POP DUP2 SWAP1 POP SWAP7 SWAP6 POP POP POP POP POP POP JUMP JUMPDEST PUSH1 0x0 PUSH2 0x5570 DUP3 PUSH2 0x50FD JUMP JUMPDEST SWAP2 POP PUSH2 0x557C DUP3 DUP9 PUSH2 0x3F9C JUMP JUMPDEST SWAP2 POP PUSH2 0x5587 DUP3 PUSH2 0x5149 JUMP JUMPDEST SWAP2 POP PUSH2 0x5592 DUP3 PUSH2 0x50FD JUMP JUMPDEST SWAP2 POP PUSH2 0x559E DUP3 DUP8 PUSH2 0x3F9C JUMP JUMPDEST SWAP2 POP PUSH2 0x55A9 DUP3 PUSH2 0x51E1 JUMP JUMPDEST SWAP2 POP PUSH2 0x55B4 DUP3 PUSH2 0x50FD JUMP JUMPDEST SWAP2 POP PUSH2 0x55C0 DUP3 DUP7 PUSH2 0x3F9C JUMP JUMPDEST SWAP2 POP PUSH2 0x55CB DUP3 PUSH2 0x5489 JUMP JUMPDEST SWAP2 POP PUSH2 0x55D6 DUP3 PUSH2 0x50FD JUMP JUMPDEST SWAP2 POP PUSH2 0x55E2 DUP3 DUP6 PUSH2 0x3F9C JUMP JUMPDEST SWAP2 POP PUSH2 0x55ED DUP3 PUSH2 0x5279 JUMP JUMPDEST SWAP2 POP PUSH2 0x55F8 DUP3 PUSH2 0x50FD JUMP JUMPDEST SWAP2 POP PUSH2 0x5604 DUP3 DUP5 PUSH2 0x3F9C JUMP JUMPDEST SWAP2 POP PUSH2 0x560F DUP3 PUSH2 0x52C5 JUMP JUMPDEST SWAP2 POP DUP2 SWAP1 POP SWAP7 SWAP6 POP POP POP POP POP POP JUMP JUMPDEST PUSH1 0x0 PUSH2 0x5629 DUP3 PUSH2 0x50FD JUMP JUMPDEST SWAP2 POP PUSH2 0x5635 DUP3 DUP8 PUSH2 0x3F9C JUMP JUMPDEST SWAP2 POP PUSH2 0x5640 DUP3 PUSH2 0x5195 JUMP JUMPDEST SWAP2 POP PUSH2 0x564B DUP3 PUSH2 0x50FD JUMP JUMPDEST SWAP2 POP PUSH2 0x5657 DUP3 DUP7 PUSH2 0x3F9C JUMP JUMPDEST SWAP2 POP PUSH2 0x5662 DUP3 PUSH2 0x51E1 JUMP JUMPDEST SWAP2 POP PUSH2 0x566D DUP3 PUSH2 0x50FD JUMP JUMPDEST SWAP2 POP PUSH2 0x5679 DUP3 DUP6 PUSH2 0x3F9C JUMP JUMPDEST SWAP2 POP PUSH2 0x5684 DUP3 PUSH2 0x5489 JUMP JUMPDEST SWAP2 POP PUSH2 0x568F DUP3 PUSH2 0x50FD JUMP JUMPDEST SWAP2 POP PUSH2 0x569B DUP3 DUP5 PUSH2 0x3F9C JUMP JUMPDEST SWAP2 POP PUSH2 0x56A6 DUP3 PUSH2 0x53ED JUMP JUMPDEST SWAP2 POP DUP2 SWAP1 POP SWAP6 SWAP5 POP POP POP POP POP JUMP JUMPDEST PUSH1 0x0 PUSH2 0x56BF DUP3 PUSH2 0x50FD JUMP JUMPDEST SWAP2 POP PUSH2 0x56CB DUP3 DUP9 PUSH2 0x3F9C JUMP JUMPDEST SWAP2 POP PUSH2 0x56D6 DUP3 PUSH2 0x5149 JUMP JUMPDEST SWAP2 POP PUSH2 0x56E1 DUP3 PUSH2 0x50FD JUMP JUMPDEST SWAP2 POP PUSH2 0x56ED DUP3 DUP8 PUSH2 0x3F9C JUMP JUMPDEST SWAP2 POP PUSH2 0x56F8 DUP3 PUSH2 0x5195 JUMP JUMPDEST SWAP2 POP PUSH2 0x5703 DUP3 PUSH2 0x50FD JUMP JUMPDEST SWAP2 POP PUSH2 0x570F DUP3 DUP7 PUSH2 0x3F9C JUMP JUMPDEST SWAP2 POP PUSH2 0x571A DUP3 PUSH2 0x5489 JUMP JUMPDEST SWAP2 POP PUSH2 0x5725 DUP3 PUSH2 0x50FD JUMP JUMPDEST SWAP2 POP PUSH2 0x5731 DUP3 DUP6 PUSH2 0x3F9C JUMP JUMPDEST SWAP2 POP PUSH2 0x573C DUP3 PUSH2 0x5279 JUMP JUMPDEST SWAP2 POP PUSH2 0x5747 DUP3 PUSH2 0x50FD JUMP JUMPDEST SWAP2 POP PUSH2 0x5753 DUP3 DUP5 PUSH2 0x3F9C JUMP JUMPDEST SWAP2 POP PUSH2 0x575E DUP3 PUSH2 0x52C5 JUMP JUMPDEST SWAP2 POP DUP2 SWAP1 POP SWAP7 SWAP6 POP POP POP POP POP POP JUMP JUMPDEST PUSH1 0x0 PUSH2 0x5778 DUP3 PUSH2 0x50FD JUMP JUMPDEST SWAP2 POP PUSH2 0x5784 DUP3 DUP10 PUSH2 0x3F9C JUMP JUMPDEST SWAP2 POP PUSH2 0x578F DUP3 PUSH2 0x5149 JUMP JUMPDEST SWAP2 POP PUSH2 0x579A DUP3 PUSH2 0x50FD JUMP JUMPDEST SWAP2 POP PUSH2 0x57A6 DUP3 DUP9 PUSH2 0x3F9C JUMP JUMPDEST SWAP2 POP PUSH2 0x57B1 DUP3 PUSH2 0x5195 JUMP JUMPDEST SWAP2 POP PUSH2 0x57BC DUP3 PUSH2 0x50FD JUMP JUMPDEST SWAP2 POP PUSH2 0x57C8 DUP3 DUP8 PUSH2 0x3F9C JUMP JUMPDEST SWAP2 POP PUSH2 0x57D3 DUP3 PUSH2 0x5489 JUMP JUMPDEST SWAP2 POP PUSH2 0x57DE DUP3 PUSH2 0x50FD JUMP JUMPDEST SWAP2 POP PUSH2 0x57EA DUP3 DUP7 PUSH2 0x3F9C JUMP JUMPDEST SWAP2 POP PUSH2 0x57F5 DUP3 PUSH2 0x522D JUMP JUMPDEST SWAP2 POP PUSH2 0x5800 DUP3 PUSH2 0x50FD JUMP JUMPDEST SWAP2 POP PUSH2 0x580C DUP3 DUP6 PUSH2 0x3F9C JUMP JUMPDEST SWAP2 POP PUSH2 0x5817 DUP3 PUSH2 0x5279 JUMP JUMPDEST SWAP2 POP PUSH2 0x5822 DUP3 PUSH2 0x50FD JUMP JUMPDEST SWAP2 POP PUSH2 0x582E DUP3 DUP5 PUSH2 0x3F9C JUMP JUMPDEST SWAP2 POP PUSH2 0x5839 DUP3 PUSH2 0x52C5 JUMP JUMPDEST SWAP2 POP DUP2 SWAP1 POP SWAP8 SWAP7 POP POP POP POP POP POP POP JUMP JUMPDEST PUSH1 0x0 PUSH2 0x5854 DUP3 PUSH2 0x50FD JUMP JUMPDEST SWAP2 POP PUSH2 0x5860 DUP3 DUP7 PUSH2 0x3F9C JUMP JUMPDEST SWAP2 POP PUSH2 0x586B DUP3 PUSH2 0x5149 JUMP JUMPDEST SWAP2 POP PUSH2 0x5876 DUP3 PUSH2 0x50FD JUMP JUMPDEST SWAP2 POP PUSH2 0x5882 DUP3 DUP6 PUSH2 0x3F9C JUMP JUMPDEST SWAP2 POP PUSH2 0x588D DUP3 PUSH2 0x51E1 JUMP JUMPDEST SWAP2 POP PUSH2 0x5898 DUP3 PUSH2 0x50FD JUMP JUMPDEST SWAP2 POP PUSH2 0x58A4 DUP3 DUP5 PUSH2 0x3F9C JUMP JUMPDEST SWAP2 POP PUSH2 0x58AF DUP3 PUSH2 0x53ED JUMP JUMPDEST SWAP2 POP DUP2 SWAP1 POP SWAP5 SWAP4 POP POP POP POP JUMP JUMPDEST PUSH1 0x0 PUSH2 0x58C7 DUP3 PUSH2 0x50FD JUMP JUMPDEST SWAP2 POP PUSH2 0x58D3 DUP3 DUP11 PUSH2 0x3F9C JUMP JUMPDEST SWAP2 POP PUSH2 0x58DE DUP3 PUSH2 0x5149 JUMP JUMPDEST SWAP2 POP PUSH2 0x58E9 DUP3 PUSH2 0x50FD JUMP JUMPDEST SWAP2 POP PUSH2 0x58F5 DUP3 DUP10 PUSH2 0x3F9C JUMP JUMPDEST SWAP2 POP PUSH2 0x5900 DUP3 PUSH2 0x5195 JUMP JUMPDEST SWAP2 POP PUSH2 0x590B DUP3 PUSH2 0x50FD JUMP JUMPDEST SWAP2 POP PUSH2 0x5917 DUP3 DUP9 PUSH2 0x3F9C JUMP JUMPDEST SWAP2 POP PUSH2 0x5922 DUP3 PUSH2 0x51E1 JUMP JUMPDEST SWAP2 POP PUSH2 0x592D DUP3 PUSH2 0x50FD JUMP JUMPDEST SWAP2 POP PUSH2 0x5939 DUP3 DUP8 PUSH2 0x3F9C JUMP JUMPDEST SWAP2 POP PUSH2 0x5944 DUP3 PUSH2 0x5489 JUMP JUMPDEST SWAP2 POP PUSH2 0x594F DUP3 PUSH2 0x50FD JUMP JUMPDEST SWAP2 POP PUSH2 0x595B DUP3 DUP7 PUSH2 0x3F9C JUMP JUMPDEST SWAP2 POP PUSH2 0x5966 DUP3 PUSH2 0x522D JUMP JUMPDEST SWAP2 POP PUSH2 0x5971 DUP3 PUSH2 0x50FD JUMP JUMPDEST SWAP2 POP PUSH2 0x597D DUP3 DUP6 PUSH2 0x3F9C JUMP JUMPDEST SWAP2 POP PUSH2 0x5988 DUP3 PUSH2 0x5279 JUMP JUMPDEST SWAP2 POP PUSH2 0x5993 DUP3 PUSH2 0x50FD JUMP JUMPDEST SWAP2 POP PUSH2 0x599F DUP3 DUP5 PUSH2 0x3F9C JUMP JUMPDEST SWAP2 POP PUSH2 0x59AA DUP3 PUSH2 0x52C5 JUMP JUMPDEST SWAP2 POP DUP2 SWAP1 POP SWAP9 SWAP8 POP POP POP POP POP POP POP POP JUMP JUMPDEST PUSH1 0x0 PUSH2 0x59C6 DUP3 PUSH2 0x50FD JUMP JUMPDEST SWAP2 POP PUSH2 0x59D2 DUP3 DUP10 PUSH2 0x3F9C JUMP JUMPDEST SWAP2 POP PUSH2 0x59DD DUP3 PUSH2 0x5149 JUMP JUMPDEST SWAP2 POP PUSH2 0x59E8 DUP3 PUSH2 0x50FD JUMP JUMPDEST SWAP2 POP PUSH2 0x59F4 DUP3 DUP9 PUSH2 0x3F9C JUMP JUMPDEST SWAP2 POP PUSH2 0x59FF DUP3 PUSH2 0x5195 JUMP JUMPDEST SWAP2 POP PUSH2 0x5A0A DUP3 PUSH2 0x50FD JUMP JUMPDEST SWAP2 POP PUSH2 0x5A16 DUP3 DUP8 PUSH2 0x3F9C JUMP JUMPDEST SWAP2 POP PUSH2 0x5A21 DUP3 PUSH2 0x51E1 JUMP JUMPDEST SWAP2 POP PUSH2 0x5A2C DUP3 PUSH2 0x50FD JUMP JUMPDEST SWAP2 POP PUSH2 0x5A38 DUP3 DUP7 PUSH2 0x3F9C JUMP JUMPDEST SWAP2 POP PUSH2 0x5A43 DUP3 PUSH2 0x5489 JUMP JUMPDEST SWAP2 POP PUSH2 0x5A4E DUP3 PUSH2 0x50FD JUMP JUMPDEST SWAP2 POP PUSH2 0x5A5A DUP3 DUP6 PUSH2 0x3F9C JUMP JUMPDEST SWAP2 POP PUSH2 0x5A65 DUP3 PUSH2 0x5279 JUMP JUMPDEST SWAP2 POP PUSH2 0x5A70 DUP3 PUSH2 0x50FD JUMP JUMPDEST SWAP2 POP PUSH2 0x5A7C DUP3 DUP5 PUSH2 0x3F9C JUMP JUMPDEST SWAP2 POP PUSH2 0x5A87 DUP3 PUSH2 0x52C5 JUMP JUMPDEST SWAP2 POP DUP2 SWAP1 POP SWAP8 SWAP7 POP POP POP POP POP POP POP JUMP JUMPDEST PUSH32 0x4E487B7100000000000000000000000000000000000000000000000000000000 PUSH1 0x0 MSTORE PUSH1 0x1 PUSH1 0x4 MSTORE PUSH1 0x24 PUSH1 0x0 REVERT INVALID COINBASE TIMESTAMP NUMBER PREVRANDAO GASLIMIT CHAINID SELFBALANCE BASEFEE 0x49 0x4A 0x4B 0x4C 0x4D 0x4E 0x4F POP MLOAD MSTORE MSTORE8 SLOAD SSTORE JUMP JUMPI PC MSIZE GAS PUSH2 0x6263 PUSH5 0x6566676869 PUSH11 0x6B6C6D6E6F707172737475 PUSH23 0x7778797A303132333435363738392B2F3C737667207669 PUSH6 0x77426F783D22 ADDRESS KECCAK256 ADDRESS KECCAK256 CALLER ADDRESS ADDRESS KECCAK256 CALLER ADDRESS ADDRESS 0x22 KECCAK256 PUSH7 0x696C6C3D226E6F PUSH15 0x652220786D6C6E733D22687474703A 0x2F 0x2F PUSH24 0x77772E77332E6F72672F323030302F737667223E3C726563 PUSH21 0x2069643D226267222077696474683D223330302220 PUSH9 0x65696768743D223330 ADDRESS 0x22 KECCAK256 PUSH7 0x696C6C3D222330 NUMBER ADDRESS NUMBER ADDRESS NUMBER 0x22 0x2F RETURNDATACOPY EXTCODECOPY PUSH17 0x6174682069643D227030312220643D224D BALANCE ADDRESS ADDRESS KECCAK256 BALANCE BALANCE CODECOPY 0x4C BALANCE ADDRESS CALLER KECCAK256 BALANCE ORIGIN ORIGIN 0x4C BALANCE ADDRESS ADDRESS KECCAK256 BALANCE ORIGIN CALLDATALOAD 0x4C CODESIZE ADDRESS KECCAK256 BALANCE ORIGIN CALLDATALOAD 0x4C CALLDATACOPY CALLDATACOPY KECCAK256 BALANCE ORIGIN ORIGIN 0x4C CODESIZE ADDRESS KECCAK256 BALANCE BALANCE CODECOPY 0x4C BALANCE ADDRESS ADDRESS KECCAK256 BALANCE BALANCE CODECOPY GAS 0x22 KECCAK256 PUSH7 0x696C6C3D227768 PUSH10 0x7465222066696C6C2D6F PUSH17 0x61636974793D22302E3035222F3E3C7061 PUSH21 0x682069643D227030322220643D224D373320313236 0x4C CALLDATACOPY CALLDATASIZE KECCAK256 BALANCE ORIGIN CALLER 0x4C CALLDATACOPY CODECOPY KECCAK256 BALANCE ORIGIN CALLDATASIZE JUMP BALANCE CALLVALUE CALLDATASIZE 0x4C CALLDATACOPY CALLDATASIZE KECCAK256 BALANCE CALLVALUE CODECOPY 0x4C CALLDATACOPY CALLER KECCAK256 BALANCE CALLVALUE CALLDATASIZE JUMP BALANCE ORIGIN CALLDATASIZE GAS 0x22 KECCAK256 PUSH7 0x696C6C3D227768 PUSH10 0x7465222066696C6C2D6F PUSH17 0x61636974793D22302E3035222F3E3C7061 PUSH21 0x682069643D227030332220643D224D313031203132 CALLDATASIZE 0x4C BALANCE ADDRESS CALLVALUE KECCAK256 BALANCE ORIGIN CALLER 0x4C BALANCE ADDRESS CALLDATACOPY KECCAK256 BALANCE ORIGIN CALLDATASIZE JUMP BALANCE CALLVALUE CALLDATASIZE 0x4C BALANCE ADDRESS CALLVALUE KECCAK256 BALANCE CALLVALUE CODECOPY 0x4C BALANCE ADDRESS BALANCE KECCAK256 BALANCE CALLVALUE CALLDATASIZE JUMP BALANCE ORIGIN CALLDATASIZE GAS 0x22 KECCAK256 PUSH7 0x696C6C3D227768 PUSH10 0x7465222066696C6C2D6F PUSH17 0x61636974793D22302E3035222F3E3C7061 PUSH21 0x682069643D227030342220643D224D313030203134 CALLDATACOPY 0x4C BALANCE ADDRESS CALLER KECCAK256 BALANCE CALLDATALOAD ADDRESS 0x4C BALANCE ADDRESS ADDRESS KECCAK256 BALANCE CALLDATALOAD CALLER 0x4C CODESIZE ADDRESS KECCAK256 BALANCE CALLDATALOAD CALLER 0x4C CALLDATACOPY CALLDATACOPY KECCAK256 BALANCE CALLDATALOAD ADDRESS 0x4C CODESIZE ADDRESS KECCAK256 BALANCE CALLVALUE CALLDATACOPY 0x4C BALANCE ADDRESS ADDRESS KECCAK256 BALANCE CALLVALUE CALLDATACOPY GAS 0x22 KECCAK256 PUSH7 0x696C6C3D227768 PUSH10 0x7465222066696C6C2D6F PUSH17 0x61636974793D22302E3035222F3E3C7061 PUSH21 0x682069643D227030352220643D224D373320313534 0x4C CALLDATACOPY CALLDATASIZE KECCAK256 BALANCE CALLDATALOAD BALANCE 0x4C CALLDATACOPY CODECOPY KECCAK256 BALANCE CALLDATALOAD CALLVALUE JUMP BALANCE CALLDATACOPY CALLVALUE 0x4C CALLDATACOPY CALLDATASIZE KECCAK256 BALANCE CALLDATACOPY CALLDATACOPY 0x4C CALLDATACOPY CALLER KECCAK256 BALANCE CALLDATACOPY CALLVALUE JUMP BALANCE CALLDATALOAD CALLVALUE GAS 0x22 KECCAK256 PUSH7 0x696C6C3D227768 PUSH10 0x7465222066696C6C2D6F PUSH17 0x61636974793D22302E3035222F3E3C7061 PUSH21 0x682069643D227030362220643D224D313031203135 CALLVALUE 0x4C BALANCE ADDRESS CALLVALUE KECCAK256 BALANCE CALLDATALOAD BALANCE 0x4C BALANCE ADDRESS CALLDATACOPY KECCAK256 BALANCE CALLDATALOAD CALLVALUE JUMP BALANCE CALLDATACOPY CALLVALUE 0x4C BALANCE ADDRESS CALLVALUE KECCAK256 BALANCE CALLDATACOPY CALLDATACOPY 0x4C BALANCE ADDRESS BALANCE KECCAK256 BALANCE CALLDATACOPY CALLVALUE JUMP BALANCE CALLDATALOAD CALLVALUE GAS 0x22 KECCAK256 PUSH7 0x696C6C3D227768 PUSH10 0x7465222066696C6C2D6F PUSH17 0x61636974793D22302E3035222F3E3C7061 PUSH21 0x682069643D227030372220643D224D313030203137 CALLDATALOAD 0x4C BALANCE ADDRESS CALLER KECCAK256 BALANCE CALLDATACOPY CODESIZE 0x4C BALANCE ADDRESS ADDRESS KECCAK256 BALANCE CODESIZE BALANCE 0x4C CODESIZE ADDRESS KECCAK256 BALANCE CODESIZE BALANCE 0x4C CALLDATACOPY CALLDATACOPY KECCAK256 BALANCE CALLDATACOPY CODESIZE 0x4C CODESIZE ADDRESS KECCAK256 BALANCE CALLDATACOPY CALLDATALOAD 0x4C BALANCE ADDRESS ADDRESS KECCAK256 BALANCE CALLDATACOPY CALLDATALOAD GAS 0x22 KECCAK256 PUSH7 0x696C6C3D227768 PUSH10 0x7465222066696C6C2D6F PUSH17 0x61636974793D22302E3035222F3E3C7061 PUSH21 0x682069643D227031312220643D224D313430203131 CODECOPY 0x4C BALANCE CALLVALUE CALLER KECCAK256 BALANCE ORIGIN ORIGIN 0x4C BALANCE CALLVALUE ADDRESS KECCAK256 BALANCE ORIGIN CALLDATALOAD 0x4C BALANCE ORIGIN ADDRESS KECCAK256 BALANCE ORIGIN CALLDATALOAD 0x4C BALANCE BALANCE CALLDATACOPY KECCAK256 BALANCE ORIGIN ORIGIN 0x4C BALANCE ORIGIN ADDRESS KECCAK256 BALANCE BALANCE CODECOPY 0x4C BALANCE CALLVALUE ADDRESS KECCAK256 BALANCE BALANCE CODECOPY GAS 0x22 KECCAK256 PUSH7 0x696C6C3D227768 PUSH10 0x7465222066696C6C2D6F PUSH17 0x61636974793D22302E3035222F3E3C7061 PUSH21 0x682069643D227031322220643D224D313133203132 CALLDATASIZE 0x4C BALANCE BALANCE CALLDATASIZE KECCAK256 BALANCE ORIGIN CALLER 0x4C BALANCE BALANCE CODECOPY KECCAK256 BALANCE ORIGIN CALLDATASIZE JUMP BALANCE CALLVALUE CALLDATASIZE 0x4C BALANCE BALANCE CALLDATASIZE KECCAK256 BALANCE CALLVALUE CODECOPY 0x4C BALANCE BALANCE CALLER KECCAK256 BALANCE CALLVALUE CALLDATASIZE JUMP BALANCE ORIGIN CALLDATASIZE GAS 0x22 KECCAK256 PUSH7 0x696C6C3D227768 PUSH10 0x7465222066696C6C2D6F PUSH17 0x61636974793D22302E3035222F3E3C7061 PUSH21 0x682069643D227031332220643D224D313431203132 CALLDATASIZE 0x4C BALANCE CALLVALUE CALLVALUE KECCAK256 BALANCE ORIGIN CALLER 0x4C BALANCE CALLVALUE CALLDATACOPY KECCAK256 BALANCE ORIGIN CALLDATASIZE JUMP BALANCE CALLVALUE CALLDATASIZE 0x4C BALANCE CALLVALUE CALLVALUE KECCAK256 BALANCE CALLVALUE CODECOPY 0x4C BALANCE CALLVALUE BALANCE KECCAK256 BALANCE CALLVALUE CALLDATASIZE JUMP BALANCE ORIGIN CALLDATASIZE GAS 0x22 KECCAK256 PUSH7 0x696C6C3D227768 PUSH10 0x7465222066696C6C2D6F PUSH17 0x61636974793D22302E3035222F3E3C7061 PUSH21 0x682069643D227031342220643D224D313430203134 CALLDATACOPY 0x4C BALANCE CALLVALUE CALLER KECCAK256 BALANCE CALLDATALOAD ADDRESS 0x4C BALANCE CALLVALUE ADDRESS KECCAK256 BALANCE CALLDATALOAD CALLER 0x4C BALANCE ORIGIN ADDRESS KECCAK256 BALANCE CALLDATALOAD CALLER 0x4C BALANCE BALANCE CALLDATACOPY KECCAK256 BALANCE CALLDATALOAD ADDRESS 0x4C BALANCE ORIGIN ADDRESS KECCAK256 BALANCE CALLVALUE CALLDATACOPY 0x4C BALANCE CALLVALUE ADDRESS KECCAK256 BALANCE CALLVALUE CALLDATACOPY GAS 0x22 KECCAK256 PUSH7 0x696C6C3D227768 PUSH10 0x7465222066696C6C2D6F PUSH17 0x61636974793D22302E3035222F3E3C7061 PUSH21 0x682069643D227031352220643D224D313133203135 CALLVALUE 0x4C BALANCE BALANCE CALLDATASIZE KECCAK256 BALANCE CALLDATALOAD BALANCE 0x4C BALANCE BALANCE CODECOPY KECCAK256 BALANCE CALLDATALOAD CALLVALUE JUMP BALANCE CALLDATACOPY CALLVALUE 0x4C BALANCE BALANCE CALLDATASIZE KECCAK256 BALANCE CALLDATACOPY CALLDATACOPY 0x4C BALANCE BALANCE CALLER KECCAK256 BALANCE CALLDATACOPY CALLVALUE JUMP BALANCE CALLDATALOAD CALLVALUE GAS 0x22 KECCAK256 PUSH7 0x696C6C3D227768 PUSH10 0x7465222066696C6C2D6F PUSH17 0x61636974793D22302E3035222F3E3C7061 PUSH21 0x682069643D227031362220643D224D313431203135 CALLVALUE 0x4C BALANCE CALLVALUE CALLVALUE KECCAK256 BALANCE CALLDATALOAD BALANCE 0x4C BALANCE CALLVALUE CALLDATACOPY KECCAK256 BALANCE CALLDATALOAD CALLVALUE JUMP BALANCE CALLDATACOPY CALLVALUE 0x4C BALANCE CALLVALUE CALLVALUE KECCAK256 BALANCE CALLDATACOPY CALLDATACOPY 0x4C BALANCE CALLVALUE BALANCE KECCAK256 BALANCE CALLDATACOPY CALLVALUE JUMP BALANCE CALLDATALOAD CALLVALUE GAS 0x22 KECCAK256 PUSH7 0x696C6C3D227768 PUSH10 0x7465222066696C6C2D6F PUSH17 0x61636974793D22302E3035222F3E3C7061 PUSH21 0x682069643D227031372220643D224D313430203137 CALLDATALOAD 0x4C BALANCE CALLVALUE CALLER KECCAK256 BALANCE CALLDATACOPY CODESIZE 0x4C BALANCE CALLVALUE ADDRESS KECCAK256 BALANCE CODESIZE BALANCE 0x4C BALANCE ORIGIN ADDRESS KECCAK256 BALANCE CODESIZE BALANCE 0x4C BALANCE BALANCE CALLDATACOPY KECCAK256 BALANCE CALLDATACOPY CODESIZE 0x4C BALANCE ORIGIN ADDRESS KECCAK256 BALANCE CALLDATACOPY CALLDATALOAD 0x4C BALANCE CALLVALUE ADDRESS KECCAK256 BALANCE CALLDATACOPY CALLDATALOAD GAS 0x22 KECCAK256 PUSH7 0x696C6C3D227768 PUSH10 0x7465222066696C6C2D6F PUSH17 0x61636974793D22302E3035222F3E3C7061 PUSH21 0x682069643D227032312220643D224D313830203131 CODECOPY 0x4C BALANCE CODESIZE CALLER KECCAK256 BALANCE ORIGIN ORIGIN 0x4C BALANCE CODESIZE ADDRESS KECCAK256 BALANCE ORIGIN CALLDATALOAD 0x4C BALANCE CALLDATASIZE ADDRESS KECCAK256 BALANCE ORIGIN CALLDATALOAD 0x4C BALANCE CALLDATALOAD CALLDATACOPY KECCAK256 BALANCE ORIGIN ORIGIN 0x4C BALANCE CALLDATASIZE ADDRESS KECCAK256 BALANCE BALANCE CODECOPY 0x4C BALANCE CODESIZE ADDRESS KECCAK256 BALANCE BALANCE CODECOPY GAS 0x22 KECCAK256 PUSH7 0x696C6C3D227768 PUSH10 0x7465222066696C6C2D6F PUSH17 0x61636974793D22302E3035222F3E3C7061 PUSH21 0x682069643D227032322220643D224D313533203132 CALLDATASIZE 0x4C BALANCE CALLDATALOAD CALLDATASIZE KECCAK256 BALANCE ORIGIN CALLER 0x4C BALANCE CALLDATALOAD CODECOPY KECCAK256 BALANCE ORIGIN CALLDATASIZE JUMP BALANCE CALLVALUE CALLDATASIZE 0x4C BALANCE CALLDATALOAD CALLDATASIZE KECCAK256 BALANCE CALLVALUE CODECOPY 0x4C BALANCE CALLDATALOAD CALLER KECCAK256 BALANCE CALLVALUE CALLDATASIZE JUMP BALANCE ORIGIN CALLDATASIZE GAS 0x22 KECCAK256 PUSH7 0x696C6C3D227768 PUSH10 0x7465222066696C6C2D6F PUSH17 0x61636974793D22302E3035222F3E3C7061 PUSH21 0x682069643D227032332220643D224D313831203132 CALLDATASIZE 0x4C BALANCE CODESIZE CALLVALUE KECCAK256 BALANCE ORIGIN CALLER 0x4C BALANCE CODESIZE CALLDATACOPY KECCAK256 BALANCE ORIGIN CALLDATASIZE JUMP BALANCE CALLVALUE CALLDATASIZE 0x4C BALANCE CODESIZE CALLVALUE KECCAK256 BALANCE CALLVALUE CODECOPY 0x4C BALANCE CODESIZE BALANCE KECCAK256 BALANCE CALLVALUE CALLDATASIZE JUMP BALANCE ORIGIN CALLDATASIZE GAS 0x22 KECCAK256 PUSH7 0x696C6C3D227768 PUSH10 0x7465222066696C6C2D6F PUSH17 0x61636974793D22302E3035222F3E3C7061 PUSH21 0x682069643D227032342220643D224D313830203134 CALLDATACOPY 0x4C BALANCE CODESIZE CALLER KECCAK256 BALANCE CALLDATALOAD ADDRESS 0x4C BALANCE CODESIZE ADDRESS KECCAK256 BALANCE CALLDATALOAD CALLER 0x4C BALANCE CALLDATASIZE ADDRESS KECCAK256 BALANCE CALLDATALOAD CALLER 0x4C BALANCE CALLDATALOAD CALLDATACOPY KECCAK256 BALANCE CALLDATALOAD ADDRESS 0x4C BALANCE CALLDATASIZE ADDRESS KECCAK256 BALANCE CALLVALUE CALLDATACOPY 0x4C BALANCE CODESIZE ADDRESS KECCAK256 BALANCE CALLVALUE CALLDATACOPY GAS 0x22 KECCAK256 PUSH7 0x696C6C3D227768 PUSH10 0x7465222066696C6C2D6F PUSH17 0x61636974793D22302E3035222F3E3C7061 PUSH21 0x682069643D227032352220643D224D313533203135 CALLVALUE 0x4C BALANCE CALLDATALOAD CALLDATASIZE KECCAK256 BALANCE CALLDATALOAD BALANCE 0x4C BALANCE CALLDATALOAD CODECOPY KECCAK256 BALANCE CALLDATALOAD CALLVALUE JUMP BALANCE CALLDATACOPY CALLVALUE 0x4C BALANCE CALLDATALOAD CALLDATASIZE KECCAK256 BALANCE CALLDATACOPY CALLDATACOPY 0x4C BALANCE CALLDATALOAD CALLER KECCAK256 BALANCE CALLDATACOPY CALLVALUE JUMP BALANCE CALLDATALOAD CALLVALUE GAS 0x22 KECCAK256 PUSH7 0x696C6C3D227768 PUSH10 0x7465222066696C6C2D6F PUSH17 0x61636974793D22302E3035222F3E3C7061 PUSH21 0x682069643D227032362220643D224D313831203135 CALLVALUE 0x4C BALANCE CODESIZE CALLVALUE KECCAK256 BALANCE CALLDATALOAD BALANCE 0x4C BALANCE CODESIZE CALLDATACOPY KECCAK256 BALANCE CALLDATALOAD CALLVALUE JUMP BALANCE CALLDATACOPY CALLVALUE 0x4C BALANCE CODESIZE CALLVALUE KECCAK256 BALANCE CALLDATACOPY CALLDATACOPY 0x4C BALANCE CODESIZE BALANCE KECCAK256 BALANCE CALLDATACOPY CALLVALUE JUMP BALANCE CALLDATALOAD CALLVALUE GAS 0x22 KECCAK256 PUSH7 0x696C6C3D227768 PUSH10 0x7465222066696C6C2D6F PUSH17 0x61636974793D22302E3035222F3E3C7061 PUSH21 0x682069643D227032372220643D224D313830203137 CALLDATALOAD 0x4C BALANCE CODESIZE CALLER KECCAK256 BALANCE CALLDATACOPY CODESIZE 0x4C BALANCE CODESIZE ADDRESS KECCAK256 BALANCE CODESIZE BALANCE 0x4C BALANCE CALLDATASIZE ADDRESS KECCAK256 BALANCE CODESIZE BALANCE 0x4C BALANCE CALLDATALOAD CALLDATACOPY KECCAK256 BALANCE CALLDATACOPY CODESIZE 0x4C BALANCE CALLDATASIZE ADDRESS KECCAK256 BALANCE CALLDATACOPY CALLDATALOAD 0x4C BALANCE CODESIZE ADDRESS KECCAK256 BALANCE CALLDATACOPY CALLDATALOAD GAS 0x22 KECCAK256 PUSH7 0x696C6C3D227768 PUSH10 0x7465222066696C6C2D6F PUSH17 0x61636974793D22302E3035222F3E3C7061 PUSH21 0x682069643D227033312220643D224D323230203131 CODECOPY 0x4C ORIGIN ORIGIN CALLER KECCAK256 BALANCE ORIGIN ORIGIN 0x4C ORIGIN ORIGIN ADDRESS KECCAK256 BALANCE ORIGIN CALLDATALOAD 0x4C ORIGIN ADDRESS ADDRESS KECCAK256 BALANCE ORIGIN CALLDATALOAD 0x4C BALANCE CODECOPY CALLDATACOPY KECCAK256 BALANCE ORIGIN ORIGIN 0x4C ORIGIN ADDRESS ADDRESS KECCAK256 BALANCE BALANCE CODECOPY 0x4C ORIGIN ORIGIN ADDRESS KECCAK256 BALANCE BALANCE CODECOPY GAS 0x22 KECCAK256 PUSH7 0x696C6C3D227768 PUSH10 0x7465222066696C6C2D6F PUSH17 0x61636974793D22302E3035222F3E3C7061 PUSH21 0x682069643D227033322220643D224D313933203132 CALLDATASIZE 0x4C BALANCE CODECOPY CALLDATASIZE KECCAK256 BALANCE ORIGIN CALLER 0x4C BALANCE CODECOPY CODECOPY KECCAK256 BALANCE ORIGIN CALLDATASIZE JUMP BALANCE CALLVALUE CALLDATASIZE 0x4C BALANCE CODECOPY CALLDATASIZE KECCAK256 BALANCE CALLVALUE CODECOPY 0x4C BALANCE CODECOPY CALLER KECCAK256 BALANCE CALLVALUE CALLDATASIZE JUMP BALANCE ORIGIN CALLDATASIZE GAS 0x22 KECCAK256 PUSH7 0x696C6C3D227768 PUSH10 0x7465222066696C6C2D6F PUSH17 0x61636974793D22302E3035222F3E3C7061 PUSH21 0x682069643D227033332220643D224D323231203132 CALLDATASIZE 0x4C ORIGIN ORIGIN CALLVALUE KECCAK256 BALANCE ORIGIN CALLER 0x4C ORIGIN ORIGIN CALLDATACOPY KECCAK256 BALANCE ORIGIN CALLDATASIZE JUMP BALANCE CALLVALUE CALLDATASIZE 0x4C ORIGIN ORIGIN CALLVALUE KECCAK256 BALANCE CALLVALUE CODECOPY 0x4C ORIGIN ORIGIN BALANCE KECCAK256 BALANCE CALLVALUE CALLDATASIZE JUMP BALANCE ORIGIN CALLDATASIZE GAS 0x22 KECCAK256 PUSH7 0x696C6C3D227768 PUSH10 0x7465222066696C6C2D6F PUSH17 0x61636974793D22302E3035222F3E3C7061 PUSH21 0x682069643D227033342220643D224D323230203134 CALLDATACOPY 0x4C ORIGIN ORIGIN CALLER KECCAK256 BALANCE CALLDATALOAD ADDRESS 0x4C ORIGIN ORIGIN ADDRESS KECCAK256 BALANCE CALLDATALOAD CALLER 0x4C ORIGIN ADDRESS ADDRESS KECCAK256 BALANCE CALLDATALOAD CALLER 0x4C BALANCE CODECOPY CALLDATACOPY KECCAK256 BALANCE CALLDATALOAD ADDRESS 0x4C ORIGIN ADDRESS ADDRESS KECCAK256 BALANCE CALLVALUE CALLDATACOPY 0x4C ORIGIN ORIGIN ADDRESS KECCAK256 BALANCE CALLVALUE CALLDATACOPY GAS 0x22 KECCAK256 PUSH7 0x696C6C3D227768 PUSH10 0x7465222066696C6C2D6F PUSH17 0x61636974793D22302E3035222F3E3C7061 PUSH21 0x682069643D227033352220643D224D313933203135 CALLVALUE 0x4C BALANCE CODECOPY CALLDATASIZE KECCAK256 BALANCE CALLDATALOAD BALANCE 0x4C BALANCE CODECOPY CODECOPY KECCAK256 BALANCE CALLDATALOAD CALLVALUE JUMP BALANCE CALLDATACOPY CALLVALUE 0x4C BALANCE CODECOPY CALLDATASIZE KECCAK256 BALANCE CALLDATACOPY CALLDATACOPY 0x4C BALANCE CODECOPY CALLER KECCAK256 BALANCE CALLDATACOPY CALLVALUE JUMP BALANCE CALLDATALOAD CALLVALUE GAS 0x22 KECCAK256 PUSH7 0x696C6C3D227768 PUSH10 0x7465222066696C6C2D6F PUSH17 0x61636974793D22302E3035222F3E3C7061 PUSH21 0x682069643D227033362220643D224D323231203135 CALLVALUE 0x4C ORIGIN ORIGIN CALLVALUE KECCAK256 BALANCE CALLDATALOAD BALANCE 0x4C ORIGIN ORIGIN CALLDATACOPY KECCAK256 BALANCE CALLDATALOAD CALLVALUE JUMP BALANCE CALLDATACOPY CALLVALUE 0x4C ORIGIN ORIGIN CALLVALUE KECCAK256 BALANCE CALLDATACOPY CALLDATACOPY 0x4C ORIGIN ORIGIN BALANCE KECCAK256 BALANCE CALLDATACOPY CALLVALUE JUMP BALANCE CALLDATALOAD CALLVALUE GAS 0x22 KECCAK256 PUSH7 0x696C6C3D227768 PUSH10 0x7465222066696C6C2D6F PUSH17 0x61636974793D22302E3035222F3E3C7061 PUSH21 0x682069643D227033372220643D224D323230203137 CALLDATALOAD 0x4C ORIGIN ORIGIN CALLER KECCAK256 BALANCE CALLDATACOPY CODESIZE 0x4C ORIGIN ORIGIN ADDRESS KECCAK256 BALANCE CODESIZE BALANCE 0x4C ORIGIN ADDRESS ADDRESS KECCAK256 BALANCE CODESIZE BALANCE 0x4C BALANCE CODECOPY CALLDATACOPY KECCAK256 BALANCE CALLDATACOPY CODESIZE 0x4C ORIGIN ADDRESS ADDRESS KECCAK256 BALANCE CALLDATACOPY CALLDATALOAD 0x4C ORIGIN ORIGIN ADDRESS KECCAK256 BALANCE CALLDATACOPY CALLDATALOAD GAS 0x22 KECCAK256 PUSH7 0x696C6C3D227768 PUSH10 0x7465222066696C6C2D6F PUSH17 0x61636974793D22302E3035222F3E3C7374 PUSH26 0x6C653EA2646970667358221220B346F60C7FD479BF6990628C8D 0xE1 0x49 OR CALLDATACOPY ORIGIN RETURNDATACOPY SWAP2 0xF7 BALANCE CALLER CALLVALUE 0xF9 0xAA SWAP1 AND 0xF6 0xA9 CODESIZE PUSH2 0x6473 PUSH16 0x6C634300081200330000000000000000 "
		},
		"gasEstimates": {
			"creation": {
				"codeDepositCost": "5290600",
				"executionCost": "infinite",
				"totalCost": "infinite"
			},
			"external": {
				"approve(address,uint256)": "infinite",
				"balanceOf(address)": "2993",
				"combine(uint256[])": "infinite",
				"getApproved(uint256)": "7389",
				"getValue(uint256)": "infinite",
				"isApprovedForAll(address,address)": "infinite",
				"isCombinable()": "2561",
				"luckyNumber()": "infinite",
				"mint(uint256)": "infinite",
				"name()": "infinite",
				"owner()": "2567",
				"ownerOf(uint256)": "infinite",
				"price()": "2540",
				"randomLuckyNumber()": "infinite",
				"renounceOwnership()": "30421",
				"safeTransferFrom(address,address,uint256)": "infinite",
				"safeTransferFrom(address,address,uint256,bytes)": "infinite",
				"setApprovalForAll(address,bool)": "infinite",
				"supportsInterface(bytes4)": "745",
				"symbol()": "infinite",
				"toggleCombinable()": "28903",
				"tokenURI(uint256)": "infinite",
				"totalSupply()": "4718",
				"transferFrom(address,address,uint256)": "infinite",
				"transferOwnership(address)": "30854",
				"withdraw()": "infinite"
			},
			"internal": {
				"_startTokenId()": "23",
				"handleMint(address,uint256)": "infinite"
			}
		},
		"methodIdentifiers": {
			"approve(address,uint256)": "095ea7b3",
			"balanceOf(address)": "70a08231",
			"combine(uint256[])": "25e514c6",
			"getApproved(uint256)": "081812fc",
			"getValue(uint256)": "0ff4c916",
			"isApprovedForAll(address,address)": "e985e9c5",
			"isCombinable()": "37c5fa0d",
			"luckyNumber()": "bf205ebc",
			"mint(uint256)": "a0712d68",
			"name()": "06fdde03",
			"owner()": "8da5cb5b",
			"ownerOf(uint256)": "6352211e",
			"price()": "a035b1fe",
			"randomLuckyNumber()": "8ef9ae59",
			"renounceOwnership()": "715018a6",
			"safeTransferFrom(address,address,uint256)": "42842e0e",
			"safeTransferFrom(address,address,uint256,bytes)": "b88d4fde",
			"setApprovalForAll(address,bool)": "a22cb465",
			"supportsInterface(bytes4)": "01ffc9a7",
			"symbol()": "95d89b41",
			"toggleCombinable()": "b8be6e98",
			"tokenURI(uint256)": "c87b56dd",
			"totalSupply()": "18160ddd",
			"transferFrom(address,address,uint256)": "23b872dd",
			"transferOwnership(address)": "f2fde38b",
			"withdraw()": "3ccfd60b"
		}
	},
	"abi": [
		{
			"inputs": [],
			"stateMutability": "nonpayable",
			"type": "constructor"
		},
		{
			"inputs": [],
			"name": "ApprovalCallerNotOwnerNorApproved",
			"type": "error"
		},
		{
			"inputs": [],
			"name": "ApprovalQueryForNonexistentToken",
			"type": "error"
		},
		{
			"inputs": [],
			"name": "BalanceQueryForZeroAddress",
			"type": "error"
		},
		{
			"inputs": [],
			"name": "MintERC2309QuantityExceedsLimit",
			"type": "error"
		},
		{
			"inputs": [],
			"name": "MintToZeroAddress",
			"type": "error"
		},
		{
			"inputs": [],
			"name": "MintZeroQuantity",
			"type": "error"
		},
		{
			"inputs": [],
			"name": "OwnerQueryForNonexistentToken",
			"type": "error"
		},
		{
			"inputs": [],
			"name": "OwnershipNotInitializedForExtraData",
			"type": "error"
		},
		{
			"inputs": [],
			"name": "TransferCallerNotOwnerNorApproved",
			"type": "error"
		},
		{
			"inputs": [],
			"name": "TransferFromIncorrectOwner",
			"type": "error"
		},
		{
			"inputs": [],
			"name": "TransferToNonERC721ReceiverImplementer",
			"type": "error"
		},
		{
			"inputs": [],
			"name": "TransferToZeroAddress",
			"type": "error"
		},
		{
			"inputs": [],
			"name": "URIQueryForNonexistentToken",
			"type": "error"
		},
		{
			"anonymous": false,
			"inputs": [
				{
					"indexed": true,
					"internalType": "address",
					"name": "owner",
					"type": "address"
				},
				{
					"indexed": true,
					"internalType": "address",
					"name": "approved",
					"type": "address"
				},
				{
					"indexed": true,
					"internalType": "uint256",
					"name": "tokenId",
					"type": "uint256"
				}
			],
			"name": "Approval",
			"type": "event"
		},
		{
			"anonymous": false,
			"inputs": [
				{
					"indexed": true,
					"internalType": "address",
					"name": "owner",
					"type": "address"
				},
				{
					"indexed": true,
					"internalType": "address",
					"name": "operator",
					"type": "address"
				},
				{
					"indexed": false,
					"internalType": "bool",
					"name": "approved",
					"type": "bool"
				}
			],
			"name": "ApprovalForAll",
			"type": "event"
		},
		{
			"anonymous": false,
			"inputs": [
				{
					"indexed": true,
					"internalType": "uint256",
					"name": "fromTokenId",
					"type": "uint256"
				},
				{
					"indexed": false,
					"internalType": "uint256",
					"name": "toTokenId",
					"type": "uint256"
				},
				{
					"indexed": true,
					"internalType": "address",
					"name": "from",
					"type": "address"
				},
				{
					"indexed": true,
					"internalType": "address",
					"name": "to",
					"type": "address"
				}
			],
			"name": "ConsecutiveTransfer",
			"type": "event"
		},
		{
			"anonymous": false,
			"inputs": [
				{
					"indexed": false,
					"internalType": "uint256",
					"name": "_finalBlock",
					"type": "uint256"
				}
			],
			"name": "CountdownExtended",
			"type": "event"
		},
		{
			"anonymous": false,
			"inputs": [
				{
					"indexed": false,
					"internalType": "uint256",
					"name": "_tokenId",
					"type": "uint256"
				}
			],
			"name": "MetadataUpdate",
			"type": "event"
		},
		{
			"anonymous": false,
			"inputs": [
				{
					"indexed": true,
					"internalType": "address",
					"name": "previousOwner",
					"type": "address"
				},
				{
					"indexed": true,
					"internalType": "address",
					"name": "newOwner",
					"type": "address"
				}
			],
			"name": "OwnershipTransferred",
			"type": "event"
		},
		{
			"anonymous": false,
			"inputs": [
				{
					"indexed": true,
					"internalType": "address",
					"name": "from",
					"type": "address"
				},
				{
					"indexed": true,
					"internalType": "address",
					"name": "to",
					"type": "address"
				},
				{
					"indexed": true,
					"internalType": "uint256",
					"name": "tokenId",
					"type": "uint256"
				}
			],
			"name": "Transfer",
			"type": "event"
		},
		{
			"inputs": [
				{
					"internalType": "address",
					"name": "to",
					"type": "address"
				},
				{
					"internalType": "uint256",
					"name": "tokenId",
					"type": "uint256"
				}
			],
			"name": "approve",
			"outputs": [],
			"stateMutability": "payable",
			"type": "function"
		},
		{
			"inputs": [
				{
					"internalType": "address",
					"name": "owner",
					"type": "address"
				}
			],
			"name": "balanceOf",
			"outputs": [
				{
					"internalType": "uint256",
					"name": "",
					"type": "uint256"
				}
			],
			"stateMutability": "view",
			"type": "function"
		},
		{
			"inputs": [
				{
					"internalType": "uint256[]",
					"name": "tokens",
					"type": "uint256[]"
				}
			],
			"name": "combine",
			"outputs": [],
			"stateMutability": "nonpayable",
			"type": "function"
		},
		{
			"inputs": [
				{
					"internalType": "uint256",
					"name": "tokenId",
					"type": "uint256"
				}
			],
			"name": "getApproved",
			"outputs": [
				{
					"internalType": "address",
					"name": "",
					"type": "address"
				}
			],
			"stateMutability": "view",
			"type": "function"
		},
		{
			"inputs": [
				{
					"internalType": "uint256",
					"name": "tokenId",
					"type": "uint256"
				}
			],
			"name": "getValue",
			"outputs": [
				{
					"internalType": "string",
					"name": "",
					"type": "string"
				}
			],
			"stateMutability": "view",
			"type": "function"
		},
		{
			"inputs": [
				{
					"internalType": "address",
					"name": "owner",
					"type": "address"
				},
				{
					"internalType": "address",
					"name": "operator",
					"type": "address"
				}
			],
			"name": "isApprovedForAll",
			"outputs": [
				{
					"internalType": "bool",
					"name": "",
					"type": "bool"
				}
			],
			"stateMutability": "view",
			"type": "function"
		},
		{
			"inputs": [],
			"name": "isCombinable",
			"outputs": [
				{
					"internalType": "bool",
					"name": "",
					"type": "bool"
				}
			],
			"stateMutability": "view",
			"type": "function"
		},
		{
			"inputs": [],
			"name": "luckyNumber",
			"outputs": [
				{
					"internalType": "string",
					"name": "",
					"type": "string"
				}
			],
			"stateMutability": "view",
			"type": "function"
		},
		{
			"inputs": [
				{
					"internalType": "uint256",
					"name": "quantity",
					"type": "uint256"
				}
			],
			"name": "mint",
			"outputs": [],
			"stateMutability": "payable",
			"type": "function"
		},
		{
			"inputs": [],
			"name": "name",
			"outputs": [
				{
					"internalType": "string",
					"name": "",
					"type": "string"
				}
			],
			"stateMutability": "view",
			"type": "function"
		},
		{
			"inputs": [],
			"name": "owner",
			"outputs": [
				{
					"internalType": "address",
					"name": "",
					"type": "address"
				}
			],
			"stateMutability": "view",
			"type": "function"
		},
		{
			"inputs": [
				{
					"internalType": "uint256",
					"name": "tokenId",
					"type": "uint256"
				}
			],
			"name": "ownerOf",
			"outputs": [
				{
					"internalType": "address",
					"name": "",
					"type": "address"
				}
			],
			"stateMutability": "view",
			"type": "function"
		},
		{
			"inputs": [],
			"name": "price",
			"outputs": [
				{
					"internalType": "uint256",
					"name": "",
					"type": "uint256"
				}
			],
			"stateMutability": "view",
			"type": "function"
		},
		{
			"inputs": [],
			"name": "randomLuckyNumber",
			"outputs": [],
			"stateMutability": "nonpayable",
			"type": "function"
		},
		{
			"inputs": [],
			"name": "renounceOwnership",
			"outputs": [],
			"stateMutability": "nonpayable",
			"type": "function"
		},
		{
			"inputs": [
				{
					"internalType": "address",
					"name": "from",
					"type": "address"
				},
				{
					"internalType": "address",
					"name": "to",
					"type": "address"
				},
				{
					"internalType": "uint256",
					"name": "tokenId",
					"type": "uint256"
				}
			],
			"name": "safeTransferFrom",
			"outputs": [],
			"stateMutability": "payable",
			"type": "function"
		},
		{
			"inputs": [
				{
					"internalType": "address",
					"name": "from",
					"type": "address"
				},
				{
					"internalType": "address",
					"name": "to",
					"type": "address"
				},
				{
					"internalType": "uint256",
					"name": "tokenId",
					"type": "uint256"
				},
				{
					"internalType": "bytes",
					"name": "_data",
					"type": "bytes"
				}
			],
			"name": "safeTransferFrom",
			"outputs": [],
			"stateMutability": "payable",
			"type": "function"
		},
		{
			"inputs": [
				{
					"internalType": "address",
					"name": "operator",
					"type": "address"
				},
				{
					"internalType": "bool",
					"name": "approved",
					"type": "bool"
				}
			],
			"name": "setApprovalForAll",
			"outputs": [],
			"stateMutability": "nonpayable",
			"type": "function"
		},
		{
			"inputs": [
				{
					"internalType": "bytes4",
					"name": "interfaceId",
					"type": "bytes4"
				}
			],
			"name": "supportsInterface",
			"outputs": [
				{
					"internalType": "bool",
					"name": "",
					"type": "bool"
				}
			],
			"stateMutability": "view",
			"type": "function"
		},
		{
			"inputs": [],
			"name": "symbol",
			"outputs": [
				{
					"internalType": "string",
					"name": "",
					"type": "string"
				}
			],
			"stateMutability": "view",
			"type": "function"
		},
		{
			"inputs": [],
			"name": "toggleCombinable",
			"outputs": [],
			"stateMutability": "nonpayable",
			"type": "function"
		},
		{
			"inputs": [
				{
					"internalType": "uint256",
					"name": "tokenId",
					"type": "uint256"
				}
			],
			"name": "tokenURI",
			"outputs": [
				{
					"internalType": "string",
					"name": "",
					"type": "string"
				}
			],
			"stateMutability": "view",
			"type": "function"
		},
		{
			"inputs": [],
			"name": "totalSupply",
			"outputs": [
				{
					"internalType": "uint256",
					"name": "",
					"type": "uint256"
				}
			],
			"stateMutability": "view",
			"type": "function"
		},
		{
			"inputs": [
				{
					"internalType": "address",
					"name": "from",
					"type": "address"
				},
				{
					"internalType": "address",
					"name": "to",
					"type": "address"
				},
				{
					"internalType": "uint256",
					"name": "tokenId",
					"type": "uint256"
				}
			],
			"name": "transferFrom",
			"outputs": [],
			"stateMutability": "payable",
			"type": "function"
		},
		{
			"inputs": [
				{
					"internalType": "address",
					"name": "newOwner",
					"type": "address"
				}
			],
			"name": "transferOwnership",
			"outputs": [],
			"stateMutability": "nonpayable",
			"type": "function"
		},
		{
			"inputs": [],
			"name": "withdraw",
			"outputs": [],
			"stateMutability": "nonpayable",
			"type": "function"
		}
	]
}